:020000022000DC
:10600000000001209D670200C5670200C76702000B
:10601000C9670200CB670200CD67020000000000E4
:10602000000000000000000000000000CF67020038
:10603000D167020000000000D3670200D5670200AC
:1060400021920200D76702001D9B0200D767020061
:10605000D7670200D767020031960200D7670200B7
:10606000D7670200D7670200D7670200D767020030
:10607000D7670200D7670200D7670200D767020020
:10608000D76702005D7C0200D7670200D767020075
:10609000FD7C0200D7670200B1B60200D76702009C
:1060A000D7670200D7670200D7670200D7670200F0
:1060B000D7670200D7670200000000000000000060
:1060C000D7670200D7670200D7670200D7670200D0
:1060D000D7670200D7670200D76702000000000000
:1060E00000000000000000000000000000000000B0
:1060F00000000000000000000000000000000000A0
:10610000000000000000000000000000000000008F
:10611000000000000000000000000000000000007F
:10612000000000000000000000000000000000006F
:10613000000000000000000000000000000000005F
:10614000000000000000000000000000000000004F
:10615000000000000000000000000000000000003F
:10616000000000000000000000000000000000002F
:10617000000000000000000000000000000000001F
:10618000000000000000000000000000000000000F
:1061900000000000000000000000000000000000FF
:1061A00000000000000000000000000000000000EF
:1061B00000000000000000000000000000000000DF
:1061C00000000000000000000000000000000000CF
:1061D00000000000000000000000000000000000BF
:1061E00000000000000000000000000000000000AF
:1061F000000000000000000000000000000000009F
:1062000010B5054C237833B9044B13B10448AFF3F0
:1062100000800123237010BD6023002000000000D7
:1062200000C7020008B5034B1BB103490348AFF395
:10623000008008BD000000006423002000C70200A9
:10624000154B002B08BF134B9D46A3F5803A002148
:106250008B460F461348144A121A05F0EFFB0F4BFA
:10626000002B00D098470E4B002B00D09847002001
:10627000002104000D000D48002802D00C48AFF3A7
:10628000008005F0A9FB2000290000F04BF905F083
:106290008FFB00BF0000080000000120000000008C
:1062A0000000000060230020082D002000000000F6
:1062B0000000000072DF704773DF704776DF7047C1
:1062C0007ADF70477CDF70477FDF70478FDF704772
:1062D000B1DF704701F07ABC12F0010038B5154605
:1062E0002DD0002002F02EFE234C244B2449E41A2A
:1062F000E408240444F00304204600F007FFA90743
:106300004FF0010030D502F01DFE1D49204600F07F
:10631000FDFE6A074FF002001FD502F013FE184978
:10632000204600F0F3FE2B074FF003000DD502F0DE
:1063300009FE20461249BDE8384000F0E7BE02F0F1
:106340000DFE0D4C0D4B0F49D1E702F007FE204624
:106350000C49BDE8384000F0D9BE02F0FFFD094904
:10636000204600F0D3FEDEE702F0F8FD05492046A6
:1063700000F0CCFECDE700BF90C7020068C7020066
:1063800078BA02008CBA020008B5037803B108BDE0
:10639000054B3B211888FFF791FF0028F7D0BDE897
:1063A000084001F013BC00BFD22200200D2801D00C
:1063B00001F00CBC104B1148C01AC008000410B505
:1063C00040F003000C460E4900F0A0FE0D4B0E49B4
:1063D0001888224605F0B8F830F0080207D043F2DA
:1063E0000202904203D043F20142904200D110BD1C
:1063F000BDE8104001F0EABB68C7020090C7020088
:10640000A0BA0200D2220020D023002001F0DEBB7F
:1064100010B50388212B82B004460FD80F2B18D952
:10642000103B112B15D8DFE803F0243B145414144F
:1064300014141414141414141414141A522B52D0C7
:10644000562B08D1A0881321FFF738FF08B101F0BF
:10645000BDFB02B010BD3B2BF4D002B010BD002339
:106460008088ADF8043001A9FFF730FF0028F0D094
:10647000EDE7254B25482649C01AC008000440F026
:10648000030000F043FE234BA1882348198004F049
:106490004FFF002831D101F069FB0028D9D0D6E7A1
:1064A000194B1A481D49C01AC008000440F00300E7
:1064B00000F02CFE174B4FF6FF721A8001F06CFBB8
:1064C000F0B9174B01211878FFF7F6FE0028C0D06D
:1064D000BDE7104A0023108885211A46FFF7F4FE15
:1064E0000028B6D0B3E70B4A0023108819461A4695
:1064F000FFF7EEFE0028ACD0A9E701F067FBCAE782
:1065000001F064FBDDE700BF68C7020090C702002E
:10651000BCBA0200D2220020E8230020C8BA020040
:10652000D022002000B54FF40041A7B0002000F0B9
:1065300059FC002840F0DF8000F044FC012002F00C
:1065400019FD01F0CBFD002840F00581834840F2A1
:106550006662012101F0B2FA002840F0F98002F0F1
:1065600065FC002840F0F18005F010F8002840F0AC
:10657000E980002317A90120179305F0E3F800280C
:1065800040F0DD8017A805F09BF9002840F0D4808A
:10659000112373488DF8203005F058FA704982B203
:1065A00008A8FFF78FFE002840F0C38008220021D2
:1065B00017A805F043FA6B4B179317A84FF0C87351
:1065C0001893FFF77DFE002840F0B0806648002158
:1065D00004F0A0FD002840F0A680644B64481793A7
:1065E000002217A9089204F091FE002840F098803C
:1065F000604B6148089308A904F03EFF002840F072
:106600008C805D4B5D4C9B7C8DF806303C2241F2CA
:106610002353002108A8ADF8043005F00FFA02203A
:1066200040F201633C2200218DF8200017A8ADF84C
:10663000223005F003FA2246012501AB52F8041B73
:10664000ADF86C5008A81C9303F0D4FF002861D16A
:10665000A1684B4A17A803F0CDFF002857D1182294
:10666000002102A805F0EAF9012000234FF480750B
:1066700040248DF8080041494248ADF8143002AA80
:106680000393ADF81C500494FFF714FE00283BD18F
:106690001C22002117A805F0D1F900233A4A1793CC
:1066A000ADF86A308DF86C30384B4FF420254FF43C
:1066B0002034032117A8CDE91854CDE91C238DF807
:1066C000681004F0CBFAE0B9314B32483249C01AB5
:1066D000C008000440F0030000F018FD294B012120
:1066E0001878FFF7E9FD48B900F0D6FB0028FBD188
:1066F00002F0B2FBF8E701F069FA1DE701F066FA73
:10670000F2E701F063FADFE701F060FAC0E701F0B9
:106710005DFAA4E701F05AFA9AE701F057FA70E738
:1067200001F054FA64E701F051FA56E701F04EFA2D
:106730004CE701F04BFA39E701F048FA28E701F09D
:1067400045FA1FE701F042FA13E701F03FFA0BE7C1
:1067500001F03CFA03E701F039FAF7E6B82200202D
:10676000D8BA02005000A000BC230020D56202006D
:10677000E8230020D9620200D0230020C02200209C
:10678000CC220020D0220020896302000D64020088
:1067900068C7020090C70200E8BA02000649074A2B
:1067A000074B9B1A03DD043BC858D050FBDC00F0BC
:1067B00013F8FFF745FD0000E0C70200B8220020F3
:1067C00060230020FEE7FEE7FEE7FEE7FEE7FEE7C8
:1067D000FEE7FEE7FEE7FEE730B4B84B1B78062B7A
:1067E00020D0B74B1B68062B00F08180B54AD2F849
:1067F000883043F47003C2F88830BFF34F8FBFF383
:106800006F8F4FF01023D3F80022002AC0F2868148
:10681000D3F80432002BC0F28181AB4BAB4A1A6033
:1068200030BC7047AA4B1B681D07DAD1A94B1B6807
:1068300003F0F002302A00F09B8003F0E003402BCD
:1068400000F09680A34B1B6803F0F003302B00F0A0
:10685000A080A04B1B6803F0F002302A77D003F031
:10686000E003402B73D09B4B1B6803F0F003302BED
:1068700000F01481974B1B6803F0F002302A52D0CD
:1068800003F0E003402B4ED0924B1B6803F0F00363
:10689000302B00F0F5808F4B1B6803F0F003302B9A
:1068A00000F0D7808B4B1B6803F0F003502B7ED099
:1068B000884B1B6803F0F002302A23D003F0E0037A
:1068C000402B1FD0834B1B6803F0F002302A03D00B
:1068D00003F0E003402B84D14FF08043D3F8002431
:1068E000D20744BF6FF00102C3F8002479E77A4B66
:1068F0001B68062B7FF47AAF784A136843F48063F1
:10690000136073E7764B6D4A1B681278754903F084
:106910004F03062A0B607FF464AF6D4B1B681907A9
:106920007FF45FAFCEE7654A11784FF080430022D5
:106930000629C3F80C21C3F81021C3F838257FF4C9
:1069400050AF634B1B681B077FF44BAF9CE7664B54
:106950005A4A1B6812786549C3F34233062A0B6012
:106960007FF43FAF5A4B1B6819077FF43AAF7AE7C1
:106970005F4B524A1B6812785E49C3F30423062A10
:106980000B607FF42EAF524B1B681C077FF429AFBE
:1069900058E74A4B584A1B7858491160062B7FF438
:1069A00020AF4B4B1B6818077FF41BAF51E74FF02C
:1069B0008052534BD2F80414C3F82015D2F80814AF
:1069C000C3F82415D2F80C14C3F82815D2F8101403
:1069D000C3F82C15D2F81414C3F83015D2F81814D3
:1069E000C3F83415D2F81C14C3F84015D2F820149B
:1069F000C3F84415D2F82414C3F84815D2F8281463
:106A0000C3F84C15D2F82C14C3F85015D2F8301432
:106A1000C3F85415D2F83414C3F86015D2F83814FA
:106A2000C3F86415D2F83C14C3F86815D2F84014C2
:106A30002248C3F86C15D2F844140278C3F87015D4
:106A4000062A7FF4CEAE224B1B6818077FF4C9AE2E
:106A50002EE71A4B2B4C1B782B492C482C4A05252A
:106A6000256001250D6000243F21062B0460116084
:106A70007FF4B7AE164B1B681C077FF4B2AE11E76C
:106A80000E4B244A1B780321062B11607FF4A9AE1C
:106A90000F4B1B681D077FF4A4AEFCE61E4A074996
:106AA000D368097823F080730629D3607FF499AE08
:106AB000074B1B681A077FF494AEDBE6E00F00F08B
:106AC0003001001000ED00E0D42200200090D0033F
:106AD000E40F00F0E80F00F0340100103C17004014
:106AE00058020010E40E0040440200103C05004033
:106AF000240300104035014074C007400DF0ADBACA
:106B000000C0004010560040885600401856004013
:106B100014560040A0050040F0ED00E0184A0123A3
:106B2000C2F80435D2F80034002BFBD04FF010230C
:106B30001521134AC3F80012D2F80034002BFBD001
:106B40004FF0102315210E4AC3F80412D2F8003476
:106B5000002BFBD000230A49C2F80435D1F80034D9
:106B6000002BFBD0BFF34F8F0649074BCA6802F4D6
:106B7000E0621343CB60BFF34F8F00BFFDE700BF60
:106B800000E0014000ED00E00400FA05F0B595B02A
:106B900000241D460E460846174602F0ADF8304662
:106BA00023460822099505A91A9D08970D950A9470
:106BB0008DF82C400C9402F003F99DF814308DF8F8
:106BC0001140DDE9061003F00302012ACDE90201BC
:106BD00028D0022A04D0304602F092F815B0F0BD59
:106BE000BDF81650C3F3C2038DF81030C5F38915F4
:106BF0000827082D2C4628BF08243B4622460EA90C
:106C0000304602F0DDF82D1B214608AB02AA0EA883
:106C1000274400F0FFFD002DEBD1304602F070F864
:106C200015B0F0BDBDF81470059DC7F38312C3F312
:106C3000C2040EA93046920008238DF81040C7F315
:106C4000831702F0BDF8C5F3952508AB3A462846F0
:106C50000EA9009302AB00F065FD304602F050F83B
:106C600015B0F0BD014B01221A7070473824002086
:106C7000704700BF00B583B0044B0093044A402323
:106C8000FFF784FF03B05DF804FB00BF956C0200C2
:106C9000F823002038B50E480E4D03780E4CEB5CFF
:106CA00000252570D2B253B1043003F0CFFB58B9A0
:106CB0000A4B1B7813B12378002BFCD038BD0C3065
:106CC00003F07AF90028F3D000F080FFF0E700BF6E
:106CD000D8220020042D002038240020F423002096
:106CE0002DE9704319481A4A0378D35C88B02BB356
:106CF000043003F041FB174D0FCD6C460FC495E8EF
:106D00000F004FF0EB7684E80F004FF006084FF0CD
:106D1000FF394FF0FF344FF0FF350C480696002244
:106D20006946CDE90089CDE9024502F00FFA48B97C
:106D3000094B00221A7008B0BDE870830C3003F0D4
:106D4000D5F8D8E700F042FFF2E700BFD8220020D4
:106D5000042D002000BB0200F4230020F0B5154DE7
:106D60000FCD89B06C460FC495E80F004FF0EB7C57
:106D700084E80F0006264FF0FF374FF0FF344FF046
:106D8000FF350D4A0D48CDF818C06946CDE90067BA
:106D9000CDE9024502F0DAF920B9094B01221A7057
:106DA00009B0F0BD00F012FF054B01221A7009B0C6
:106DB000F0BD00BF00BB0200656C0200D8220020BD
:106DC000F423002008B5FFF7C9FF0448042100F0B0
:106DD00025FC034B01225A7108BD00BFC8C7020041
:106DE000EC22002038B50C4B0C4800240025002272
:106DF000C3E90045FF21C3F81824996083F82024D3
:106E0000C3F8142401F02CFF044610B9044802F022
:106E10004DF8204638BD00BF1025002054C70200A1
:106E200058BB020099B10E4B0E495B1ADB0815D016
:106E300030B400220C4D02E0013293420BD035F801
:106E400022408442F8D151F8320030BC70470549E5
:106E500051F830007047002030BC7047184670472A
:106E6000C8C7020068C702005C230020094B013933
:106E700003EBC00003290BD8DFE801F00402080689
:106E800004207047022070474079704700797047AE
:106E90000020704768C702002DE9F047954CD4E9FF
:106EA00000239A4284B063D00023C4F81834BFF39F
:106EB0004F8FD4E9013503EA0501CA1C04EB8206B1
:106EC00014F82220500719D52768327802F00302FF
:106ED000012A43D0022A03D17288023303EB9213B2
:106EE00005EA0301D4F81804CA1C04EB820628B989
:106EF0009F4239D914F822205207E6D404EB8101CD
:106F00005A1CC96801912A4004EB820201F0030176
:106F1000D2680292022903F102062DD0012900F065
:106F20009580D4F810543DB12B6828469B6898474B
:106F3000EB681D68002DF7D16F48704B7049C01A7F
:106F4000C008000440F0020000F0E0F8D4E900308E
:106F5000C01A18BF012004B0BDE8F08732880233A0
:106F6000C2F383121344BBE7676004B0BDE8F08747
:106F7000002004B0BDE8F087BDF806306148C3F3D7
:106F80008919B9F1500FC84628BF4FF0500868F36F
:106F90008F1308F10801ADF8063001F063FE0746D3
:106FA0000028BED001F0A8FE0023082201A938461F
:106FB00001F0D2FE25EA06030133B8EB830F4FEA56
:106FC000830A7DD9BAF1000F00F08D8005EA060131
:106FD0000331A8EB0A0804EB810108235246384626
:106FE0005FFA88F801F0B8FE474942460AF1080303
:106FF000384601F0B1FE09F1030906EB9906D4F811
:107000001834002B6BD1D4F8105465B1EB685A7961
:1070100028463946002A5ED02B681B689847EB68E3
:107020001D68002DF2D1384601F06AFE00230DF1F3
:1070300003008DF8033001F049F9D4F8183403B98E
:1070400066609DF8030001F067F97FE7BDF8043042
:107050002C48C3F38312062A28BF0622911C62F330
:1070600089138900ADF8043001F0FCFD07460028C3
:107070003FF457AF01F040FE0023082201A9384633
:1070800001F06AFEBDF8043013F4707FB7D04FF002
:107090000008314629404FEA88030331083304EBE6
:1070A00081010422384601F057FEBDF8043008F192
:1070B0000108C3F38313434506F10106E9D89EE7AF
:1070C00005EA0601033104EB8101424608233846F4
:1070D00001F042FE8FE71D68002D97D1A3E73846E7
:1070E00001F00EFE32E7084942460823384601F017
:1070F00033FE80E71025002090C7020068C7020019
:1071000040BB020054C702001C2500202DE9F04FAF
:10711000644C87B0002306460DF10B008DF80B3050
:10712000A568019101F0D2F8D4E9012327681A4437
:107130000132D21B012A00F2858004F21C4804F5BA
:10714000836A04F214491BE0BDF80E30C3F38913BF
:107150000333090C0BEB930B4846009101F068F9DF
:10716000009900283ED04046C4F804B001F034F93C
:10717000D4E90113226819440131891A012962D81E
:107180000121404601F028F9504601F041F94846F6
:1071900001F03EF9D4E9013C03EA0C02D11C04EBF6
:1071A000810014F821E01EF0040F0EF0040129D133
:1071B00004EB8202591CD268039201EA0C0104EB31
:1071C000810102F00302012AC96803F1020B32D0E7
:1071D000022AB9D000214846009101F029F900990E
:1071E0000028C0D14046C1E743880BEB93130CEA5B
:1071F0000302D11C04EB810014F8211001F00401FA
:107200000029D5D090F800E00EF0030EBEF1010F7A
:107210000BD0BEF1020F03F1020B02F1030EE3D01B
:1072200004EB8E000029EDD1C2E702880233C2F3DD
:1072300083121344DBE7BDF80C30C3F38313090C4E
:107240009B4489E73A4613400333023205219DF8F7
:107250000B0044F82310226001F05EF80021124870
:1072600001F090F880F31000F1007B1C2B40019A94
:1072700001F038013D4004EB830341F001010004BB
:10728000033540EA164641EA8221DE6044F82510C3
:1072900094F820341BB1FFF7FFFD0028FBD107B0A5
:1072A000BDE8F08F102500202C2900202DE9F04F9B
:1072B000684C89B0002307460DF11300CDE9021296
:1072C0008DF81330A56801F001F8D4E90123266890
:1072D0001A440132921B022A00F2858004F21C48F3
:1072E00004F5836A04F214491BE0BDF81630C3F3B9
:1072F00089130333090C0BEB930B4846019101F002
:1073000097F8019900283ED04046C4F804B001F037
:1073100063F8D4E90113226819440131891A02295A
:1073200062D80121404601F057F8504601F070F84C
:10733000484601F06DF8D4E9013C03EA0C02D11C87
:1073400004EB810014F821E01EF0040F0EF004019C
:1073500029D104EB8202591CD268059201EA0C0182
:1073600004EB810102F00302012AC96803F1020B58
:1073700032D0022AB9D000214846019101F058F8D4
:1073800001990028C0D14046C1E743880BEB931315
:107390000CEA0302D11C04EB810014F8211001F067
:1073A00004010029D5D090F800E00EF0030EBEF1E4
:1073B000010F0BD0BEF1020F03F1020B02F1030E1D
:1073C000E3D004EB8E000029EDD1C2E7028802333E
:1073D000C2F383121344DBE7BDF81430C3F3831305
:1073E000090C9B4489E7324613400333033245219D
:1073F0009DF8130044F82310226000F08DFFB31CA9
:107400002B4004EB8303039A1348DA60002100F059
:10741000B9FF80F31000F900731C2B40029A01F0B1
:107420003801354004EB830341F04101000403358A
:1074300040EA174741EA8221DF6044F8251094F8BA
:1074400020341BB1FFF728FD0028FBD109B0BDE8AF
:10745000F08F00BF102500202C2900202DE9F04FCF
:107460006C4C89B0002607460DF11300CDE90112DE
:1074700003938DF81360A56800F028FFD4E9012379
:1074800026681A440132921B032A00F2858004F216
:107490001C4804F5836A04F214491BE0BDF8163059
:1074A000C3F389130333090C0BEB930B484600918C
:1074B00000F0BEFF009900283ED04046C4F804B05A
:1074C00000F08AFFD4E90113226819440131891AB6
:1074D000032962D80121404600F07EFF504600F0AB
:1074E00097FF484600F094FFD4E9013C03EA0C0200
:1074F000D11C04EB810014F821E01EF0040F0EF003
:10750000040129D104EB8202591CD268059201EAD8
:107510000C0104EB810102F00302012AC96803F1A6
:10752000020B32D0022AB9D000214846009100F067
:107530007FFF00990028C0D14046C1E743880BEB8C
:1075400093130CEA0302D11C04EB810014F8211000
:1075500001F004010029D5D090F800E00EF0030EF0
:10756000BEF1010F0BD0BEF1020F03F1020B02F1CD
:10757000030EE3D004EB8E000029EDD1C2E70288B0
:107580000233C2F383121344DBE7BDF81430C3F3B4
:107590008313090C9B4489E73246134003330432BA
:1075A00085219DF8130044F82310226000F0B4FEFA
:1075B000B21C2A40F31C2B4004EB820204EB830C28
:1075C000029BD3600021039B1348CCF80C3000F0E1
:1075D000D9FE80F31000F900731C2B40019A01F0D2
:1075E0003801354004EB830341F081010004033589
:1075F00040EA174741EA8221DF6044F8251094F8F9
:1076000020341BB1FFF748FC0028FBD109B0BDE8CE
:10761000F08F00BF102500202C29002030B4154D1C
:10762000D5F810140446002071B10B4601E01B6828
:1076300053B1DB681A798242F9D101300A28F3D1BB
:107640004FF0FF3030BC7047E3681871D5F8103444
:107650004BB1DA68E36812681A60D5F81034DB6859
:107660001C6030BC7047C5F81044E268136030BC41
:10767000704700BF1025002038B5094BD3F81044DF
:10768000012583F820544CB1E3685D7123682046DE
:107690005B689847E3681C68002CF5D138BD00BFD3
:1076A0001025002030B5C38885B004460D461BBBAD
:1076B000217A05291ED0627A82B9134AA08852F82D
:1076C000212003920021FFF7ADFB039A0F490346E7
:1076D000284605B0BDE8304000F026BFA088FFF77F
:1076E000C5FB0B4B0B4953F82020284600F01CFF2C
:1076F000217AE2E705B030BD074A00920749084AFF
:10770000284600F011FFD3E730BC020090BB020016
:107710000CBC02008CBB020084BB02006CBB0200EC
:1077200064BB02002DE9F04385B04FF0000C0C9CC7
:10773000814694F80C8084F80CC00E461746184613
:1077400021461D46FFF7AEFF062F09D8DFE807F0F8
:10775000042E343B444F1F004946204600F0E4FE0F
:107760002B7A052B05D06B7A5BB92749204600F0B0
:10777000DBFE204600F0CCFE84F80C8005B0BDE8AE
:10778000F083224A2249204600F0CEFEEDE7D6E9FA
:107790000413F2680393B3680291CDE900324946BD
:1077A000D6E90023204600F0BFFED9E732684946FB
:1077B000204600F0B9FED3E7D6E90023494620462B
:1077C00000F0B2FECCE7B3680093D6E90023494647
:1077D000204600F0A9FEC3E7D6E9023201920093E9
:1077E000D6E900234946204600F09EFEB8E7D6E9D8
:1077F0000321B3680291CDE900324946D6E900235E
:10780000204600F091FEABE79CBB020084BB020067
:107810008CBB0200082900D970472DE9F04F9B4628
:1078200083B000241B7B8BF80C400D46064659465E
:10783000104690460193DFF8D0902C4FFFF732FFAF
:1078400005E0325D013400F06FFE082C09D0A5423E
:1078500039465846F5D84946013400F065FE082CF3
:10786000F5D12349DFF8A490224C234F584600F06D
:107870005BFE4FF0000A0DE0D15D11F0970F08BFDD
:107880002E22214658460AF1010A00F04DFEBAF1B7
:10789000080F10D0554505D916F80A207E2AEBD9D5
:1078A0002E22EEE7494658460AF1010A00F03CFE56
:1078B000BAF1080FEED198F80830052B02D098F8ED
:1078C000093063B90D49584600F02EFE584600F0C5
:1078D0001FFE019B8BF80C3003B0BDE8F08F084A07
:1078E0000849584600F020FEECE700BFA0BB0200AC
:1078F000ACBB0200B0BB0200F9C502009CBB020099
:1079000084BB02008CBB0200A8BB020098BB020033
:107910002DE9F04F3D4B93F800E087B0BEF1000F2A
:107920005FD00027DFF8F08002973C46012506E093
:10793000029B013302939DF80840A64551D9344B70
:10794000D8F800101E68D8F8042016F83400A0F10A
:10795000200BC0F1200305FA0BFB25FA03F34BEAD9
:10796000030305FA00FC01EA0C0902EA030A06EB2C
:10797000C40759EA0A0B0397DAD021EA0C0122EA7C
:107980000303C8E9001301F049FE16F83430214A18
:10799000C3F1200CD2E90067A3F1200E614600FA82
:1079A0000EF405FA0EF225FA01F105FA03FE20FAAB
:1079B0000CFC0A430EEA060144EA0C0404913A4026
:1079C00000FA03F1009101940592DDE90412DDE96A
:1079D00000BC624508BF594506D00C4B93F800E047
:1079E000A6E707B0BDE8F08F03994A68002AF4D0F3
:1079F0004978A1F10101B1FA81F14909091AB1FAF5
:107A000081F1490918469047E7E700BFCC290020DB
:107A1000082A0020F8290020002A00202DE9F84338
:107A20008046224800F016FCE0B9214D4FF0010CD1
:107A3000D5E90023A8F12004C8F120012CFA01F1B6
:107A40000CFA04F40C430CFA08F902EA090603EAFA
:107A5000040756EA070107D022EA090223EA0404D0
:107A6000C5E90024BDE8F883404601F0D7FD114B7D
:107A70001E68A8B9586826EA090620EA0400D5E974
:107A800000211E600C4E586042EA09020C432A6035
:107A900031686C600548BDE8F843002200F084BB03
:107AA000586849EA06062043E9E700BFD4290020C8
:107AB000002A0020F8290020D0290020042A3BD9E0
:107AC0002DE9F04182B0144605460E4601F028FC2F
:107AD00068B31E491E4A1F4B0D601F481F491C609A
:107AE000167000230022741EC0E90023C1E90023A0
:107AF000E4B21EB3DFF8708005EBC4040027032650
:107B000002E0AC421AD01C46A37820788DF80530EC
:107B1000424601A98DF806708DF8046001F00AFC58
:107B2000A4F108030028ECD002B0BDE8F08101F018
:107B3000ADFB0028CDD0F7E707207047084A094879
:107B4000002100F01FFB02B0BDE8F081082A0020F0
:107B5000CC290020D0290020F8290020002A00206C
:107B60001179020044BC02001D7A020070B5084D74
:107B70002B785BB1074E00243368012113F83400E1
:107B800001F0BCFC2B780134A342F5D8002070BD75
:107B9000CC290020082A002070B5094D2B7853B15C
:107BA000084E0024336813F8340001F005FD2B78EB
:107BB0000134A342F6D8BDE87040034800F04ABB48
:107BC000CC290020082A0020D429002000B585B047
:107BD0000346002101AA44F20100CDE901110393FB
:107BE00000F004F805B05DF804FB00BF10B572B6F4
:107BF000FFF742FDFFF750F90028FBD1104B114C65
:107C00001149E41AE408240444F00100FFF77EFA65
:107C10000E4B1B68DB0700D500BE0D4944F0020087
:107C2000FFF774FABFF34F8F0A490B4BCA6802F48F
:107C3000E0621343CB60BFF34F8F00BFFDE700BF8F
:107C400068C7020090C7020048BC0200F0ED00E0E7
:107C500054BC020000ED00E00400FA05F8B520492C
:107C6000204B0024C1F84041C1F84441C1F84841CB
:107C7000C1F84C41C1F80041C1F804411B6833B35D
:107C80001948D1F8045501681A686D1A25F07F4526
:107C9000AA4227460DD8197CDE69AD1A144419B1E1
:107CA000D3E905201F7490471EB133461A68AA42D3
:107CB000F1D90E490E4A0B7812789A4208D00D4934
:107CC0000D4A41F823404FF48013C2F80031F8BD4B
:107CD000531CDBB2022B08BF00230B70EFE700BF81
:107CE000001001402C2B0020282B0020252B0020E9
:107CF000242B00201C2B002000E100E02DE9F04F98
:107D0000B34AB44913780978994285B000F0888164
:107D10000133DBB2022B08BF0023AF481370AF4A18
:107D20000568DFF8D08252F82310D8F800606B188D
:107D300023F07F430360002E00F0C181002007463E
:107D4000044684463346AE4613E0D868DD69C3F87E
:107D500000C0891A144438B10EEB040222F07F42AD
:107D6000C3E90120DF611F460120002D00F05F8183
:107D70002B461A688A42E8D9002800F08B81C8F89F
:107D800000309946521A1A6001230093944B954E85
:107D9000DFF864A243F0010301934D464FF0000B5E
:107DA000002F31D0D7E901303C46FF698A4ADFF81D
:107DB0004CC21268991A21F07F41614500F2DD80C2
:107DC0000B18236000220121C4E90122E261217421
:107DD000002D00F0F3802A689A4280F0E88029465E
:107DE00005E0D1F800E09E4580F0CF80724608465D
:107DF000C9699C469B1A0029F3D12360E161C461E3
:107E00002C462546002FCDD170783378984247D044
:107E10009C460CEB4C0CB27806EBCC0C591CCBB24C
:107E20009A429CF80420337004BF00233370022A66
:107E3000DCF8084024D0032A18D0012AE6D1227C9D
:107E4000002AE3D1DCF80C306360DCF81000A0609D
:107E5000DCF81410E1609AF800E0DCF81810A16179
:107E6000BEF1000FA2D0626013469FE7002DCDD077
:107E700000232B74ED69002DFBD1C8F80050C3E737
:107E800055B1AC4200F0BC802A4601E0944239D0A2
:107E90001146D269002AF9D1002222749842B7D142
:107EA000BBF1000F01D1A94541D0002D44D04A4A71
:107EB0004D4B1468D3F804654C4FD5F800803A78E0
:107EC000351B25F07F450335002A00F0B580464A72
:107ED000A8452CBF4444641924F07F44C2F84045AF
:107EE000D2F804359B1BA41B23F07F4324F07F446E
:107EF0000333A34200F2B98000238AF8003005B0B2
:107F0000BDE8F08F8C427DD0E0692268C86100280E
:107F100058D0AC46036813440360AC4552D00022ED
:107F200033787078227465464FF0010BB6E7009BFA
:107F3000002BE1D0002DBAD12B4E2D4A284C4FF406
:107F400000314FF480330127C2F880103C43C6F85B
:107F500048334FF43C60C6F808337760A0471E4BA7
:107F6000B7604FF43C601D60A047204B1D7000239C
:107F70008AF8003005B0BDE8F08FD31A23F07F43B4
:107F800083420BD2C31A23601CE77244A2EB0C029B
:107F90000A602360E161C4612C4632E700230122BC
:107FA000C4E90033A360E36122743DB12A68C8F8D4
:107FB0000040D31A2B60E561254623E7C8F800404E
:107FC00025461FE7002233787078227466E700BFE9
:107FD000242B0020252B0020282B00201C2B0020E8
:107FE00070BC02000C2A002000100140192B002058
:107FF00000E100E02C2B0020182B0020FEFF7F006A
:1080000029462A46D5F81CC0C8F800C0BCF1000FAC
:1080100042D0D0691268C86100287FF47BAF7CE74A
:10802000DFF8B4800027D8F800900097AEE6A946A4
:10803000C8F800500090A9E62349244A4FF4803044
:10804000C3F844034FF00109C3F804034FF40030B0
:10805000C1F8800142F001020860C3F800904FF4BB
:108060003C60904787F8009031E7184BD2F8041530
:10807000C2F8401543F001034FF43C609847124B9F
:108080004FF40032C3F8002100238AF8003005B015
:10809000BDE8F08FB14675E6CDE902210C4A0D48E6
:1080A00001239360C0F800C08AF800304FF43C60B0
:1080B000019B9847DDE90221D8F800C0A9E7012318
:1080C000B1463746009361E600E100E070BC020073
:1080D00000100140282B00202C2B00202DE9F84314
:1080E0001F4D204E204FDFF898804FF480334FF41F
:1080F00000324FF001090024C6F8802047EA090742
:10810000C5F848334FF43C60C5F80833C5F804900F
:10811000B847C5F808904FF43C60C8F80040B8472D
:10812000124A134B13491C601470134B134A0C7002
:108130000B2114701C8099704FF48012C023C6F874
:10814000802186F814333260C5F8084586F811336B
:10815000D5F80435C8F800302046BDE8F88300BFE4
:108160000010014000E100E070BC0200192B00206B
:108170002C2B0020242B00200C2A0020252B002053
:10818000282B0020074B9B783BB142B138B10368E4
:10819000187C10B959745A6170470820704707203D
:1081A000704700BF0C2A00202DE9F043264EB3781B
:1081B00083B0002B3AD00446002837D004290D465E
:1081C00038D9436993B3437C0027012B0DF1070095
:1081D0000CBF8846B84691468DF8077000F076F8D7
:1081E0007378B0783278591CC9B2884208BF3946D2
:1081F0008A4223D003EB430306EBC3030120134A57
:1082000018719C60D2F804259DF807007170C3E9CD
:108210000325C3E9058900F07FF80D4B4FF4801268
:108220003846C3F8002103B0BDE8F083082003B04E
:10823000BDE8F083072003B0BDE8F0839DF8070098
:1082400000F06AF80420EEE70C2A0020001001403C
:1082500000E100E070B51B4EB37882B04BB304462A
:1082600038B343692BB3002505740DF107008DF871
:10827000075000F02BF87378B07831785A1CD2B2DE
:10828000904208BF2A46914216D003EB430306EB07
:10829000C30302219DF807009C601971727000F001
:1082A0003BF8094B4FF480122846C3F8002102B076
:1082B00070BD082002B070BD9DF8070000F02CF8DA
:1082C0000420F4E70C2A002000E100E070B4EFF392
:1082D000108472B60D4B9A68AAB90D490D4E01254E
:1082E0009D60D1F8805035401D60C1F88060D1F8A4
:1082F00084505D604FF0FF33C1F88430027004B9E0
:1083000062B670BC704701230370F8E7F82C0020B8
:1083100000E100E0FC06FFBD094B9A687AB170B934
:1083200010B4EFF3108172B6064A1C6814605C68E2
:108330005460986001B962B65DF8044B70477047AD
:10834000F82C002000E100E04A09012301F01F01A0
:1083500000EB820003FA01F100F022B801F01F02E5
:1083600001234909934000EB8100D94300F026B86E
:108370004B0901F01F0150F82300C84000F0010034
:10838000704700BF10B4034653E8000F0A4643E8A5
:10839000002494F0000FF7D15DF8044B704700BF44
:1083A00010B4034653E8002F42EA010043E80004FA
:1083B00094F0000FF6D15DF8044B704710B40346FB
:1083C00053E8002F02EA010043E8000494F0000F94
:1083D000F6D15DF8044B704710B4034653E8002F04
:1083E00002EB010043E8000494F0000FF6D15DF8C1
:1083F000044B704710B4034653E8002FA2EB010072
:1084000043E8000494F0000FF6D15DF8044B704788
:1084100010B40346012253E8001F41EA020043E87A
:10842000000494F0000FF6D15DF8044B704700BFD4
:1084300010B40346002253E8000F00EA020143E8AB
:10844000001494F0000FF6D15DF8044B704700BFA4
:10845000B8B130B4D0E90112521A0468D2B2531E36
:108460002160DBB242B101680A685C1E551C0D60D8
:108470001370E3B2FF2BF6D103680020187130BCF3
:1084800070470E20704700BFF0B583B0044600254A
:108490000DF107008DF80750FFF718FFD4E9003100
:1084A0001A688A4210D9511E19602168A3680F68A2
:1084B00012F8015C0A79268AE068DB1BDBB29A427B
:1084C00006FB050538BF0B719DF80700FFF724FF79
:1084D000284603B0F0BD00BF30B5054683B0002389
:1084E0000DF107000C468DF80730FFF7EFFE2A6804
:1084F0001368591C1160E9682A8A641AB4FBF2F403
:108500001C709DF80700FFF707FF03B030BD00BFE8
:10851000826842B110B50446436901680069984712
:108520000023A36010BD70470EB400B582B003995C
:1085300021B104AB01AA019300F0ACF802B05DF8E0
:1085400004EB03B0704700BF2DE9F04F164683B02F
:10855000B142DDE90C920F4605469A46C0F095807F
:108560000B464FF00108B3FBF6F39E4208F10108F9
:10857000F9D9D04538BFD04612F00103019302D19A
:10858000B9F1000F5ED1AA68012403E00AF1FF3AB5
:1085900006FB04F4BAF1010FF8D8B7FBF4F39E42DE
:1085A000F6D9DFF8ECA007E0B442B4FBF6F31AD337
:1085B000AA681C46B7FBF3F31AF803B0BBF10A0F25
:1085C00004FB137728D02B68511CA96003F802B074
:1085D000D5E901329A42E7D32846FFF799FFB4FB69
:1085E000F6F3B442E4D2019B9BB1B9F1000F10D075
:1085F0002024C84509F1FF390BD2AB682A68591C01
:10860000A960D454D5E901329A4214D2B9F1000FCD
:10861000EFD103B0BDE8F08F511C2B68A9604FF07B
:108620000D019954D5E901329A42CCD32846FFF77F
:108630006FFFAA68C7E72846FFF76AFFB9F1000F86
:10864000D7D1E6E793071AD42024AA68C84502F1D7
:10865000010199D22B68A9609C54D5E901329A4254
:1086600009F1FF3903D2B9F1000FEFD18CE72846A9
:10867000FFF74EFFAA68B9F1000FE7D184E7BAF11E
:10868000000F0CBF30242024DFE74FF0010870E713
:1086900078BC0200002900F054822DE9F04FDFF889
:1086A000B8950C7885B0064690460D464FF00D0AF9
:1086B00010E00A2CB36800F0AD803268591CB1603C
:1086C000D454D6E901329A4280F0A0802C78002C54
:1086D00000F087800135002C00F08380252CE8D144
:1086E000294600270D4611F8012B2D2A00F088801D
:1086F000302A00F088802B2A7AD02A2A00F099802C
:10870000A2F13003092B4FF000040BD804EB8404D2
:1087100002EB440415F8012FA2F13003092BA4F158
:108720003004F3D92E2A00F09080002301E015F8E0
:10873000012F02F0FB016829F9D0252A00F077818A
:10874000583AD1B2202947D8202A45D8DFE812F07C
:108750003501440044004400440044004400440007
:108760004400440044004301130144004400440019
:108770004400130144004400440044004400440009
:10878000D20044004400A20044009400440044008D
:10879000350101209842024638BF1A460292002C49
:1087A00040F05081B80740F16E81002B40F04E82BE
:1087B0001C46BBF1000FC0F20A827A0700F11A8250
:1087C00007F00302022A00F0EA81CDE9004759468A
:1087D0000A223046FFF7B8FE01352C78002C7FF4D2
:1087E00079AF337B002B40F01C8105B0BDE8F08FE2
:1087F0000D4611F8012B2D2A47F004077FF478AFBE
:1088000047F001076EE747F002076BE73046FFF7D6
:108810007FFE5BE73268591CB16002F803A0D6E91D
:1088200001239342FFF449AF3046FFF771FEB3686E
:1088300043E7D8F800301A1DC8F800206A781C6891
:108840002E2A05F101057FF470AF6A78A2F130039A
:10885000092B05F101054FF000033FF66AAF03EB6A
:10886000830302EB430315F8012FA2F1300109291C
:10887000A3F13003F3D95CE7D8F80020111DC8F844
:10888000001011683046CDE900470A22FFF75CFE70
:108890000135A2E7D8F800301A1DC8F8002017F0FB
:1088A0000107D3F800B040F0F080BBF1000F03D017
:1088B000584603F0CBF80746BC4240F24381002CF7
:1088C00000F04081202205E0BC4200F03B81002CFA
:1088D00000F03881B1683368481CB0605A54D6E95A
:1088E0000130984204F1FF34EED33046FFF710FE1A
:1088F0002022E9E7D8F80020131DC8F80030B3683B
:1089000031681768581C3022B060CA54D6E9012378
:10891000934280F0EF803268581C7821B060D154C7
:10892000D6E901329A4280F0E0800F2F03D93B460E
:108930001B090F2BFCD84FF0805406E00F2C4FEA98
:1089400014137FF649AFB2681C46B7FBF4F319F86D
:1089500003B0BBF10A0F04FB137754D03368511CEA
:10896000B16003F802B0D6E901329A42E6D330464C
:10897000FFF7CEFDE2E7D8F80020111DC8F800107F
:10898000D2F800B08BEAEB72A2EBEB72092A7FF708
:1089900000AFDFF8C8C2012011466329ACFB02E238
:1089A00000F101004FEAD202F6DC9842024638BFDD
:1089B0001A460292002C45D1F4E6D8F80020111D89
:1089C000C8F8001011683046CDE900471022FFF7C3
:1089D000BBFD013501E7D8F800301A1DC8F80020AA
:1089E0001C78B3680A2C00F011813268591CB16000
:1089F000D454D6E901329A42FFF4EEAE3046FFF786
:108A000087FD0135E9E63368511CB16003F802A027
:108A1000D6E901329A42A1D33046FFF779FDB26818
:108A20009CE7304605B0BDE8F04FFFF771BDB36875
:108A30003168581CB060CA54D6E901329A42DDD27E
:108A40000135CAE6BBF1000F59DB7A0757D4B807E6
:108A500002D5002B3FF4ADAEF9073FF5AAAE94B1B5
:108A600020220299A142BFF4A4AEB168481CB060B4
:108A700030684254D6E90101814204F1FF3480F0AC
:108A8000D480002CEDD1002493E69BF80030002B1D
:108A900000F0E080B0685F46CBF101020A2B02EBE8
:108AA000070B3CD0411CB16031680B54D6E9013052
:108AB000984226D217F8013F002BEFD15C457FF694
:108AC0008BAE202702E05C453FF486AEB268336887
:108AD000511CB1609F54D6E901329A4204F1FF342F
:108AE000F1D33046FFF714FDEDE73046FFF710FDF8
:108AF000B2681AE73046FFF70BFDB3680BE7013C9D
:108B0000A5E730460292FFF703FD17F8013F002B5F
:108B1000D4D0029AB0680A2B02EB070BC2D1411CD9
:108B2000B160316801F800A0D6E901108842B9D3DC
:108B30003046CDE90232FFF7EBFCDDE90232B068E6
:108B4000B0E770479BF80040002C3FF445AE0A2C7C
:108B5000B0680ED03368421CB2601C54D6E90130B4
:108B6000984214D21BF8014F002C3FF435AE0A2C6A
:108B7000F0D13368421CB26003F800A0D6E901309E
:108B80009842E7D33046FFF7C3FCB068E2E73046CF
:108B9000FFF7BEFC1BF8014F002CD8D11CE6002BC0
:108BA0007FF413AE8CB130220299A142BFF40DAE16
:108BB000B168481CB06030684254D6E90101814276
:108BC00004F1FF343BD2002CEED10024FDE5B16866
:108BD0004A1CB26032682D205054D6E901219142DE
:108BE000CBF1000BFFF4ECAD30460393FFF790FCA4
:108BF000039BE5E5B1684A1CB26032682B205054F3
:108C0000D6E901219142FFF4DBADEDE73268591C52
:108C1000B16002F803A0D6E901239342FFF4E5AE68
:108C20003046FFF775FCB368DFE630460393FFF785
:108C30006FFC039B2022002C7FF413AF23E7304608
:108C40000393FFF765FC039B3022BCE7F9073FF570
:108C5000B0AD18E79B4631E778BC0200CDCCCCCC58
:108C6000FFF7F6BB2DE9F041058A0331043D4E19AB
:108C70008046B6FBF5F6FFF707FCA0B3F6B24FF45B
:108C80008073013E0446C580C0F8008083802BD0ED
:108C90000346002508E06279AE4202F101026271EA
:108CA0003860C0F800801FD040461F46FFF7ECFB3D
:108CB000013503460028EED16779791E17D0224688
:108CC000013399421268FBD1D2F800805FB1266867
:108CD000002501E034463668214601354046FFF75D
:108CE000FBFBAF42F6D800242046BDE8F0812068A7
:108CF0002146FFF7F1FBF6E704300121FFF76CBBDB
:108D00002DE9F041012104460430FFF773FB10F018
:108D1000FF0301D0BDE8F0816779791E16D02246A5
:108D2000013399421268FBD1D2F80080002FF1D0B4
:108D30002668002501E03446366821460135404664
:108D4000FFF7CAFBAF42F6D8BDE8F08120682146A4
:108D5000BDE8F041FFF7C0BB2DE9F8430546C688E2
:108D60004079144606FB00F2043A04EB030C1F1D85
:108D7000624538BFD41ABE428846B7FBF6F106FBFF
:108D8000117002D801392D68FCD1371AA74228BFCB
:108D900027469CB14FF000090430E41B28443A46B2
:108DA00008EB090102F03CFEA642B9442D683746A3
:108DB0004FF0000028BF2746002CEDD1BDE8F88316
:108DC0002DE9F8430546C6884079144606FB00F2B3
:108DD000043A04EB030C1F1D624538BFD41ABE428F
:108DE0008846B7FBF6F106FB117002D801392D68F1
:108DF000FCD1371AA74228BF27469CB14FF0000983
:108E000004302918E41B3A4608EB090002F008FE7A
:108E1000A642B9442D6837464FF0000028BF2746C8
:108E2000002CEDD1BDE8F88341DF7047064A074BBF
:108E300010B5002414701C60BFF35F8F044905480F
:108E400000F042F8204610BD382B00203C2B0020BB
:108E500094BC0200302B002000B583B000230DF13C
:108E600007008DF80730FFF731FAF1EE103A23F0E2
:108E70009F03E1EE103ABFF35F8F0B4B4022C3F824
:108E800084219DF80700FFF747FA02F00BFC28B990
:108E900020BF40BF20BF03B05DF804FBFFF7C4FF55
:108EA00003B05DF804FB00BF00E100E0826800232E
:108EB000936082681361826853618268D3608268BC
:108EC000536082681360704701600B6843604A68B2
:108ED000934204BF00234360704700BF436843B11F
:108EE000026891680B4443605268934204BF0023B8
:108EF00043607047114910B4A1F5947205E052F82F
:108F00003330984238BF21460CD28C1AE30F03EB62
:108F1000E4035B10914202EBC304F0D808485DF80B
:108F2000044B704702D904F10802EEE76068044B75
:108F30005DF8044B002808BF18467047C8C10200FE
:108F40008CC00200044B195C4FF0A04201238B40FF
:108F5000C2F80C35704700BFC8C10200044B195C51
:108F60004FF0A04201238B40C2F80835704700BF84
:108F7000C8C10200C20730B41AD54FF0A043032283
:108F8000C3F844274FF40035C3F848274FF4802432
:108F9000C3F84C274FF40021C3F850274FF4801238
:108FA000C3F80855C3F80845C3F80815C3F80825E1
:108FB00083070AD54FF0A0430C22C3F83427C3F827
:108FC0003827C3F83C27C3F8402730BC704700BFA0
:108FD00010B568B90E4CA368012262703BB1D3E9A9
:108FE00000230020A2609847A368002BF7D110BD92
:108FF0000128FCD1064C2369A070002BF7D0D3E9DF
:1090000000230120226198472369002BF7D110BD6E
:10901000402B002070B910B5074CA3680122627084
:109020003BB1D3E900230020A2609847A368002B3E
:10903000F7D110BD704700BF402B002030B501288C
:1090400083B004D003281DD0B0B103B030BD224C92
:1090500000230DF107008DF80730FFF737F923786B
:109060004BB3E3689DF8070001330122E360A2706F
:10907000FFF752F903B030BD184B0122C3F880202E
:1090800003B030BD144C00F0ADF800230DF1070023
:109090008DF80730FFF71AF9E368013BE360E568F4
:1090A0002DB19DF80700FFF737F903B030BD00F090
:1090B000ABF8A570F5E70A486360A3602361E3603D
:1090C00000F084F802F0EEFA10B101232370C8E733
:1090D00000F088F8F9E700BF402B002000E100E035
:1090E000D18F020030B585B0047845688DF8004016
:1090F000D0E90240064A074B039053F8213001950E
:1091000052F821108DF808406846984705B030BDE8
:10911000542B0020582B002030B585B004784568CA
:109120008DF80040D0E90240064A074B039053F8FF
:109130002130019552F821108DF808406846984773
:1091400005B030BD542B0020582B0020F0B51A4B31
:1091500090F800C0194C1A4D91F81DE044F82C20ED
:109160000746086945F82C0003F80CE00C46164643
:109170000FCC89B06D460FC594E80F0085E80F004D
:10918000CDF810C0BEF1000F0AD0002E0D4A69467E
:1091900007F1040008BF324601F00CF809B0F0BD39
:1091A000002E094A694607F10C0008BF324600F05C
:1091B000CFFD09B0F0BD00BF042D0020582B0020CA
:1091C000542B0020E590020019910200044A137903
:1091D00023B901211060918018467047852070479F
:1091E0005C2B0020074B1A68D20704D4C02101224F
:1091F00083F800131A604FF080430122C3F818254A
:10920000704700BF00E100E0044B01221A604FF0FC
:109210008042D2F81834DB03FBD470470C000040C6
:1092200010B5174B1A6882B062B10021154A196057
:109230001B68507900934FF080410123009CC1F8D6
:10924000083398B1104B1A68BAB100221A601B6833
:1092500001934FF0804202210A4B0198C2F8081393
:109260001B68012002B0BDE8104018471168537117
:109270008847054B1A68002AE7D102B010BD00BF2D
:10928000000100405C2B00200401004030B5204C60
:1092900094F8585083B0002D36D14FF0FF304FF086
:1092A000FF314FF0FF33C4E90001C4E90C01C4E908
:1092B0000E01C4E91001C4E912010422294604F197
:1092C0005400C4E90233C4E90433C4E90633C4E9F1
:1092D0000833C4E90A33236502F0B0FB0D4A0E4B94
:1092E0000E491D60C02082F80603402010601B68F4
:1092F000019301984FF000430122284684F858203A
:10930000C1F8043303B030BD082003B030BD00BF46
:10931000682B002000E100E07C610040006000401C
:10932000034B93F85800003818BF0120704700BF66
:10933000682B0020F0B46F4B1D1895F93040002CBD
:1093400061DA8C78A707C4F3400C53D41C6A01344B
:1093500000F0C8805C6A013400F0BD800C260A244D
:1093600053F82450013552D0651CB5423FD253F812
:109370002570013700F0A780A51CB54237D253F8FD
:109380002570013700F09F80E71CB7422FD253F8B9
:10939000275001353AD0271DB74228D253F827501D
:1093A000013533D0671DB74221D253F8275001351C
:1093B0002CD0A71DB7421AD253F82750013525D01B
:1093C000E71DB74213D253F8275001351ED004F1E0
:1093D0000807B7420BD253F82750013516D009348D
:1093E000B44204D2DC6A013408BF0B240FD004203D
:1093F000F0BC70471C68013467D05C68013460D0F1
:1094000008260224ACE70820F0BC70473C461E1832
:1094100065B243F8242086F83050BCF1000F02D129
:109420001C4484F848008A78540714D4D6073ED4E4
:109430004C784FF0A04600F5E072A40046F82240B8
:109440002D4EC40800F0070C375D012202FA0CF221
:109450003A4332558A7812F002021CD0AB0003F175
:10946000804303F5C0430978D3F8104524F447340A
:1094700024F44074C3F8104502020904D3F810051F
:1094800001F4403102F4F8520A430243C3F81025B4
:109490000020F0BC7047083D2B44087893F850102A
:1094A00041EA801183F850101046F0BC70478200EA
:1094B00002F1A042D2F8004724F00204C2F80047AB
:1094C000BEE70124A3E72C46A1E7002485F830403D
:1094D0001A602546A7E7092685F830605A623446A7
:1094E00035469DE7082685F830601A6234463546D1
:1094F00096E700BF682B0020BC2B002070B42C4CDA
:10950000251883B095F93020072A1CDD224492F8F3
:1095100048309B09032B40D0012B0CBF4FF4003384
:109520004FF44033800000F1A040D0F8002722F42F
:109530004032C0F80027D0F800271343C0F80037A6
:1095400003B070BC7047D3B2072BF9D8900000F17C
:10955000804000F5C04002F140039B00D0F8106548
:109560009BB203F1804303F5C04346F00106C0F807
:109570001065002018601B680193019B0029DFD053
:1095800095F9303054F82330002BD9D00949012304
:1095900003FA02F2C1F80423D2E74FF0A043D3F854
:1095A0001035C34003F0010302331B04BAE700BFC8
:1095B000682B002000600040164B034493F93030C4
:1095C000072B0DDD800000F1A040D0F8003723F418
:1095D0004033C0F80037D0F80037C0F80037704784
:1095E000DAB2072A14D810B49A0002F1804202F5C8
:1095F000C042094CD2F81005012120F0010001FA07
:1096000003F3C2F81005C4F808335DF8044B704743
:10961000704700BF682B0020006000404FF0A0435F
:10962000D3F8103523FA00F000F00100704700BFB6
:109630002DE9F04186B0C04A002301931168012949
:1096400000F0C8811E46BD4B1A68012A00F0B481A3
:10965000BB4B1A68012A00F0A181BA4B1A68012A93
:1096600000F08E81B84B1A68012A00F07B81B74B5D
:109670001A68012A00F05281B54B1A68012A00F0DD
:109680003F81B44B1A68012A08D0B34B1A68012AEB
:1096900000F0AC81F6B906B0BDE8F081AF4AD2F86F
:1096A00004231206F1D500221A6019680491196E7C
:1096B0000498012903F1600346F080060AD11A607C
:1096C0001B6805934FF0A043059AD3F8103501931A
:1096D00046F00046A24F00240125A30003F1804379
:1096E0002E4203F5C0434FEA45050BD0D3F81005D1
:1096F00057F82420D3F81015C0F30420C1F301411A
:1097000002B190470134082CE7D1002EC3DA0022C1
:109710004FF0FF33CDE90223914C012502AE94F9BD
:109720005000471C37D0C0F3C20C06AB03EB0C074C
:1097300000F0070317F80C2C05FA03F31A42C1B224
:1097400000F03F0027D02218890992F9302054F800
:109750002280B8F1000F00F09D81032900F09D8167
:10976000820002F1A04217F8147CD2F800C71F4013
:10977000CCF3014C0BD0BCF1020F0CD1032900F04B
:10978000BF810027B8F1000F06D0C04704E0BCF14C
:10979000030F00F0A381002794F95100411C32D03F
:1097A000C0F3C20E06AB03EB0E0C00F007031CF86F
:1097B0000C2C05FA03F31A42C1B200F03F0022D08C
:1097C0002218890992F9302054F82280B8F1000F4C
:1097D00000F07B81032900F07B81820002F1A04E22
:1097E0001CF814CCDEF800271CEA030FC2F3014278
:1097F00000F03A81022A06D1032900F08481B8F1F1
:10980000000F00D0C04794F95200421C32D0C0F380
:10981000C20E06AB03EB0E0C00F007031CF80C2C79
:1098200005FA03F31A42C1B200F03F0022D0221819
:10983000890992F9302054F82280B8F1000F00F025
:109840003B81032900F03B81820002F1A04E1CF80D
:1098500014CCDEF800271CEA030FC2F3014200F02B
:10986000ED80022A06D1032900F05081B8F1000FE3
:1098700000D0C04794F95300431C32D0C0F3C20E4D
:1098800006AB03EB0E0C00F007021CF80C3C05FACB
:1098900002F21342C1B200F03F0022D0231889091E
:1098A00093F9303054F82380B8F1000F00F0FB80BA
:1098B000032900F0FB80830003F1A04E1CF814CCB8
:1098C000DEF800371CEA020FC3F3014300F09C806E
:1098D000022B06D1032900F01C81B8F1000F00D043
:1098E000C047002F3FF4D7AE4FF0A043019AD3F802
:1098F00010359A423FF4CFAE029A019303920EE7DD
:10990000164AD2F8042351067FF5BBAE00221A6036
:109910001B680493049B46F04006B2E60F4AD2F857
:10992000042390067FF5A8AE00221A601B680493FA
:10993000049B46F020069FE6006100400461004061
:10994000086100400C61004010610040146100405B
:10995000186100401C6100407C61004000600040D4
:10996000682B00206C4AD2F80423D4067FF57FAE22
:1099700000221A601B680493049B46F0100676E6EA
:10998000654AD2F8042315077FF56CAE00221A60F1
:109990001B680493049B46F0080663E65E4AD2F80F
:1099A000042357077FF559AE00221A601B68049301
:1099B000049B46F0040650E6574AD2F80423920767
:1099C0007FF546AE00221A601B680493049B46F0A4
:1099D00002063DE65049D1F8046316F001063FF453
:1099E00032AE136013680493049B2CE600221A60C5
:1099F0001B6805934FF0A043059AD3F810350193E7
:109A0000002E3FF484AE63E6032B7FF46AAF032994
:109A10007FF463AF4FF40032DEF8003723F44033B5
:109A2000CEF80037DEF800371343CEF80037B8F130
:109A3000000F3FF459AF0137FFB251E7032A7FF41B
:109A400019AF03297FF412AF4FF40032DEF800376C
:109A500023F44033CEF80037DEF8003701371343E4
:109A6000FFB2CEF8003701E7032A7FF4CCAE03291A
:109A70007FF4C5AE4FF40032DEF8003723F44033F4
:109A8000CEF80037DEF8003701371343FFB2CEF8C7
:109A90000037B4E603297FF47EAE16F80C201A4393
:109AA00006F80C205CE603297FF41BAF16F80E3095
:109AB000134306F80E30FEE603297FF4DBAE16F8FA
:109AC0000E201A4306F80E20BEE603297FF49BAE53
:109AD00016F80E201A4306F80E207EE603297FF4BE
:109AE00051AE4FF40037D2F8003723F44033C2F8B8
:109AF0000037D2F800373B43C2F80037012741E670
:109B00004FF44037EFE74FF44032B5E74FF44032BF
:109B10009CE74FF440327FE700600040014B1B6838
:109B2000184700BFC42B0020114B98421DD130B5FF
:109B300083B000230DF107008DF807300D46FEF7C6
:109B4000C5FB0C4B1C794CB99DF807001D60012228
:109B50001A71FEF7E1FB204603B030BD9DF8070007
:109B6000FEF7DAFB112003B030BD0020704700BFC4
:109B700000200040C42B0020034B984203D1034B2C
:109B800000221A601A71704700200040C42B002088
:109B900030B56D4AD2F8043399058BB068D5D2F848
:109BA0002431002B64D00023C2F82431D2F82431B0
:109BB00003934FF40171654B0398C2F8081393F8AF
:109BC000291009B9012151605F4902228DF818203E
:109BD000D1F88024C1F880249869D96809920024BA
:109BE0000025CDE90710C3E90645D3E9001206A810
:109BF0009047554AD2F81C31C3B1544B186A596981
:109C000088426AD293F8280000F0FF04002864D14B
:109C1000C2F81C41D2F81C11029102999C68186A82
:109C2000196A205C01311962C2F81C05464AD2F853
:109C30004431DBB10021454BC2F84411D2F8440154
:109C400093F829100090009809B1012111609A69D8
:109C500062B1586AD96800229A610122CDE90710E1
:109C60008DF8182006A8D3E9001290470BB030BD3C
:109C7000354AD2F804335B07BBD5D2F80831002B44
:109C8000B7D0324B996900293CD00021C2F80811A5
:109C9000D2F8081104910499D868596AD2F81825A5
:109CA00042545A6A996901325A625A6A8A42A0D168
:109CB000DA69002A2FD0DD685C6A18699A6101218F
:109CC0000022D860DA615A628DF81810CDE9075485
:109CD000D3E9001206A890478BE71B4A0020C2F880
:109CE0001C01D2F81C210192019A00299ED09A6889
:109CF0008DF8180008915861079206A8D3E9001260
:109D0000904793E7C2F80811D2F80801059005982A
:109D1000D2F81825C9E793F8292012B90A4A012177
:109D20005160094A4FF40171C2F80813596ADA68A0
:109D300008910024012007928DF81800D3E9001241
:109D40009C6106A8904754E700200040D02B0020DB
:109D50002DE9F041604F06792C2303FB067382B096
:109D600093F82A30002B40F0898005460C460068A5
:109D70005A499046FFF7D8FE00287BD12368591C2A
:109D80000CD001224FF0A04102FA03F3C1F80835CC
:109D9000236803F5E073032241F8232063685A1C0B
:109DA00006D003F5E0734FF0A042002142F82310E3
:109DB0002B68A269C3F82425217D637D2A680B43A3
:109DC000C2F86C35D4E900122B68C3F81425C3F827
:109DD0000C15237D012B5DD02C2303FB06F3FA1811
:109DE000C2F804802269FA50B8F1000F2FD02A6817
:109DF000237F3B4C0021C2F81C11D2F81C21009299
:109E00002A68DDF800C0C2F84411D2F844112A686B
:109E100001910199C2F804432A6842F307310029ED
:109E20004FEA12322EDB01F1604101F561415B0125
:109E3000DBB281F800332B682A4C43F30732520916
:109E4000C3F30433012101FA03F344F822302C2335
:109E5000296803FB0676042400230122C6E90633A1
:109E6000C1F8004586F82A2086F82930736102B0CF
:109E7000BDE8F081112002B0BDE8F081082002B0F9
:109E8000BDE8F081184902F00F025B011144DBB21A
:109E90000B76D0E7A368591C06D003F5E0734FF0AA
:109EA000A042002142F82310E3685A1C0DD0012281
:109EB0004FF0A04102FA03F3C1F80835E36803F557
:109EC000E073032241F82320E3682A68A168C2F8FE
:109ED0000835C2F810157FE7D02B0020919B0200B7
:109EE0008000020000E100E0FCEC00E0F8B52F4D3E
:109EF000047902682C2303FB045300215B68C2F839
:109F0000001583B103682A4AC3F808230268294E62
:109F100042F307335B092033C2F30432012101FA13
:109F200002F246F8232003684FF0FF32D3F80CC545
:109F3000D3F81475D3F80815D3F81065C3F81425B1
:109F4000C3F80C2503689445C3F80825C3F8102509
:109F500006D00CF5E07C4FF0A043022243F82C2001
:109F60007B1C06D007F5E0774FF0A043022243F8B0
:109F70002720721C06D006F5E0764FF0A04302229F
:109F800043F826204B1C06D001F5E0714FF0A043AA
:109F9000022243F821200068FFF7EEFD2C2303FB8B
:109FA0000454002384F82A306360F8BDD02B0020CD
:109FB0008402020000E100E02DE9F041314E057914
:109FC0002C2303FB05630446586984B000284CD158
:109FD0001862996083F828005A612268C2F81C014F
:109FE000D2F81C11226802910121029F916022681F
:109FF000D3F808C0C2F81C01D2F81C1101910199D4
:10A000001F6A196A1CF8077001311962C2F81C75C1
:10A010005A6812B104B0BDE8F0811A6A5F6921681C
:10A02000BA421BD2864602E093F828200ABBD1F838
:10A030001C21002AF8D0C1F81CE1D1F81C210392A0
:10A04000039AD3F820801A6A1CF8088001321A6239
:10A05000C1F81C851A6ABA42E9D32168D1F81C31CB
:10A06000002BFBD00123CB6004E0112004B0BDE83D
:10A07000F0810F202C2303FB056500236B6104B0E6
:10A08000BDE8F081D02B002030B5484BD3F8242117
:10A0900089B0002A57D00022C3F82421D3F8242104
:10A0A000029202228DF81020029AD3F88014404ABE
:10A0B000C3F880140791D3F83C15D36806910024A7
:10A0C00000250593C2E906451168536804A898471E
:10A0D000364BD3F844214AB10021354AC3F8441124
:10A0E000D3F84401916901900198D9B92F4BD3F865
:10A0F0002021AAB10021C3F82011D3F820012C4A55
:10A1000000900098506958B1D3F84C0593680690B8
:10A110008DF810105161059304A8D2E900139847F7
:10A1200009B030BDD3F83C35D16806930024002532
:10A13000012305918DF81030C2E90645D2E90013DC
:10A1400004A89847D2E7D3F810110029C0D0C3F86B
:10A150001021D3F810111648039103998469D3F89C
:10A160003C15A142B4D1C469A4B1D3F800528461B2
:10A1700025F02005C3F80052D0E90343C261012253
:10A180000691C3600168436805948DF8102004A807
:10A1900098479DE7C26884610123CDE905218DF8C8
:10A1A0001030D0E9001304A8984791E70020004040
:10A1B000002C00202DE9F04307796A4E07EBC70316
:10A1C00006EB830385B093F82030002B40F09B8092
:10A1D00004460D46006864499146FFF7A5FC002837
:10A1E00040F08D802B68591C4FEAC7080CD0012223
:10A1F0004FF0A04102FA03F3C1F808352B6803F5CC
:10A20000E073032241F823206B685A1C06D003F543
:10A21000E0734FF0A042002142F823102368A9699F
:10A22000C3F82415297D6A7D23680A43C3F86C2589
:10A23000D5E900312268C2F80C35C2F814152B7D1F
:10A24000012B6CD008EB070206EB8203C3F80490E5
:10A250002B6946F82230B9F1000F3FD021682B7FDF
:10A26000424D0022C1F81021D1F81011009121684F
:10A27000DDF800C0C1F82021D1F82011019121683A
:10A28000DDF804C0C1F82421D1F82411029121681D
:10A29000DDF808C0C1F84421D1F8441122680391C7
:10A2A0000399C2F80453226842F3073100294FEAA8
:10A2B00012322CDB01F1604101F561415B01DBB23F
:10A2C00081F8003323682A4D43F307325209C3F360
:10A2D0000433012101FA03F345F822304744226890
:10A2E00006EB8706002301240821C2F80015C6E901
:10A2F000063386F82040736105B0BDE8F083112075
:10A3000005B0BDE8F083082005B0BDE8F083194929
:10A3100002F00F025B011144DBB20B76D2E7AB68AF
:10A32000591C06D003F5E0734FF0A042002142F81B
:10A330002310EB685A1C0DD001224FF0A04102FA05
:10A3400003F3C1F80835EB6803F5E073032241F825
:10A350002320EB682268A968C2F80835C2F81015F6
:10A3600070E700BF002C002089A00200100302004B
:10A3700000E100E0FCEC00E0F8B50579304C026843
:10A3800005EBC50304EB830300215B68C2F80015ED
:10A39000EE0083B103682B4AC3F8082302682A4FF2
:10A3A00042F307335B092033C2F30432012101FA7F
:10A3B00002F247F8232003684FF0FF32D3F80CE590
:10A3C000D3F814C5D3F80815D3F81075C3F80C25C5
:10A3D000C3F8142503689645C3F80825C3F810256B
:10A3E00006D00EF5E07E4FF0A043022243F82E2067
:10A3F000BCF1FF3F06D00CF5E07C4FF0A0430222F9
:10A4000043F82C207A1C06D007F5E0774FF0A043E4
:10A41000022243F827204B1C06D001F5E0714FF0D3
:10A42000A043022243F82120354404EB8504006850
:10A43000FFF7A2FB002384F820306360F8BD00BF63
:10A44000002C00201003020000E100E0F0B401F055
:10A450006044B4F1005F82B02CD10579244E05EB45
:10A46000C50406EB840403466069EF00002839D177
:10A470006261A1601A68C2F82001D2F820C11A688E
:10A48000CDF804C0DDF804C0C2F85801D2F8582154
:10A4900000921A68DDF800C0D4F814C0C2F8441560
:10A4A000C2F848C51A6801219160626832B102B0F1
:10A4B000F0BC7047102002B0F0BC70471B6800E091
:10A4C000A0B9D3F82021D3F85801002AF8D00028E9
:10A4D00018BF0F207B1906EB830300225A6102B0DC
:10A4E000F0BC7047112002B0F0BC70470F20F1E7BC
:10A4F000002C00206DDF704779DF70477DDF7047EB
:10A5000064DF70472DE9F04F87B00746119D008842
:10A510002C880394BDF84840DDF840A0CDE9014205
:10A52000002858D04FF0000988461E46CB4604E06C
:10A530003A880BF1010B93452CDAD8F8002052F839
:10A540002B00059000220DF1130105A8FFF7D8FF9D
:10A55000044658BB9DF81320B242E9D1B9F1000F6F
:10A5600028D02A88019B9119994239DC52440DF177
:10A57000130105A84FF00109FFF7C2FF002834D1ED
:10A5800029889DF813200A442A803A880BF1010B90
:10A590009345D2DBB9F1000F1DD02B88039A013B04
:10A5A0009B1A9BB2FF2B1BD80AF80230204607B03B
:10A5B000BDE8F08F2A88019B511C324402329A4236
:10A5C00089B20DDC029B29800AF801302A88013209
:10A5D00092B22A80CAE70024204607B0BDE8F08F77
:10A5E0000C24204607B0BDE8F08F0446204607B093
:10A5F000BDE8F08F2DE9F04700231788138090F80D
:10A600002D3088B0144605460E46002B40F00081E0
:10A61000AA78002A40F0F580E978A1B1DA1CBA42A4
:10A6200000F2F2800222F254238801339BB201220D
:10A630002380F254238813449BB22380F15423884F
:10A6400013449BB223806A68AAB1D91CB94200F2B4
:10A65000DB80022192F90020F154238801339BB260
:10A660000A212380F154238801339BB22380F254C2
:10A670002388013323802B89002B40F0F3802B8A21
:10A68000002B40F02B812B8B002B40F046812B6A56
:10A69000002B44D02088821DBA4200F2B5801A886F
:10A6A000052A40F299816FF4486802EB080189B2EB
:10A6B0004FF27D3C614540F28F815988052940F277
:10A6C0008B816FF4486E8E441FFA8EFEE64540F291
:10A6D00083814FF6FF7C624504D0614502D08A42F7
:10A6E00000F27A81052232542288013292B212217C
:10A6F0002280B1542288013292B222801988B1544A
:10A700003244090A51702288023292B222805B8858
:10A71000B35432441B0A53702388023323806B6A7C
:10A72000002B2FD09988B4F800C0881C0CF10202CD
:10A730000244BA4268D8FE2866D8033106F80C10E5
:10A740002288013292B2FF212280B1542288013244
:10A7500092B222801988B1543244090A517020887B
:10A76000023080B220809A8862B1996805930029EE
:10A7700000F03281304401F053F9059B9A88238818
:10A780001344238095F82C30002B40F0E380287888
:10A7900000283AD02B88012B00F01E8123889A1CB8
:10A7A000BA4231D8012804D16978023119448F4264
:10A7B0002AD3023FFF1ABFB2B01806A9ADF818702D
:10A7C000FFF79CFE08BB2B78022B00F00D81697807
:10A7D000BDF818209142C0F003819742C0F000817B
:10A7E00017460922FE2F0FD82388791CF15423889D
:10A7F00001339BB22380F254238801331F44278006
:10A8000003E00433BB424CD90C2008B0BDE8F0870C
:10A81000082FF9D906A8FFF76DFE0028F5D1238887
:10A820000822F254238801339BB21B222380F25466
:10A830002088013080B22080062230440DF11901B9
:10A8400001F0EEF823889DF8182006339BB212F031
:10A85000FE0218BF01222380F254238801339BB2E9
:10A860002380D5E605F10808022305F10C01CDE9A6
:10A870000147009640461A460591FFF743FE00281F
:10A88000C3D1CDE901470599009640461023062221
:10A89000FFF738FE0028B8D12B8A002B3FF4F3AE27
:10A8A0001CE006A8FFF728FE0028AED12388BDF8DB
:10A8B00018200321F154238801339BB219212380EE
:10A8C000F154238801339BB2F1182380F254130A08
:10A8D0004B70238802339BB223809DE605F110085C
:10A8E00005F11401CDE901470096404602230322F9
:10A8F0000591FFF707FE002887D1CDE901470599AB
:10A900000096404610230722FFF7FCFD00287FF445
:10A910007CAF2B8B002B3FF4BAAE05F1180805F184
:10A920001C01CDE9014700964046022314220591FF
:10A93000FFF7E8FD00287FF468AFCDE901470599EE
:10A940000096404610231522FFF7DCFD00283FF457
:10A950009EAE5AE7A96A00293ED04FF000094B4647
:10A960004FF0160A2BE02388F054238801339BB262
:10A97000238006F803A0238801339BB2238031F89B
:10A980002220F2543344120A5A702088023080B2D6
:10A990002080B8F8042030444AB1D8F80810D9B162
:10A9A00001F03EF8B8F8042023881344238095F87A
:10A9B0002C205FFA89F39A427FF6E9AEA96A03EB8D
:10A9C000430201EB820809F10109B8F80430D81CF0
:10A9D0000233FE2BC7D917E7072008B0BDE8F08780
:10A9E000012B08D00822FDE6BDF818309F42F9D3AC
:10A9F0001F460922F6E68F42F4D30F460822F1E6FD
:10AA000075DF704776DF70477ADF70477BDF70470E
:10AA100070B51B4D2B8884B2A34282B011D1194E60
:10AA2000297A327B91420ED3337C00222A72DBB921
:10AA3000736933B10022ADF806408DF8042001A8F7
:10AA4000984702B070BD184605F10A01FFF7D8FF1C
:10AA500028B11128F5D0B369002BF1D1F1E72B7A99
:10AA600001332B7202B070BD3B212046FFF7CAFFB5
:10AA700030F00803DCD0B369002BD9D09847D7E772
:10AA8000402C0020242C0020F0B50288122A83B02C
:10AA900003463ED015D8102A73D0112A0FD16C4C22
:10AAA000828823889A420AD16068FDF7D3FB18B1E7
:10AAB000684B9B6903B198474FF6FF73238003B03F
:10AAC000F0BD502AFBD1634DC188EA899142F6D18D
:10AAD000028A022AF3D15E4C828826889642EED101
:10AAE000123000F08BF9002800F09C80637A002B74
:10AAF00040F09F80D5E90113277A60683246002F25
:10AB000018BF1946FDF750FB0028D8D0AB693BBBF6
:10AB1000D5E74F4C828821889142D0D14089658900
:10AB200085421FD8A58985421CD3E0899D8940F2C2
:10AB3000F313984294BF031AC31AAB4212D800F21F
:10AB4000F310A8420ED3434B5B694FF4807222810D
:10AB5000002BB4D00122ADF806108DF8042001A816
:10AB60009847ACE73B4D267A6068D5E90113002E83
:10AB700018BF194600236372FDF716FB0028C5D1E4
:10AB80009DE7C67B012E9AD1314C21884FF6FF728A
:10AB900091423FD1304D8288228003CDC4F80A0013
:10ABA000C4F80E10598A608900258842257222D87F
:10ABB000A08988421FD3E189988A40F2F313994211
:10ABC00094BF4B1ACB1A834215D801F2F31181427C
:10ABD00011D3204D6672EB89002B7FF470AF6B6947
:10ABE000002B3FF46CAF0121ADF806208DF8041066
:10ABF00001A8984763E7174DEB8900216172002B8C
:10AC00007FF45DAF60686968FDF7CEFA00283FF415
:10AC100056AF7BE70F4B9B69002B3FF450AF0420EE
:10AC200098474CE76068FDF715FB00283FF447AFF5
:10AC30006CE76B6900222272002B3FF440AF0122C7
:10AC4000ADF806608DF8042001A8984737E700BFEB
:10AC5000402C0020242C0020542C002070B3F8B588
:10AC6000054606460FCD164F3C460FC4844695E870
:10AC70000700144D3D6084E80700BCF1000F17D0B9
:10AC80006046FFF7C1FE90B933681868596803C57C
:10AC90000D4B0E490E4A18464FF6FF7440F8041F3C
:10ACA0001C800021FDF76EFA002818BF0320F8BDB4
:10ACB0002846FFF7ABFE0028EAD0F8BD0E2070470B
:10ACC000242C0020542C0020402C00205C2C002040
:10ACD00011AA02002DE9F04703888788112B98B04C
:10ACE00007D01A2B044650D0102B09D018B0BDE85D
:10ACF000F0873A483946FDF731FB18B0BDE8F087D8
:10AD0000374A9368DB43009351686846FDF756FB6A
:10AD1000009B0193019B83B300252E46314601A879
:10AD2000FDF726FB28B118AB03EB4503013523F8EB
:10AD3000286C0136142EF1D10D950DF1340CBCE8C0
:10AD40000F0002AE0FC6BCE80F000FC69CE807005C
:10AD500086E807008DB10DF10A08DFF898A008EB2E
:10AD6000450538F8029F1F4E304649460436FDF728
:10AD7000F5FAB245F8D1A845F3D1132F15D904201F
:10AD8000FCF724FF18B0BDE8F087037A16481F2BA4
:10AD90004FEA1314394618D9FDF7D6FA022C134896
:10ADA000394616D0FDF7D0FAA0E70C483946FDF732
:10ADB000CBFA0C483946FDF7C7FAE37B012B95D057
:10ADC0000B483946FDF7C0FA90E7FDF7C7FA074888
:10ADD0003946FDF7C3FA18B0BDE8F087842C00208F
:10ADE0007C2C0020802C00208C2C0020902C00201B
:10ADF000882C0020F42C0020AADF7047007800F097
:10AE000001007047F0B58B7891B0012B0C46098892
:10AE1000ADF80C1038BF01230546164668460322DC
:10AE200000218DF80E3000F009FE637C0022013B0A
:10AE30008DF80020042B09D8DFE813F0CF00D300F1
:10AE4000D700DB00050022238DF80030A37C002210
:10AE5000013B8DF80120042B09D8DFE813F0CE0068
:10AE6000D200D600DA00050022238DF80130E77BFE
:10AE7000237B207C217D9DF8022043EAC70343EA1F
:10AE8000001322F01902002903F0190343EA020318
:10AE900014BF0222012262F3420309A81C220021EE
:10AEA0008DF8023000F0CAFD637B13F0300F73D1D0
:10AEB000627BA37B8DF824200021142204A88DF846
:10AEC000253000F0BBFDA368A288CDF814D003A9FB
:10AED0000491ADF81C201BB1E2880893ADF818204E
:10AEE000A369002B36D001AF03220021384600F0C1
:10AEF000A5FDA2691388ADF82C305388ADF82E302B
:10AF000051680D97137B0A91013B00218DF80410C5
:10AF1000042B2DD8DFE803F095999D892900222381
:10AF20008DF80530977A137AD07A917B9DF80620B8
:10AF300043EAC70343EA001322F01902002903F091
:10AF4000190343EA020314BF0222012262F34203FF
:10AF50008DF80630E36903B10C93334604AA09A9BE
:10AF60002846FFF749FF11B0F0BD22238DF80430C9
:10AF7000537B0021013B8DF80510042BD2D801A191
:10AF800051F823F033B002003BB002001BB00200C6
:10AF900023B002001FAF020002AF03223846002197
:10AFA00000F04CFDE37C0022013B8DF80920042BCE
:10AFB00007D8DFE803F0525E5A56030022238DF8CB
:10AFC00009309DF80A300E97012262F342031122E4
:10AFD0008DF80A308DF808206AE711238DF80030CB
:10AFE00034E721238DF8003030E731238DF800302D
:10AFF0002CE712238DF8003028E711238DF801305B
:10B0000035E721238DF8013031E731238DF8013008
:10B010002DE712238DF8013029E731238DF8053013
:10B0200080E712238DF805307CE712238DF8043079
:10B030009EE711238DF8053074E721238DF8053044
:10B0400070E711238DF8043092E721238DF8043046
:10B050008EE731238DF804308AE711238DF809300B
:10B06000AFE712238DF80930ABE731238DF80930B3
:10B07000A7E721238DF80930A3E700BF90DF7047D1
:10B08000A5DF7047B5DF704770B5002384B000249A
:10B0900060F30F0360F31F436A46204602A9CDE91F
:10B0A00002340094ADF80440FFF7E8FF054610B9FC
:10B0B000284604B070BD124B124EF61AF608FDF782
:10B0C00019FF360446F0010603460F492246304672
:10B0D000FCF7C4F9BDF80020BDF8023052EA0301C4
:10B0E00003D00A493046FCF7B9F9BDF80420002A1C
:10B0F000DED030460649FCF7D9F8284604B070BDCA
:10B1000068C70200A0C70200F8C1020044C20200E2
:10B1100084C2020008B90E20704730B403464FF0D5
:10B1200017121B25002041F61B3419611A60C3F861
:10B1300006201D7158819C8130BC70478288002A8E
:10B1400059D110B50388242B82B00C4611D80F2B8F
:10B150004FD9103B142B4CD8DFE803F060744B4BF5
:10B160004B4B4B4B4B4B4B4B4B4B4B4B4B4B4B4436
:10B170004E003A2B70D0552B3BD1C388C988A272A0
:10B18000172B38BF17238B4228BF0B46104623814D
:10B19000FFF778FF00287ED1E37A53BB236943B3DE
:10B1A0002289ADF8042040F67721009120466946B7
:10B1B0009847A37AA3B1E1880020FFF761FF002838
:10B1C00062D011280CD0FDF795FE4A4B4A49024641
:10B1D0004A481B1ADB081B0443F00100FCF766F821
:10B1E00002B010BD007A0B7B984228BF1846FFF7CB
:10B1F0004BFFA37ADEE770470B69027A4A73002B94
:10B20000F7D000204DF67A218DF8050000918DF8D9
:10B210000420694620469847A37ACBE70B790B7345
:10B22000C27B012A45D0022A33D14988E180228994
:10B230008A4241D3627B9A42DBD21846FFF724FF51
:10B24000A37AB7E74FF01711002241F61B33C4F879
:10B2500006106281A381C3E74389C98822698B42B2
:10B2600028BF0B46172B38BF172323814AB1E17A39
:10B2700039B140F677210091ADF804306946204697
:10B28000904700236381ABE74FF48073638102B082
:10B2900010BDC988CBE7FDF72DFE164B18490246B5
:10B2A00016481B1ADB081B0443F00100FBF7FEFFE6
:10B2B00072E70988E180BAE70020FFF7E1FE18B9DC
:10B2C0000123E372237BB5E7112803D10123A37285
:10B2D000237BAFE7FDF70EFE064B07490246074802
:10B2E0001B1ADB081B0443F00100FBF7DFFF237B85
:10B2F000A0E700BFA0C70200DCC2020068C70200CE
:10B3000010C30200B0DF704766DF704760B159B10B
:10B310000378DE2B0AD00B684360DE224FF6FF7302
:10B3200002704380002070470E207047082070474D
:10B3300038B10378DE2B02D141800020704708200D
:10B3400070470E20704700BF19B330B5054685B071
:10B3500018B10B78DE2B0C4601D005B030BD8088CB
:10B360004B889842F9D10B7A002B32D12B88112BC4
:10B370004BD0512B12D0012BEFD12B7A012BECD1DA
:10B38000012525720021FFF7BFFF002851D120724F
:10B39000E3E77047A88863888342DED1AB79022B4C
:10B3A000DBD1AA7B02F0FD01042935D0052AD4D1D6
:10B3B00000226946C1E902224A600092ADF80420E9
:10B3C0008DF80030FFF79EFF0028C6D063689847CD
:10B3D000C3E70021FFF798FF0346D8B1112818D022
:10B3E000636898472B88112B0BD0512BD2D0012B9F
:10B3F000B3D12B7AAA88012BAFD160889042ACD10F
:10B40000BEE7AA8863889A42A7D14FF6FF7363808C
:10B41000A3E701232372E5E7694600224FF4C075D4
:10B420004A600092C1E902228DF80030ADF8045064
:10B43000C8E71128CAD125728FE700BFA8DF70477F
:10B44000AEDF704762DF70470288502A00D0704735
:10B4500010B44A88C488944202D05DF8044B704707
:10B46000028A012AF9D14B69002BF6D0827C5DF863
:10B47000044B8088184700BFF0B5324B04460D4698
:10B480000FCB2D6865618FB002AD85E80F002846AF
:10B4900004F11201FFF7D6FF08B10FB0F0BDA37C95
:10B4A0008DF80630224641F2235301A90120ADF860
:10B4B0000430FFF7C3FF0028EFD10146202206A881
:10B4C00000F0BCFA9DF82530A17C8DF81A102246B8
:10B4D00023F01203012543F0120341F224574FF0E9
:10B4E000011632F80A0B8DF8253006A9ADF8187050
:10B4F00007968DF829508DF82B50FFF783FC002814
:10B50000CBD10146202206A800F098FA9DF82530FC
:10B51000A77C0796224623F00A0343F00A0332F879
:10B52000020B8DF8295006A941F225548DF82A50B6
:10B530008DF825308DF81A70ADF81840FFF762FCD1
:10B540000FB0F0BD50C3020070B50D4688B0134671
:10B550000446012604A8102200218DF80730ADF81A
:10B560000E6000F06BFA6B89ADF810300DF1070238
:10B570000DF10E03204604A9CDE906328DF81260C4
:10B58000FFF75EFF08B070BD10DF704770B53C4D2F
:10B590002B7884B0002B66D13A4E3B49012302A898
:10B5A0003370FDF791FC039B23B90EE0FDF796FC89
:10B5B000039B53B1D3E9002100209047044602A821
:10B5C000002CF3D1204604B070BD304902A8FDF72D
:10B5D0007BFC039B4BB1D3E900210020904702A8DC
:10B5E000FDF77CFC039B002BF5D1294A0023126850
:10B5F0008DF8083002A80192FCF768FE254901A8E1
:10B60000FFF7C2FFB0FA80F304465B099DF808001B
:10B610002B70FCF781FE002CD4D11F4B1F491C70EE
:10B62000347091F81623EC2352091341DB071ED521
:10B630001B4B9A6802B31A6842F480021A601349DD
:10B6400002A8FDF741FC039B002BBBD0D3E90021EE
:10B650000120904702A8FDF741FC039B002BF5D188
:10B66000204604B070BD0824204604B070BD42F2EC
:10B670000200FCF7ABFAE2E74FF480030B60DEE771
:10B68000F52C0020F42C00206CC3020084C30200BF
:10B6900068C30200ED7B0200F62C002000E100E010
:10B6A000F82C0020014B1878704700BFF52C0020C3
:10B6B00000B583B008496846FDF706FC019B43B11D
:10B6C000D3E9002090476846FDF708FC019B002B5A
:10B6D000F6D103B05DF804FB78C3020060DF704769
:10B6E00069DF704761DF7047144B1B782BB330B5AF
:10B6F000134D91B034240DF1020103A8ADF80240BE
:10B70000FFF7F0FF88B9294601A8FDF7DDFB029B92
:10B71000002BF0D0D3E9002103A8904701A8FDF742
:10B72000DDFB029B002BF5D1E5E7052801D111B027
:10B7300030BDFCF74BFA11B030BD7047F72C00203C
:10B74000D4C50200002900F0A78070B5544B0B60EF
:10B7500084B00C4605460C22002101A800F06EF9C9
:10B760000126062322688DF8045001A920208DF8B7
:10B770000660ADF80830FFF7B3FF002843D10C2274
:10B78000002101A800F05AF9012100238DF80510CD
:10B790002268ADF8063001A94020FFF7A1FF00287C
:10B7A0006CD10C22002101A800F048F90A2322687C
:10B7B0008DF8043001A90120FFF792FF00284FD136
:10B7C0000C22002101A800F039F94FF4B06322687F
:10B7D000019301A9A120FFF783FF98BB0C22002150
:10B7E00001A800F02BF99DF8043022686FF30003E4
:10B7F00001A9A0208DF80430FFF772FF034680B93D
:10B80000184604B070BDFDF775FB264B264902466D
:10B8100026481B1ADB081B0443EA0600FBF746FD1B
:10B82000ADE7FDF767FB1F4B214902461F481B1A76
:10B83000DB081B0443F00100FBF738FD002318462A
:10B8400004B070BDFDF756FB164B1A490246174867
:10B850001B1ADB081B0443F00100FBF727FDBDE7C3
:10B86000FDF748FB0F4B1449024610481B1ADB0832
:10B870001B0443F00100FBF719FDA1E7FDF73AFBBC
:10B88000084B0E49024609481B1ADB081B0443F00B
:10B890000100FBF70BFD84E70E231846704700BF3D
:10B8A000B8220020B0C7020090C3020068C702009F
:10B8B000C4C4020070C4020024C40200D8C3020041
:10B8C00070B5044682B00668FFF708FF2368B342EC
:10B8D000054606D82DBB1B4B012228461A7002B024
:10B8E00070BD194B19481A49C01AC008000440F02D
:10B8F00002000190FBF70AFC0198236815493246C3
:10B90000FBF7ACFD4FF080532268D3F80C3112499D
:10B9100001989B0203F100539A1AFBF7C7FC002D14
:10B92000D9D02846FDF7E6FA084B0C4902460648EE
:10B930001B1ADB081B0443F00100FBF7B7FC284689
:10B9400002B070BDF72C002068C70200B0C702002B
:10B9500018C5020048C502007CC50200A8C5020047
:10B960004BDF704710B5114C84B001A8FFF7F8FF0A
:10B97000A8B9214602A8FDF7A7FA039B002BF4D033
:10B98000D3E900210198904702A8FDF7A7FA039B8D
:10B99000002BF5D101A8FFF7E3FF0028E9D0052827
:10B9A00001D0FCF713F904B010BD00BFECC50200D4
:10B9B00008B5074B044613B10021AFF30080054BD7
:10B9C0001868836A03B19847204600F047F800BF23
:10B9D00000000000FCC6020070B50D4D0D4C641B4C
:10B9E000A4100026A64209D10B4D0C4C00F038F8EB
:10B9F000641BA4100026A64205D170BD55F8043B77
:10BA000098470136EEE755F8043B98470136F2E7D0
:10BA100054230020542300205423002058230020C6
:10BA20000A44914200F1FF3300D1704710B511F87C
:10BA3000014B03F8014F9142F9D110BD0244034676
:10BA4000934200D1704703F8011BF9E7034613F84E
:10BA5000012B002AFBD1181A01387047FEE700BFFE
:10BA6000F8B500BFF8BC08BC9E467047F8B500BFEB
:10BA7000F8BC08BC9E46704752656365697665648C
:10BA8000204C4544204F4E21000000005265636564
:10BA900069766564204C4544204F464621000000ED
:10BAA00053656E6420627574746F6E207374617474
:10BAB00065206368616E67652E000000436F6E6EDF
:10BAC0006563746564000000446973636F6E6E653E
:10BAD00063746564000000004E6F726469635F42C6
