:020000022000DC
:1060000000000120957C0200BD7C0200BF7C0200E4
:10601000C17C0200C37C0200C57C020000000000BD
:10602000000000000000000000000000C77C02002B
:10603000C97C020000000000CB7C0200CD7C020085
:1060400019A70200CF7C020015B00200CF7C02002D
:10605000CF7C0200CF7C020029AB0200CF7C020083
:10606000CF7C0200CF7C0200CF7C0200CF7C0200FC
:10607000CF7C0200CF7C0200CF7C0200CF7C0200EC
:10608000CF7C020055910200CF7C0200CF7C020041
:10609000F5910200CF7C02005DCA0200CF7C0200B5
:1060A000CF7C0200CF7C0200CF7C0200CF7C0200BC
:1060B000CF7C0200CF7C0200000000000000000046
:1060C000CF7C0200CF7C0200CF7C0200CF7C02009C
:1060D000CF7C0200CF7C0200CF7C020000000000D9
:1060E00000000000000000000000000000000000B0
:1060F00000000000000000000000000000000000A0
:10610000000000000000000000000000000000008F
:10611000000000000000000000000000000000007F
:10612000000000000000000000000000000000006F
:10613000000000000000000000000000000000005F
:10614000000000000000000000000000000000004F
:10615000000000000000000000000000000000003F
:10616000000000000000000000000000000000002F
:10617000000000000000000000000000000000001F
:10618000000000000000000000000000000000000F
:1061900000000000000000000000000000000000FF
:1061A00000000000000000000000000000000000EF
:1061B00000000000000000000000000000000000DF
:1061C00000000000000000000000000000000000CF
:1061D00000000000000000000000000000000000BF
:1061E00000000000000000000000000000000000AF
:1061F000000000000000000000000000000000009F
:1062000010B5054C237833B9044B13B10448AFF3F0
:1062100000800123237010BD6027002000000000D3
:1062200010E2020008B5034B1BB103490348AFF36A
:10623000008008BD000000006427002010E202007A
:10624000154B002B08BF134B9D46A3F5803A002148
:106250008B460F461348144A121A06F06BFE0F4B7A
:10626000002B00D098470E4B002B00D09847002001
:10627000002104000D000D48002802D00C48AFF3A7
:10628000008006F025FE2000290000F04BF906F002
:106290000BFE00BF0000080000000120000000000D
:1062A00000000000602700200831002000000000EE
:1062B0000000000072DF704773DF704776DF7047C1
:1062C0007ADF70477CDF70477FDF70478FDF704772
:1062D000B1DF704702F0F6BE12F0010038B5154686
:1062E0002DD0002004F0AAF8234C244B2449E41AB2
:1062F000E408240444F00304204602F083F9A907CB
:106300004FF0010030D504F099F81D49204602F005
:1063100079F96A074FF002001FD504F08FF8184989
:10632000204602F06FF92B074FF003000DD504F063
:1063300085F820461249BDE8384002F063B904F000
:1063400089F80D4C0D4B0F49D1E704F083F8204636
:106350000C49BDE8384002F055B904F07BF8094912
:10636000204602F04FF9DEE704F074F805492046B4
:1063700002F048F9CDE700BFA0E2020078E2020097
:1063800070CF020084CF020008B5037803B108BDC6
:10639000054B3B211888FFF791FF0028F7D0BDE897
:1063A000084002F08FBE00BFD22200200D2801D08D
:1063B00002F088BE104B1148C01AC008000410B586
:1063C00040F003000C460E4902F01CF90D4B0E493B
:1063D0001888224606F048FD30F0080207D043F244
:1063E0000202904203D043F20142904200D110BD1C
:1063F000BDE8104002F066BE78E20200A0E20200B2
:1064000098CF0200D2220020D027002002F05ABEEE
:1064100010B50388212B82B004460FD80F2B18D952
:10642000103B112B15D8DFE803F0243B145414144F
:1064300014141414141414141414141A522B52D0C7
:10644000562B08D1A0881321FFF738FF08B102F0BE
:1064500039FE02B010BD3B2BF4D002B010BD0023BA
:106460008088ADF8043001A9FFF730FF0028F0D094
:10647000EDE7254B25482649C01AC008000440F026
:10648000030002F0BFF8234BA1882348198006F0CF
:10649000CBF9002831D102F0E5FD0028D9D0D6E7AC
:1064A000194B1A481D49C01AC008000440F00300E7
:1064B00002F0A8F8174B4FF6FF721A8002F0E8FDC1
:1064C000F0B9174B01211878FFF7F6FE0028C0D06D
:1064D000BDE7104A0023108885211A46FFF7F4FE15
:1064E0000028B6D0B3E70B4A0023108819461A4695
:1064F000FFF7EEFE0028ACD0A9E702F0E3FDCAE703
:1065000002F0E0FDDDE700BF78E20200A0E2020059
:10651000B4CF0200D2220020E8270020C0CF020022
:10652000D022002000B54FF40041A7B0002001F0B8
:10653000D5FE002840F0F08001F0C0FE012003F0FD
:1065400095FF03F047F8002840F016818C4840F290
:106550006662012102F02EFD002840F00A8103F05E
:10656000E1FE002840F0028106F0E6F9002840F044
:10657000FA80002317A90120179306F0B9FA002822
:1065800040F0EE8017A806F071FB002840F0E5808F
:1065900011237C488DF8203006F0D4FC794982B272
:1065A00008A8FFF78FFE002840F0D48008220021C1
:1065B00017A806F0BFFC744B179317A84FF0C873C9
:1065C0001893FFF77DFE002840F0C1806F4800213E
:1065D00006F01CF8002840F0B7806D4B6D4817930B
:1065E000002217A9089206F00DF9002840F0A980B2
:1065F000694B6A48089308A906F0CEFB002840F0D2
:106600009D80664B664C9B7C8DF806303C2241F2A7
:106610002353002108A8ADF8043006F08BFC0220BB
:1066200040F201633C2200218DF8200017A8ADF84C
:10663000223006F07FFC2246012501AB52F8041BF4
:10664000ADF86C5008A81C9305F050FA002872D1E0
:10665000A168544A17A805F049FA002868D1182201
:10666000002102A806F066FC012000234FF480758B
:1066700040248DF808004A494B48ADF8143002AA6E
:106680000393ADF81C500494FFF714FE00284CD17E
:106690001C22002117A806F04DFC0023434A179343
:1066A000ADF86A308DF86C30414B4FF420254FF433
:1066B0002034032117A8CDE91854CDE91C238DF807
:1066C000681005F047FD68BB00F020FD002108467A
:1066D000384A00F007FB384A0221002000F002FB94
:1066E000364A04212D2000F0FDFA354B3548364955
:1066F000C01AC008000440F0030001F083FF2A4BD9
:1067000001211878FFF7D8FD48B901F041FE0028B3
:10671000FBD103F01DFEF8E702F0D4FC0CE702F019
:10672000D1FCF2E702F0CEFCCEE702F0CBFCAFE703
:1067300002F0C8FC93E702F0C5FC89E702F0C2FC56
:106740005FE702F0BFFC53E702F0BCFC45E702F054
:10675000B9FC3BE702F0B6FC28E702F0B3FC17E710
:1067600002F0B0FC0EE702F0ADFC02E702F0AAFC7A
:10677000FAE602F0A7FCF2E602F0A4FCE6E600BFAF
:10678000B8220020D0CF02005000A000BC2700207B
:10679000D5620200E8270020D9620200D02700203D
:1067A000C0220020CC220020D022002089630200D9
:1067B0000D640200E0CF0200F4CF0200FCCF020023
:1067C00078E20200A0E2020000D002004FF0A042F6
:1067D000503930B4CBB24FF0806411F0800F4FF4D9
:1067E0000001C2F80C450CBFC2F80C15C2F8081520
:1067F0004FF0A0424FF00061C2F80C155D06C2F8E0
:1068000008154FF4000154BFC2F80C15C2F8081562
:106810004FF0A0424FF00061C2F80C159C06C2F880
:1068200008154FF4000154BFC2F80C15C2F8081542
:106830004FF0A0424FF00061C2F80C15DD06C2F81F
:1068400008154FF4000154BFC2F80C15C2F8081522
:106850004FF0A0424FF00061C2F80C151C07C2F8BF
:1068600008154FF4000154BFC2F80C15C2F8081502
:106870004FF0A0424FF00061C2F80C155D07C2F85E
:1068800008154FF4000154BFC2F80C15C2F80815E2
:106890004FF0A0424FF00061C2F80C159C07C2F8FF
:1068A00008154FF4000154BFC2F80C15C2F80815C2
:1068B0004FF0A04213F0010F4FF000614FF40003BE
:1068C000C2F80C15C2F8081514BFC2F80835C2F892
:1068D0000C354FF0A0434FF000624FF400014FF031
:1068E00080650409C3F80C25C3F80825C3F80C55C6
:1068F000C3F80C15C3F80C25C3F80825C3F80C150C
:10690000C3F80C25C3F80825C3F80C15C3F80C25EB
:10691000C3F80825C3F80815C3F80C25C3F80825E3
:106920002246D2080CBFC3F80C15C3F808154FF067
:10693000A04344F010044FF00062C3F80C25610737
:10694000C3F808254FF4000254BFC3F80C25C3F860
:1069500008254FF0A0434FF00062C3F80C25A507AF
:10696000C3F808254FF4000254BFC3F80C25C3F840
:1069700008254FF0A0434FF00062C3F80C25E10753
:10698000C3F808254FF400024CBFC3F80825C3F82C
:106990000C254FF0A0434FF000624FF4000100F0CF
:1069A0000E004FF08064C3F80C25C3F80825C3F827
:1069B0000C45C3F80C15C3F80C25C3F80825C3F81B
:1069C0000C15C3F80C25C3F80825C3F80C15C3F83B
:1069D0000C25C3F80825C3F80C15C3F80C25C3F81B
:1069E0000825C2080CBFC3F80C15C3F808154FF0F2
:1069F000A04340F001044FF00062C3F80C25650786
:106A0000C3F808254FF4000254BFC3F80C25C3F89F
:106A100008254FF0A0434FF00062C3F80C25A007F3
:106A2000C3F808254FF4000254BFC3F80C25C3F87F
:106A300008254FF0A0434FF00062C3F80C25E10792
:106A4000C3F808254FF400024CBFC3F80825C3F86B
:106A50000C254FF0A0434FF00062C3F80C25C3F89B
:106A6000082530BC704700BF2DE9F04F4FEA401CAD
:106A70004FEA400A4FEA80094FEAC0084FEA001E79
:106A80008701C6010AF0800A09F0800908F0800831
:106A90000EF0800E0CF0800C07F08007F6B244B2C6
:106AA0004FF4B05B4FF0A0434FF080654FF400010E
:106AB0004FF000621BF0800FC3F80C554FEA8B00BB
:106AC000C3F80815C3F80C25C3F80825C3F80C153E
:106AD000C3F80C25C3F80825C3F80815C3F80C251E
:106AE000C3F80825C3F80815C3F80C25C3F8082512
:106AF000C3F80C15C3F80C25C3F808250CBFC3F860
:106B00000C15C3F808151BF0400FC3F80C25C3F88B
:106B100008250CBFC3F80C15C3F8081510F0FC0FBE
:106B2000C3F80C254FF08000C3F808250CBFC3F84C
:106B30000C15C3F80815C3F80C25C3F80825C3F8CD
:106B40000C55C3F80C15C3F80C25C3F80825C3F879
:106B50000C15C3F80C25C3F80825C3F80C15C3F8A9
:106B60000C25C3F80825C3F80C15C3F80C25C3F889
:106B70000825C3F80C15C3F80C25C3F80825C3F87D
:106B80000C15C3F80C25C3F80825C3F80C15C3F879
:106B90000C25C3F80825C3F80815C3F80C25C3F85D
:106BA0000825C3F80C55C3F80C15C3F80C25C3F819
:106BB0000825C3F80C15C3F80C25C3F80825C3F83D
:106BC0000C15C3F80C25C3F80825C3F80815C3F83D
:106BD0000C25C3F80825C3F80C15C3F80C25C3F819
:106BE0000825C3F80C15C3F80C25C3F80825C3F80D
:106BF0000C15C3F80C25C3F80825C3F80C15C3F809
:106C00000C25C3F80825002CC3F80855ACBFC3F801
:106C10000C15C3F80815C3F80C25C3F80825BAF1FC
:106C2000000F5CD1C3F80C15C3F80C25C3F8082578
:106C3000B9F1000F50D1C3F80C15C3F80C25C3F8F7
:106C40000825B8F1000F44D1C3F80C15C3F80C2582
:106C5000C3F80825BEF1000F38D1C3F80C15C3F8EE
:106C60000C25C3F80825BCF1000F2CD1C3F80C1576
:106C7000C3F80C25C3F8082517BBC3F80C15C3F8D7
:106C80000C250138C3F8082586B910F0FF00C3F8B9
:106C90000C15C3F80C25C3F80825B4D10BF1200B53
:106CA000BBF5B85F7FF406AFBDE8F08F10F0FF00D2
:106CB000C3F80815C3F80C25C3F80825A3D1EDE7E0
:106CC000C3F80815DBE7C3F80815D1E7C3F80815C2
:106CD000C5E7C3F80815B9E7C3F80815ADE7C3F869
:106CE0000815A1E72DE9F04F87B0137805920191BF
:106CF000002B00F0F0804FF00067DFF81CB28246F6
:106D00003D464FF000094FF0A0444FF40006203BF1
:106D1000BAF1780FDBB200F2F4800AF108025046B3
:106D20005FFA82FA9DF804100493CDE90201FFF79F
:106D30004DFD049B764A4FF0100CDDE9020113FB78
:106D40000CF84FF0806E1CFB032C0BEB080212F8C2
:106D5000013BC4F808E513F0800F0CBFC4F80C65C4
:106D6000C4F8086513F0400FC4F80C55C4F8085572
:106D70000CBFC4F80C65C4F8086513F0200FC4F804
:106D80000C55C4F808550CBFC4F80C65C4F8086568
:106D900013F0100FC4F80C55C4F808550CBFC4F814
:106DA0000C65C4F8086513F0080FC4F80C55C4F856
:106DB00008550CBFC4F80C65C4F8086513F0040F3F
:106DC000C4F80C55C4F808550CBFC4F80C65C4F8D9
:106DD000086513F0020FC4F80C55C4F808550CBF31
:106DE000C4F80C65C4F80865DB07C4F80C55C4F892
:106DF00008557CD49445C4F80C65C4F80C75C4F8E7
:106E00000875A4D10131C9B2FFF7E0FC414B08F18C
:106E100007025A4498444FF0806112F8013FC4F8C9
:106E20000815180654BFC4F80C65C4F80865580660
:106E3000C4F80C55C4F8085554BFC4F80C65C4F820
:106E400008659806C4F80C55C4F8085554BFC4F832
:106E50000C65C4F80865D806C4F80C55C4F8085584
:106E600054BFC4F80C65C4F808651807C4F80C557D
:106E7000C4F8085554BFC4F80C65C4F80865580731
:106E8000C4F80C55C4F8085554BFC4F80C65C4F8D0
:106E900008659807C4F80C55C4F8085554BFC4F8E1
:106EA0000C65C4F80865DB07C4F80C55C4F8085530
:106EB00014D49045C4F80C65C4F80C75C4F8087572
:106EC000ABD109F10109059B5FFA89F913F8093083
:106ED000002B7FF41CAF07B0BDE8F08F9045C4F8DD
:106EE0000865C4F80C75C4F8087596D1E9E79445AF
:106EF000C4F80865C4F80C75C4F808757FF427AFAA
:106F000080E7019A013201924FF0080A002009E758
:106F100020D0020027D0020018D002002DE9F0474F
:106F2000784E2024154612FB04F982468846FFF766
:106F30004DFC06F110004FF0006114FB050006EB5C
:106F400009070A464FF0A0434FF0806C4FF400054C
:106F500017F8014BC3F808C514F0800F0CBFC3F835
:106F60000C55C3F8085514F0400FC3F80C25C3F8AE
:106F700008250CBFC3F80C55C3F8085514F0200FB2
:106F8000C3F80C25C3F808250CBFC3F80C55C3F88B
:106F9000085514F0100FC3F80C25C3F808250CBFD2
:106FA000C3F80C55C3F8085514F0080FC3F80C25A6
:106FB000C3F808250CBFC3F80C55C3F8085514F0E6
:106FC000040FC3F80C25C3F808250CBFC3F80C55F3
:106FD000C3F8085514F0020FC3F80C25C3F80825B0
:106FE0000CBFC3F80C55C3F80855E407C3F80C25CB
:106FF000C3F808257BD4B842C3F80C55C3F80C1568
:10700000C3F80815A4D108F101015046C9B2FFF731
:10701000DDFB3D4B09F10F044FF00065994434440A
:107020002A464FF0A0434FF080664FF4000014F85A
:10703000011FC3F808650F0654BFC3F80C05C3F859
:1070400008054F06C3F80C25C3F8082554BFC3F83C
:107050000C05C3F808058F06C3F80C25C3F80825EE
:1070600054BFC3F80C05C3F80805CF06C3F80C25B8
:10707000C3F8082554BFC3F80C05C3F808050F076B
:10708000C3F80C25C3F8082554BFC3F80C05C3F892
:1070900008054F07C3F80C25C3F8082554BFC3F8EB
:1070A0000C05C3F808058F07C3F80C25C3F808259D
:1070B00054BFC3F80C05C3F80805C907C3F80C256D
:1070C000C3F8082509D4A145C3F80C05C3F80C552D
:1070D000C3F80855ABD1BDE8F087A145C3F8080552
:1070E000C3F80C55C3F80855A1D1BDE8F087B842E4
:1070F000C3F80855C3F80C15C3F808157FF428AF7A
:1071000081E700BFD4220020F322002038B54FF0E1
:10711000A0430322104CC3F86C274FF48005C3F83A
:107120005C274FF00070C3F860274FF00061C3F890
:107130006827C3F85827C3F864274FF08072C3F854
:107140000C5544F00104C3F808053225C3F80815AE
:10715000C3F80C2502E000BF10D602004FF47A40BD
:10716000A047013DFAD14FF0A0434FF000624FF429
:1071700000044FF080614FF08070C3F80805C3F839
:107180000C152846C3F80845C3F80C25C3F8082594
:10719000C3F80C45C3F80C25C3F80825C3F8084507
:1071A000C3F80C25C3F80825C3F80C45C3F80C2513
:1071B000C3F80825C3F80845C3F80C25C3F808250B
:1071C000C3F80845C3F80C25C3F80825C3F80845DB
:1071D000C3F80C25C3F80825C3F80C45C3F80C25E3
:1071E000C3F80825C3F80C15C3F80C45C3F80C25E3
:1071F000C3F80825C3F80C45C3F80C25C3F80825C7
:10720000C3F80C45C3F80C25C3F80825C3F80C4592
:10721000C3F80C25C3F80825C3F80C45C3F80C25A2
:10722000C3F80825C3F80C45C3F80C25C3F8082596
:10723000C3F80C45C3F80C25C3F80825C3F80C4562
:10724000C3F80C25C3F80825C3F80C15C3F80C4582
:10725000C3F80C25C3F80825C3F80C45C3F80C2562
:10726000C3F80825C3F80C45C3F80C25C3F8082556
:10727000C3F80845C3F80C25C3F80825C3F80C4526
:10728000C3F80C25C3F80825C3F80C45C3F80C2532
:10729000C3F80825C3F80C45C3F80C25C3F8082526
:1072A000C3F80C45C3F80C25C3F80825C3F80C1522
:1072B000C3F80C45C3F80C25C3F80825C3F80845E6
:1072C000C3F80C25C3F80825C3F80C45C3F80C25F2
:1072D000C3F80825C3F80C45C3F80C25C3F80825E6
:1072E000C3F80C45C3F80C25C3F80825C3F80C45B2
:1072F000C3F80C25C3F80825C3F80C45C3F80C25C2
:10730000C3F80825C3F80C45C3F80C25C3F80825B5
:10731000C3F80C15C3F80845C3F80C25C3F80825B5
:10732000C3F80C45C3F80C25C3F80825C3F80C4571
:10733000C3F80C25C3F80825C3F80C45C3F80C2581
:10734000C3F80825C3F80C45C3F80C25C3F8082575
:10735000C3F80C45C3F80C25C3F80825C3F80C4541
:10736000C3F80C25C3F80825C3F80845C3F80C2555
:10737000C3F80825C3F80C15C3F80845C3F80C2555
:10738000C3F80825C3F80845C3F80C25C3F8082539
:10739000C3F80C45C3F80C25C3F80825C3F80C4501
:1073A000C3F80C25C3F80825C3F80845C3F80C2515
:1073B000C3F80825C3F80845C3F80C25C3F8082509
:1073C000C3F80845C3F80C25C3F80825C3F80845D9
:1073D000C3F80C25C3F80825C3F80C15C3F80845F5
:1073E000C3F80C25C3F80825C3F80C45C3F80C25D1
:1073F000C3F80825C3F80845C3F80C25C3F80825C9
:10740000C3F80C45C3F80C25C3F80825C3F80C4590
:10741000C3F80C25C3F80825C3F80C45C3F80C25A0
:10742000C3F80825C3F80C45C3F80C25C3F8082594
:10743000C3F80845C3F80C25C3F80825C3F80C1594
:10744000C3F80845C3F80C25C3F80825C3F8084558
:10745000C3F80C25C3F80825C3F80C45C3F80C2560
:10746000C3F80825C3F80C45C3F80C25C3F8082554
:10747000C3F80845C3F80C25C3F80825C3F80C4524
:10748000C3F80C25C3F80825C3F80C45C3F80C2530
:10749000C3F80825C3F80C45C3F80C25C3F8082524
:1074A000C3F80C15C3F80845C3F80C25C3F8082524
:1074B000C3F80C45C3F80C25C3F80825C3F80845E4
:1074C000C3F80C25C3F80825C3F80C45C3F80C25F0
:1074D000C3F80825C3F80C45C3F80C25C3F80825E4
:1074E000C3F80845C3F80C25C3F80825C3F80845B8
:1074F000C3F80C25C3F80825C3F80C45C3F80C25C0
:10750000C3F80825C3F80C15C3F80845C3F80C25C3
:10751000C3F80825C3F80C45C3F80C25C3F80825A3
:10752000C3F80845C3F80C25C3F80825C3F80C4573
:10753000C3F80C25C3F80825C3F80845C3F80C2583
:10754000C3F80825C3F80C45C3F80C25C3F8082573
:10755000C3F80C45C3F80C25C3F80825C3F80C453F
:10756000C3F80C25C3F80825C3F80C15C3F80C455F
:10757000C3F80C25C3F80825C3F80C45C3F80C253F
:10758000C3F80825C3F80845C3F80C25C3F8082537
:10759000C3F80845C3F80C25C3F80825C3F8084507
:1075A000C3F80C25C3F80825C3F80845C3F80C2513
:1075B000C3F80825C3F80845C3F80C25C3F8082507
:1075C000C3F80845C3F80C25C3F80825C3F80C1503
:1075D000C3F80845C3F80C25C3F80825C3F80845C7
:1075E000C3F80C25C3F80825C3F80C45C3F80C25CF
:1075F000C3F80825C3F80845C3F80C25C3F80825C7
:10760000C3F80C45C3F80C25C3F80825C3F80C458E
:10761000C3F80C25C3F80825C3F80845C3F80C25A2
:10762000C3F80825C3F80845C3F80C25C3F8082596
:10763000C3F80C15C3F80C45C3F80C25C3F808258E
:10764000C3F80C45C3F80C25C3F80825C3F80C454E
:10765000C3F80C25C3F80825C3F80C45C3F80C255E
:10766000C3F80825C3F80C45C3F80C25C3F8082552
:10767000C3F80C45C3F80C25C3F80825C3F80C451E
:10768000C3F80C25C3F80825C3F80C45C3F80C252E
:10769000C3F80825C3F80C15C3F80845C3F80C2532
:1076A000C3F80825C3F80845C3F80C25C3F8082516
:1076B000C3F80C45C3F80C25C3F80825C3F80845E2
:1076C000C3F80C25C3F80825C3F80C45C3F80C25EE
:1076D000C3F80825C3F80845C3F80C25C3F80825E6
:1076E000C3F80C45C3F80C25C3F80825C3F80845B2
:1076F000C3F80C25C3F80825C3F80C15C3F80845D2
:10770000C3F80C25C3F80825C3F80C45C3F80C25AD
:10771000C3F80825C3F80C45C3F80C25C3F80825A1
:10772000C3F80C45C3F80C25C3F80825C3F80C456D
:10773000C3F80C25C3F80825C3F80C45C3F80C257D
:10774000C3F80825C3F80C45C3F80C25C3F8082571
:10775000C3F80C45C3F80C25C3F80825C3F80C156D
:10776000C3F80845C3F80C25C3F80825C3F8084535
:10777000C3F80C25C3F80825C3F80C45C3F80C253D
:10778000C3F80825C3F80845C3F80C25C3F8082535
:10779000C3F80845C3F80C25C3F80825C3F80C4501
:1077A000C3F80C25C3F80825C3F80C45C3F80C250D
:1077B000C3F80825C3F80845C3F80C25C3F8082505
:1077C000C3F80C15C3F80845C3F80C25C3F8082501
:1077D000C3F80845C3F80C25C3F80825C3F80845C5
:1077E000C3F80C25C3F80825C3F80845C3F80C25D1
:1077F000C3F80825C3F80C45C3F80C25C3F80825C1
:10780000C3F80C45C3F80C25C3F80825C3F80C458C
:10781000C3F80C25C3F80825C3F80845C3F80C25A0
:10782000C3F80825C3F80C15C3F80845C3F80C25A0
:10783000C3F80825C3F80845C3F80C25C3F8082584
:10784000C3F80C45C3F80C25C3F80825C3F8084550
:10785000C3F80C25C3F80825C3F80845C3F80C2560
:10786000C3F80825C3F80C45C3F80C25C3F8082550
:10787000C3F80845C3F80C25C3F80825C3F80C4520
:10788000C3F80C25C3F80825C3F80C15C3F80C453C
:10789000C3F80C25C3F80825C3F80C45C3F80C251C
:1078A000C3F80825C3F80C45C3F80C25C3F8082510
:1078B000C3F80845C3F80C25C3F80825C3F80C45E0
:1078C000C3F80C25C3F80825C3F80C45C3F80C25EC
:1078D000C3F80825C3F80845C3F80C25C3F80825E4
:1078E000C3F80C45C3F80C25C3F80825C3F80C15DC
:1078F000C3F80845C3F80C25C3F80825C3F80845A4
:10790000C3F80C25C3F80825C3F80C45C3F80C25AB
:10791000C3F80825C3F80845C3F80C25C3F80825A3
:10792000C3F80845C3F80C25C3F80825C3F80C456F
:10793000C3F80C25C3F80825C3F80845C3F80C257F
:10794000C3F80825C3F80845C3F80C25C3F8082573
:10795000C3F80C15C3F80C45C3F80C25C3F808256B
:10796000C3F80845C3F80C25C3F80825C3F80C452F
:10797000C3F80C25C3F80825C3F80C45C3F80C253B
:10798000C3F80825C3F80C45C3F80C25C3F808252F
:10799000C3F80C45C3F80C25C3F80825C3F80C45FB
:1079A000C3F80C25C3F80825C3F80C45C3F80C250B
:1079B000C3F80825C3F80C15C3F80C45C3F80C250B
:1079C000C3F80825C3F80C45C3F80C25C3F80825EF
:1079D000C3F80845C3F80C25C3F80825C3F80C45BF
:1079E000C3F80C25C3F80825C3F80C45C3F80C25CB
:1079F000C3F80825C3F80C45C3F80C25C3F80825BF
:107A0000C3F80C45C3F80C25C3F80825C3F80C458A
:107A1000C3F80C25C3F80825C3F80C15C3F80C45AA
:107A2000C3F80C25C3F80825C3F80C45C3F80C258A
:107A3000C3F80825C3F80C45C3F80C25C3F808257E
:107A4000C3F80C45C3F80C25C3F80825C3F80C454A
:107A5000C3F80C25C3F80825C3F80C45C3F80C255A
:107A6000C3F80825C3F80845C3F80C25C3F8082552
:107A7000C3F80C45C3F80C25C3F80825C3F80C154A
:107A8000C3F80845C3F80C25C3F80825C3F80C450E
:107A9000C3F80C25C3F80825C3F80C45C3F80C251A
:107AA000C3F80825C3F80C45C3F80C25C3F808250E
:107AB000C3F80845C3F80C25C3F80825C3F80845E2
:107AC000C3F80C25C3F80825C3F80C45C3F80C25EA
:107AD000C3F80825C3F80845C3F80C25C3F80825E2
:107AE000C3F80C15C3F80C45C3F80C25C3F80825DA
:107AF000C3F80C45C3F80C25C3F80825C3F80C459A
:107B0000C3F80C25C3F80825C3F80845C3F80C25AD
:107B1000C3F80825C3F80C45C3F80C25C3F808259D
:107B2000C3F80845C3F80C25C3F80825C3F80C456D
:107B3000C3F80C25C3F80825C3F80C45C3F80C2579
:107B4000C3F80825C3F80C15C3F80845C3F80C257D
:107B5000C3F80825C3F80C45C3F80C25C3F808255D
:107B6000C3F80845C3F80C25C3F80825C3F80C452D
:107B7000C3F80C25C3F80825C3F80C45C3F80C2539
:107B8000C3F80825C3F80845C3F80C25C3F8082531
:107B9000C3F80C45C3F80C25C3F80825C3F80C45F9
:107BA000C3F80C25C3F80825C3F80C15C3F808451D
:107BB000C3F80C25C3F80825C3F80C45C3F80C25F9
:107BC000C3F80825C3F80845C3F80C25C3F80825F1
:107BD000C3F80C45C3F80C25C3F80825C3F80C45B9
:107BE000C3F80C25C3F80825C3F80845C3F80C25CD
:107BF000C3F80825C3F80845C3F80C25C3F80825C1
:107C0000C3F80C45C3F80C25C3F80825C3F80C15B8
:107C1000C3F80845C3F80C25C3F80825C3F80C457C
:107C2000C3F80C25C3F80825C3F80845C3F80C258C
:107C3000C3F80825C3F80C45C3F80C25C3F808257C
:107C4000C3F80845C3F80C25C3F80825C3F8084550
:107C5000C3F80C25C3F80825C3F80845C3F80C255C
:107C6000C3F80825C3F80845C3F80C25C3F8082550
:107C7000FEF7FAFE29462846FEF7A8FDEAB21001F3
:107C8000013500F0F0000021FFF748F9082DF5D18B
:107C900038BD00BF0649074A074B9B1A03DD043B6A
:107CA000C858D050FBDC00F013F8FEF7C9FA00000A
:107CB000F0E20200B822002060270020FEE7FEE785
:107CC000FEE7FEE7FEE7FEE7FEE7FEE7FEE7FEE78C
:107CD00030B4B84B1B78062B20D0B74B1B68062B53
:107CE00000F08180B54AD2F8883043F47003C2F8BE
:107CF0008830BFF34F8FBFF36F8F4FF01023D3F84F
:107D00000022002AC0F28681D3F80432002BC0F290
:107D10008181AB4BAB4A1A6030BC7047AA4B1B68E1
:107D20001D07DAD1A94B1B6803F0F002302A00F0DE
:107D30009B8003F0E003402B00F09680A34B1B6870
:107D400003F0F003302B00F0A080A04B1B6803F081
:107D5000F002302A77D003F0E003402B73D09B4B26
:107D60001B6803F0F003302B00F01481974B1B6865
:107D700003F0F002302A52D003F0E003402B4ED043
:107D8000924B1B6803F0F003302B00F0F5808F4B13
:107D90001B6803F0F003302B00F0D7808B4B1B687F
:107DA00003F0F003502B7ED0884B1B6803F0F002E9
:107DB000302A23D003F0E003402B1FD0834B1B68F5
:107DC00003F0F002302A03D003F0E003402B84D10B
:107DD0004FF08043D3F80024D20744BF6FF0010274
:107DE000C3F8002479E77A4B1B68062B7FF47AAF3F
:107DF000784A136843F48063136073E7764B6D4AE7
:107E00001B681278754903F04F03062A0B607FF454
:107E100064AF6D4B1B6819077FF45FAFCEE7654A0F
:107E200011784FF0804300220629C3F80C21C3F8D3
:107E30001021C3F838257FF450AF634B1B681B0734
:107E40007FF44BAF9CE7664B5A4A1B681278654932
:107E5000C3F34233062A0B607FF43FAF5A4B1B68D3
:107E600019077FF43AAF7AE75F4B524A1B681278E2
:107E70005E49C3F30423062A0B607FF42EAF524BF6
:107E80001B681C077FF429AF58E74A4B584A1B78F8
:107E900058491160062B7FF420AF4B4B1B68180725
:107EA0007FF41BAF51E74FF08052534BD2F80414CC
:107EB000C3F82015D2F80814C3F82415D2F80C140E
:107EC000C3F82815D2F81014C3F82C15D2F81414DE
:107ED000C3F83015D2F81814C3F83415D2F81C14AE
:107EE000C3F84015D2F82014C3F84415D2F824146E
:107EF000C3F84815D2F82814C3F84C15D2F82C143E
:107F0000C3F85015D2F83014C3F85415D2F834140D
:107F1000C3F86015D2F83814C3F86415D2F83C14CD
:107F2000C3F86815D2F840142248C3F86C15D2F88B
:107F300044140278C3F87015062A7FF4CEAE224BA3
:107F40001B6818077FF4C9AE2EE71A4B2B4C1B7821
:107F50002B492C482C4A0525256001250D6000245D
:107F60003F21062B046011607FF4B7AE164B1B68EF
:107F70001C077FF4B2AE11E70E4B244A1B78032195
:107F8000062B11607FF4A9AE0F4B1B681D077FF411
:107F9000A4AEFCE61E4A0749D368097823F0807333
:107FA0000629D3607FF499AE074B1B681A077FF44C
:107FB00094AEDBE6E00F00F03001001000ED00E0D1
:107FC000D42600200090D003E40F00F0E80F00F06A
:107FD000340100103C17004058020010E40E00402D
:107FE000440200103C0500402403001040350140CD
:107FF00074C007400DF0ADBA00C0004010560040FC
:10800000885600401856004014560040A005004015
:10801000F0ED00E0184A0123C2F80435D2F800342C
:10802000002BFBD04FF010231521134AC3F8001288
:10803000D2F80034002BFBD04FF0102315210E4A4C
:10804000C3F80412D2F80034002BFBD000230A49F5
:10805000C2F80435D1F80034002BFBD0BFF34F8FAA
:108060000649074BCA6802F4E0621343CB60BFF3D2
:108070004F8F00BFFDE700BF00E0014000ED00E0D2
:108080000400FA05F0B595B000241D460E460846DA
:10809000174602F0ADF8304623460822099505A997
:1080A0001A9D08970D950A948DF82C400C9402F0B7
:1080B00003F99DF814308DF81140DDE9061003F046
:1080C0000302012ACDE9020128D0022A04D0304659
:1080D00002F092F815B0F0BDBDF81650C3F3C2031C
:1080E0008DF81030C5F389150827082D2C4628BFB8
:1080F00008243B4622460EA9304602F0DDF82D1B2F
:10810000214608AB02AA0EA8274400F0FFFD002D6F
:10811000EBD1304602F070F815B0F0BDBDF8147028
:10812000059DC7F38312C3F3C2040EA93046920023
:1081300008238DF81040C7F3831702F0BDF8C5F38C
:10814000952508AB3A4628460EA9009302AB00F0ED
:1081500065FD304602F050F815B0F0BD014B01222C
:108160001A70704738280020704700BF00B583B0F0
:10817000044B0093044A4023FFF784FF03B05DF8EB
:1081800004FB00BF8D810200F827002038B50E489F
:108190000E4D03780E4CEB5C00252570D2B253B126
:1081A000043003F0CFFB58B90A4B1B7813B1237886
:1081B000002BFCD038BD0C3003F07AF90028F3D046
:1081C00000F080FFF0E700BFD82600200431002037
:1081D00038280020F42700202DE9704319481A4A56
:1081E0000378D35C88B02BB3043003F041FB174D08
:1081F0000FCD6C460FC495E80F004FF0EB7684E886
:108200000F004FF006084FF0FF394FF0FF344FF0EA
:10821000FF350C48069600226946CDE90089CDE974
:10822000024502F00FFA48B9094B00221A7008B053
:10823000BDE870830C3003F0D5F8D8E700F042FFBA
:10824000F2E700BFD82600200431002018D6020033
:10825000F4270020F0B5154D0FCD89B06C460FC442
:1082600095E80F004FF0EB7C84E80F0006264FF0F6
:10827000FF374FF0FF344FF0FF350D4A0D48CDF872
:1082800018C06946CDE90067CDE9024502F0DAF988
:1082900020B9094B01221A7009B0F0BD00F012FF9D
:1082A000054B01221A7009B0F0BD00BF18D60200BC
:1082B0005D810200D8260020F427002008B5FFF7D2
:1082C000C9FF0448042100F025FC034B01225A7128
:1082D00008BD00BFD8E20200EC26002038B50C4BE8
:1082E0000C48002400250022C3E90045FF21C3F803
:1082F0001824996083F82024C3F8142401F02CFF7B
:10830000044610B9044802F04DF8204638BD00BFBD
:108310001029002064E2020070D6020099B10E4BD1
:108320000E495B1ADB0815D030B400220C4D02E078
:10833000013293420BD035F822408442F8D151F8F3
:10834000320030BC7047054951F8300070470020BA
:1083500030BC704718467047D8E2020078E202004D
:108360005C270020094B013903EBC00003290BD81F
:10837000DFE801F00402080604207047022070477D
:1083800040797047007970470020704778E202001A
:108390002DE9F047954CD4E900239A4284B063D08C
:1083A0000023C4F81834BFF34F8FD4E9013503EA32
:1083B0000501CA1C04EB820614F82220500719D5C7
:1083C0002768327802F00302012A43D0022A03D13F
:1083D0007288023303EB921305EA0301D4F8180400
:1083E000CA1C04EB820628B99F4239D914F822200E
:1083F0005207E6D404EB81015A1CC96801912A4056
:1084000004EB820201F00301D2680292022903F117
:1084100002062DD0012900F09580D4F810543DB10A
:108420002B6828469B689847EB681D68002DF7D19C
:108430006F48704B7049C01AC008000440F0020039
:1084400000F0E0F8D4E90030C01A18BF012004B0F1
:10845000BDE8F08732880233C2F383121344BBE7CE
:10846000676004B0BDE8F087002004B0BDE8F08785
:10847000BDF806306148C3F38919B9F1500FC846F9
:1084800028BF4FF0500868F38F1308F10801ADF8CA
:10849000063001F063FE07460028BED001F0A8FEBA
:1084A0000023082201A9384601F0D2FE25EA06037E
:1084B0000133B8EB830F4FEA830A7DD9BAF1000F7D
:1084C00000F08D8005EA06010331A8EB0A0804EBF1
:1084D00081010823524638465FFA88F801F0B8FE59
:1084E000474942460AF10803384601F0B1FE09F156
:1084F000030906EB9906D4F81834002B6BD1D4F895
:10850000105465B1EB685A7928463946002A5ED086
:108510002B681B689847EB681D68002DF2D1384620
:1085200001F06AFE00230DF103008DF8033001F025
:1085300049F9D4F8183403B966609DF8030001F0D6
:1085400067F97FE7BDF804302C48C3F38312062A8D
:1085500028BF0622911C62F389138900ADF804300C
:1085600001F0FCFD074600283FF457AF01F040FE44
:108570000023082201A9384601F06AFEBDF8043044
:1085800013F4707FB7D04FF00008314629404FEA0E
:1085900088030331083304EB81010422384601F0DB
:1085A00057FEBDF8043008F10108C3F383134345B7
:1085B00006F10106E9D89EE705EA0601033104EB5E
:1085C000810142460823384601F042FE8FE71D68CC
:1085D000002D97D1A3E7384601F00EFE32E7084997
:1085E00042460823384601F033FE80E71029002078
:1085F000A0E2020078E2020058D6020064E2020023
:108600001C2900202DE9F04F644C87B0002306465A
:108610000DF10B008DF80B30A568019101F0D2F837
:10862000D4E9012327681A440132D21B012A00F23F
:10863000858004F21C4804F5836A04F214491BE0A7
:10864000BDF80E30C3F389130333090C0BEB930B06
:108650004846009101F068F9009900283ED0404654
:10866000C4F804B001F034F9D4E9011322681944C4
:108670000131891A012962D80121404601F028F907
:10868000504601F041F9484601F03EF9D4E9013C79
:1086900003EA0C02D11C04EB810014F821E01EF067
:1086A000040F0EF0040129D104EB8202591CD26898
:1086B000039201EA0C0104EB810102F00302012A9A
:1086C000C96803F1020B32D0022AB9D00021484612
:1086D000009101F029F900990028C0D14046C1E776
:1086E00043880BEB93130CEA0302D11C04EB8100CB
:1086F00014F8211001F004010029D5D090F800E011
:108700000EF0030EBEF1010F0BD0BEF1020F03F10C
:10871000020B02F1030EE3D004EB8E000029EDD131
:10872000C2E702880233C2F383121344DBE7BDF8C9
:108730000C30C3F38313090C9B4489E73A4613407A
:108740000333023205219DF80B0044F82310226008
:1087500001F05EF80021124801F090F880F310005B
:10876000F1007B1C2B40019A01F038013D4004EBE5
:10877000830341F001010004033540EA164641EA53
:108780008221DE6044F8251094F820341BB1FFF7F5
:10879000FFFD0028FBD107B0BDE8F08F10290020B5
:1087A0002C2D00202DE9F04F684C89B0002307469E
:1087B0000DF11300CDE902128DF81330A56801F018
:1087C00001F8D4E9012326681A440132921B022AD7
:1087D00000F2858004F21C4804F5836A04F214490F
:1087E0001BE0BDF81630C3F389130333090C0BEB00
:1087F000930B4846019101F097F8019900283ED06B
:108800004046C4F804B001F063F8D4E901132268CB
:1088100019440131891A022962D80121404601F028
:1088200057F8504601F070F8484601F06DF8D4E969
:10883000013C03EA0C02D11C04EB810014F821E096
:108840001EF0040F0EF0040129D104EB8202591C22
:10885000D268059201EA0C0104EB810102F00302E7
:10886000012AC96803F1020B32D0022AB9D00021D3
:108870004846019101F058F801990028C0D14046BE
:10888000C1E743880BEB93130CEA0302D11C04EB02
:10889000810014F8211001F004010029D5D090F8CE
:1088A00000E00EF0030EBEF1010F0BD0BEF1020F7F
:1088B00003F1020B02F1030EE3D004EB8E0000295A
:1088C000EDD1C2E702880233C2F383121344DBE71F
:1088D000BDF81430C3F38313090C9B4489E7324677
:1088E00013400333033245219DF8130044F823104D
:1088F000226000F08DFFB31C2B4004EB8303039A2E
:108900001348DA60002100F0B9FF80F31000F9008D
:10891000731C2B40029A01F03801354004EB8303AD
:1089200041F041010004033540EA174741EA822142
:10893000DF6044F8251094F820341BB1FFF728FDC0
:108940000028FBD109B0BDE8F08F00BF102900203E
:108950002C2D00202DE9F04F6C4C89B000260746E5
:108960000DF11300CDE9011203938DF81360A56892
:1089700000F028FFD4E9012326681A440132921B33
:10898000032A00F2858004F21C4804F5836A04F28D
:1089900014491BE0BDF81630C3F389130333090CE7
:1089A0000BEB930B4846009100F0BEFF00990028A6
:1089B0003ED04046C4F804B000F08AFFD4E9011369
:1089C000226819440131891A032962D801214046DD
:1089D00000F07EFF504600F097FF484600F094FFFD
:1089E000D4E9013C03EA0C02D11C04EB810014F829
:1089F00021E01EF0040F0EF0040129D104EB8202E5
:108A0000591CD268059201EA0C0104EB810102F0C5
:108A10000302012AC96803F1020B32D0022AB9D03D
:108A200000214846009100F07FFF00990028C0D146
:108A30004046C1E743880BEB93130CEA0302D11CB9
:108A400004EB810014F8211001F004010029D5D0B5
:108A500090F800E00EF0030EBEF1010F0BD0BEF156
:108A6000020F03F1020B02F1030EE3D004EB8E00C0
:108A70000029EDD1C2E702880233C2F38312134406
:108A8000DBE7BDF81430C3F38313090C9B4489E77B
:108A9000324613400333043285219DF8130044F815
:108AA0002310226000F0B4FEB21C2A40F31C2B40BD
:108AB00004EB820204EB830C029BD3600021039B36
:108AC0001348CCF80C3000F0D9FE80F31000F90008
:108AD000731C2B40019A01F03801354004EB8303ED
:108AE00041F081010004033540EA174741EA822141
:108AF000DF6044F8251094F820341BB1FFF748FCE0
:108B00000028FBD109B0BDE8F08F00BF102900207C
:108B10002C2D002030B4154DD5F81014044600203B
:108B200071B10B4601E01B6853B1DB681A798242D0
:108B3000F9D101300A28F3D14FF0FF3030BC704733
:108B4000E3681871D5F810344BB1DA68E36812683D
:108B50001A60D5F81034DB681C6030BC7047C5F86B
:108B60001044E268136030BC704700BF1029002039
:108B700038B5094BD3F81044012583F820544CB183
:108B8000E3685D71236820465B689847E3681C686A
:108B9000002CF5D138BD00BF1029002030B5C388A6
:108BA00085B004460D461BBB217A05291ED0627A8A
:108BB00082B9134AA08852F8212003920021FFF7BE
:108BC000ADFB039A0F490346284605B0BDE8304087
:108BD00000F026BFA088FFF7C5FB0B4B0B4953F8ED
:108BE0002020284600F01CFF217AE2E705B030BDC6
:108BF000074A00920749084A284600F011FFD3E7C8
:108C000048D70200A8D6020024D70200A4D602004A
:108C10009CD6020084D602007CD602002DE9F043E7
:108C200085B04FF0000C0C9C814694F80C8084F8C1
:108C30000CC00E461746184621461D46FFF7AEFFEC
:108C4000062F09D8DFE807F0042E343B444F1F00FD
:108C50004946204600F0E4FE2B7A052B05D06B7ABE
:108C60005BB92749204600F0DBFE204600F0CCFE31
:108C700084F80C8005B0BDE8F083224A22492046E2
:108C800000F0CEFEEDE7D6E90413F2680393B36873
:108C90000291CDE900324946D6E90023204600F092
:108CA000BFFED9E732684946204600F0B9FED3E757
:108CB000D6E900234946204600F0B2FECCE7B3686F
:108CC0000093D6E900234946204600F0A9FEC3E7F9
:108CD000D6E9023201920093D6E9002349462046A4
:108CE00000F09EFEB8E7D6E90321B3680291CDE912
:108CF00000324946D6E90023204600F091FEABE75A
:108D0000B4D602009CD60200A4D60200082900D9DD
:108D100070472DE9F04F9B4683B000241B7B8BF8F6
:108D20000C400D4606465946104690460193DFF822
:108D3000D0902C4FFFF732FF05E0325D013400F098
:108D40006FFE082C09D0A54239465846F5D8494649
:108D5000013400F065FE082CF5D12349DFF8A4901A
:108D6000224C234F584600F05BFE4FF0000A0DE006
:108D7000D15D11F0970F08BF2E22214658460AF107
:108D8000010A00F04DFEBAF1080F10D0554505D983
:108D900016F80A207E2AEBD92E22EEE749465846DD
:108DA0000AF1010A00F03CFEBAF1080FEED198F882
:108DB0000830052B02D098F8093063B90D495846A0
:108DC00000F02EFE584600F01FFE019B8BF80C3081
:108DD00003B0BDE8F08F084A0849584600F020FE6D
:108DE000ECE700BFB8D60200C4D60200C8D6020025
:108DF00009E10200B4D602009CD60200A4D602000B
:108E0000C0D60200B0D602002DE9F04F3D4B93F8DA
:108E100000E087B0BEF1000F5FD00027DFF8F080E0
:108E200002973C46012506E0029B013302939DF820
:108E30000840A64551D9344BD8F800101E68D8F820
:108E4000042016F83400A0F1200BC0F1200305FA2D
:108E50000BFB25FA03F34BEA030305FA00FC01EAD6
:108E60000C0902EA030A06EBC40759EA0A0B039746
:108E7000DAD021EA0C0122EA0303C8E9001301F069
:108E800049FE16F83430214AC3F1200CD2E90067BC
:108E9000A3F1200E614600FA0EF405FA0EF225FA4F
:108EA00001F105FA03FE20FA0CFC0A430EEA060162
:108EB00044EA0C0404913A4000FA03F10091019451
:108EC0000592DDE90412DDE900BC624508BF5945A1
:108ED00006D00C4B93F800E0A6E707B0BDE8F08F92
:108EE00003994A68002AF4D04978A1F10101B1FA46
:108EF00081F14909091AB1FA81F1490918469047E7
:108F0000E7E700BFCC2D0020082E0020F82D002020
:108F1000002E00202DE9F8438046224800F016FC80
:108F2000E0B9214D4FF0010CD5E90023A8F1200450
:108F3000C8F120012CFA01F10CFA04F40C430CFAEC
:108F400008F902EA090603EA040756EA070107D00E
:108F500022EA090223EA0404C5E90024BDE8F883F3
:108F6000404601F0D7FD114B1E68A8B9586826EAA3
:108F7000090620EA0400D5E900211E600C4E586065
:108F800042EA09020C432A6031686C600548BDE87A
:108F9000F843002200F084BB586849EA06062043E3
:108FA000E9E700BFD42D0020002E0020F82D00207E
:108FB000D02D0020042A3BD92DE9F04182B014467F
:108FC00005460E4601F028FC68B31E491E4A1F4B99
:108FD0000D601F481F491C60167000230022741E7C
:108FE000C0E90023C1E90023E4B21EB3DFF87080BA
:108FF00005EBC4040027032602E0AC421AD01C464D
:10900000A37820788DF80530424601A98DF80670C6
:109010008DF8046001F00AFCA4F108030028ECD0EC
:1090200002B0BDE8F08101F0ADFB0028CDD0F7E73C
:1090300007207047084A0948002100F01FFB02B0D2
:10904000BDE8F081082E0020CC2D0020D02D00207E
:10905000F82D0020002E0020098E02005CD70200AF
:10906000158F020070B5084D2B785BB1074E0024B8
:109070003368012113F8340001F0BCFC2B78013473
:10908000A342F5D8002070BDCC2D0020082E002072
:1090900070B5094D2B7853B1084E0024336813F88E
:1090A000340001F005FD2B780134A342F6D8BDE869
:1090B0007040034800F04ABBCC2D0020082E002051
:1090C000D42D002000B585B00346002101AA44F24A
:1090D0000100CDE90111039300F004F805B05DF83B
:1090E00004FB00BF10B572B6FFF742FDFFF750F961
:1090F0000028FBD1104B114C1149E41AE408240458
:1091000044F00100FFF77EFA0E4B1B68DB0700D529
:1091100000BE0D4944F00200FFF774FABFF34F8F11
:109120000A490B4BCA6802F4E0621343CB60BFF3F9
:109130004F8F00BFFDE700BF78E20200A0E202000F
:1091400060D70200F0ED00E06CD7020000ED00E017
:109150000400FA05F8B52049204B0024C1F840412D
:10916000C1F84441C1F84841C1F84C41C1F800413F
:10917000C1F804411B6833B31948D1F8045501689C
:109180001A686D1A25F07F45AA4227460DD8197C2A
:10919000DE69AD1A144419B1D3E905201F74904754
:1091A0001EB133461A68AA42F1D90E490E4A0B780D
:1091B00012789A4208D00D490D4A41F823404FF4E5
:1091C0008013C2F80031F8BD531CDBB2022B08BF7C
:1091D00000230B70EFE700BF001001402C2F002090
:1091E000282F0020252F0020242F00201C2F0020B6
:1091F00000E100E02DE9F04FB34AB4491378097853
:10920000994285B000F088810133DBB2022B08BFA0
:109210000023AF481370AF4A0568DFF8D08252F8D8
:109220002310D8F800606B1823F07F430360002EF2
:1092300000F0C18100200746044684463346AE460E
:1092400013E0D868DD69C3F800C0891A144438B146
:109250000EEB040222F07F42C3E90120DF611F46CA
:109260000120002D00F05F812B461A688A42E8D960
:10927000002800F08B81C8F800309946521A1A6015
:1092800001230093944B954EDFF864A243F0010351
:1092900001934D464FF0000B002F31D0D7E901303C
:1092A0003C46FF698A4ADFF84CC21268991A21F0DD
:1092B0007F41614500F2DD800B182360002201210F
:1092C000C4E90122E2612174002D00F0F3802A68D4
:1092D0009A4280F0E880294605E0D1F800E09E45FA
:1092E00080F0CF8072460846C9699C469B1A0029C7
:1092F000F3D12360E161C4612C462546002FCDD116
:1093000070783378984247D09C460CEB4C0CB2787E
:1093100006EBCC0C591CCBB29A429CF8042033705B
:1093200004BF00233370022ADCF8084024D0032A4B
:1093300018D0012AE6D1227C002AE3D1DCF80C30D7
:109340006360DCF81000A060DCF81410E1609AF8AB
:1093500000E0DCF81810A161BEF1000FA2D062603D
:1093600013469FE7002DCDD000232B74ED69002D0F
:10937000FBD1C8F80050C3E755B1AC4200F0BC8047
:109380002A4601E0944239D01146D269002AF9D127
:10939000002222749842B7D1BBF1000F01D1A94538
:1093A00041D0002D44D04A4A4D4B1468D3F804658F
:1093B0004C4FD5F800803A78351B25F07F450335B2
:1093C000002A00F0B580464AA8452CBF44446419E1
:1093D00024F07F44C2F84045D2F804359B1BA41BFF
:1093E00023F07F4324F07F440333A34200F2B9808B
:1093F00000238AF8003005B0BDE8F08F8C427DD0A4
:10940000E0692268C861002858D0AC46036813445C
:109410000360AC4552D000223378707822746546E0
:109420004FF0010BB6E7009B002BE1D0002DBAD125
:109430002B4E2D4A284C4FF400314FF48033012736
:10944000C2F880103C43C6F848334FF43C60C6F87D
:1094500008337760A0471E4BB7604FF43C601D6037
:10946000A047204B1D7000238AF8003005B0BDE8EE
:10947000F08FD31A23F07F4383420BD2C31A2360A9
:109480001CE77244A2EB0C020A602360E161C46134
:109490002C4632E700230122C4E90033A360E361D4
:1094A00022743DB12A68C8F80040D31A2B60E561E8
:1094B000254623E7C8F8004025461FE700223378F9
:1094C0007078227466E700BF242F0020252F00202B
:1094D000282F00201C2F002080D702000C2E0020F7
:1094E00000100140192F002000E100E02C2F002087
:1094F000182F0020FEFF7F0029462A46D5F81CC001
:10950000C8F800C0BCF1000F42D0D0691268C86131
:1095100000287FF47BAF7CE7DFF8B4800027D8F821
:1095200000900097AEE6A946C8F800500090A9E662
:109530002349244A4FF48030C3F844034FF0010913
:10954000C3F804034FF40030C1F8800142F0010277
:109550000860C3F800904FF43C60904787F8009093
:1095600031E7184BD2F80415C2F8401543F0010357
:109570004FF43C609847124B4FF40032C3F800217F
:1095800000238AF8003005B0BDE8F08FB14675E6DB
:10959000CDE902210C4A0D4801239360C0F800C0B8
:1095A0008AF800304FF43C60019B9847DDE90221C6
:1095B000D8F800C0A9E70123B1463746009361E619
:1095C00000E100E080D7020000100140282F0020B9
:1095D0002C2F00202DE9F8431F4D204E204FDFF89F
:1095E00098804FF480334FF400324FF0010900248B
:1095F000C6F8802047EA0907C5F848334FF43C60B5
:10960000C5F80833C5F80490B847C5F808904FF47A
:109610003C60C8F80040B847124A134B13491C601D
:109620001470134B134A0C700B2114701C8099702A
:109630004FF48012C023C6F8802186F814333260BC
:10964000C5F8084586F81133D5F80435C8F8003058
:109650002046BDE8F88300BF0010014000E100E0B3
:1096600080D70200192F00202C2F0020242F00204B
:109670000C2E0020252F0020282F0020074B9B7840
:109680003BB142B138B10368187C10B959745A61C2
:109690007047082070470720704700BF0C2E00203D
:1096A0002DE9F043264EB37883B0002B3AD0044620
:1096B000002837D004290D4638D9436993B3437C39
:1096C0000027012B0DF107000CBF8846B8469146D4
:1096D0008DF8077000F076F87378B0783278591CFE
:1096E000C9B2884208BF39468A4223D003EB4303FC
:1096F00006EBC3030120134A18719C60D2F80425BD
:109700009DF807007170C3E90325C3E9058900F0DE
:109710007FF80D4B4FF480123846C3F8002103B098
:10972000BDE8F083082003B0BDE8F083072003B054
:10973000BDE8F0839DF8070000F06AF80420EEE72A
:109740000C2E00200010014000E100E070B51B4E1F
:10975000B37882B04BB3044638B343692BB30025CA
:1097600005740DF107008DF8075000F02BF87378A1
:10977000B07831785A1CD2B2904208BF2A46914242
:1097800016D003EB430306EBC30302219DF8070049
:109790009C601971727000F03BF8094B4FF4801215
:1097A0002846C3F8002102B070BD082002B070BD89
:1097B0009DF8070000F02CF80420F4E70C2E0020A0
:1097C00000E100E070B4EFF3108472B60D4B9A68BC
:1097D000AAB90D490D4E01259D60D1F88050354044
:1097E0001D60C1F88060D1F884505D604FF0FF3398
:1097F000C1F88430027004B962B670BC70470123AE
:109800000370F8E7F830002000E100E0FC06FFBD3F
:10981000094B9A687AB170B910B4EFF3108172B63F
:10982000064A1C6814605C685460986001B962B6AE
:109830005DF8044B70477047F830002000E100E00D
:109840004A09012301F01F0100EB820003FA01F134
:1098500000F022B801F01F0201234909934000EBF8
:109860008100D94300F026B84B0901F01F0150F8E0
:109870002300C84000F00100704700BF10B4034649
:1098800053E8000F0A4643E8002494F0000FF7D194
:109890005DF8044B704700BF10B4034653E8002F37
:1098A00042EA010043E8000494F0000FF6D15DF8AD
:1098B000044B704710B4034653E8002F02EA01003E
:1098C00043E8000494F0000FF6D15DF8044B7047B4
:1098D00010B4034653E8002F02EB010043E80004F4
:1098E00094F0000FF6D15DF8044B704710B40346B6
:1098F00053E8002FA2EB010043E8000494F0000FAE
:10990000F6D15DF8044B704710B40346012253E8CA
:10991000001F41EA020043E8000494F0000FF6D172
:109920005DF8044B704700BF10B40346002253E8B3
:10993000000F00EA020143E8001494F0000FF6D192
:109940005DF8044B704700BFB8B130B4D0E90112E4
:10995000521A0468D2B2531E2160DBB242B10168D0
:109960000A685C1E551C0D601370E3B2FF2BF6D124
:1099700003680020187130BC70470E20704700BF8C
:10998000F0B583B0044600250DF107008DF80750AF
:10999000FFF718FFD4E900311A688A4210D9511E26
:1099A00019602168A3680F6812F8015C0A79268A99
:1099B000E068DB1BDBB29A4206FB050538BF0B7182
:1099C0009DF80700FFF724FF284603B0F0BD00BF55
:1099D00030B5054683B000230DF107000C468DF825
:1099E0000730FFF7EFFE2A681368591C1160E96819
:1099F0002A8A641AB4FBF2F41C709DF80700FFF782
:109A000007FF03B030BD00BF826842B110B5044605
:109A100043690168006998470023A36010BD70473F
:109A20000EB400B582B0039921B104AB01AA019331
:109A300000F0ACF802B05DF804EB03B0704700BF73
:109A40002DE9F04F164683B0B142DDE90C920F4686
:109A500005469A46C0F095800B464FF00108B3FBCF
:109A6000F6F39E4208F10108F9D9D04538BFD04637
:109A700012F00103019302D1B9F1000F5ED1AA687F
:109A8000012403E00AF1FF3A06FB04F4BAF1010FE6
:109A9000F8D8B7FBF4F39E42F6D9DFF8ECA007E064
:109AA000B442B4FBF6F31AD3AA681C46B7FBF3F32F
:109AB0001AF803B0BBF10A0F04FB137728D02B6808
:109AC000511CA96003F802B0D5E901329A42E7D3EC
:109AD0002846FFF799FFB4FBF6F3B442E4D2019BAA
:109AE0009BB1B9F1000F10D02024C84509F1FF390E
:109AF0000BD2AB682A68591CA960D454D5E901324D
:109B00009A4214D2B9F1000FEFD103B0BDE8F08F43
:109B1000511C2B68A9604FF00D019954D5E9013211
:109B20009A42CCD32846FFF76FFFAA68C7E72846BA
:109B3000FFF76AFFB9F1000FD7D1E6E793071AD410
:109B40002024AA68C84502F1010199D22B68A960B6
:109B50009C54D5E901329A4209F1FF3903D2B9F197
:109B6000000FEFD18CE72846FFF74EFFAA68B9F146
:109B7000000FE7D184E7BAF1000F0CBF3024202496
:109B8000DFE74FF0010870E788D70200002900F0F6
:109B900054822DE9F04FDFF8B8950C7885B0064671
:109BA00090460D464FF00D0A10E00A2CB36800F005
:109BB000AD803268591CB160D454D6E901329A4262
:109BC00080F0A0802C78002C00F087800135002CDC
:109BD00000F08380252CE8D1294600270D4611F896
:109BE000012B2D2A00F08880302A00F088802B2A53
:109BF0007AD02A2A00F09980A2F13003092B4FF085
:109C000000040BD804EB840402EB440415F8012F84
:109C1000A2F13003092BA4F13004F3D92E2A00F06D
:109C20009080002301E015F8012F02F0FB01682964
:109C3000F9D0252A00F07781583AD1B2202947D8A7
:109C4000202A45D8DFE812F03501440044004400E2
:109C500044004400440044004400440044004301E4
:109C60001301440044004400440013014400440034
:109C70004400440044004400D20044004400A200D8
:109C800044009400440044003501012098420246FB
:109C900038BF1A460292002C40F05081B80740F1BC
:109CA0006E81002B40F04E821C46BBF1000FC0F2CB
:109CB0000A827A0700F11A8207F00302022A00F0F2
:109CC000EA81CDE9004759460A223046FFF7B8FE3F
:109CD00001352C78002C7FF479AF337B002B40F0DA
:109CE0001C8105B0BDE8F08F0D4611F8012B2D2A1F
:109CF00047F004077FF478AF47F001076EE747F0BD
:109D000002076BE73046FFF77FFE5BE73268591CBE
:109D1000B16002F803A0D6E901239342FFF449AFF2
:109D20003046FFF771FEB36843E7D8F800301A1DDC
:109D3000C8F800206A781C682E2A05F101057FF416
:109D400070AF6A78A2F13003092B05F101054FF0DD
:109D500000033FF66AAF03EB830302EB430315F8FE
:109D6000012FA2F130010929A3F13003F3D95CE7F7
:109D7000D8F80020111DC8F8001011683046CDE950
:109D800000470A22FFF75CFE0135A2E7D8F8003051
:109D90001A1DC8F8002017F00107D3F800B040F0F2
:109DA000F080BBF1000F03D0584603F0CBF8074614
:109DB000BC4240F24381002C00F04081202205E0AB
:109DC000BC4200F03B81002C00F03881B168336860
:109DD000481CB0605A54D6E90130984204F1FF346F
:109DE000EED33046FFF710FE2022E9E7D8F8002036
:109DF000131DC8F80030B36831681768581C30224A
:109E0000B060CA54D6E90123934280F0EF803268F3
:109E1000581C7821B060D154D6E901329A4280F0C2
:109E2000E0800F2F03D93B461B090F2BFCD84FF0C6
:109E3000805406E00F2C4FEA14137FF649AFB26846
:109E40001C46B7FBF4F319F803B0BBF10A0F04FB8F
:109E5000137754D03368511CB16003F802B0D6E9CF
:109E600001329A42E6D33046FFF7CEFDE2E7D8F85A
:109E70000020111DC8F80010D2F800B08BEAEB7278
:109E8000A2EBEB72092A7FF700AFDFF8C8C201200E
:109E900011466329ACFB02E200F101004FEAD20255
:109EA000F6DC9842024638BF1A460292002C45D191
:109EB000F4E6D8F80020111DC8F8001011683046EB
:109EC000CDE900471022FFF7BBFD013501E7D8F8C7
:109ED00000301A1DC8F800201C78B3680A2C00F066
:109EE00011813268591CB160D454D6E901329A42CA
:109EF000FFF4EEAE3046FFF787FD0135E9E6336843
:109F0000511CB16003F802A0D6E901329A42A1D3F4
:109F10003046FFF779FDB2689CE7304605B0BDE8F2
:109F2000F04FFFF771BDB3683168581CB060CA5478
:109F3000D6E901329A42DDD20135CAE6BBF1000F03
:109F400059DB7A0757D4B80702D5002B3FF4ADAEE2
:109F5000F9073FF5AAAE94B120220299A142BFF4BD
:109F6000A4AEB168481CB06030684254D6E9010123
:109F7000814204F1FF3480F0D480002CEDD1002424
:109F800093E69BF80030002B00F0E080B0685F465D
:109F9000CBF101020A2B02EB070B3CD0411CB16054
:109FA00031680B54D6E90130984226D217F8013FA8
:109FB000002BEFD15C457FF68BAE202702E05C459D
:109FC0003FF486AEB2683368511CB1609F54D6E945
:109FD00001329A4204F1FF34F1D33046FFF714FD09
:109FE000EDE73046FFF710FDB2681AE73046FFF79D
:109FF0000BFDB3680BE7013CA5E730460292FFF783
:10A0000003FD17F8013F002BD4D0029AB0680A2B49
:10A0100002EB070BC2D1411CB160316801F800A00E
:10A02000D6E901108842B9D33046CDE90232FFF7B4
:10A03000EBFCDDE90232B068B0E770479BF8004006
:10A04000002C3FF445AE0A2CB0680ED03368421C99
:10A05000B2601C54D6E90130984214D21BF8014F6B
:10A06000002C3FF435AE0A2CF0D13368421CB260AC
:10A0700003F800A0D6E901309842E7D33046FFF755
:10A08000C3FCB068E2E73046FFF7BEFC1BF8014FA7
:10A09000002CD8D11CE6002B7FF413AE8CB13022FB
:10A0A0000299A142BFF40DAEB168481CB06030689F
:10A0B0004254D6E90101814204F1FF343BD2002C25
:10A0C000EED10024FDE5B1684A1CB26032682D2053
:10A0D0005054D6E901219142CBF1000BFFF4ECADD5
:10A0E00030460393FFF790FC039BE5E5B1684A1CFB
:10A0F000B26032682B205054D6E901219142FFF41E
:10A10000DBADEDE73268591CB16002F803A0D6E977
:10A1100001239342FFF4E5AE3046FFF775FCB368C8
:10A12000DFE630460393FFF76FFC039B2022002CF1
:10A130007FF413AF23E730460393FFF765FC039BDF
:10A140003022BCE7F9073FF5B0AD18E79B4631E791
:10A1500088D70200CDCCCCCCFFF7F6BB2DE9F0417F
:10A16000058A0331043D4E198046B6FBF5F6FFF72C
:10A1700007FCA0B3F6B24FF48073013E0446C580DD
:10A18000C0F8008083802BD00346002508E0627968
:10A19000AE4202F1010262713860C0F800801FD047
:10A1A00040461F46FFF7ECFB013503460028EED181
:10A1B0006779791E17D02246013399421268FBD184
:10A1C000D2F800805FB12668002501E03446366889
:10A1D000214601354046FFF7FBFBAF42F6D800248D
:10A1E0002046BDE8F08120682146FFF7F1FBF6E745
:10A1F00004300121FFF76CBB2DE9F0410121044639
:10A200000430FFF773FB10F0FF0301D0BDE8F081CD
:10A210006779791E16D02246013399421268FBD124
:10A22000D2F80080002FF1D02668002501E03446E6
:10A230003668214601354046FFF7CAFBAF42F6D8E3
:10A24000BDE8F08120682146BDE8F041FFF7C0BBC2
:10A250002DE9F8430546C6884079144606FB00F20E
:10A26000043A04EB030C1F1D624538BFD41ABE42EA
:10A270008846B7FBF6F106FB117002D801392D684C
:10A28000FCD1371AA74228BF27469CB14FF00009DE
:10A290000430E41B28443A4608EB090102F03CFE76
:10A2A000A642B9442D6837464FF0000028BF274624
:10A2B000002CEDD1BDE8F8832DE9F8430546C688AA
:10A2C0004079144606FB00F2043A04EB030C1F1D10
:10A2D000624538BFD41ABE428846B7FBF6F106FB8A
:10A2E000117002D801392D68FCD1371AA74228BF56
:10A2F00027469CB14FF0000904302918E41B3A4668
:10A3000008EB090002F008FEA642B9442D68374662
:10A310004FF0000028BF2746002CEDD1BDE8F883A0
:10A3200041DF7047064A074B10B5002414701C60CB
:10A33000BFF35F8F0449054800F042F8204610BD86
:10A34000382F00203C2F0020A4D70200302F0020FF
:10A3500000B583B000230DF107008DF80730FFF73B
:10A3600031FAF1EE103A23F09F03E1EE103ABFF319
:10A370005F8F0B4B4022C3F884219DF80700FFF745
:10A3800047FA02F065FB28B920BF40BF20BF03B0E9
:10A390005DF804FBFFF7C4FF03B05DF804FB00BFEA
:10A3A00000E100E0826800239360826813618268A4
:10A3B00053618268D360826853608268136070471B
:10A3C00001600B6843604A68934204BF0023436006
:10A3D000704700BF436843B1026891680B44436013
:10A3E0005268934204BF002343607047114910B480
:10A3F000A1F5947205E052F83330984238BF2146F7
:10A400000CD28C1AE30F03EBE4035B10914202EBD6
:10A41000C304F0D808485DF8044B704702D904F132
:10A420000802EEE76068044B5DF8044B002808BFA3
:10A4300018467047D8DC02009CDB0200044B195C14
:10A440004FF0A04201238B40C2F80C35704700BF8B
:10A45000D8DC0200044B195C4FF0A04201238B4072
:10A46000C2F80835704700BFD8DC0200C20730B41C
:10A470001AD54FF0A0430322C3F844274FF4003508
:10A48000C3F848274FF48024C3F84C274FF4002129
:10A49000C3F850274FF48012C3F80855C3F8084595
:10A4A000C3F80815C3F8082583070AD54FF0A04361
:10A4B0000C22C3F83427C3F83827C3F83C27C3F865
:10A4C000402730BC704700BF10B568B90E4CA36878
:10A4D000012262703BB1D3E900230020A2609847BB
:10A4E000A368002BF7D110BD0128FCD1064C2369CD
:10A4F000A070002BF7D0D3E90023012022619847F8
:10A500002369002BF7D110BD402F002070B910B582
:10A51000074CA368012262703BB1D3E900230020FD
:10A52000A2609847A368002BF7D110BD704700BF09
:10A53000402F002030B5012883B004D003281DD05F
:10A54000B0B103B030BD224C00230DF107008DF8EF
:10A550000730FFF737F923784BB3E3689DF807001E
:10A5600001330122E360A270FFF752F903B030BD5E
:10A57000184B0122C3F8802003B030BD144C00F00A
:10A58000ADF800230DF107008DF80730FFF71AF939
:10A59000E368013BE360E5682DB19DF80700FFF734
:10A5A00037F903B030BD00F0ABF8A570F5E70A4805
:10A5B0006360A3602361E36000F084F802F048FA6E
:10A5C00010B101232370C8E700F088F8F9E700BF55
:10A5D000402F002000E100E0C9A4020030B585B0A2
:10A5E000047845688DF80040D0E90240064A074BE0
:10A5F000039053F82130019552F821108DF808404E
:10A600006846984705B030BD542F0020582F0020D1
:10A6100030B585B0047845688DF80040D0E9024037
:10A62000064A074B039053F82130019552F8211048
:10A630008DF808406846984705B030BD542F00207B
:10A64000582F0020F0B51A4B90F800C0194C1A4D45
:10A6500091F81DE044F82C200746086945F82C00C5
:10A6600003F80CE00C4616460FCC89B06D460FC5BA
:10A6700094E80F0085E80F00CDF810C0BEF1000F80
:10A680000AD0002E0D4A694607F1040008BF324681
:10A6900001F00CF809B0F0BD002E094A694607F137
:10A6A0000C0008BF324600F0CFFD09B0F0BD00BF7E
:10A6B00004310020582F0020542F0020DDA5020077
:10A6C00011A60200044A137923B901211060918078
:10A6D00018467047852070475C2F0020074B1A688A
:10A6E000D20704D4C021012283F800131A604FF06E
:10A6F00080430122C3F81825704700BF00E100E045
:10A70000044B01221A604FF08042D2F81834DB0368
:10A71000FBD470470C00004010B5174B1A6882B08C
:10A7200062B10021154A19601B68507900934FF0FF
:10A7300080410123009CC1F8083398B1104B1A687E
:10A74000BAB100221A601B6801934FF080420221C7
:10A750000A4B0198C2F808131B68012002B0BDE83B
:10A7600010401847116853718847054B1A68002A32
:10A77000E7D102B010BD00BF000100405C2F0020F7
:10A780000401004030B5204C94F8585083B0002D9F
:10A7900036D14FF0FF304FF0FF314FF0FF33C4E9B7
:10A7A0000001C4E90C01C4E90E01C4E91001C4E9C7
:10A7B00012010422294604F15400C4E90233C4E919
:10A7C0000433C4E90633C4E90833C4E90A33236512
:10A7D00002F0B0FB0D4A0E4B0E491D60C02082F8FE
:10A7E0000603402010601B68019301984FF000435E
:10A7F0000122284684F85820C1F8043303B030BD44
:10A80000082003B030BD00BF682F002000E100E049
:10A810007C61004000600040034B93F85800003812
:10A8200018BF0120704700BF682F0020F0B46F4BA5
:10A830001D1895F93040002C61DA8C78A707C4F315
:10A84000400C53D41C6A013400F0C8805C6A0134A7
:10A8500000F0BD800C260A2453F82450013552D054
:10A86000651CB5423FD253F82570013700F0A78030
:10A87000A51CB54237D253F82570013700F09F80F0
:10A88000E71CB7422FD253F8275001353AD0271D85
:10A89000B74228D253F82750013533D0671DB7424D
:10A8A00021D253F8275001352CD0A71DB7421AD218
:10A8B00053F82750013525D0E71DB74213D253F87E
:10A8C000275001351ED004F10807B7420BD253F8C8
:10A8D0002750013516D00934B44204D2DC6A013461
:10A8E00008BF0B240FD00420F0BC70471C68013453
:10A8F00067D05C68013460D008260224ACE70820E9
:10A90000F0BC70473C461E1865B243F8242086F818
:10A910003050BCF1000F02D11C4484F848008A7802
:10A92000540714D4D6073ED44C784FF0A04600F517
:10A93000E072A40046F822402D4EC40800F0070C37
:10A94000375D012202FA0CF23A4332558A7812F04E
:10A9500002021CD0AB0003F1804303F5C043097829
:10A96000D3F8104524F4473424F44074C3F8104558
:10A9700002020904D3F8100501F4403102F4F85240
:10A980000A430243C3F810250020F0BC7047083D7D
:10A990002B44087893F8501041EA801183F8501046
:10A9A0001046F0BC7047820002F1A042D2F8004786
:10A9B00024F00204C2F80047BEE70124A3E72C46B6
:10A9C000A1E7002485F830401A602546A7E709264C
:10A9D00085F830605A62344635469DE7082685F88A
:10A9E00030601A623446354696E700BF682F002073
:10A9F000BC2F002070B42C4C251883B095F9302062
:10AA0000072A1CDD224492F848309B09032B40D0D2
:10AA1000012B0CBF4FF400334FF44033800000F1A2
:10AA2000A040D0F8002722F44032C0F80027D0F828
:10AA300000271343C0F8003703B070BC7047D3B28F
:10AA4000072BF9D8900000F1804000F5C04002F1DA
:10AA500040039B00D0F810659BB203F1804303F5DF
:10AA6000C04346F00106C0F81065002018601B685E
:10AA70000193019B0029DFD095F9303054F8233041
:10AA8000002BD9D00949012303FA02F2C1F80423AB
:10AA9000D2E74FF0A043D3F81035C34003F00103D1
:10AAA00002331B04BAE700BF682F0020006000409B
:10AAB000164B034493F93030072B0DDD800000F175
:10AAC000A040D0F8003723F44033C0F80037D0F866
:10AAD0000037C0F800377047DAB2072A14D810B42C
:10AAE0009A0002F1804202F5C042094CD2F81005EA
:10AAF000012120F0010001FA03F3C2F81005C4F8A7
:10AB000008335DF8044B7047704700BF682F002082
:10AB1000006000404FF0A043D3F8103523FA00F056
:10AB200000F00100704700BF2DE9F04186B0C04A37
:10AB3000002301931168012900F0C8811E46BD4B16
:10AB40001A68012A00F0B481BB4B1A68012A00F090
:10AB5000A181BA4B1A68012A00F08E81B84B1A689D
:10AB6000012A00F07B81B74B1A68012A00F052815C
:10AB7000B54B1A68012A00F03F81B44B1A68012ACC
:10AB800008D0B34B1A68012A00F0AC81F6B906B0C0
:10AB9000BDE8F081AF4AD2F804231206F1D50022B5
:10ABA0001A6019680491196E0498012903F1600371
:10ABB00046F080060AD11A601B6805934FF0A04347
:10ABC000059AD3F81035019346F00046A24F0024B1
:10ABD0000125A30003F180432E4203F5C0434FEA51
:10ABE00045050BD0D3F8100557F82420D3F81015DD
:10ABF000C0F30420C1F3014102B190470134082C95
:10AC0000E7D1002EC3DA00224FF0FF33CDE9022353
:10AC1000914C012502AE94F95000471C37D0C0F387
:10AC2000C20C06AB03EB0C0700F0070317F80C2C63
:10AC300005FA03F31A42C1B200F03F0027D02218F0
:10AC4000890992F9302054F82280B8F1000F00F001
:10AC50009D81032900F09D81820002F1A04217F836
:10AC6000147CD2F800C71F40CCF3014C0BD0BCF1D0
:10AC7000020F0CD1032900F0BF810027B8F1000FAB
:10AC800006D0C04704E0BCF1030F00F0A381002709
:10AC900094F95100411C32D0C0F3C20E06AB03EB55
:10ACA0000E0C00F007031CF80C2C05FA03F31A42F3
:10ACB000C1B200F03F0022D02218890992F9302059
:10ACC00054F82280B8F1000F00F07B81032900F0D6
:10ACD0007B81820002F1A04E1CF814CCDEF8002724
:10ACE0001CEA030FC2F3014200F03A81022A06D1A6
:10ACF000032900F08481B8F1000F00D0C04794F917
:10AD00005200421C32D0C0F3C20E06AB03EB0E0C55
:10AD100000F007031CF80C2C05FA03F31A42C1B229
:10AD200000F03F0022D02218890992F9302054F80F
:10AD30002280B8F1000F00F03B81032900F03B8135
:10AD4000820002F1A04E1CF814CCDEF800271CEAA9
:10AD5000030FC2F3014200F0ED80022A06D103295D
:10AD600000F05081B8F1000F00D0C04794F95300B3
:10AD7000431C32D0C0F3C20E06AB03EB0E0C00F046
:10AD800007021CF80C3C05FA02F21342C1B200F0B3
:10AD90003F0022D02318890993F9303054F82380DA
:10ADA000B8F1000F00F0FB80032900F0FB80830066
:10ADB00003F1A04E1CF814CCDEF800371CEA020F99
:10ADC000C3F3014300F09C80022B06D1032900F05D
:10ADD0001C81B8F1000F00D0C047002F3FF4D7AE60
:10ADE0004FF0A043019AD3F810359A423FF4CFAE0A
:10ADF000029A019303920EE7164AD2F804235106F1
:10AE00007FF5BBAE00221A601B680493049B46F0DA
:10AE10004006B2E60F4AD2F8042390067FF5A8AEAA
:10AE200000221A601B680493049B46F020069FE6EC
:10AE30000061004004610040086100400C61004076
:10AE40001061004014610040186100401C61004026
:10AE50007C61004000600040682F00206C4AD2F8FE
:10AE60000423D4067FF57FAE00221A601B6804938A
:10AE7000049B46F0100676E6654AD2F804231507CF
:10AE80007FF56CAE00221A601B680493049B46F0A9
:10AE9000080663E65E4AD2F8042357077FF559AEE9
:10AEA00000221A601B680493049B46F0040650E6D7
:10AEB000574AD2F8042392077FF546AE00221A6063
:10AEC0001B680493049B46F002063DE65049D1F806
:10AED000046316F001063FF432AE13601368049366
:10AEE000049B2CE600221A601B6805934FF0A043D8
:10AEF000059AD3F810350193002E3FF484AE63E633
:10AF0000032B7FF46AAF03297FF463AF4FF4003261
:10AF1000DEF8003723F44033CEF80037DEF8003790
:10AF20001343CEF80037B8F1000F3FF459AF0137A3
:10AF3000FFB251E7032A7FF419AF03297FF412AF60
:10AF40004FF40032DEF8003723F44033CEF80037F8
:10AF5000DEF8003701371343FFB2CEF8003701E7C0
:10AF6000032A7FF4CCAE03297FF4C5AE4FF4003240
:10AF7000DEF8003723F44033CEF80037DEF8003730
:10AF800001371343FFB2CEF80037B4E603297FF44C
:10AF90007EAE16F80C201A4306F80C205CE6032956
:10AFA0007FF41BAF16F80E30134306F80E30FEE6A2
:10AFB00003297FF4DBAE16F80E201A4306F80E20A4
:10AFC000BEE603297FF49BAE16F80E201A4306F85E
:10AFD0000E207EE603297FF451AE4FF40037D2F8FD
:10AFE000003723F44033C2F80037D2F800373B4330
:10AFF000C2F80037012741E64FF44037EFE74FF43E
:10B000004032B5E74FF440329CE74FF440327FE7DF
:10B0100000600040014B1B68184700BFC42F002090
:10B02000114B98421DD130B583B000230DF10700BC
:10B030008DF807300D46FEF7C5FB0C4B1C794CB95B
:10B040009DF807001D6001221A71FEF7E1FB204602
:10B0500003B030BD9DF80700FEF7DAFB112003B006
:10B0600030BD0020704700BF00200040C42F0020EA
:10B07000034B984203D1034B00221A601A717047A8
:10B0800000200040C42F002030B56D4AD2F80433B0
:10B0900099058BB068D5D2F82431002B64D00023F9
:10B0A000C2F82431D2F8243103934FF40171654B77
:10B0B0000398C2F8081393F8291009B901215160C7
:10B0C0005F4902228DF81820D1F88024C1F880242D
:10B0D0009869D968099200240025CDE90710C3E9D1
:10B0E0000645D3E9001206A89047554AD2F81C310C
:10B0F000C3B1544B186A596988426AD293F8280040
:10B1000000F0FF04002864D1C2F81C41D2F81C11E1
:10B11000029102999C68186A196A205C01311962CF
:10B12000C2F81C05464AD2F84431DBB10021454B38
:10B13000C2F84411D2F8440193F829100090009805
:10B1400009B1012111609A6962B1586AD968002277
:10B150009A610122CDE907108DF8182006A8D3E9DD
:10B16000001290470BB030BD354AD2F804335B076C
:10B17000BBD5D2F80831002BB7D0324B99690029E2
:10B180003CD00021C2F80811D2F8081104910499AA
:10B19000D868596AD2F8182542545A6A9969013216
:10B1A0005A625A6A8A42A0D1DA69002A2FD0DD6831
:10B1B0005C6A18699A6101210022D860DA615A62DA
:10B1C0008DF81810CDE90754D3E9001206A890476E
:10B1D0008BE71B4A0020C2F81C01D2F81C21019207
:10B1E000019A00299ED09A688DF81800089158613C
:10B1F000079206A8D3E90012904793E7C2F8081116
:10B20000D2F8080105900598D2F81825C9E793F8F7
:10B21000292012B90A4A01215160094A4FF40171EB
:10B22000C2F80813596ADA680891002401200792CD
:10B230008DF81800D3E900129C6106A8904754E7E6
:10B2400000200040D02F00202DE9F041604F06790A
:10B250002C2303FB067382B093F82A30002B40F0B6
:10B26000898005460C4600685A499046FFF7D8FE8B
:10B2700000287BD12368591C0CD001224FF0A0413B
:10B2800002FA03F3C1F80835236803F5E0730322DB
:10B2900041F8232063685A1C06D003F5E0734FF091
:10B2A000A042002142F823102B68A269C3F824258C
:10B2B000217D637D2A680B43C2F86C35D4E9001206
:10B2C0002B68C3F81425C3F80C15237D012B5DD022
:10B2D0002C2303FB06F3FA18C2F804802269FA5003
:10B2E000B8F1000F2FD02A68237F3B4C0021C2F811
:10B2F0001C11D2F81C2100922A68DDF800C0C2F8A7
:10B300004411D2F844112A6801910199C2F804430A
:10B310002A6842F3073100294FEA12322EDB01F18D
:10B32000604101F561415B01DBB281F800332B68BC
:10B330002A4C43F307325209C3F30433012101FAC3
:10B3400003F344F822302C23296803FB06760424F7
:10B3500000230122C6E90633C1F8004586F82A20F9
:10B3600086F82930736102B0BDE8F081112002B087
:10B37000BDE8F081082002B0BDE8F081184902F074
:10B380000F025B011144DBB20B76D0E7A368591CB6
:10B3900006D003F5E0734FF0A042002142F82310DD
:10B3A000E3685A1C0DD001224FF0A04102FA03F3CA
:10B3B000C1F80835E36803F5E073032241F8232060
:10B3C000E3682A68A168C2F80835C2F810157FE75B
:10B3D000D02F002089B002008000020000E100E0D0
:10B3E000FCEC00E0F8B52F4D047902682C2303FB38
:10B3F000045300215B68C2F8001583B103682A4A30
:10B40000C3F808230268294E42F307335B0920334F
:10B41000C2F30432012101FA02F246F82320036844
:10B420004FF0FF32D3F80CC5D3F81475D3F80815D4
:10B43000D3F81065C3F81425C3F80C2503689445A8
:10B44000C3F80825C3F8102506D00CF5E07C4FF0B2
:10B45000A043022243F82C207B1C06D007F5E0779E
:10B460004FF0A043022243F82720721C06D006F5B5
:10B47000E0764FF0A043022243F826204B1C06D072
:10B4800001F5E0714FF0A043022243F8212000684B
:10B49000FFF7EEFD2C2303FB0454002384F82A302D
:10B4A0006360F8BDD02F00208402020000E100E0BC
:10B4B0002DE9F041314E05792C2303FB0563044649
:10B4C000586984B000284CD11862996083F828002C
:10B4D0005A612268C2F81C01D2F81C11226802913C
:10B4E0000121029F91602268D3F808C0C2F81C01B4
:10B4F000D2F81C11019101991F6A196A1CF8077092
:10B5000001311962C2F81C755A6812B104B0BDE865
:10B51000F0811A6A5F692168BA421BD2864602E04E
:10B5200093F828200ABBD1F81C21002AF8D0C1F8D2
:10B530001CE1D1F81C210392039AD3F820801A6AE7
:10B540001CF8088001321A62C1F81C851A6ABA42D6
:10B55000E9D32168D1F81C31002BFBD00123CB604B
:10B5600004E0112004B0BDE8F0810F202C2303FB80
:10B57000056500236B6104B0BDE8F081D02F002089
:10B5800030B5484BD3F8242189B0002A57D0002287
:10B59000C3F82421D3F82421029202228DF810202E
:10B5A000029AD3F88014404AC3F880140791D3F864
:10B5B0003C15D3680691002400250593C2E9064591
:10B5C0001168536804A89847364BD3F844214AB110
:10B5D0000021354AC3F84411D3F844019169019020
:10B5E0000198D9B92F4BD3F82021AAB10021C3F873
:10B5F0002011D3F820012C4A00900098506958B1CE
:10B60000D3F84C05936806908DF81010516105939E
:10B6100004A8D2E90013984709B030BDD3F83C35EF
:10B62000D168069300240025012305918DF8103080
:10B63000C2E90645D2E9001304A89847D2E7D3F837
:10B6400010110029C0D0C3F81021D3F810111648EA
:10B65000039103998469D3F83C15A142B4D1C4691C
:10B66000A4B1D3F80052846125F02005C3F800523C
:10B67000D0E90343C26101220691C36001684368B7
:10B6800005948DF8102004A898479DE7C26884614E
:10B690000123CDE905218DF81030D0E9001304A86D
:10B6A000984791E700200040003000202DE9F0434A
:10B6B00007796A4E07EBC70306EB830385B093F85F
:10B6C0002030002B40F09B8004460D460068644902
:10B6D0009146FFF7A5FC002840F08D802B68591C8F
:10B6E0004FEAC7080CD001224FF0A04102FA03F341
:10B6F000C1F808352B6803F5E073032241F82320D5
:10B700006B685A1C06D003F5E0734FF0A04200218D
:10B7100042F823102368A969C3F82415297D6A7D9E
:10B7200023680A43C3F86C25D5E900312268C2F8C2
:10B730000C35C2F814152B7D012B6CD008EB0702D9
:10B7400006EB8203C3F804902B6946F82230B9F166
:10B75000000F3FD021682B7F424D0022C1F81021FD
:10B76000D1F8101100912168DDF800C0C1F8202146
:10B77000D1F8201101912168DDF804C0C1F824211D
:10B78000D1F8241102912168DDF808C0C1F84421E4
:10B79000D1F84411226803910399C2F80453226836
:10B7A00042F3073100294FEA12322CDB01F16041EC
:10B7B00001F561415B01DBB281F8003323682A4D5A
:10B7C00043F307325209C3F30433012101FA03F3AF
:10B7D00045F822304744226806EB870600230124FF
:10B7E0000821C2F80015C6E9063386F820407361C7
:10B7F00005B0BDE8F083112005B0BDE8F083082056
:10B8000005B0BDE8F083194902F00F025B01114455
:10B81000DBB20B76D2E7AB68591C06D003F5E073B8
:10B820004FF0A042002142F82310EB685A1C0DD0C3
:10B8300001224FF0A04102FA03F3C1F80835EB688A
:10B8400003F5E073032241F82320EB682268A9681E
:10B85000C2F80835C2F8101570E700BF00300020AC
:10B8600081B502001003020000E100E0FCEC00E002
:10B87000F8B50579304C026805EBC50304EB83038A
:10B8800000215B68C2F80015EE0083B103682B4A03
:10B89000C3F8082302682A4F42F307335B092033B9
:10B8A000C2F30432012101FA02F247F823200368AF
:10B8B0004FF0FF32D3F80CE5D3F814C5D3F80815D0
:10B8C000D3F81075C3F80C25C3F814250368964502
:10B8D000C3F80825C3F8102506D00EF5E07E4FF01A
:10B8E000A043022243F82E20BCF1FF3F06D00CF506
:10B8F000E07C4FF0A043022243F82C207A1C06D0B3
:10B9000007F5E0774FF0A043022243F827204B1CB5
:10B9100006D001F5E0714FF0A043022243F8212048
:10B92000354404EB85040068FFF7A2FB002384F88C
:10B9300020306360F8BD00BF00300020100302001B
:10B9400000E100E0F0B401F06044B4F1005F82B0C7
:10B950002CD10579244E05EBC50406EB840403467F
:10B960006069EF00002839D16261A1601A68C2F8ED
:10B970002001D2F820C11A68CDF804C0DDF804C057
:10B98000C2F85801D2F8582100921A68DDF800C0B8
:10B99000D4F814C0C2F84415C2F848C51A68012189
:10B9A0009160626832B102B0F0BC7047102002B002
:10B9B000F0BC70471B6800E0A0B9D3F82021D3F891
:10B9C0005801002AF8D0002818BF0F207B1906EB79
:10B9D000830300225A6102B0F0BC7047112002B00C
:10B9E000F0BC70470F20F1E7003000206DDF70479A
:10B9F00079DF70477DDF704764DF70472DE9F04FD6
:10BA000087B00746119D00882C880394BDF84840F4
:10BA1000DDF840A0CDE90142002858D04FF00009E0
:10BA200088461E46CB4604E03A880BF1010B93454D
:10BA30002CDAD8F8002052F82B00059000220DF1E6
:10BA4000130105A8FFF7D8FF044658BB9DF8132043
:10BA5000B242E9D1B9F1000F28D02A88019B91198F
:10BA6000994239DC52440DF1130105A84FF0010948
:10BA7000FFF7C2FF002834D129889DF813200A441B
:10BA80002A803A880BF1010B9345D2DBB9F1000F04
:10BA90001DD02B88039A013B9B1A9BB2FF2B1BD80E
:10BAA0000AF80230204607B0BDE8F08F2A88019BD3
:10BAB000511C324402329A4289B20DDC029B298029
:10BAC0000AF801302A88013292B22A80CAE700249B
:10BAD000204607B0BDE8F08F0C24204607B0BDE833
