:020000022000DC
:10600000000001204D6702007567020077670200FB
:10601000796702007B6702007D67020000000000D4
:106020000000000000000000000000007F67020088
:10603000816702000000000083670200856702009C
:106040004D92020087670200459B020087670200AD
:10605000876702008767020059960200876702007F
:106060008767020087670200876702008767020070
:106070008767020087670200876702008767020060
:1060800087670200CD7B02008767020087670200F6
:106090006D7C020087670200BDB6020087670200C0
:1060A0008767020087670200876702008767020030
:1060B0008767020087670200000000000000000000
:1060C0008767020087670200876702008767020010
:1060D00087670200876702008767020000000000F0
:1060E00000000000000000000000000000000000B0
:1060F00000000000000000000000000000000000A0
:10610000000000000000000000000000000000008F
:10611000000000000000000000000000000000007F
:10612000000000000000000000000000000000006F
:10613000000000000000000000000000000000005F
:10614000000000000000000000000000000000004F
:10615000000000000000000000000000000000003F
:10616000000000000000000000000000000000002F
:10617000000000000000000000000000000000001F
:10618000000000000000000000000000000000000F
:1061900000000000000000000000000000000000FF
:1061A00000000000000000000000000000000000EF
:1061B00000000000000000000000000000000000DF
:1061C00000000000000000000000000000000000CF
:1061D00000000000000000000000000000000000BF
:1061E00000000000000000000000000000000000AF
:1061F000000000000000000000000000000000009F
:1062000010B5054C227832B9044B13B10448AFF3F2
:1062100000800123237010BD6023002000000000D7
:10622000C0C8020008B5034B1BB103490348AFF3D4
:10623000008008BD0000000064230020C0C80200E8
:10624000134B002B08BF114B9D46A3F5803A00214C
:106250008B460F461148124A121A05F00FFC0D4BDF
:10626000002B00D098470C4B002B00D09847002003
:10627000002104000D000B4805F0A0FB05F0CCFB4D
:106280002000290000F022F905F09EFB0000080024
:10629000000001200000000000000000602300203A
:1062A000A02D0020F1B9020072DF704773DF704744
:1062B00076DF70477ADF70477CDF70477FDF70479B
:1062C0008FDF7047B1DF704701F038BC08B5037845
:1062D00003B108BD054B3B211888FFF7E9FF0028F3
:1062E000F7D0BDE8084001F029BC00BFD222002051
:1062F0000D2801D001F022BC104B1148C01AC00873
:10630000000410B540F003000C460E4900F0BCFE3E
:106310000D4B0E491888224605F01CF930F0080292
:1063200007D043F20202904203D043F2014290426E
:1063300000D110BDBDE8104001F000BC28C902002A
:1063400050C9020040BC0200D2220020D02300200D
:1063500010B50C4B0C4CE41AE408240444F003047C
:1063600002203AB102F004FE20460849BDE8104080
:1063700000F08ABE02F008FE20460549BDE8104044
:1063800000F082BE28C9020050C902005CBC0200B5
:1063900070BC020001F0D2BB10B50388212B82B083
:1063A000044630D80F2B2CD9103B112B29D8DFE80D
:1063B00003F0460928622828282828282828282881
:1063C0002828283C3A4B3B483B49C01AC0080004E7
:1063D00040F0030000F058FE012002F0D5FD374BDD
:1063E0004FF6FF721A8001F08FFB00285DD1344B0D
:1063F00001211878FFF75AFF002853D1002002F03E
:10640000B7FD02B010BD522B3FD0562B09D1A0884A
:106410001321FFF74DFF0028F3D001F08FFB02B0EE
:1064200010BD3B2BF3D002B010BD00238088ADF827
:10643000043001A9FFF744FF0028E2D0EDE71C4B30
:106440001C482049C01AC008000440F0030000F0B6
:106450001BFE012002F08CFD002002F095FD174B81
:10646000A1881948198004F06DFFC0B901F036FB0E
:106470000028C6D0D1E7114A0023108885211A468A
:10648000FFF71CFF0028BCD0C7E70C4A0023108888
:1064900019461A46FFF716FF0028B2D0BDE701F0F3
:1064A0004DFBE3E701F04AFBA8E701F047FB9EE75D
:1064B00028C9020050C9020090BC0200D22200206C
:1064C000D022002084BC0200E823002000B54FF455
:1064D0000041A7B0002000F043FC002840F0E2801B
:1064E00000F02EFC012002F05BFD01F0A5FD00286C
:1064F00040F00881854840F26662012101F096FA79
:10650000002840F0FC8002F0A7FC002840F0F48056
:1065100005F042F8002840F0EC80002317A9012084
:10652000179305F015F9002840F0E08017A805F052
:10653000CDF9002840F0D780112375488DF8203020
:1065400005F0A4FA724982B208A8FFF7B5FE002848
:1065500040F0C6800822002117A805F08FFA6D4B85
:10656000179317A84FF0C8731893FFF7A3FE0028DE
:1065700040F0B3806848002104F0D6FD002840F0C8
:10658000A980664B66481793002217A9089204F069
:10659000C7FE002840F09B80624B6348089308A91F
:1065A00004F070FF002840F08F805F4B5F4C9B7CB5
:1065B0008DF806303C2241F22353002108A8ADF8A3
:1065C000043005F05BFA022040F201633C22002116
:1065D0008DF8200017A8ADF8223005F04FFA2246BA
:1065E000012501AB52F8041BADF86C5008A81C93B0
:1065F00004F00CF8002864D1A1684D4A17A804F0F3
:1066000005F800285AD11822002102A805F036FA10
:10661000012000234FF4807540248DF80800434981
:106620004448ADF8143002AA0393ADF81C5004940A
:10663000FFF73AFE00283ED11C22002117A805F0E2
:106640001DFA00233C4A1793ADF86A308DF86C3080
:106650003A4B4FF420254FF42034032117A8CDE9FD
:106660001854CDE91C238DF8681004F001FBF8B92B
:10667000334B34483449C01AC008000440F00300CA
:1066800000F002FD2B4B01211878FFF70FFE60B9D7
:10669000002002F06DFC00F0BDFB0028FBD102F0F1
:1066A000F1FBF8E701F04AFA1AE701F047FAEFE7E1
:1066B00001F044FADCE701F041FABDE701F03EFAEF
:1066C000A1E701F03BFA97E701F038FA6DE701F036
:1066D00035FA61E701F032FA53E701F02FFA49E7A2
:1066E00001F02CFA36E701F029FA25E701F026FA45
:1066F0001CE701F023FA10E701F020FA08E701F0A7
:106700001DFA00E701F01AFAF4E600BFB8220020F3
:10671000A0BC02005000A000BC230020C9620200FF
:10672000E823002051630200D0230020C022002073
:10673000CC220020D0220020CD620200956302000E
:1067400028C9020050C90200B0BC02000649074A2D
:10675000074B9B1A03DD043BC858D050FBDC00F00C
:1067600013F8FFF76DFD0000A0C90200B822002059
:1067700060230020FEE7FEE7FEE7FEE7FEE7FEE718
:10678000FEE7FEE7FEE7FEE730B4B84B1B78062BCA
:1067900020D0B74B1B68062B00F08180B54AD2F899
:1067A000883043F47003C2F88830BFF34F8FBFF3D3
:1067B0006F8F4FF01023D3F80022002AC0F2868199
:1067C000D3F80432002BC0F28181AB4BAB4A1A6084
:1067D00030BC7047AA4B1B681D07DAD1A94B1B6858
:1067E00003F0F002302A00F09B8003F0E003402B1E
:1067F00000F09680A34B1B6803F0F003302B00F0F1
:10680000A080A04B1B6803F0F002302A77D003F081
:10681000E003402B73D09B4B1B6803F0F003302B3D
:1068200000F01481974B1B6803F0F002302A52D01D
:1068300003F0E003402B4ED0924B1B6803F0F003B3
:10684000302B00F0F5808F4B1B6803F0F003302BEA
:1068500000F0D7808B4B1B6803F0F003502B7ED0E9
:10686000884B1B6803F0F002302A23D003F0E003CA
:10687000402B1FD0834B1B6803F0F002302A03D05B
:1068800003F0E003402B84D14FF08043D3F8002481
:10689000D20744BF6FF00102C3F8002479E77A4BB6
:1068A0001B68062B7FF47AAF784A136843F4806341
:1068B000136073E7764B6D4A1B681278754903F0D5
:1068C0004F03062A0B607FF464AF6D4B1B681907FA
:1068D0007FF45FAFCEE7654A11784FF08043002226
:1068E0000629C3F80C21C3F81021C3F838257FF41A
:1068F00050AF634B1B681B077FF44BAF9CE7664BA5
:106900005A4A1B6812786549C3F34233062A0B6062
:106910007FF43FAF5A4B1B6819077FF43AAF7AE711
:106920005F4B524A1B6812785E49C3F30423062A60
:106930000B607FF42EAF524B1B681C077FF429AF0E
:1069400058E74A4B584A1B7858491160062B7FF488
:1069500020AF4B4B1B6818077FF41BAF51E74FF07C
:106960008052534BD2F80414C3F82015D2F80814FF
:10697000C3F82415D2F80C14C3F82815D2F8101453
:10698000C3F82C15D2F81414C3F83015D2F8181423
:10699000C3F83415D2F81C14C3F84015D2F82014EB
:1069A000C3F84415D2F82414C3F84815D2F82814B3
:1069B000C3F84C15D2F82C14C3F85015D2F8301483
:1069C000C3F85415D2F83414C3F86015D2F838144B
:1069D000C3F86415D2F83C14C3F86815D2F8401413
:1069E0002248C3F86C15D2F844140278C3F8701525
:1069F000062A7FF4CEAE224B1B6818077FF4C9AE7F
:106A00002EE71A4B2B4C1B782B492C482C4A05257A
:106A1000256001250D6000243F21062B04601160D4
:106A20007FF4B7AE164B1B681C077FF4B2AE11E7BC
:106A30000E4B244A1B780321062B11607FF4A9AE6C
:106A40000F4B1B681D077FF4A4AEFCE61E4A0749E6
:106A5000D368097823F080730629D3607FF499AE58
:106A6000074B1B681A077FF494AEDBE6E00F00F0DB
:106A70003001001000ED00E0D42200200090D0038F
:106A8000E40F00F0E80F00F0340100103C17004064
:106A900058020010E40E0040440200103C05004083
:106AA000240300104035014074C007400DF0ADBA1A
:106AB00000C0004010560040885600401856004064
:106AC00014560040A0050040F0ED00E0184A0123F4
:106AD000C2F80435D2F80034002BFBD04FF010235D
:106AE0001521134AC3F80012D2F80034002BFBD052
:106AF0004FF0102315210E4AC3F80412D2F80034C7
:106B0000002BFBD000230A49C2F80435D1F8003429
:106B1000002BFBD0BFF34F8F0649074BCA6802F426
:106B2000E0621343CB60BFF34F8F00BFFDE700BFB0
:106B300000E0014000ED00E00400FA05F0B595B07A
:106B400000241D460E460846174602F0E9F8304676
:106B500023460822099505A91A9D08970D950A94C0
:106B60008DF82C400C9402F041F99DF814308DF80A
:106B70001140DDE9061003F00302012ACDE902010C
:106B800027D0022A04D0304602F0CEF815B0F0BD6E
:106B9000BDF81650C3F3C2038DF81030AD090827B5
:106BA000082D2C4628BF08243B4622460EA9304615
:106BB00002F01CF92D1B214608AB02AA0EA827449F
:106BC00000F0E0FD002DEBD1304602F0ADF815B03D
:106BD000F0BDBDF81470059DC7F38312C3F3C20462
:106BE0000EA93046920008238DF81040C7F3831792
:106BF00002F0FCF8C5F3952508AB3A4628460EA9E5
:106C0000009302AB00F046FD304602F08DF815B05F
:106C1000F0BD00BF014B01221A70704738240020DC
:106C2000704700BF00B583B0044B0093044A402373
:106C3000FFF784FF03B05DF804FB00BF456C020062
:106C4000F823002038B50E480E4D03780E4CEB5C4F
:106C50000025D2B2257053B1043003F005FC58B9B9
:106C60000A4B1B7813B12378002BFCD038BD0C30B5
:106C700003F0B4F90028F3D000F060FFF0E700BFA4
:106C8000D8220020942D002038240020F423002056
:106C900030B51448144A0378D35C89B0BBB10430D2
:106CA00003F078FB114D0FCD6C460FC495E80F0033
:106CB000062584E80F000B4800950022694602F083
:106CC0005BFA40B90A4B00221A7009B030BD0C3093
:106CD00003F01EF9E6E700F031FF054B00221A70C1
:106CE00009B030BDD8220020942D0020C8BC02007D
:106CF000F423002030B50E4D0FCD89B06C460FC483
:106D000095E80F00062584E80F000A4A0A48009516
:106D1000694602F031FA20B9084B01221A7009B015
:106D200030BD00F00BFF054B01221A7009B030BDD9
:106D3000C8BC0200156C0200D8220020F4230020F9
:106D400008B5FFF7D7FF0448042100F01FFC034BF0
:106D500001225A7108BD00BF88C90200EC22002040
:106D600038B50C4B0C48002400250022C3E900452F
:106D7000FF21C3F81824996083F82024C3F8142451
:106D800001F07EFF044610B9044802F0A5F8204641
:106D900038BD00BF1025002014C9020020BD02002C
:106DA00099B10E4B0E495B1ADB0815D030B40022A6
:106DB0000C4D02E0013293420BD035F82240844260
:106DC000F8D151F8320030BC7047054951F8300015
:106DD0007047002030BC70471846704788C90200D1
:106DE00028C9020060230020094B013903EBC000D1
:106DF00003290BD8DFE801F00402080604207047DD
:106E00000220704740797047007970470020704732
:106E100028C902002DE9F047954CD4E900239A4295
:106E200084B063D00023C4F81834BFF34F8FD4E983
:106E3000013503EA0501CA1C04EB820614F822207E
:106E4000500719D52768327802F00302012A43D08F
:106E5000022A03D17288023303EB921305EA03017D
:106E6000D4F81804CA1C04EB820628B99F4239D909
:106E700014F822205207E6D404EB81015A1CC96899
:106E800001912A4004EB820201F00301D2680292D0
:106E9000022903F102062DD0012900F09580D4F8D3
:106EA00010543DB12B6828469B689847EB681D68D5
:106EB000002DF7D16F48704B7049C01AC00800040C
:106EC00040F0020000F0E0F8D4E90030C01A18BF2A
:106ED000012004B0BDE8F08732880233C2F3831288
:106EE0001344BBE7676004B0BDE8F087002004B03E
:106EF000BDE8F087BDF8063061484FEA9319B9F153
:106F0000500FC84628BF4FF0500868F38F1308F1A0
:106F10000801ADF8063001F0B5FE07460028BED0E6
:106F200001F0FEFE0023082201A9384601F02AFFE5
:106F300025EA06030133B8EB830F4FEA830A7DD9B4
:106F4000BAF1000F00F08D8005EA06010331A8EBCD
:106F50000A0804EB81010823524638465FFA88F894
:106F600001F010FF474942460AF10803384601F094
:106F700009FF09F1030906EB9906D4F81834002B30
:106F80006BD1D4F8105465B1EB685A79284639466C
:106F9000002A5ED02B681B689847EB681D68002D9F
:106FA000F2D1384601F0C0FE00230DF103008DF848
:106FB000033001F039F9D4F8183403B966609DF84C
:106FC000030001F057F97FE7BDF804302C48C3F304
:106FD0008312062A28BF0622911C62F389138900B6
:106FE000ADF8043001F04EFE074600283FF457AFDD
:106FF00001F096FE0023082201A9384601F0C2FEE6
:10700000BDF8043013F4707FB7D04FF0000831465C
:1070100029404FEA88030331083304EB810104223D
:10702000384601F0AFFEBDF8043008F10108C3F3A3
:107030008313434506F10106E9D89EE705EA0601F8
:10704000033104EB810142460823384601F09AFEE1
:107050008FE71D68002D97D1A3E7384601F064FE45
:1070600032E7084942460823384601F08BFE80E7A4
:107070001025002050C9020028C9020008BD0200E6
:1070800014C902001C2500202DE9F04F624C87B086
:10709000002306460DF10B008DF80B30A568019119
:1070A00001F0C2F8D4E9012327681A440132D21B47
:1070B000012A00F2AF8004F21C4804F214490121B5
:1070C000404601F037F9554801F050F9484601F0C3
:1070D0004DF9D4E9013E03EA0E00C21C04EB820123
:1070E00014F822C01CF0040F0CF0040200F08F8092
:1070F00003F1020C91F800B00BF0030BBBF1010F90
:10710000E2467FD0BBF1020F00F1030B6AD004EB23
:107110008B01002AEED104EB80000133C268039298
:1071200003EA0E0304EB830302F00302012AD96889
:1071300050D0022A4BD1BDF80E309B0903334FEAE1
:10714000114B0AEB930A484601F020F959460028F2
:107150003BD04046C4F804A001F0ECF8D4E9011398
:10716000226819440131891A0129A8D9134003332F
:10717000023205219DF80B0044F82310226001F033
:1071800079F80021264801F0ABF880F31000F100F7
:107190007B1C2B40019A01F038013D4004EB830336
:1071A00041F001010004033540EA164641EA82211C
:1071B000DE6044F8251094F820341BB1FFF72AFE56
:1071C0000028FBD107B0BDE8F08F4046C4E74FF080
:1071D000000BB8E7BDF80C30C3F383134FEA114B33
:1071E0009A44B0E74B880CEB93130EEA0300C11CE2
:1071F00003F1020C14F82120E24604EB810102F0B5
:10720000040286E70B88C3F383136344EDE703F1BD
:10721000020A80E73A46A9E7102500202829002025
:107220002C2900202DE9F04F664C87B0002307463B
:107230000DF10B00CDE900128DF80B30A56800F0C0
:10724000F3FFD4E9012326681A440132921B022A73
:1072500000F2B68004F21C4804F2144901214046B1
:1072600001F068F8584801F081F8484601F07EF8CE
:10727000D4E9013E03EA0E00C21C04EB820114F8BB
:1072800022C01CF0040F0CF0040200F0968003F101
:10729000020C91F800B00BF0030BBBF1010FE246BA
:1072A00000F08680BBF1020F00F1030B70D004EBFD
:1072B0008B01002AEDD104EB80000133C2680392F8
:1072C00003EA0E0304EB830302F00302012AD968E8
:1072D00056D0022A51D1BDF80E309B0903334FEA34
:1072E000114B0AEB930A484601F050F85946002822
:1072F00041D04046C4F804A001F01CF8D4E90113C1
:10730000226819440131891A0229A7D9134003338D
:10731000033245219DF80B0044F82310226000F051
:10732000A9FFB31C2B4004EB8303019A2748DA60C2
:10733000002100F0D5FF80F31000F900731C2B40F2
:10734000009A01F03801354004EB830341F041011C
:107350000004033540EA174741EA8221DF6044F820
:10736000251094F820341BB1FFF754FD0028FBD101
:1073700007B0BDE8F08F4046BEE74FF0000BB2E724
:10738000BDF80C30C3F383134FEA114B9A44AAE7BC
:107390004B880CEB93130EEA0300C11C03F1020CA3
:1073A00014F82120E24604EB810102F0040280E798
:1073B0000B88C3F383136344EDE703F1020A7AE712
:1073C0003246A3E710250020282900202C29002080
:1073D0002DE9F04F6A4C89B0002607460DF11300E5
:1073E000CDE9011203938DF81360A56800F01CFF2E
:1073F000D4E9012326681A440132921B032A00F2C1
:10740000BD8004F21C4804F214490121404600F0FA
:1074100091FF5C4800F0AAFF484600F0A7FFD4E9BE
:10742000013E03EA0E00C21C04EB820114F822C0E4
:107430001CF0040F0CF0040200F09D8003F1020C1C
:1074400091F800B00BF0030BBBF1010FE24600F026
:107450008D80BBF1020F00F1030B77D004EB8B01A1
:10746000002AEDD104EB80000133C268059203EAE3
:107470000E0304EB830302F00302012AD9685DD0F6
:10748000022A58D1BDF816309B0903334FEA114B3D
:107490000AEB930A484600F079FF5946002848D085
:1074A0004046C4F804A000F045FFD4E90113226867
:1074B00019440131891A0329A7D91340033304322F
:1074C00085219DF8130044F82310226000F0D2FEBD
:1074D000B21C2A40F31C2B4004EB820204EB830C09
:1074E000029BD3600021039B2748CCF80C3000F0AE
:1074F000F7FE80F31000F900731C2B40019A01F095
:107500003801354004EB830341F081010004033569
:1075100040EA174741EA8221DF6044F8251094F8D9
:1075200020341BB1FFF776FC0028FBD109B0BDE881
:10753000F08F4046B7E74FF0000BABE7BDF81430D3
:10754000C3F383134FEA114B9A44A3E74B880CEB28
:1075500093130EEA0300C11C03F1020C14F821205E
:10756000E24604EB810102F0040279E70B88C3F3E1
:1075700083136344EDE703F1020A73E732469CE7A5
:1075800010250020282900202C29002030B4154D7A
:10759000D5F810140446002071B10B4601E01B68B9
:1075A00053B1DB681A798242F9D101300A28F3D14C
:1075B0004FF0FF3030BC7047E3681871D5F81034D5
:1075C0004BB1DA68E36812681A60D5F81034DB68EA
:1075D0001C6030BC7047C5F81044E268136030BCD2
:1075E000704700BF1025002038B5094BD3F8104470
:1075F000012583F820544CB1E3685D71236820466F
:107600005B689847E3681C68002CF5D138BD00BF63
:107610001025002030B5C38885B004460D461BBB3D
:10762000217A05291ED0627AA0887AB9124A52F8C6
:10763000212003920021FFF7B3FB039A0F49034671
:10764000284605B0BDE8304000F01CBFFFF7CCFB7A
:107650000B4B0C4953F82020284600F013FF217AE9
:10766000A088E3E705B030BD074A00920749084A01
:10767000284600F007FFD3E7F8BD020058BD02001E
:10768000D4BD020054BD02004CBD020034BD020056
:107690002CBD02002DE9F04385B04FF0000C0C9C8E
:1076A000814694F80C8084F80CC00E4617461846A4
:1076B00021461D46FFF7AEFF062F09D8DFE807F089
:1076C000042E343B444F1F004946204600F0DAFEAA
:1076D0002B7A052B05D06B7A5BB92749204600F041
:1076E000D1FE204600F0C2FE84F80C8005B0BDE853
:1076F000F083224A2249204600F0C4FEEDE7D6E995
:107700000413F2680393B3680291CDE9003249464D
:10771000D6E90023204600F0B5FED9E73268494695
:10772000204600F0AFFED3E7D6E9002349462046C5
:1077300000F0A8FECCE7B3680093D6E900234946E1
:10774000204600F09FFEC3E7D6E902320192009383
:10775000D6E900234946204600F094FEB8E7D6E972
:107760000321B3680291CDE900324946D6E90023EE
:10777000204600F087FEABE764BD02004CBD02006E
:1077800054BD0200082900D970472DE9F04F9B46EF
:1077900083B000241B7B8BF80C400D4606465946EF
:1077A000104690460193DFF8D0902C4FFFF732FF40
:1077B00005E0325D013400F065FE082C09D0A542D9
:1077C00039465846F5D84946013400F05BFE082C8E
:1077D000F5D12349DFF8A490224C234F584600F0FE
:1077E00051FE4FF0000A0DE0D15D11F0970F08BF78
:1077F0002E22214658460AF1010A00F043FEBAF152
:10780000080F10D0554505D916F80A207E2AEBD965
:107810002E22EEE7494658460AF1010A00F032FEF0
:10782000BAF1080FEED198F80830052B02D098F87D
:10783000093063B90D49584600F024FE584600F05F
:1078400015FE019B8BF80C3003B0BDE8F08F084AA1
:107850000849584600F016FEECE700BF68BD02007C
:1078600074BD020078BD0200B9C7020064BD020009
:107870004CBD020054BD020070BD020060BD02009C
:107880002DE9F04F3D4B93F800E087B0BEF1000FBB
:107890005FD00027DFF8F08002973C46012506E024
:1078A000029B013302939DF80840A64551D9344B01
:1078B000D8F800101E68D8F8042016F83400A0F19B
:1078C000200BC0F1200305FA0BFB25FA03F34BEA6A
:1078D000030305FA00FC01EA0C0902EA030A06EBBD
:1078E000C40759EA0A0B0397DAD021EA0C0122EA0D
:1078F0000303C8E9001301F0A5FE16F83430214A4D
:10790000C3F1200CD2E90067A3F1200E614600FA12
:107910000EF405FA0EF225FA01F105FA03FE20FA3B
:107920000CFC0A430EEA060144EA0C0404913A40B6
:1079300000FA03F1009101940592DDE90412DDE9FA
:1079400000BC624508BF594506D00C4B93F800E0D7
:10795000A6E707B0BDE8F08F03994A68002AF4D083
:107960004978A1F10101B1FA81F14909091AB1FA85
:1079700081F1490918469047E7E700BFCC2900206C
:10798000082A0020F8290020002A00202DE9F843C9
:107990008046224800F00EFCE0B9214D4FF0010C6A
:1079A000D5E90023A8F12004C8F120012CFA01F147
:1079B0000CFA04F40C430CFA08F902EA090603EA8B
:1079C000040756EA070107D022EA090223EA040461
:1079D000C5E90024BDE8F883404601F033FE114BB1
:1079E0001E68A8B9586826EA090620EA0400D5E905
:1079F00000211E600C4E586042EA09020C432A60C6
:107A000031686C600548BDE8F843002200F07ABB9D
:107A1000586849EA06062043E9E700BFD429002058
:107A2000002A0020F8290020D0290020042A3BD970
:107A30002DE9F04182B0144605460E4601F086FC61
:107A400068B31E491E4A1F4B0D601F481F491C602A
:107A5000167000230022741EC0E90023C1E9002330
:107A6000E4B21EB3DFF8708005EBC40400270326E0
:107A700002E0AC421AD01C46A37820788DF805307D
:107A8000424601A98DF806708DF8046001F068FC8B
:107A9000A4F108030028ECD002B0BDE8F08101F0A9
:107AA0000BFC0028CDD0F7E707207047084A0948AB
:107AB000002100F015FB02B0BDE8F081082A00208B
:107AC000CC290020D0290020F8290020002A0020FD
:107AD000817802000CBE02008D79020070B5084D5D
:107AE0002B785BB1074E00243368012113F8340072
:107AF00001F018FD2B780134A342F5D8002070BDA9
:107B0000CC290020082A002070B5094D2B7853B1EC
:107B1000084E0024336813F8340001F061FD2B781F
:107B20000134A342F6D8BDE87040034800F042BBE0
:107B3000CC290020082A0020D429002000B585B0D7
:107B40000346002101AA44F20100CDE9011103938B
:107B500000F004F805B05DF804FB00BF10B572B684
:107B6000FFF742FDFFF756F90028FBD1104B114CEF
:107B70001149E41AE408240444F00100FFF784FAF0
:107B80000E4B1B68DB0700D500BE0D4944F0020018
:107B9000FFF77AFABFF34F8F0A490B4BCA6802F41A
:107BA000E0621343CB60BFF34F8F00BFFDE700BF20
:107BB00028C9020050C9020010BE0200F0ED00E02A
:107BC0001CBE020000ED00E00400FA05F8B52049F3
:107BD000204B0024C1F84041C1F84441C1F848415C
:107BE000C1F84C41C1F80041C1F804411B6833B3EE
:107BF0001948D1F8045501681A686D1A25F07F45B7
:107C0000AA4227460DD8197CDE69AD1A144419B171
:107C1000D3E905201F7490471EB133461A68AA4263
:107C2000F1D90E490E4A0B7812789A4208D00D49C4
:107C30000D4A41F823404FF48013C2F80031F8BDDB
:107C4000531CDBB2022B08BF00230B70EFE700BF11
:107C5000001001402C2B0020282B0020252B002079
:107C6000242B00201C2B002000E100E02DE9F04F28
:107C7000B04AB14913780978DFF8DC829942D8F824
:107C8000009085B000F083810133DBB2022B08BF86
:107C90000023AA481370AA4A056852F823106B18EB
:107CA00023F07F430360B9F1000F00F0B981002099
:107CB0000746044684464B4612E0D868DE69C3F89E
:107CC00000C0891A144430B12A1922F07F42C3E956
:107CD0000120DF611F460120002E00F05B8133464A
:107CE0001A688A42E9D910B1C8F800309946521A88
:107CF0001A6001230093934B934EDFF860A243F088
:107D0000010301934D464FF0000B002F31D0D7E90E
:107D100001313C46FF69894ADFF844C21268981A6B
:107D200020F07F40604500F2DF804318236000228E
:107D30000121C4E90122E2612174002D00F0F580E7
:107D40002A689A4280F0EA80294605E0D1F800E0EE
:107D50009E4580F0D18072460846C9699C469B1AB0
:107D60000029F3D12360E161C4612C462546002F30
:107D7000CDD170783378984247D09C460CEB4C0CB0
:107D8000B27806EBCC0C591CCBB29A429CF804207A
:107D9000337004BF00233370022ADCF8084024D07B
:107DA000032A18D0012AE6D1227C002AE3D1DCF88C
:107DB0000C306360DCF81010A160DCF81400E060A7
:107DC0009AF800E0DCF81800A061BEF1000FA2D024
:107DD000626013469FE7002DCDD000232B74ED6920
:107DE000002DFBD1C8F80050C3E755B1AC4200F0FC
:107DF000B9802A4601E0944239D01146D269002A5E
:107E0000F9D1002222749842B7D1BBF1000F01D101
:107E1000A94543D0002D46D0484A4C4B1468D3F8AE
:107E200004654B4FD5F800803A78351B25F07F4527
:107E30000335002A00F0B380444AA8452CBF4444CF
:107E4000641924F07F44C2F84045D2F804359B1BE6
:107E5000A41B23F07F4324F07F440333A34200F2AA
:107E6000B78000238AF8003005B0BDE8F08F8C425F
:107E70007AD0E0692268C861002800F08380AC46AF
:107E8000036813440360AC454FF000023378707808
:107E900022741CBF65464FF0010BB4E7009B002B1A
:107EA000DFD0002DB8D1294E2A4A264C4FF400319C
:107EB0004FF480330127C2F880103C43C6F84833A2
:107EC0004FF43C60C6F808337760A0471B4BB7609F
:107ED0004FF43C601D60A0471D4B1D7000238AF8C5
:107EE000003005B0BDE8F08FD31A23F07F438B42FA
:107EF0000BD2CB1A23601AE77244A2EB0C020A6081
:107F00002360E161C4612C4630E700230122C4E90B
:107F10000033A360E36122743DB12A68C8F80040D1
:107F2000D31A2B60E561254621E7C8F800402546B5
:107F30001DE700BF242B0020252B0020282B00202C
:107F40001C2B002030BE02000C2A00200010014033
:107F5000192B002000E100E02C2B0020182B002022
:107F6000FEFF7F0029462A46D5F81CC0C8F800C08D
:107F7000BCF1000F41D0D0691268C86100287FF4BD
:107F80007FAF80E700223378707822743BE70027C8
:107F90000097B0E6C8F80060B1460090ABE6224911
:107FA000224A4FF48030C3F844034FF00109C3F86C
:107FB00004034FF40030C1F8800142F00102086070
:107FC000C3F800904FF43C60904787F8009033E787
:107FD000164BD2F80415C2F8401543F001034FF4D4
:107FE0003C609847104B4FF40032C3F80021002347
:107FF0008AF8003005B0BDE8F08FCDE902210C4AC7
:108000000C4801239360C0F800C08AF800304FF498
:108010003C60019B9847DDE90221D8F800C0AAE73F
:1080200001234F46009366E600E100E030BE020007
:1080300000100140282B00202DE9F8431F4D204E51
:10804000204FDFF898804FF480334FF400324FF028
:1080500001090024C6F8802047EA0907C5F848331B
:108060004FF43C60C5F80833C5F80490B847C5F82C
:1080700008904FF43C60C8F80040B847124A134BD0
:1080800013491C601470134B134A0C700B211470AD
:108090001C8099704FF48012C023C6F8802186F8A6
:1080A00014333260C5F8084586F81133D5F8043525
:1080B000C8F800302046BDE8F88300BF001001403A
:1080C00000E100E030BE0200192B00202C2B002024
:1080D000242B00200C2A0020252B0020282B0020F8
:1080E000074B9B783BB142B138B10368187C10B99B
:1080F00059745A617047082070470720704700BFC5
:108100000C2A00202DE9F043274EB37883B0002BD2
:108110003ED0044600283BD004290D463CD9436993
:10812000002B35D0437C0027012B0DF107000CBF3D
:108130008846B84691468DF8077000F075F8737858
:1081400096F802C032789DF80700591CC9B28C45D8
:1081500008BF39468A4223D003EB430306EBC3032F
:108160004FF0010C114A9C6083F804C0D2F804253A
:108170007170C3E90325C3E9058900F07BF80C4B56
:108180004FF480123846C3F8002103B0BDE8F083F5
:10819000082003B0BDE8F083072003B0BDE8F083FA
:1081A00000F068F80420F0E70C2A002000100140DD
:1081B00000E100E0F0B51A4EB37883B04BB304464B
:1081C00038B343692BB3002505740DF107008DF812
:1081D000075000F029F87378B77831789DF80700D8
:1081E0005A1CD2B2974208BF2A46914214D003EBE0
:1081F000430306EBC30302219C601971727000F007
:1082000039F8084B4FF480122846C3F8002103B018
:10821000F0BD082003B0F0BD00F02CF80420F6E714
:108220000C2A002000E100E070B4EFF3108472B675
:108230000D4B9A68AAB90D490D4E01259D60D1F8E4
:10824000805035401D60C1F88060D1F884505D6079
:108250004FF0FF33C1F88430027004B962B670BCCD
:10826000704701230370F8E7882D002000E100E04B
:10827000FC06FFBD094B9A687AB170B910B4EFF3F0
:10828000108172B6064A1C6814605C68546098607D
:1082900001B962B65DF8044B70477047882D002025
:1082A00000E100E04A09012301F01F0100EB820018
:1082B00003FA01F100F022B801F01F02012349097D
:1082C000934000EB8100D94300F026B84B0901F040
:1082D0001F0150F82300C84000F00100704700BFA4
:1082E00010B4034653E8000F0A4643E8002494F014
:1082F000000FF7D15DF8044B704700BF10B4034680
:1083000053E8002F42EA010043E8000494F0000F14
:10831000F6D15DF8044B704710B4034653E8002FC4
:1083200002EA010043E8000494F0000FF6D15DF882
:10833000044B704710B4034653E8002F02EB0100D2
:1083400043E8000494F0000FF6D15DF8044B704749
:1083500010B4034653E8002FA2EB010043E80004E9
:1083600094F0000FF6D15DF8044B704710B403464B
:10837000012253E8001F41EA020043E8000494F0A0
:10838000000FF6D15DF8044B704700BF10B40346F0
:10839000002253E8000F00EA020143E8001494F0C1
:1083A000000FF6D15DF8044B704700BFB8B130B490
:1083B000D0E90112521A0468D2B2531E2160DBB216
:1083C00042B101680A685C1E551C0D601370E3B26F
:1083D000FF2BF6D103680020187130BC70470E20C7
:1083E000704700BFF0B583B0044600250DF10700CB
:1083F0008DF80750FFF718FFD4E900311A688A4258
:1084000010D9511E19602168A3680F6812F8015C29
:108410000A79268AE068DB1BDBB29A4206FB050577
:1084200038BF0B719DF80700FFF724FF284603B003
:10843000F0BD00BF30B5054683B000230DF1070045
:108440000C468DF80730FFF7EFFE2A681368591CB9
:108450001160E9682A8A641AB4FBF2F41C709DF872
:108460000700FFF707FF03B030BD00BF826842B1CD
:1084700010B5044643690168006998470023A3606A
:1084800010BD70470EB400B582B0039921B104ABA2
:1084900001AA019300F0BEF802B05DF804EB03B04E
:1084A000704700BF2DE9F04F914283B005460F465B
:1084B000DDE90C9016469A46C0F0A6800B464FF0B8
:1084C0000108B3FBF6F39E4208F10108F9D9D04543
:1084D00038BFD04610F001032A68A968019302D181
:1084E000B9F1000F67D150184B1C012403E00AF1C9
:1084F000FF3A06FB04F4BAF1010FF8D8B7FBF4F227
:108500009642F6D9DFF808A10AE0B442B4FBF6F3CC
:108510001DD32A68A9681C465018B7FBF3F24B1C00
:108520001AF802B0BBF10A0F04FB12771A46034691
:1085300026D0AA6083F800B0D5E901329A42E4D38C
:108540002846FFF793FFB4FBF6F3B442E1D2019B58
:108550009BB1B9F1000F10D02024C84509F1FF39B3
:108560000BD2AB682A68591CA960D454D5E90132F2
:108570009A4219D2B9F1000FEFD103B0BDE8F08FE4
:108580004FF00D03AA600370D5E901329A4203D27D
:108590002B6813440132CCE72846FFF767FFA96830
:1085A0002B684A1C0B44C4E72846FFF75FFFB9F16C
:1085B000000FD2D1E1E7830717D42024C84501F189
:1085C000010302EB010090D2AB605454D5E90131B4
:1085D000994209F1FF390ED22A68B9F1000FEDD1A5
:1085E00050184B1C4FF000097FE7BAF1000F0CBF89
:1085F00030242024E2E72846FFF738FFA9682A68DC
:10860000B9F1000FDAD1EBE74FF001085FE700BFE7
:1086100038BE0200002900F085822DE9F04FDFF816
:1086200058960D7885B0064690460C464FF00D0AD8
:1086300013E0B36830680A2D03F1010200EB030177
:1086400000F0C680B2600D70D6E901329A4280F027
:10865000B1802578002D00F0B4800134002D00F0A9
:10866000B080252DE5D12146002711F8012B2D2AB8
:1086700000F08580302A00F086802B2A76D02A2AC6
:1086800000F0B280A2F13003092B00F2C681002570
:1086900000E0194605EB850502EB45056278A2F17D
:1086A00030000928A5F1300501F101030C46F0D98D
:1086B0002E2A00F0A580002302F0FB00682801F1BB
:1086C000010405D114F8012B02F0FB016829F9D04F
:1086D000252A00F09781583AD1B22029B9D8202A0A
:1086E000B7D801A151F822F0B789020053860200E1
:1086F000538602005386020053860200538602000E
:1087000053860200538602005386020053860200FD
:10871000538602008F8702002F89020053860200D1
:108720005386020053860200538602002F890200FE
:1087300053860200538602005386020053860200CD
:108740005386020053860200A78802005386020067
:108750005386020047880200538602002D880200DB
:108760005386020053860200B789020047F00407CF
:108770000C46214611F8012B2D2A7FF47BAF47F0E0
:1087800001070C46F5E747F002070C46F1E7D8F879
:1087900000301A1DC8F800201D78B3680A2D00F0BB
:1087A00045823268591CB160D554D6E901329A42EB
:1087B000FFF44FAF3046FFF759FE2578002D7FF4C8
:1087C0004CAF337B002B40F0178105B0BDE8F08F34
:1087D000B26000F803A0D6E901329A4280F0048129
:1087E0003168114401322DE7D8F800301A1DC8F85D
:1087F000002062781D682E2A04F102037FF45BAF2B
:108800004A78A2F13001092919464FF000033FF6DA
:1088100053AF03EB830302EB430311F8012FA2F1E3
:1088200030000928A3F13003F3D945E7D8F8002038
:10883000111DC8F8001011683046CDE900570A2212
:10884000FFF730FE05E7D8F800301A1DC8F8002001
:1088500017F00107D3F800B040F0EB80BBF1000F38
:1088600003D0584603F012F90746BD4240F25B813F
:10887000002D00F05881202105E0BD4200F0538119
:10888000002D00F05081B2683368501CB0609954DC
:10889000D6E90123934205F1FF35EED33046FFF7C9
:1088A000E5FD2021E9E7D8F80020131DC8F80030C5
:1088B000B36831681768581C3022B060CA54D6E9D2
:1088C0000123934280F0EA803268581C7821B0601E
:1088D000D154D6E90123934280F0E5800F2F03D9CC
:1088E0003A4612090F2AFCD84FF0805506E00F2DAA
:1088F0004FEA15137FF6ADAE1D46B368B7FBF5F230
:1089000019F802B03068BBF10A0F05FB127700EBD3
:10891000030103F101025BD0B26081F800B0D6E937
:1089200001329A42E3D33046FFF7A0FDDFE7D8F8E3
:108930000020111DC8F80010D2F800B08BEAEB72CD
:10894000A2EBEB72092A40F39381DFF830C30120D8
:1089500011466329ACFB02E200F101004FEAD202AA
:10896000F6DC9842024638BF1A46029207F002022D
:10897000002D56D0BBF1000FC0F29A80780700F1AD
:108980009780002A00F09680002B40F09380BBF186
:10899000000FC0F22C817A0700F13C8107F003023E
:1089A000022A00F0F780CDE9005759460A223046E6
:1089B000FFF778FD4DE6D8F80020111DC8F800102B
:1089C00011683046CDE900571022FFF76BFD40E6F5
:1089D000B26000F803A0D6E901329A4280F09A8092
:1089E00033689918013297E73046FFF73FFDB368C7
:1089F00031685A1C194425E6304605B0BDE8F04FF1
:108A0000FFF734BDB3683168581CB060CA54D6E96A
:108A100001329A42FFF41DAECCE60B4600252146FA
:108A200046E622B1002B00F02181FA07AFD40025E1
:108A3000ADE79BF80020002A00F01C81B3685F4678
:108A4000CBF10101D6F800E00A2A01EB070B0EEB8F
:108A5000030C03F1010051D0B0608CF80020D6E97E
:108A6000012393423FD217F8012F002AEAD15D4536
:108A70007FF6EFAD202702E05D453FF4EAADB26836
:108A80003368511CB1609F54D6E901329A4205F116
:108A9000FF35F1D33046FFF7E9FCEDE73046FFF74D
:108AA000E5FCB36810E73046FFF7E0FCB36815E774
:108AB000013D66E7F9073FF56AAF002DB7D02022E8
:108AC0000299A942BFF463AFB168481CB060306836
:108AD0004254D6E90101814205F1FF3580F0B580AD
:108AE000002DEDD1A3E730460291FFF7BFFC17F848
:108AF000012F002ABBD0B3680299A3E7B0600EF83B
:108B000003A0D6E90130984264D2336803EB000C2D
:108B10000130A1E73046FFF7A9FCB16833684A1C71
:108B20001944F9E670479BF80050002D3FF491ADD1
:108B3000B36830680A2D03F1010200EB030111D084
:108B4000B2600D70D6E9012393421BD21BF8015F7E
:108B5000002D3FF47EAD30680A2D03F1010200EBD9
:108B60000301EDD1B26000F803A0D6E901329A42C8
:108B700028D2316811440132B2600D70D6E9012368
:108B80009342E3D33046FFF771FC1BF8015F002DE1
:108B9000CED15EE5002B7FF406AF8DB13022029975
:108BA000A942BFF400AFB168481CB06030684254BD
:108BB000D6E90101814205F1FF3550D2002DEED1F9
:108BC0000025F0E63046FFF751FCB36831685A1CC7
:108BD0001944B5E73046CDE90221FFF747FCB368F9
:108BE0003268581C02EB030CDDE9022134E7B1685E
:108BF0004A1CB26032682D205054D6E901219142BE
:108C0000CBF1000BFFF4CAAE30460393FFF72EFC06
:108C1000039BC3E6B1684A1CB26032682B205054F3
:108C2000D6E901219142FFF4B9AEEDE73268591C53
:108C3000B16002F803A0D6E901239342FFF4B1AD7D
:108C40003046FFF713FCB368ABE530460393FFF7FC
:108C50000DFC039B2022002D7FF432AFE7E6304667
:108C60000393FFF703FC039B3022A7E71D468EE624
:108C7000012076E69346FAE638BE0200CDCCCCCC95
:108C8000FFF794BB2DE9F041058A0331043D4E19ED
:108C90008046B6FBF5F6FFF7A5FB002836D0F6B206
:108CA0004FF48073013E0446C580C0F80080838085
:108CB0002DD00346002508E06279AE4202F10102A0
:108CC00062713860C0F8008021D040461F46FFF72F
:108CD00089FB013503460028EED194F8058027680A
:108CE000B8F1010216D03D4601339A422D68FBD1FE
:108CF000B8F1000F0AD0002601E03C463F6821464B
:108D000001362846FFF796FBB045F6D800242046EA
:108D1000BDE8F08121463846FFF78CFBF6E700BF3F
:108D200004300121FFF706BB2DE9F0410121044683
:108D30000430FFF70DFB10F0FF0301D0BDE8F08118
:108D400094F805802568B8F1010214D02E4601334D
:108D50009A423668FBD1B8F1000FEFD0002701E04E
:108D60002C462D68214601373046FFF763FBB84596
:108D7000F6D8BDE8F08121462846BDE8F041FFF76E
:108D800059BB00BF2DE9F8430546C6884079144613
:108D900006FB00F2043A04EB030C1F1D624538BFCA
:108DA000D41ABE428846B7FBF6F106FB117002D812
:108DB00001392D68FCD1371AA74228BF27469CB13C
:108DC0004FF000090430E41B28443A4608EB09013F
:108DD00002F046FEA642B9442D6837464FF0000027
:108DE00028BF2746002CEDD1BDE8F8832DE9F843D4
:108DF0000546C6884079144606FB00F2043A04EBA7
:108E0000030C1F1D624538BFD41ABE428846B7FB0B
:108E1000F6F106FB117002D801392D68FCD1371A22
:108E2000A74228BF27469CB14FF0000904302918FB
:108E3000E41B3A4608EB090002F012FEA642B944D0
:108E40002D6837464FF0000028BF2746002CEDD193
:108E5000BDE8F88341DF7047064A074B10B5002490
:108E600014701C60BFF35F8F0449054800F042F89E
:108E7000204610BD382B00203C2B002054BE0200A1
:108E8000302B002000B583B000230DF107008DF8D2
:108E90000730FFF7C9F9F1EE103A23F09F03E1EE36
:108EA000103ABFF35F8F0B4B4022C3F884219DF82B
:108EB0000700FFF7DFF902F0FBFB28B920BF40BF36
:108EC00020BF03B05DF804FBFFF7C4FF03B05DF8FB
:108ED00004FB00BF00E100E0826800239360826829
:108EE0001361826853618268D360826853608268CC
:108EF0001360704701600B6843604A68934204BF87
:108F000000234360704700BF436843B10268916823
:108F10000B4443605268934204BF00234360704790
:108F2000114910B4A1F5947205E052F8333098421B
:108F300038BF21460CD28C1AE30F03EBE4035B101D
:108F4000914202EBC304F0D808485DF8044B704727
:108F500002D904F10802EEE76068044B5DF8044BA7
:108F6000002808BF1846704788C302004CC20200A0
:108F7000044B195C4FF0A04201238B40C2F80C3522
:108F8000704700BF88C30200044B195C4FF0A04239
:108F900001238B40C2F80835704700BF88C3020028
:108FA000C20730B41AD54FF0A0430322C3F84427B8
:108FB0004FF40035C3F848274FF48024C3F84C27FA
:108FC0004FF40021C3F850274FF48012C3F808551E
:108FD000C3F80845C3F80815C3F8082583070AD560
:108FE0004FF0A0430C22C3F83427C3F83827C3F846
:108FF0003C27C3F8402730BC704700BF10B568B9A4
:109000000E4CA368012262703BB1D3E9002300201B
:10901000A2609847A368002BF7D110BD0128FCD1AE
:10902000064C2369A070002BF7D0D3E90023012060
:10903000226198472369002BF7D110BD402B0020F7
:1090400070B910B5074CA368012262703BB1D3E937
:1090500000230020A2609847A368002BF7D110BD21
:10906000704700BF402B002030B5012883B004D0EA
:1090700003281DD0B0B103B030BD224C00230DF148
:1090800007008DF80730FFF7CFF823784BB3E3687C
:109090009DF8070001330122E360A270FFF7EAF8B0
:1090A00003B030BD184B0122C3F8802003B030BD9F
:1090B000144C00F0ADF800230DF107008DF80730D7
:1090C000FFF7B2F8E368013BE360E5682DB19DF876
:1090D0000700FFF7CFF803B030BD00F0ABF8A57084
:1090E000F5E70A486360A3602361E36000F084F859
:1090F00002F0DEFA10B101232370C8E700F088F80F
:10910000F9E700BF402B002000E100E0FD8F0200E6
:1091100030B585B0047845688DF80040D0E902404C
:10912000064A074B039053F82130019552F821105D
:109130008DF808406846984705B030BD542B002094
:10914000582B002030B585B0047845688DF8004074
:10915000D0E90240064A074B039053F821300195AD
:1091600052F821108DF808406846984705B030BD88
:10917000542B0020582B0020F0B51A4B90F800C05B
:10918000194C1A4D91F81DE044F82C200746086947
:1091900045F82C0003F80CE00C4616460FCC89B0BD
:1091A0006D460FC594E80F0085E80F00CDF810C09C
:1091B000BEF1000F0AD0002E0D4A694607F10400E7
:1091C00008BF324601F006F809B0F0BD002E094A8A
:1091D000694607F10C0008BF324600F0CDFD09B02A
:1091E000F0BD00BF942D0020582B0020542B0020F0
:1091F0001191020045910200044A137923B901211B
:109200001060918018467047852070475C2B0020C5
:10921000074B1A68D20704D4C021012283F8001337
:109220001A604FF080430122C3F81825704700BF31
:1092300000E100E0044B01221A604FF08042D2F8B6
:109240001834DB03FBD470470C00004010B5174BFB
:109250001A6882B062B10021154A19601B68507902
:1092600000934FF080410123009CC1F8083398B16E
:10927000104B1A68BAB100221A601B6801934FF0B4
:10928000804202210A4B0198C2F808131B68012092
:1092900002B0BDE810401847116853718847054B6C
:1092A0001A68002AE7D102B010BD00BF00010040DB
:1092B0005C2B00200401004030B5204C94F858503D
:1092C00083B0002D36D14FF0FF304FF0FF314FF01B
:1092D000FF33C4E90001C4E90C01C4E90E01C4E98B
:1092E0001001C4E912010422294604F15400C4E922
:1092F0000233C4E90433C4E90633C4E90833C4E9DA
:109300000A33236502F0BAFB0D4A0E4B0E491D606D
:10931000C02082F80603402010601B68019301986A
:109320004FF000430122284684F85820C1F8043346
:1093300003B030BD082003B030BD00BF682B002053
:1093400000E100E07C61004000600040034B93F8C6
:109350005800003818BF0120704700BF682B00205C
:10936000F0B46E4B1D1895F93040002C61DA8C7802
:10937000A707C4F3400C53D41C6A013400F0C78023
:109380005C6A013400F0BC800C250A2453F8246088
:10939000013652D0661CAE423FD253F826700137D8
:1093A00000F0A680A61CAE4237D253F826700137D3
:1093B00000F09E80E71CAF422FD253F827600136A1
:1093C0003AD0271DAF4228D253F82760013633D058
:1093D000671DAF4221D253F8276001362CD0A71D5C
:1093E000AF421AD253F82760013625D0E71DAF42AD
:1093F00013D253F8276001361ED004F10807AF429C
:109400000BD253F82760013616D00934AC4204D28F
:10941000DC6A013408BF0B240FD00420F0BC704775
:109420001C68013466D05C6801345FD008250224D2
:10943000ACE70820F0BC70473C461E1865B243F804
:10944000242086F83050BCF1000F02D11C4484F86F
:1094500048008A78540714D4D6073DD44C784FF08E
:10946000A04600F5E072A40046F822402C4EC40845
:1094700000F0070C375D012202FA0CF23A43325534
:109480008A78097812F002021BD0AB0003F1804306
:1094900003F5C0430202D3F8100520F4473020F44E
:1094A0004070C3F810050904D3F8100502F4F8520F
:1094B00001F440310A430243C3F810250020F0BCF8
:1094C0007047083D2B44104693F8502042EA811122
:1094D00083F85010F0BC7047820002F1A042D2F82D
:1094E000004724F00204C2F80047BFE70124A4E7C4
:1094F0003446A2E7002485F830401A602546A8E7E4
:10950000092685F830605A62344635469EE70826BB
:1095100085F830601A623446354697E7682B00209C
:10952000BC2B002070B42C4C251883B095F930204A
:10953000072A1CDD224492F848309B09032B40D0B7
:10954000012B0CBF4FF400334FF44033800000F187
:10955000A040D0F8002722F44032C0F80027D0F80D
:1095600000271343C0F8003703B070BC7047D3B274
:10957000072BF9D8900000F1804000F5C04002F1BF
:1095800040039B00D0F810659BB203F1804303F5C4
:10959000C04346F00106C0F81065002018601B6843
:1095A0000193019B0029DFD095F9303054F8233026
:1095B000002BD9D00949012303FA02F2C1F8042390
:1095C000D2E74FF0A043D3F81035C34003F00103B6
:1095D00002331B04BAE700BF682B00200060004084
:1095E000164B034493F93030072B0DDD800000F15A
:1095F000A040D0F8003723F44033C0F80037D0F84B
:109600000037C0F800377047DAB2072A14D810B410
:109610009A0002F1804202F5C042094CD2F81005CE
:10962000012120F0010001FA03F3C2F81005C4F88B
:1096300008335DF8044B7047704700BF682B00206B
:10964000006000404FF0A043D3F8103523FA00F03B
:1096500000F00100704700BF2DE9F04186B0C04A1C
:10966000002301931168012900F0C8811E46BD4BFB
:109670001A68012A00F0B481BB4B1A68012A00F075
:10968000A181BA4B1A68012A00F08E81B84B1A6882
:10969000012A00F07B81B74B1A68012A00F0528141
:1096A000B54B1A68012A00F03F81B44B1A68012AB1
:1096B00008D0B34B1A68012A00F0AC81F6B906B0A5
:1096C000BDE8F081AF4AD2F804231206F1D500229A
:1096D0001A6019680491196E0498012903F1600356
:1096E00046F080060AD11A601B6805934FF0A0432C
:1096F000059AD3F81035019346F00046A24F002496
:109700000125A30003F180432E4203F5C0434FEA35
:1097100045050BD0D3F8100557F82420D3F81015C1
:10972000C0F30420C1F3014102B190470134082C79
:10973000E7D1002EC3DA00224FF0FF33CDE9022338
:10974000914C012502AE94F95000471C37D0C0F36C
:10975000C20C06AB03EB0C0700F0070317F80C2C48
:1097600005FA03F31A42C1B200F03F0027D02218D5
:10977000890992F9302054F82280B8F1000F00F0E6
:109780009D81032900F09D81820002F1A04217F81B
:10979000147CD2F800C71F40CCF3014C0BD0BCF1B5
:1097A000020F0CD1032900F0BF810027B8F1000F90
:1097B00006D0C04704E0BCF1030F00F0A3810027EE
:1097C00094F95100411C32D0C0F3C20E06AB03EB3A
:1097D0000E0C00F007031CF80C2C05FA03F31A42D8
:1097E000C1B200F03F0022D02218890992F930203E
:1097F00054F82280B8F1000F00F07B81032900F0BB
:109800007B81820002F1A04E1CF814CCDEF8002708
:109810001CEA030FC2F3014200F03A81022A06D18A
:10982000032900F08481B8F1000F00D0C04794F9FB
:109830005200421C32D0C0F3C20E06AB03EB0E0C3A
:1098400000F007031CF80C2C05FA03F31A42C1B20E
:1098500000F03F0022D02218890992F9302054F8F4
:109860002280B8F1000F00F03B81032900F03B811A
:10987000820002F1A04E1CF814CCDEF800271CEA8E
:10988000030FC2F3014200F0ED80022A06D1032942
:1098900000F05081B8F1000F00D0C04794F9530098
:1098A000431C32D0C0F3C20E06AB03EB0E0C00F02B
:1098B00007021CF80C3C05FA02F21342C1B200F098
:1098C0003F0022D02318890993F9303054F82380BF
:1098D000B8F1000F00F0FB80032900F0FB8083004B
:1098E00003F1A04E1CF814CCDEF800371CEA020F7E
:1098F000C3F3014300F09C80022B06D1032900F042
:109900001C81B8F1000F00D0C047002F3FF4D7AE44
:109910004FF0A043019AD3F810359A423FF4CFAEEE
:10992000029A019303920EE7164AD2F804235106D5
:109930007FF5BBAE00221A601B680493049B46F0BF
:109940004006B2E60F4AD2F8042390067FF5A8AE8F
:1099500000221A601B680493049B46F020069FE6D1
:109960000061004004610040086100400C6100405B
:109970001061004014610040186100401C6100400B
:109980007C61004000600040682B00206C4AD2F8E7
:109990000423D4067FF57FAE00221A601B6804936F
:1099A000049B46F0100676E6654AD2F804231507B4
:1099B0007FF56CAE00221A601B680493049B46F08E
:1099C000080663E65E4AD2F8042357077FF559AECE
:1099D00000221A601B680493049B46F0040650E6BC
:1099E000574AD2F8042392077FF546AE00221A6048
:1099F0001B680493049B46F002063DE65049D1F8EB
:109A0000046316F001063FF432AE1360136804934A
:109A1000049B2CE600221A601B6805934FF0A043BC
:109A2000059AD3F810350193002E3FF484AE63E617
:109A3000032B7FF46AAF03297FF463AF4FF4003246
:109A4000DEF8003723F44033CEF80037DEF8003775
:109A50001343CEF80037B8F1000F3FF459AF013788
:109A6000FFB251E7032A7FF419AF03297FF412AF45
:109A70004FF40032DEF8003723F44033CEF80037DD
:109A8000DEF8003701371343FFB2CEF8003701E7A5
:109A9000032A7FF4CCAE03297FF4C5AE4FF4003225
:109AA000DEF8003723F44033CEF80037DEF8003715
:109AB00001371343FFB2CEF80037B4E603297FF431
:109AC0007EAE16F80C201A4306F80C205CE603293B
:109AD0007FF41BAF16F80E30134306F80E30FEE687
:109AE00003297FF4DBAE16F80E201A4306F80E2089
:109AF000BEE603297FF49BAE16F80E201A4306F843
:109B00000E207EE603297FF451AE4FF40037D2F8E1
:109B1000003723F44033C2F80037D2F800373B4314
:109B2000C2F80037012741E64FF44037EFE74FF422
:109B30004032B5E74FF440329CE74FF440327FE7C4
:109B400000600040014B1B68184700BFC42B002079
:109B5000114B98421DD130B583B000230DF10700A1
:109B60008DF807300D46FEF75FFB0C4B1C794CB9A6
:109B70009DF807001D6001221A71FEF77BFB20464D
:109B800003B030BD9DF80700FEF774FB112003B051
:109B900030BD0020704700BF00200040C42B0020D3
:109BA000034B984203D1034B00221A601A7170478D
:109BB00000200040C42B002030B56D4AD2F8043399
:109BC00099058BB068D5D2F82431002B64D00023DE
:109BD000C2F82431D2F8243103934FF40171654B5C
:109BE0000398C2F8081393F8291009B901215160AC
:109BF0005F4902228DF81820D1F88024C1F8802412
:109C00009869D968099200240025CDE90710C3E9B5
:109C10000645D3E9001206A89047554AD2F81C31F0
:109C2000C3B1544B186A596988426AD293F8280024
:109C300000F0FF04002864D1C2F81C41D2F81C11C6
:109C4000029102999C68186A196A205C01311962B4
:109C5000C2F81C05464AD2F84431DBB10021454B1D
:109C6000C2F84411D2F8440193F8291000900098EA
:109C700009B1012111609A6962B1586AD96800225C
:109C80009A610122CDE907108DF8182006A8D3E9C2
:109C9000001290470BB030BD354AD2F804335B0751
:109CA000BBD5D2F80831002BB7D0324B99690029C7
:109CB0003CD00021C2F80811D2F80811049104998F
:109CC000D868596AD2F8182542545A6A99690132FB
:109CD0005A625A6A8A42A0D1DA691968002A2ED0DB
:109CE000D8685D6A1C699A61079000220120DC60D7
:109CF000DA615A628DF818005B68089506A89847E3
:109D00008BE71B4A0020C2F81C01D2F81C210192EB
:109D1000019A00299ED09A688DF818000891586120
:109D2000079206A8D3E90012904793E7C2F80811FA
:109D3000D2F8080105900598D2F81825C9E793F8DC
:109D4000292012B90A4A01205060094A4FF40170D3
:109D5000C2F80803586ADA680890002401200792C4
:109D60008DF818005A689C6106A8904755E700BF17
:109D700000200040D02B00202DE9F0415F4F0679F4
:109D80002C2303FB067382B093F82A30002B40F09B
:109D9000898005460C46006859499046FFF7D8FE71
:109DA00000287BD12368591C0CD001224FF0A04120
:109DB00002FA03F3C1F80835236803F5E0730322C0
:109DC00041F8232063685A1C06D003F5E0734FF076
:109DD000A042002142F823102B68A269C3F8242571
:109DE000217D637D2A680B43C2F86C35D4E90012EB
:109DF0002B68C3F81425C3F80C15237D012B5BD009
:109E00002C2303FB06F3FA18C2F804802269FA50E7
:109E1000B8F1000F2FD02A68237F3A4C0021C2F8F6
:109E20001C11D2F81C2100922A68DDF800C0C2F88B
:109E30004411D2F844112A6801910199C2F80443EF
:109E40002A6842F307315B010029DBB24FEA123284
:109E50002CDB01F1604101F5614181F800332B6891
:109E6000294C43F307325209C3F30433012101FAA9
:109E700003F344F822302C23296803FB06760424DC
:109E800000230122C6E90633C1F8004586F82A20DE
:109E900086F82930736102B0BDE8F081112002B06C
:109EA000BDE8F081082002B0BDE8F081174902F05A
:109EB0000F0211440B76D2E7A368591C06D003F5B4
:109EC000E0734FF0A042002142F82310E3685A1CCF
:109ED0000DD001224FF0A04102FA03F3C1F808357A
:109EE000E36803F5E073032241F82320E3682A685E
:109EF000A168C2F80835C2F8101581E7D02B002000
:109F0000B99B02008000020000E100E0FCEC00E0F0
:109F1000F8B52F4D047902682C2303FB045300216C
:109F20005B68C2F8001583B103682A4AC3F80823A6
:109F30000268294E42F307335B092033C2F304322F
:109F4000012101FA02F246F8232003684FF0FF32A4
:109F5000D3F80CC5D3F81475D3F80815D3F81065E9
:109F6000C3F81425C3F80C2503689445C3F80825E5
:109F7000C3F8102506D00CF5E07C4FF0A043022278
:109F800043F82C207B1C06D007F5E0774FF0A04368
:109F9000022243F82720721C06D006F5E0764FF027
:109FA000A043022243F826204B1C06D001F5E071A5
:109FB0004FF0A043022243F821200068FFF7F0FD94
:109FC0002C2303FB0454002384F82A306360F8BD7B
:109FD000D02B00208402020000E100E02DE9F041D6
:109FE000314E05792C2303FB05630446586984B080
:109FF00000284CD11862996083F828005A612268C1
:10A00000C2F81C01D2F81C11226802910121029FA2
:10A0100091602268D3F808C0C2F81C01D2F81C1164
:10A02000019101991F6A196A1CF8077001311962C0
:10A03000C2F81C755A6812B104B0BDE8F0811A6A02
:10A040005F692168BA421BD2864602E093F8282055
:10A050000ABBD1F81C21002AF8D0C1F81CE1D1F8C4
:10A060001C210392039AD3F820801A6A1CF80880F6
:10A0700001321A62C1F81C851A6ABA42E9D3216812
:10A08000D1F81C31002BFBD00123CB6004E0112060
:10A0900004B0BDE8F0810F202C2303FB05650023ED
:10A0A0006B6104B0BDE8F081D02B0020F0B5474BC8
:10A0B000D3F8242189B0002A57D00022C3F82421E4
:10A0C000D3F82421029202228DF81020029AD3F8AC
:10A0D00080143F4AC3F880140791D3F83C15D36825
:10A0E0000691002400250593C2E9064511685368CE
:10A0F00004A89847354BD3F844214AB10021344A8B
:10A10000C3F84411D3F84401916901900198D9B979
:10A110002E4BD3F82021AAB10021C3F82011D3F887
:10A1200020012B4A00900098506958B1D3F84C0593
:10A13000936806908DF810105161059304A8D2E938
:10A140000013984709B0F0BDD3F83C35D1680693A9
:10A1500000240025012305918DF81030C2E9064541
:10A16000D2E9001304A89847D2E7D3F810110029C8
:10A17000C0D0C3F81021D3F81011154803910399EA
:10A180008169D3F83C458C42B4D1C569C768D0E930
:10A1900000168DB1D3F800C285612CF02005C26194
:10A1A000C3F800520369C3600122CDE905748DF83C
:10A1B000102004A8B0479DE701238561CDE905740F
:10A1C0008DF8103004A8B04794E700BF002000408D
:10A1D000002C00202DE9F0430779694E07EBC703F7
:10A1E00006EB830385B093F82030002B40F09B8072
:10A1F00004460D46006863499146FFF7A9FC002814
:10A2000040F08D802B68591C4FEAC7080CD0012202
:10A210004FF0A04102FA03F3C1F808352B6803F5AB
:10A22000E073032241F823206B685A1C06D003F523
:10A23000E0734FF0A042002142F823102368A9697F
:10A24000C3F82415297D6A7D23680A43C3F86C2569
:10A25000D5E900312268C2F80C35C2F814152B7DFF
:10A26000012B6AD008EB070206EB8203C3F80490C7
:10A270002B6946F82230B9F1000F3FD021682B7FBF
:10A28000414D0022C1F81021D1F810110091216830
:10A29000DDF800C0C1F82021D1F82011019121681A
:10A2A000DDF804C0C1F82421D1F8241102912168FD
:10A2B000DDF808C0C1F84421D1F8441122680391A7
:10A2C0000399C2F80453226842F307315B01002965
:10A2D000DBB24FEA12322ADB01F1604101F5614144
:10A2E00081F800332368294D43F307325209C3F341
:10A2F0000433012101FA03F345F822304744226870
:10A3000006EB8706002301240821C2F80015C6E9E0
:10A31000063386F82040736105B0BDE8F083112054
:10A3200005B0BDE8F083082005B0BDE8F08318490A
:10A3300002F00F0211440B76D4E7AB68591C06D02B
:10A3400003F5E0734FF0A042002142F82310EB68C0
:10A350005A1C0DD001224FF0A04102FA03F3C1F8BC
:10A360000835EB6803F5E073032241F82320EB681E
:10A370002268A968C2F80835C2F8101572E700BF54
:10A38000002C0020ADA002001003020000E100E05C
:10A39000FCEC00E0F8B50579304C026805EBC5032C
:10A3A00004EB830300215B68C2F80015EE0083B163
:10A3B00003682B4AC3F8082302682A4F42F3073385
:10A3C0005B092033C2F30432012101FA02F247F89B
:10A3D000232003684FF0FF32D3F80CE5D3F814C5FF
:10A3E000D3F80815D3F81075C3F80C25C3F8142555
:10A3F00003689645C3F80825C3F8102506D00EF566
:10A40000E07E4FF0A043022243F82E20BCF1FF3F34
:10A4100006D00CF5E07C4FF0A043022243F82C203C
:10A420007A1C06D007F5E0774FF0A043022243F8EC
:10A4300027204B1C06D001F5E0714FF0A04302220B
:10A4400043F82120354404EB85040068FFF7A8FB9E
:10A45000002384F820306360F8BD00BF002C00208A
:10A460001003020000E100E0F0B401F06044B4F138
:10A47000005F82B02CD10579244E05EBC50406EBB4
:10A48000840403466069EF00002839D16261A1604D
:10A490001A68C2F82001D2F820C11A68CDF804C0A9
:10A4A000DDF804C0C2F85801D2F8582100921A68A9
:10A4B000DDF800C0D4F814C0C2F84415C2F848C58D
:10A4C0001A6801219160626832B102B0F0BC704735
:10A4D000102002B0F0BC70471B6800E0A0B9D3F8B0
:10A4E0002021D3F85801002AF8D0002818BF0F20E7
:10A4F0007B1906EB830300225A6102B0F0BC70475F
:10A50000112002B0F0BC70470F20F1E7002C0020B2
:10A510006DDF704779DF70477DDF704764DF70471C
:10A520002DE9F04F87B00746119D00882C880394D1
:10A53000BDF84840DDF840A0CDE90142002856D0E2
:10A540004FF0000988461E46CB4604E03A880BF1DE
:10A55000010B93452CDAD8F8002052F82B00059017
:10A5600000220DF1130105A8FFF7D8FF044658BBE0
:10A570009DF81320B242E9D12A889119B9F1000F50
:10A5800026D0019B8B4237DB52440DF1130105A805
:10A590004FF00109FFF7C2FF002832D129889DF84A
:10A5A00013200A442A803A880BF1010B9345D2DB31
:10A5B000B9F1000F1BD02B88039A013B9B1A9BB269
:10A5C000FF2B19D80AF80230204607B0BDE8F08FFB
:10A5D000019B023101328B4292B20DDB029B2A8039
:10A5E0000AF802302A88013292B22A80CCE700248D
:10A5F000204607B0BDE8F08F0C24204607B0BDE828
:10A60000F08F0446204607B0BDE8F08F2DE9F047F3
:10A6100000231788138090F82D3088B01446054623
:10A620000E46002B40F0FF80AA78002A40F0F4800C
:10A63000E978A1B1DA1CBA4200F2F1800222F254A8
:10A64000238801339BB201222380F25423881344D0
:10A650009BB22380F154238813449BB223806A6801
:10A66000AAB1D91CB94200F2DA80022192F9002085
:10A67000F154238801339BB20A212380F1542388AB
:10A6800001339BB22380F2542388013323802B892A
:10A69000002B40F0F2802B8A002B40F02A812B8B7C
:10A6A000002B40F045812B6A002B44D02088821D6E
:10A6B000BA4200F2B4801A88052A40F298816FF4F9
:10A6C000486802EB080189B24FF27D3C614540F2D7
:10A6D0008E815988052940F28A816FF4486E8E4434
:10A6E0001FFA8EFEE64540F282814FF6FF7C6245FE
:10A6F00004D0614502D08A4200F2798105223254A9
:10A700002288013292B212212280B1542288013271
:10A7100092B222801988B1543244090A51702288B9
:10A72000023292B222805B88B35432441B0A5370C7
:10A730002388023323806B6A002B2FD09988B4F8CA
:10A7400000C0881C0CF102020244BA4267D8FE28FD
:10A7500065D8033106F80C102288013292B2FF212D
:10A760002280B1542288013292B222801988B154D9
:10A770003244090A51702088023080B220809A88C1
:10A7800062B199680593002900F03181304401F0ED
:10A7900067F9059B9A8823881344238095F82C3009
:10A7A000002B40F0E2802878002839D02B88012B3C
:10A7B00000F01D8123889A1CBA4230D8012804D1A8
:10A7C0006978023119448F4229D3023FFF1ABFB280
:10A7D000B01806A9ADF81870FFF79EFE00BB2A78E6
:10A7E000BDF81830022A00F00B8169789942C0F058
:10A7F00002819F42C0F0FF800921FE2B0FD82288E2
:10A800005D1CB5542288013292B22280B154228854
:10A8100001321344238003E00433BB424CD90C20A3
:10A8200008B0BDE8F087082FF9D906A8FFF770FE39
:10A830000028F5D123880822F254238801339BB2E3
:10A840001B222380F2542088013080B2208006220F
:10A8500030440DF1190101F003F923889DF8182007
:10A8600006339BB212F0FE0218BF01222380F2547D
:10A87000238801339BB22380D6E605F10808022322
:10A8800005F10C01CDE90147009640461A460591B5
:10A89000FFF746FE0028C3D1CDE901470599009690
:10A8A000404610230622FFF73BFE0028B8D12B8A32
:10A8B000002B3FF4F4AE1CE006A8FFF72BFE0028A7
:10A8C000AED12388BDF818200321F1542388013329
:10A8D0009BB219212380F154238801339BB2F118D4
:10A8E0002380F254130A4B70238802339BB22380D7
:10A8F0009EE605F1100805F11401CDE90147009627
:10A900004046022303220591FFF70AFE002887D163
:10A91000CDE9014705990096404610230722FFF72D
:10A92000FFFD00287FF47CAF2B8B002B3FF4BBAEE8
:10A9300005F1180805F11C01CDE9014700964046D4
:10A94000022314220591FFF7EBFD00287FF468AF86
:10A95000CDE9014705990096404610231522FFF7DF
:10A96000DFFD00283FF49FAE5AE7A96A00293ED0D8
:10A970004FF000094B464FF0160A2BE02388F054A5
:10A98000238801339BB2238006F803A02388013378
:10A990009BB2238031F82220F2543344120A5A70B9
:10A9A0002088023080B22080B8F8042030444AB1B8
:10A9B000D8F80810D9B101F053F8B8F8042023886A
:10A9C0001344238095F82C205FFA89F39A427FF68E
:10A9D000EAAEA96A03EB430201EB820809F101091F
:10A9E000B8F80430D81C0233FE2BC7D917E707206C
:10A9F00008B0BDE8F087012A06D03B460821FCE6F6
:10AA00009F42BFF4F9AEF8E78F42F6D30B46082118
:10AA1000F3E600BF75DF704776DF70477ADF704777
:10AA20007BDF704770B51B4D2B8884B2A34282B088
:10AA300011D1194E297A327B91420ED3337C0022F8
:10AA40002A72DBB9736933B10022ADF806408DF884
:10AA5000042001A8984702B070BD184605F10A010C
:10AA6000FFF7D8FF28B11128F5D0B369002BF1D139
:10AA7000F1E72B7A01332B7202B070BD3B212046E7
:10AA8000FFF7CAFF30F00803DCD0B369002BD9D040
:10AA90009847D7E7402C0020242C0020F0B50288EE
:10AAA000122A83B003463ED015D8102A73D0112A3B
:10AAB0000FD16C4C828823889A420AD16068FDF7D6
:10AAC00079FB18B1684B9B6903B198474FF6FF7348
:10AAD000238003B0F0BD502AFBD1634DC188EA89C1
:10AAE0009142F6D1028A022AF3D15E4C82882688EE
:10AAF0009642EED1123000F08BF9002800F09C80D5
:10AB0000637A002B40F09F80D5E90113277A6068B3
:10AB10003246002F18BF1946FDF7F4FA0028D8D0A6
:10AB2000AB693BBBD5E74F4C828821889142D0D19D
:10AB30004089658985421FD8A58985421CD3E08953
:10AB40009D8940F2F313984294BF031AC31AAB4293
:10AB500012D800F2F310A8420ED3434B5B694FF4B6
:10AB600080722281002BB4D00122ADF806108DF83E
:10AB7000042001A89847ACE73B4D267A6068D5E9E8
:10AB80000113002E18BF194600236372FDF7BAFAAD
:10AB90000028C5D19DE7C67B012E9AD1314C218872
:10ABA0004FF6FF7291423FD1304F82882E4D228066
:10ABB00003CFC4F80A00C4F80E10598A6789E889DF
:10ABC0004FF0000C8F4284F808C020D8A7898F422C
:10ABD0001DD3E1899F8A40F2F313994294BF4B1A27
:10ABE000CB1ABB4213D801F2F311B9420FD36672EC
:10ABF00000287FF46EAF6B69002B3FF46AAF012130
:10AC0000ADF806208DF8041001A8984761E70023ED
:10AC1000637200287FF45DAF60686968FDF772FABF
:10AC200000283FF456AF7BE70F4B9B69002B3FF4A6
:10AC300050AF042098474CE76068FDF7BBFA002846
:10AC40003FF447AF6CE76B6900222272002B3FF4A0
:10AC500040AF0122ADF806608DF8042001A89847A6
:10AC600037E700BF402C0020242C0020542C00206B
:10AC700070B3F8B5054606460FCD164F3C460FC4D7
:10AC8000844695E80700144D3D6084E80700BCF158
:10AC9000000F17D06046FFF7C1FE90B933681868FF
:10ACA000596803C50D4B0E490E4A18464FF6FF74FE
:10ACB00040F8041F1C800021FDF712FA002818BF7D
:10ACC0000320F8BD2846FFF7ABFE0028EAD0F8BD08
:10ACD0000E207047242C0020542C0020402C0020F3
:10ACE0005C2C002025AA02002DE9F0470388878804
:10ACF000112B98B007D01A2B044650D0102B09D036
:10AD000018B0BDE8F0873A483946FDF7D5FA18B0D3
:10AD1000BDE8F087374A9368DB4300935168684683
:10AD2000FDF7FAFA009B0193019B83B300252E46A1
:10AD3000314601A8FDF7CAFA28B118AB03EB450369
:10AD4000013523F8286C0136142EF1D10D950DF143
:10AD5000340CBCE80F0002AE0FC6BCE80F000FC6F3
:10AD60009CE8070086E807008DB10DF10A08DFF8BE
:10AD700098A008EB450538F8029F1F4E304649461B
:10AD80000436FDF799FAB245F8D1A845F3D1132F4F
:10AD900015D90420FCF7D2FE18B0BDE8F087037A7D
:10ADA00016481F2B4FEA1314394618D9FDF77AFAC3
:10ADB000022C1348394616D0FDF774FAA0E70C4868
:10ADC0003946FDF76FFA0C483946FDF76BFAE37B1D
:10ADD000012B95D00B483946FDF764FA90E7FDF753
:10ADE0006BFA07483946FDF767FA18B0BDE8F087F7
:10ADF000842C00207C2C0020802C00208C2C002017
:10AE0000902C0020882C0020F42C0020AADF704712
:10AE1000007800F001007047F0B58B7891B0012BFD
:10AE20000C460988ADF80C1038BF012305461646BC
:10AE30006846032200218DF80E3000F01FFE637C6F
:10AE40000022013B8DF80020042B09D8DFE813F025
:10AE5000CF00D300D700DB00050022238DF800309F
:10AE6000A37C0022013B8DF80120042B09D8DFE8E8
:10AE700013F0CE00D200D600DA00050022238DF8B0
:10AE80000130E77B237B207C217D9DF8022043EA73
:10AE9000C70343EA001322F01902002903F0190343
:10AEA00043EA020314BF0222012262F3420309A80B
:10AEB0001C2200218DF8023000F0E0FD637B13F0CE
:10AEC000300F73D1627BA37B8DF8242000211422E4
:10AED00004A88DF8253000F0D1FDA368A288CDF834
:10AEE00014D003A90491ADF81C201BB1E28808938B
:10AEF000ADF81820A369002B36D001AF0322002142
:10AF0000384600F0BBFDA2691388ADF82C30538899
:10AF1000ADF82E3051680D97137B0A91013B00214B
:10AF20008DF80410042B2DD8DFE803F095999D8946
:10AF3000290022238DF80530977A137AD07A917BF5
:10AF40009DF8062043EAC70343EA001322F01902E2
:10AF5000002903F0190343EA020314BF022201226D
:10AF600062F342038DF80630E36903B10C93334674
:10AF700004AA09A92846FFF749FF11B0F0BD222312
:10AF80008DF80430537B0021013B8DF80510042B14
:10AF9000D2D801A151F823F047B002004FB002000F
:10AFA0002FB0020037B0020033AF020002AF03221D
:10AFB0003846002100F062FDE37C0022013B8DF861
:10AFC0000920042B07D8DFE803F0525E5A5603002D
:10AFD00022238DF809309DF80A300E97012262F382
:10AFE000420311228DF80A308DF808206AE71123F8
:10AFF0008DF8003034E721238DF8003030E731231D
:10B000008DF800302CE712238DF8003028E711234B
:10B010008DF8013035E721238DF8013031E73123F8
:10B020008DF801302DE712238DF8013029E7312307
:10B030008DF8053080E712238DF805307CE7122368
:10B040008DF804309EE711238DF8053074E7212335
:10B050008DF8053070E711238DF8043092E7212335
:10B060008DF804308EE731238DF804308AE7112300
:10B070008DF80930AFE712238DF80930ABE73123A3
:10B080008DF80930A7E721238DF80930A3E700BF29
:10B0900090DF7047A5DF7047B5DF704770B50023BC
:10B0A00084B0002460F30F0360F31F436A46204618
:10B0B00002A9CDE902340094ADF80440FFF7E8FF9F
:10B0C000054610B9284604B070BD124B124EF61A50
:10B0D000F608FDF725FF360446F0010603460F4942
:10B0E00022463046FCF774F9BDF80020BDF8023066
:10B0F00052EA030103D00A493046FCF769F9BDF86A
:10B100000420002ADED030460649FCF78BF828469A
:10B1100004B070BD28C9020060C90200B8C30200B3
:10B1200004C4020044C4020008B90E20704730B4C1
:10B1300003464FF017121B25002041F61B341961FE
:10B140001A60C3F806201D7158819C8130BC70477D
:10B150008288002A59D110B50388242B82B00C466E
:10B1600011D80F2B4FD9103B142B4CD8DFE803F02C
:10B1700060744B4B4B4B4B4B4B4B4B4B4B4B4B4BE1
:10B180004B4B4B444E003A2B70D0552B3BD1C388D0
:10B19000C988A272172B38BF17238B4228BF0B46D2
:10B1A00010462381FFF778FF00287ED1E37A53BB56
:10B1B000236943B32289ADF8042040F6772100913A
:10B1C000204669469847A37AA3B1E1880020FFF79B
:10B1D00061FF002862D011280CD0FDF7A1FE4A4B78
:10B1E0004A4902464A481B1ADB081B0443F0010087
:10B1F000FCF718F802B010BD007A0B7B984228BF0C
:10B200001846FFF74BFFA37ADEE770470B69027A17
:10B210004A73002BF7D000204DF67A218DF80500F7
:10B2200000918DF80420694620469847A37ACBE721
:10B230000B790B73C27B012A45D0022A33D149888E
:10B24000E18022898A4241D3627B9A42DBD218464E
:10B25000FFF724FFA37AB7E74FF01711002241F65A
:10B260001B33C4F806106281A381C3E74389C988F0
:10B2700022698B4228BF0B46172B38BF1723238127
:10B280004AB1E17A39B140F677210091ADF8043046
:10B2900069462046904700236381ABE74FF48073F3
:10B2A000638102B010BDC988CBE7FDF739FE164BAC
:10B2B0001849024616481B1ADB081B0443F001001C
:10B2C000FBF7B0FF72E70988E180BAE70020FFF7DB
:10B2D000E1FE18B90123E372237BB5E7112803D1FE
:10B2E0000123A372237BAFE7FDF71AFE064B074944
:10B2F000024607481B1ADB081B0443F00100FBF75A
:10B3000091FF237BA0E700BF60C902009CC402003C
:10B3100028C90200D0C40200B0DF704766DF704762
:10B3200060B159B10378DE2B0AD00B684360DE228E
:10B330004FF6FF7302704380002070470E20704765
:10B340000820704738B10378DE2B02D141800020FD
:10B350007047082070470E20704700BF11B330B50A
:10B36000054685B018B10B78DE2B0C4601D005B030
:10B3700030BD80884B889842F9D10B7A83BB2B88EB
:10B38000112B49D0512B12D0012BF0D12B7A012B4C
:10B39000EDD1012525720021FFF7C0FF00284FD114
:10B3A0002072E4E77047A88863888342DFD1AB79D5
:10B3B000022BDCD1AA7B02F0FD01042933D0052A3F
:10B3C000D5D100226946C1E9022200924A608DF877
:10B3D0000030FFF7A1FF0028C9D063689847C6E78F
:10B3E0000021FFF79BFF0346D8B1112818D06368EE
:10B3F00098472B88112B0BD0512BD4D0012BB6D1D1
:10B400002B7AAA88012BB2D160889042AFD1C0E7D5
:10B41000AA8863889A42AAD14FF6FF736380A6E791
:10B4200001232372E5E7694600224FF4C0754A60A4
:10B430000092C1E902228DF80030ADF80450C8E74F
:10B440001128CAD1257292E7A8DF7047AEDF704796
:10B4500062DF70470288502A00D0704710B44A88D3
:10B46000C488944202D05DF8044B7047028A012AD6
:10B47000F9D14B69002BF6D0827C5DF8044B8088B3
:10B48000184700BFF0B5324B04460D460FCB2D6870
:10B4900065618FB002AD85E80F00284604F1120106
:10B4A000FFF7D6FF08B10FB0F0BDA37C8DF80630D2
:10B4B000224641F2235301A90120ADF80430FFF7E1
:10B4C000C3FF0028EFD10146202206A800F0D6FADB
:10B4D0009DF82530A17C8DF81A10224623F0120326
:10B4E000012543F0120341F224574FF0011632F8C0
:10B4F0000A0B8DF8253006A9ADF8187007968DF85F
:10B5000029508DF82B50FFF787FC0028CBD101463E
:10B51000202206A800F0B2FA9DF82530A77C0796F5
:10B52000224623F00A0343F00A0332F8020B8DF897
:10B53000295006A941F225548DF82A508DF825305E
:10B540008DF81A70ADF81840FFF766FC0FB0F0BD2B
:10B5500010C5020070B50D4688B01346044601269A
:10B5600004A8102200218DF80730ADF80E6000F01D
:10B5700085FA6B89ADF810300DF107020DF10E035D
:10B58000204604A9CDE906328DF81260FFF75EFF70
:10B5900008B070BD10DF704770B53C4D2B7884B09B
:10B5A000002B66D13A4E3B49012302A83370FDF7C8
:10B5B000A1FC039B23B90EE0FDF7A6FC039B53B14E
:10B5C000D3E9002100209047044602A8002CF3D1C3
:10B5D000204604B070BD304902A8FDF78BFC039BE8
:10B5E0004BB1D3E900210020904702A8FDF78CFC65
:10B5F000039B002BF5D1294A002312688DF80830EF
:10B6000002A80192FCF710FE254901A8FFF7C2FF2E
:10B61000B0FA80F304465B099DF808002B70FCF734
:10B6200029FE002CD4D11F4B1F491C70347091F897
:10B630001623EC2352091341DB071ED51B4B9A68D6
:10B6400002B31A6842F480021A60134902A8FDF797
:10B6500051FC039B002BBBD0D3E900210120904774
:10B6600002A8FDF751FC039B002BF5D1204604B046
:10B6700070BD0824204604B070BD42F20200FCF701
:10B680005DFAE2E74FF480030B60DEE7F52C002063
:10B69000F42C00202CC5020044C5020028C502007D
:10B6A0005D7B0200F62C002000E100E0882D0020E8
:10B6B000014B1878704700BFF52C002000B583B00F
:10B6C00008496846FDF716FC019B43B1D3E9002009
:10B6D00090476846FDF718FC019B002BF6D103B09C
:10B6E0005DF804FB38C5020060DF704769DF704712
:10B6F00061DF7047144B1B782BB330B5134D91B0FD
:10B7000034240DF1020103A8ADF80240FFF7F0FF69
:10B7100088B9294601A8FDF7EDFB029B002BF0D06C
:10B72000D3E9002103A8904701A8FDF7EDFB029B98
:10B73000002BF5D1E5E7052801D111B030BDFCF7AC
:10B74000FDF911B030BD7047F72C002094C70200FE
:10B75000002900F0A78070B5544B0B6084B00C46F4
:10B7600005460C22002101A800F088F901260623D5
:10B7700022688DF8045001A920208DF80660ADF8EC
:10B780000830FFF7B3FF002843D10C22002101A8A5
:10B7900000F074F9012100238DF805102268ADF83E
:10B7A000063001A94020FFF7A1FF00286CD10C2230
:10B7B000002101A800F062F90A2322688DF8043004
:10B7C00001A90120FFF792FF00284FD10C22002190
:10B7D00001A800F053F94FF4B0632268019301A966
:10B7E000A120FFF783FF98BB0C22002101A800F0E5
:10B7F00045F99DF8043022686FF3000301A9A020E9
:10B800008DF80430FFF772FF034680B9184604B084
:10B8100070BDFDF785FB264B2649024626481B1ABC
:10B82000DB081B0443EA0600FBF7FCFCADE7FDF771
:10B8300077FB1F4B214902461F481B1ADB081B04DC
:10B8400043F00100FBF7EEFC0023184604B070BD86
:10B85000FDF766FB164B1A49024617481B1ADB0810
:10B860001B0443F00100FBF7DDFCBDE7FDF758FBCF
:10B870000F4B1449024610481B1ADB081B0443F007
:10B880000100FBF7CFFCA1E7FDF74AFB084B0E498F
:10B89000024609481B1ADB081B0443F00100FBF7B2
:10B8A000C1FC84E70E231846704700BFB822002071
:10B8B00070C9020050C5020028C9020084C60200F7
:10B8C00030C60200E4C5020098C5020070B5044607
:10B8D00082B00668FFF708FF2368B342054606D822
:10B8E0002DBB1B4B012228461A7002B070BD194BAC
:10B8F00019481A49C01AC008000440F0020001901B
:10B90000FBF7C2FB0198236815493246FBF760FD3F
:10B910004FF080532268D3F80C31124901989B02F2
:10B9200003F100539A1AFBF77DFC002DD9D028466D
:10B93000FDF7F6FA084B0C49024606481B1ADB08CD
:10B940001B0443F00100FBF76DFC284602B070BDFC
:10B95000F72C002028C9020070C90200D8C60200D6
:10B9600008C702003CC7020068C702004BDF7047EF
:10B9700010B5114C84B001A8FFF7F8FFA8B9214613
:10B9800002A8FDF7B7FA039B002BF4D0D3E90021FE
:10B990000198904702A8FDF7B7FA039B002BF5D159
:10B9A00001A8FFF7E3FF0028E9D0052801D0FCF744
:10B9B000C5F804B010BD00BFACC7020000230146AB
:10B9C0001A46184600F06AB808B5074B044613B18A
:10B9D000002100F0C5F8054B1868836A03B1984749
:10B9E000204600F01FF900BF61BB0200BCC8020086
:10B9F00038B5074D074C641BA4101CB9BDE838408E
:10BA000000F018B9013C55F824309847F5E700BF1D
:10BA10005C2300206023002070B50D4D0D4C641B8D
:10BA2000A4100026A64209D10B4D0C4C00F0FCF8E6
:10BA3000641BA4100026A64205D170BD55F8043B36
:10BA400098470136EEE755F8043B98470136F2E790
:10BA50005823002058230020582300205C23002076
:10BA60000A44914200F1FF3300D1704710B511F83C
:10BA7000014B03F8014F9142F9D110BD0244034636
:10BA8000934200D1704703F8011BF9E7034613F80E
:10BA9000012B002AFBD1181A013870472DE9F84311
:10BAA000DFF8B8800646D8F800001F460D469146DC
:10BAB00000F0B4F8254B1C6834B9254C1C60254BAC
:10BAC00013B11B68C4F8883063681F2B07DDD8F8F2
:10BAD000000000F0A5F84FF0FF30BDE8F8834EB34A
