:020000022000DC
:1060000000000120D9660200016702000367020058
:106010000567020007670200096702000000000030
:106020000000000000000000000000000B670200FC
:106030000D670200000000000F67020011670200F8
:10604000D991020013670200D19A0200136702007F
:106050001367020013670200E59502001367020050
:106060001367020013670200136702001367020040
:106070001367020013670200136702001367020030
:1060800013670200597B02001367020013670200C6
:10609000F97B02001367020029C2020013670200A5
:1060A0001367020013670200136702001367020000
:1060B00013670200136702000000000000000000E8
:1060C00013670200136702001367020013670200E0
:1060D000136702001367020013670200000000004C
:1060E00000000000000000000000000000000000B0
:1060F00000000000000000000000000000000000A0
:10610000000000000000000000000000000000008F
:10611000000000000000000000000000000000007F
:10612000000000000000000000000000000000006F
:10613000000000000000000000000000000000005F
:10614000000000000000000000000000000000004F
:10615000000000000000000000000000000000003F
:10616000000000000000000000000000000000002F
:10617000000000000000000000000000000000001F
:10618000000000000000000000000000000000000F
:1061900000000000000000000000000000000000FF
:1061A00000000000000000000000000000000000EF
:1061B00000000000000000000000000000000000DF
:1061C00000000000000000000000000000000000CF
:1061D00000000000000000000000000000000000BF
:1061E00000000000000000000000000000000000AF
:1061F000000000000000000000000000000000009F
:1062000010B5054C227832B9044B13B10448AFF3F2
:1062100000800123237010BD605A002000000000A0
:10622000FCD5020008B5034B1BB103490348AFF38B
:10623000008008BD00000000645A0020FCD5020068
:10624000134B002B08BF114B9D46A3F5803A00214C
:106250008B460F461148124A121A06F0D3F90D4B1D
:10626000002B00D098470C4B002B00D09847002003
:10627000002104000D000B4806F056F906F082F9E3
:106280002000290000F05AF906F054F90000080037
:10629000000001200000000000000000605A002003
:1062A000E46800205DC5020075DF704776DF704747
:1062B0008FDF7047034B0146408803EB001005F069
:1062C000F1BC00BFC85A00200378062B00D07047ED
:1062D00040680028FBD001F0F7BB00BF0D2801D0BB
:1062E00001F0F2BBF8B5104C0D4643F2020704F181
:1062F00080062046294605F0A5FE30F0080304F18B
:10630000100402D0B84200D0F8BDA642F1D1074B2C
:1063100007480849C01AC00800042A4640F0030094
:10632000BDE8F84000F044BFC85A0020B0D60200D3
:10633000D8D60200DCC7020070B50E78012E0C46DC
:1063400014D0022E25D11948194D0B794A881949C4
:10635000401BC008000440F0030000F0FFFF237959
:106360003046BBB1BDE8704002F0C8BD104B4A8852
:10637000114905460D48C01AC008000440F003004A
:1063800000F016FF01F070FB60B9284605F00EFE24
:1063900020B970BDBDE8704002F0BCBDBDE87040E2
:1063A00001F092BB01F090FBEFE700BFD8D60200EE
:1063B000B0D6020028C80200F4C7020030B5038836
:1063C000212B83B004464CD80F2B48D9103B112BFE
:1063D00045D8DFE803F00966444444444444444457
:1063E00044444444445E44544B4B4C4D82884C4995
:1063F000ED1AED082D0445F00305284600F0D8FEFF
:10640000A188072970D84748002200EB011005F049
:106410006BFE002865D1A188434B4FF4337000FB1D
:10642000013004F099FB112801D000286BD1012024
:1064300002F064FD04F086F908284FF000004DD00A
:1064400002F05CFD2846394A394900F0B1FE39486E
:1064500005F0E0FA002859D1002002F04FFD03B00A
:1064600030BD3B2B01D0562BF9D1A0881321FFF76B
:106470001DFF0028F3D001F027FB03B030BD00233F
:106480008088ADF8043001A9FFF712FF0028E6D09C
:10649000F1E700F108018088FFF706FF0028DED051
:1064A000E9E71E481C4D237AA2882349441BE408CF
:1064B000240444F00304204600F050FF04F042F9A5
:1064C000D0B12046194A1A4900F072FE194805F069
:1064D000A1FA70B9002002F011FDBDE702F01AFD2B
:1064E000BDE701F0F1FA96E7002001F0EDFAA1888E
:1064F00089E701F0E9FAEDE701F0CCFA48B90120AB
:1065000002F008FDDDE701F0DFFA90E701F0DCFAC8
:10651000A2E701F0D9FAF2E7B0D60200D8D602001D
:1065200058C80200C85A00207043002000C9020069
:106530008CC80200485B0020B0C8020000B54FF4D0
:10654000004187B0002000F0D1FB002840F085809A
:1065500000F0BCFB01F036FD002840F0A2800120D5
:1065600002F0E4FC504840F26662012101F024FA96
:10657000002840F0938002F035FC002840F08B802A
:1065800005F0C0FD002840F08380002302A901200F
:10659000029305F093FE002877D102A805F04CFF86
:1065A00000286FD14148002105F066F8002866D127
:1065B0003F4804F051FA00285ED13E4C3E4B029316
:1065C00004F1800501E0AC420AD0204602A9103453
:1065D00005F064FC0028F6D001F076FAAC42F4D164
:1065E00004F0A8F81022002102A806F00BF80123FD
:1065F000324A33488DF80C3002A98DF8143005F07A
:10660000B3F9002835D12F4A2D48002105F066F94D
:1066100060BB2B480022012105F092F918BB2A4BE0
:106620002A482B49C01AC008000440F0030001901A
:1066300000F0F0FC0198234A264900F0B9FD2048FB
:1066400005F0E8F960B9002002F058FC00F0A8FB62
:106650000028FBD102F0DCFBF8E701F035FA77E720
:1066600001F032FAEFE701F02FFAD8E701F02CFA47
:10667000CFE701F029FAC6E701F026FA9DE701F01D
:1066800023FA95E701F020FA8CE701F01DFA84E780
:1066900001F01AFA79E701F017FA71E701F014FA3C
:1066A00069E701F011FA5AE7684300207C5A00209C
:1066B000B5620200C85A002039630200C9620200B4
:1066C000485B002000C90200B0D60200D8D6020004
:1066D000E4C802008CC802000649074A074B9B1A0F
:1066E00003DD043BC858D050FBDC00F013F8FFF783
:1066F000A7FD00006CD7020068430020605A00200C
:10670000FEE7FEE7FEE7FEE7FEE7FEE7FEE7FEE761
:10671000FEE7FEE730B4B84B1B78062B20D0B74B12
:106720001B68062B00F08180B54AD2F8883043F40C
:106730007003C2F88830BFF34F8FBFF36F8F4FF0F5
:106740001023D3F80022002AC0F28681D3F8043245
:10675000002BC0F28181AB4BAB4A1A6030BC704752
:10676000AA4B1B681D07DAD1A94B1B6803F0F00286
:10677000302A00F09B8003F0E003402B00F096806D
:10678000A34B1B6803F0F003302B00F0A080A04B5C
:106790001B6803F0F002302A77D003F0E003402BAF
:1067A00073D09B4B1B6803F0F003302B00F0148177
:1067B000974B1B6803F0F002302A52D003F0E0033D
:1067C000402B4ED0924B1B6803F0F003302B00F0AF
:1067D000F5808F4B1B6803F0F003302B00F0D7805F
:1067E0008B4B1B6803F0F003502B7ED0884B1B684B
:1067F00003F0F002302A23D003F0E003402B1FD037
:10680000834B1B6803F0F002302A03D003F0E0034F
:10681000402B84D14FF08043D3F80024D20744BFEB
:106820006FF00102C3F8002479E77A4B1B68062B4E
:106830007FF47AAF784A136843F48063136073E798
:10684000764B6D4A1B681278754903F04F03062A90
:106850000B607FF464AF6D4B1B6819077FF45FAF6B
:10686000CEE7654A11784FF0804300220629C3F82D
:106870000C21C3F81021C3F838257FF450AF634BC7
:106880001B681B077FF44BAF9CE7664B5A4A1B689B
:1068900012786549C3F34233062A0B607FF43FAF99
:1068A0005A4B1B6819077FF43AAF7AE75F4B524A9D
:1068B0001B6812785E49C3F30423062A0B607FF439
:1068C0002EAF524B1B681C077FF429AF58E74A4B89
:1068D000584A1B7858491160062B7FF420AF4B4B68
:1068E0001B6818077FF41BAF51E74FF08052534BE2
:1068F000D2F80414C3F82015D2F80814C3F82415EC
:10690000D2F80C14C3F82815D2F81014C3F82C15BB
:10691000D2F81414C3F83015D2F81814C3F834158B
:10692000D2F81C14C3F84015D2F82014C3F844154B
:10693000D2F82414C3F84815D2F82814C3F84C151B
:10694000D2F82C14C3F85015D2F83014C3F85415EB
:10695000D2F83414C3F86015D2F83814C3F86415AB
:10696000D2F83C14C3F86815D2F840142248C3F892
:106970006C15D2F844140278C3F87015062A7FF417
:10698000CEAE224B1B6818077FF4C9AE2EE71A4B18
:106990002B4C1B782B492C482C4A052525600125BA
:1069A0000D6000243F21062B046011607FF4B7AE18
:1069B000164B1B681C077FF4B2AE11E70E4B244A3E
:1069C0001B780321062B11607FF4A9AE0F4B1B68C7
:1069D0001D077FF4A4AEFCE61E4A0749D368097878
:1069E00023F080730629D3607FF499AE074B1B68B0
:1069F0001A077FF494AEDBE6E00F00F030010010E0
:106A000000ED00E0D05900200090D003E40F00F02A
:106A1000E80F00F0340100103C170040580200104D
:106A2000E40E0040440200103C0500402403001026
:106A30004035014074C007400DF0ADBA00C00040C1
:106A4000105600408856004018560040145600402A
:106A5000A0050040F0ED00E0184A0123C2F804351B
:106A6000D2F80034002BFBD04FF010231521134A2D
:106A7000C3F80012D2F80034002BFBD04FF01023E3
:106A800015210E4AC3F80412D2F80034002BFBD0B3
:106A900000230A49C2F80435D1F80034002BFBD09A
:106AA000BFF34F8F0649074BCA6802F4E0621343F5
:106AB000CB60BFF34F8F00BFFDE700BF00E0014098
:106AC00000ED00E00400FA05F0B595B000241D4685
:106AD0000E460846174602F0E9F8304623460822DB
:106AE000099505A91A9D08970D950A948DF82C40D3
:106AF0000C9402F041F99DF814308DF81140DDE955
:106B0000061003F00302012ACDE9020127D0022A70
:106B100004D0304602F0CEF815B0F0BDBDF81650E6
:106B2000C3F3C2038DF81030AD090827082D2C4699
:106B300028BF08243B4622460EA9304602F01CF925
:106B40002D1B214608AB02AA0EA8274400F0E0FD49
:106B5000002DEBD1304602F0ADF815B0F0BDBDF818
:106B60001470059DC7F38312C3F3C2040EA9304607
:106B7000920008238DF81040C7F3831702F0FCF849
:106B8000C5F3952508AB3A4628460EA9009302ABFB
:106B900000F046FD304602F08DF815B0F0BD00BFA4
:106BA000014B01221A707047F45B0020704700BF50
:106BB00000B583B0044B0093044A4023FFF784FFE1
:106BC00003B05DF804FB00BFD16B0200B45B002092
:106BD00038B50E480E4D03780E4CEB5C0025D2B252
:106BE000257053B1043003F005FC58B90A4B1B78EB
:106BF00013B12378002BFCD038BD0C3003F0B4F96E
:106C00000028F3D000F060FFF0E700BFD459002067
:106C1000D8680020F45B0020B05B002030B5144839
:106C2000144A0378D35C89B0BBB1043003F078FB1D
:106C3000114D0FCD6C460FC495E80F00062584E872
:106C40000F000B4800950022694602F05BFA40B93C
:106C50000A4B00221A7009B030BD0C3003F01EF947
:106C6000E6E700F031FF054B00221A7009B030BD95
:106C7000D4590020D868002010C90200B05B002061
:106C800030B50E4D0FCD89B06C460FC495E80F009E
:106C9000062584E80F000A4A0A480095694602F072
:106CA00031FA20B9084B01221A7009B030BD00F04A
:106CB0000BFF054B01221A7009B030BD10C902004C
:106CC000A16B0200D4590020B05B002008B5FFF78B
:106CD000D7FF0448042100F01FFC034B01225A7126
:106CE00008BD00BF54D70200E859002038B50C4B4E
:106CF0000C48002400250022C3E90045FF21C3F809
:106D00001824996083F82024C3F8142401F07EFF2E
:106D1000044610B9044802F0A5F8204638BD00BF6B
:106D2000C85C002028D7020068C9020099B10E4B48
:106D30000E495B1ADB0815D030B400220C4D02E07E
:106D4000013293420BD035F822408442F8D151F8F9
:106D5000320030BC7047054951F8300070470020C0
:106D600030BC70471846704728D70200B0D60200E2
:106D70005C5A0020094B013903EBC00003290BD8F2
:106D8000DFE801F004020806042070470220704783
:106D9000407970470079704700207047B0D60200F4
:106DA0002DE9F047954CD4E900239A4284B063D092
:106DB0000023C4F81834BFF34F8FD4E9013503EA38
:106DC0000501CA1C04EB820614F82220500719D5CD
:106DD0002768327802F00302012A43D0022A03D145
:106DE0007288023303EB921305EA0301D4F8180406
:106DF000CA1C04EB820628B99F4239D914F8222014
:106E00005207E6D404EB81015A1CC96801912A405B
:106E100004EB820201F00301D2680292022903F11D
:106E200002062DD0012900F09580D4F810543DB110
:106E30002B6828469B689847EB681D68002DF7D1A2
:106E40006F48704B7049C01AC008000440F002003F
:106E500000F0E0F8D4E90030C01A18BF012004B0F7
:106E6000BDE8F08732880233C2F383121344BBE7D4
:106E7000676004B0BDE8F087002004B0BDE8F0878B
:106E8000BDF8063061484FEA9319B9F1500FC84672
:106E900028BF4FF0500868F38F1308F10801ADF8D0
:106EA000063001F0B5FE07460028BED001F0FEFE18
:106EB0000023082201A9384601F02AFF25EA06032B
:106EC0000133B8EB830F4FEA830A7DD9BAF1000F83
:106ED00000F08D8005EA06010331A8EB0A0804EBF7
:106EE00081010823524638465FFA88F801F010FF06
:106EF000474942460AF10803384601F009FF09F103
:106F0000030906EB9906D4F81834002B6BD1D4F89A
:106F1000105465B1EB685A7928463946002A5ED08C
:106F20002B681B689847EB681D68002DF2D1384626
:106F300001F0C0FE00230DF103008DF8033001F0D5
:106F400039F9D4F8183403B966609DF8030001F0EC
:106F500057F97FE7BDF804302C48C3F38312062AA3
:106F600028BF0622911C62F389138900ADF8043012
:106F700001F04EFE074600283FF457AF01F096FEA1
:106F80000023082201A9384601F0C2FEBDF80430F2
:106F900013F4707FB7D04FF00008314629404FEA14
:106FA00088030331083304EB81010422384601F0E1
:106FB000AFFEBDF8043008F10108C3F38313434565
:106FC00006F10106E9D89EE705EA0601033104EB64
:106FD000810142460823384601F09AFE8FE71D687A
:106FE000002D97D1A3E7384601F064FE32E7084947
:106FF00042460823384601F08BFE80E7C85C00203B
:10700000D8D60200B0D6020050C9020028D702002C
:10701000D45C00202DE9F04F624C87B00023064677
:107020000DF10B008DF80B30A568019101F0C2F84D
:10703000D4E9012327681A440132D21B012A00F245
:10704000AF8004F21C4804F214490121404601F0CB
:1070500037F9554801F050F9484601F04DF9D4E9A7
:10706000013E03EA0E00C21C04EB820114F822C0A8
:107070001CF0040F0CF0040200F08F8003F1020CEE
:1070800091F800B00BF0030BBBF1010FE2467FD08B
:10709000BBF1020F00F1030B6AD004EB8B01002A55
:1070A000EED104EB80000133C268039203EA0E03C1
:1070B00004EB830302F00302012AD96850D0022AAC
:1070C0004BD1BDF80E309B0903334FEA114B0AEB4D
:1070D000930A484601F020F9594600283BD0404623
:1070E000C4F804A001F0ECF8D4E9011322681944B3
:1070F0000131891A0129A8D913400333023205212D
:107100009DF80B0044F82310226001F079F800216B
:10711000264801F0ABF880F31000F1007B1C2B40F7
:10712000019A01F038013D4004EB830341F0010175
:107130000004033540EA164641EA8221DE6044F845
:10714000251094F820341BB1FFF72AFE0028FBD14C
:1071500007B0BDE8F08F4046C4E74FF0000BB8E73A
:10716000BDF80C30C3F383134FEA114B9A44B0E7D8
:107170004B880CEB93130EEA0300C11C03F1020CC5
:1071800014F82120E24604EB810102F0040286E7B4
:107190000B88C3F383136344EDE703F1020A80E72E
:1071A0003A46A9E7C85C0020E0600020E4600020C7
:1071B0002DE9F04F664C87B0002307460DF10B0018
:1071C000CDE900128DF80B30A56800F0F3FFD4E98B
:1071D000012326681A440132921B022A00F2B6806B
:1071E00004F21C4804F214490121404601F068F8F9
:1071F000584801F081F8484601F07EF8D4E9013E94
:1072000003EA0E00C21C04EB820114F822C01CF039
:10721000040F0CF0040200F0968003F1020C91F8C8
:1072200000B00BF0030BBBF1010FE24600F08680CB
:10723000BBF1020F00F1030B70D004EB8B01002AAD
:10724000EDD104EB80000133C268039203EA0E0320
:1072500004EB830302F00302012AD96856D0022A04
:1072600051D1BDF80E309B0903334FEA114B0AEBA5
:10727000930A484601F050F85946002841D040464C
:10728000C4F804A001F01CF8D4E9011322681944E1
:107290000131891A0229A7D913400333033245214A
:1072A0009DF80B0044F82310226000F0A9FFB31CE6
:1072B0002B4004EB8303019A2748DA60002100F099
:1072C000D5FF80F31000F900731C2B40009A01F0E9
:1072D0003801354004EB830341F0410100040335DC
:1072E00040EA174741EA8221DF6044F8251094F80C
:1072F00020341BB1FFF754FD0028FBD107B0BDE8D7
:10730000F08F4046BEE74FF0000BB2E7BDF80C30FF
:10731000C3F383134FEA114B9A44AAE74B880CEB53
:1073200093130EEA0300C11C03F1020C14F8212090
:10733000E24604EB810102F0040280E70B88C3F30C
:1073400083136344EDE703F1020A7AE73246A3E7C9
:10735000C85C0020E0600020E46000202DE9F04FD0
:107360006A4C89B0002607460DF11300CDE90112E1
:1073700003938DF81360A56800F01CFFD4E9012386
:1073800026681A440132921B032A00F2BD8004F2DF
:107390001C4804F214490121404600F091FF5C486A
:1073A00000F0AAFF484600F0A7FFD4E9013E03EA37
:1073B0000E00C21C04EB820114F822C01CF0040F62
:1073C0000CF0040200F09D8003F1020C91F800B073
:1073D0000BF0030BBBF1010FE24600F08D80BBF117
:1073E000020F00F1030B77D004EB8B01002AEDD1E3
:1073F00004EB80000133C268059203EA0E0304EB3C
:10740000830302F00302012AD9685DD0022A58D111
:10741000BDF816309B0903334FEA114B0AEB930A70
:10742000484600F079FF5946002848D04046C4F845
:1074300004A000F045FFD4E901132268194401318A
:10744000891A0329A7D913400333043285219DF8F3
:10745000130044F82310226000F0D2FEB21C2A4030
:10746000F31C2B4004EB820204EB830C029BD360E1
:107470000021039B2748CCF80C3000F0F7FE80F386
:107480001000F900731C2B40019A01F038013540BF
:1074900004EB830341F081010004033540EA174700
:1074A00041EA8221DF6044F8251094F820341BB1B2
:1074B000FFF776FC0028FBD109B0BDE8F08F40460D
:1074C000B7E74FF0000BABE7BDF81430C3F38313FD
:1074D0004FEA114B9A44A3E74B880CEB93130EEA47
:1074E0000300C11C03F1020C14F82120E24604EB56
:1074F000810102F0040279E70B88C3F3831363442C
:10750000EDE703F1020A73E732469CE7C85C00200E
:10751000E0600020E460002030B4154DD5F8101470
:107520000446002071B10B4601E01B6853B1DB68D3
:107530001A798242F9D101300A28F3D14FF0FF3095
:1075400030BC7047E3681871D5F810344BB1DA6875
:10755000E36812681A60D5F81034DB681C6030BC30
:107560007047C5F81044E268136030BC704700BF34
:10757000C85C002038B5094BD3F81044012583F8C6
:1075800020544CB1E3685D71236820465B689847DE
:10759000E3681C68002CF5D138BD00BFC85C002032
:1075A00030B5C38885B004460D461BBB217A05293A
:1075B0001ED0627AA0887AB9124A52F8212003922A
:1075C0000021FFF7B3FB039A0F490346284605B095
:1075D000BDE8304000F01CBFFFF7CCFB0B4B0C4963
:1075E00053F82020284600F013FF217AA088E3E713
:1075F00005B030BD074A00920749084A284600F006
:1076000007FFD3E740CA0200A0C902001CCA02005B
:107610009CC9020094C902007CC9020074C902001E
:107620002DE9F04385B04FF0000C0C9C814694F896
:107630000C8084F80CC00E461746184621461D469D
:10764000FFF7AEFF062F09D8DFE807F0042E343B22
:10765000444F1F004946204600F0DAFE2B7A052BE6
:1076600005D06B7A5BB92749204600F0D1FE204651
:1076700000F0C2FE84F80C8005B0BDE8F083224A19
:107680002249204600F0C4FEEDE7D6E90413F26873
:107690000393B3680291CDE900324946D6E900234D
:1076A000204600F0B5FED9E732684946204600F092
:1076B000AFFED3E7D6E900234946204600F0A8FEF6
:1076C000CCE7B3680093D6E900234946204600F092
:1076D0009FFEC3E7D6E9023201920093D6E9002368
:1076E0004946204600F094FEB8E7D6E90321B36886
:1076F0000291CDE900324946D6E90023204600F048
:1077000087FEABE7ACC9020094C902009CC9020025
:10771000082900D970472DE9F04F9B4683B000241B
:107720001B7B8BF80C400D4606465946104690468A
:107730000193DFF8D0902C4FFFF732FF05E0325D68
:10774000013400F065FE082C09D0A54239465846A0
:10775000F5D84946013400F05BFE082CF5D12349E9
:10776000DFF8A490224C234F584600F051FE4FF012
:10777000000A0DE0D15D11F0970F08BF2E222146BF
:1077800058460AF1010A00F043FEBAF1080F10D082
:10779000554505D916F80A207E2AEBD92E22EEE7A8
:1077A000494658460AF1010A00F032FEBAF1080FC4
:1077B000EED198F80830052B02D098F8093063B95B
:1077C0000D49584600F024FE584600F015FE019B76
:1077D0008BF80C3003B0BDE8F08F084A08495846D2
:1077E00000F016FEECE700BFB0C90200BCC9020001
:1077F000C0C90200F5D40200ACC9020094C902005D
:107800009CC90200B8C90200A8C902002DE9F04FC6
:107810003D4B93F800E087B0BEF1000F5FD000272A
:10782000DFF8F08002973C46012506E0029B013319
:1078300002939DF80840A64551D9344BD8F8001062
:107840001E68D8F8042016F83400A0F1200BC0F10F
:10785000200305FA0BFB25FA03F34BEA030305FAB1
:1078600000FC01EA0C0902EA030A06EBC40759EA24
:107870000A0B0397DAD021EA0C0122EA0303C8E9D4
:10788000001301F0A5FE16F83430214AC3F1200C94
:10789000D2E90067A3F1200E614600FA0EF405FA62
:1078A0000EF225FA01F105FA03FE20FA0CFC0A4358
:1078B0000EEA060144EA0C0404913A4000FA03F18E
:1078C000009101940592DDE90412DDE900BC6245F6
:1078D00008BF594506D00C4B93F800E0A6E707B067
:1078E000BDE8F08F03994A68002AF4D04978A1F1E5
:1078F0000101B1FA81F14909091AB1FA81F1490985
:1079000018469047E7E700BF84610020C06100206F
:10791000B0610020B86100202DE9F843804622487C
:1079200000F00EFCE0B9214D4FF0010CD5E9002329
:10793000A8F12004C8F120012CFA01F10CFA04F49A
:107940000C430CFA08F902EA090603EA040756EAAE
:10795000070107D022EA090223EA0404C5E900244A
:10796000BDE8F883404601F033FE114B1E68A8B90C
:10797000586826EA090620EA0400D5E900211E60BD
:107980000C4E586042EA09020C432A6031686C6070
:107990000548BDE8F843002200F07ABB586849EA80
:1079A00006062043E9E700BF8C610020B861002093
:1079B000B061002088610020042A3BD92DE9F04104
:1079C00082B0144605460E4601F086FC68B31E4997
:1079D0001E4A1F4B0D601F481F491C601670002374
:1079E0000022741EC0E90023C1E90023E4B21EB3E3
:1079F000DFF8708005EBC4040027032602E0AC42E8
:107A00001AD01C46A37820788DF80530424601A98B
:107A10008DF806708DF8046001F068FCA4F108038D
:107A20000028ECD002B0BDE8F08101F00BFC00288A
:107A3000CDD0F7E707207047084A0948002100F039
:107A400015FB02B0BDE8F081C06100208461002018
:107A500088610020B0610020B86100200D7802002C
:107A600054CA02001979020070B5084D2B785BB139
:107A7000074E00243368012113F8340001F018FD8B
:107A80002B780134A342F5D8002070BD846100201A
:107A9000C061002070B5094D2B7853B1084E002409
:107AA000336813F8340001F061FD2B780134A342F0
:107AB000F6D8BDE87040034800F042BB8461002066
:107AC000C06100208C61002000B585B00346002114
:107AD00001AA44F20100CDE90111039300F004F87A
:107AE00005B05DF804FB00BF10B572B6FFF742FDAC
:107AF000FFF756F90028FBD1104B114C1149E41A3D
:107B0000E408240444F00100FFF784FA0E4B1B68DC
:107B1000DB0700D500BE0D4944F00200FFF77AFAFA
:107B2000BFF34F8F0A490B4BCA6802F4E06213435C
:107B3000CB60BFF34F8F00BFFDE700BFB0D60200A0
:107B4000D8D6020058CA0200F0ED00E064CA020074
:107B500000ED00E00400FA05F8B52049204B0024B0
:107B6000C1F84041C1F84441C1F84841C1F84C4115
:107B7000C1F80041C1F804411B6833B31948D1F87A
:107B8000045501681A686D1A25F07F45AA422746F8
:107B90000DD8197CDE69AD1A144419B1D3E905205A
:107BA0001F7490471EB133461A68AA42F1D90E4994
:107BB0000E4A0B7812789A4208D00D490D4A41F8C6
:107BC00023404FF48013C2F80031F8BD531CDBB2E0
:107BD000022B08BF00230B70EFE700BF001001402D
:107BE000E4620020E0620020DD620020DC62002010
:107BF000D462002000E100E02DE9F04FB04AB14925
:107C000013780978DFF8DC829942D8F8009085B0C3
:107C100000F083810133DBB2022B08BF0023AA48A6
:107C20001370AA4A056852F823106B1823F07F439B
:107C30000360B9F1000F00F0B98100200746044647
:107C400084464B4612E0D868DE69C3F800C0891A42
:107C5000144430B12A1922F07F42C3E90120DF61C8
:107C60001F460120002E00F05B8133461A688A42CD
:107C7000E9D910B1C8F800309946521A1A600123A8
:107C80000093934B934EDFF860A243F001030193FE
:107C90004D464FF0000B002F31D0D7E901313C4663
:107CA000FF69894ADFF844C21268981A20F07F40C1
:107CB000604500F2DF804318236000220121C4E9FF
:107CC0000122E2612174002D00F0F5802A689A42B9
:107CD00080F0EA80294605E0D1F800E09E4580F07A
:107CE000D18072460846C9699C469B1A0029F3D187
:107CF0002360E161C4612C462546002FCDD1707808
:107D00003378984247D09C460CEB4C0CB27806EB8B
:107D1000CC0C591CCBB29A429CF80420337004BF9F
:107D200000233370022ADCF8084024D0032A18D03C
:107D3000012AE6D1227C002AE3D1DCF80C30636012
:107D4000DCF81010A160DCF81400E0609AF800E0A4
:107D5000DCF81800A061BEF1000FA2D062601346EB
:107D60009FE7002DCDD000232B74ED69002DFBD1B2
:107D7000C8F80050C3E755B1AC4200F0B9802A46BC
:107D800001E0944239D01146D269002AF9D100228B
:107D900022749842B7D1BBF1000F01D1A94543D05D
:107DA000002D46D0484A4C4B1468D3F804654B4F1D
:107DB000D5F800803A78351B25F07F450335002A39
:107DC00000F0B380444AA8452CBF4444641924F011
:107DD0007F44C2F84045D2F804359B1BA41B23F016
:107DE0007F4324F07F440333A34200F2B780002393
:107DF0008AF8003005B0BDE8F08F8C427AD0E06997
:107E00002268C861002800F08380AC4603681344F0
:107E10000360AC454FF000023378707822741CBFC9
:107E200065464FF0010BB4E7009B002BDFD0002D1F
:107E3000B8D1294E2A4A264C4FF400314FF48033F2
:107E40000127C2F880103C43C6F848334FF43C6029
:107E5000C6F808337760A0471B4BB7604FF43C600F
:107E60001D60A0471D4B1D7000238AF8003005B02F
:107E7000BDE8F08FD31A23F07F438B420BD2CB1A8D
:107E800023601AE77244A2EB0C020A602360E161EE
:107E9000C4612C4630E700230122C4E90033A3600B
:107EA000E36122743DB12A68C8F80040D31A2B6000
:107EB000E561254621E7C8F8004025461DE700BFDB
:107EC000DC620020DD620020E0620020D46200203D
:107ED00080CA0200C461002000100140D16200206D
:107EE00000E100E0E4620020D0620020FEFF7F009D
:107EF00029462A46D5F81CC0C8F800C0BCF1000FBE
:107F000041D0D0691268C86100287FF47FAF80E754
:107F100000223378707822743BE700270097B0E6A0
:107F2000C8F80060B1460090ABE62249224A4FF4FF
:107F30008030C3F844034FF00109C3F804034FF441
:107F40000030C1F8800142F001020860C3F80090DF
:107F50004FF43C60904787F8009033E7164BD2F817
:107F60000415C2F8401543F001034FF43C609847F4
:107F7000104B4FF40032C3F8002100238AF8003080
:107F800005B0BDE8F08FCDE902210C4A0C48012371
:107F90009360C0F800C08AF800304FF43C60019B49
:107FA0009847DDE90221D8F800C0AAE701234F462F
:107FB000009366E600E100E080CA02000010014084
:107FC000E06200202DE9F8431F4D204E204FDFF8DE
:107FD00098804FF480334FF400324FF001090024B1
:107FE000C6F8802047EA0907C5F848334FF43C60DB
:107FF000C5F80833C5F80490B847C5F808904FF4A1
:108000003C60C8F80040B847124A134B13491C6043
:108010001470134B134A0C700B2114701C80997050
:108020004FF48012C023C6F8802186F814333260E2
:10803000C5F8084586F81133D5F80435C8F800307E
:108040002046BDE8F88300BF0010014000E100E0D9
:1080500080CA0200D1620020E4620020DC620020BD
:10806000C4610020DD620020E0620020074B9B78A5
:108070003BB142B138B10368187C10B959745A61E8
:108080007047082070470720704700BFC461002078
:108090002DE9F043274EB37883B0002B3ED0044641
:1080A00000283BD004290D463CD94369002B35D02C
:1080B000437C0027012B0DF107000CBF8846B84612
:1080C00091468DF8077000F075F8737896F802C045
:1080D00032789DF80700591CC9B28C4508BF394653
:1080E0008A4223D003EB430306EBC3034FF0010C9A
:1080F000114A9C6083F804C0D2F804257170C3E96A
:108100000325C3E9058900F07BF80C4B4FF480127E
:108110003846C3F8002103B0BDE8F083082003B05F
:10812000BDE8F083072003B0BDE8F08300F068F8F5
:108130000420F0E7C46100200010014000E100E0ED
:10814000F0B51A4EB37883B04BB3044638B34369E5
:108150002BB3002505740DF107008DF8075000F0D2
:1081600029F87378B77831789DF807005A1CD2B295
:10817000974208BF2A46914214D003EB430306EB13
:10818000C30302219C601971727000F039F8084B2A
:108190004FF480122846C3F8002103B0F0BD082038
:1081A00003B0F0BD00F02CF80420F6E7C461002015
:1081B00000E100E070B4EFF3108472B60D4B9A68E2
:1081C000AAB90D490D4E01259D60D1F8805035406A
:1081D0001D60C1F88060D1F884505D604FF0FF33BE
:1081E000C1F88430027004B962B670BC70470123D4
:1081F0000370F8E7CC68002000E100E0FC06FFBD5A
:10820000094B9A687AB170B910B4EFF3108172B665
:10821000064A1C6814605C685460986001B962B6D4
:108220005DF8044B70477047CC68002000E100E027
:108230004A09012301F01F0100EB820003FA01F15A
:1082400000F022B801F01F0201234909934000EB1E
:108250008100D94300F026B84B0901F01F0150F806
:108260002300C84000F00100704700BF10B403466F
:1082700053E8000F0A4643E8002494F0000FF7D1BA
:108280005DF8044B704700BF10B4034653E8002F5D
:1082900042EA010043E8000494F0000FF6D15DF8D3
:1082A000044B704710B4034653E8002F02EA010064
:1082B00043E8000494F0000FF6D15DF8044B7047DA
:1082C00010B4034653E8002F02EB010043E800041A
:1082D00094F0000FF6D15DF8044B704710B40346DC
:1082E00053E8002FA2EB010043E8000494F0000FD4
:1082F000F6D15DF8044B704710B40346012253E8F1
:10830000001F41EA020043E8000494F0000FF6D198
:108310005DF8044B704700BF10B40346002253E8D9
:10832000000F00EA020143E8001494F0000FF6D1B8
:108330005DF8044B704700BFB8B130B4D0E901120A
:10834000521A0468D2B2531E2160DBB242B10168F6
:108350000A685C1E551C0D601370E3B2FF2BF6D14A
:1083600003680020187130BC70470E20704700BFB2
:10837000F0B583B0044600250DF107008DF80750D5
:10838000FFF718FFD4E900311A688A4210D9511E4C
:1083900019602168A3680F6812F8015C0A79268ABF
:1083A000E068DB1BDBB29A4206FB050538BF0B71A8
:1083B0009DF80700FFF724FF284603B0F0BD00BF7B
:1083C00030B5054683B000230DF107000C468DF84B
:1083D0000730FFF7EFFE2A681368591C1160E9683F
:1083E0002A8A641AB4FBF2F41C709DF80700FFF7A8
:1083F00007FF03B030BD00BF826842B110B504462C
:1084000043690168006998470023A36010BD704765
:108410000EB400B582B0039921B104AB01AA019357
:1084200000F0BEF802B05DF804EB03B0704700BF87
:108430002DE9F04F914283B005460F46DDE90C90DF
:1084400016469A46C0F0A6800B464FF00108B3FBD3
:10845000F6F39E4208F10108F9D9D04538BFD0465D
:1084600010F001032A68A968019302D1B9F1000F45
:1084700067D150184B1C012403E00AF1FF3A06FBB8
:1084800004F4BAF1010FF8D8B7FBF4F29642F6D92A
:10849000DFF808A10AE0B442B4FBF6F31DD32A6862
:1084A000A9681C465018B7FBF3F24B1C1AF802B02F
:1084B000BBF10A0F04FB12771A46034626D0AA60C6
:1084C00083F800B0D5E901329A42E4D32846FFF799
:1084D00093FFB4FBF6F3B442E1D2019B9BB1B9F137
:1084E000000F10D02024C84509F1FF390BD2AB682A
:1084F0002A68591CA960D454D5E901329A4219D28C
:10850000B9F1000FEFD103B0BDE8F08F4FF00D03CC
:10851000AA600370D5E901329A4203D22B68134452
:108520000132CCE72846FFF767FFA9682B684A1C91
:108530000B44C4E72846FFF75FFFB9F1000FD2D123
:10854000E1E7830717D42024C84501F1010302EBBA
:10855000010090D2AB605454D5E90131994209F140
:10856000FF390ED22A68B9F1000FEDD150184B1C1B
:108570004FF000097FE7BAF1000F0CBF3024202430
:10858000E2E72846FFF738FFA9682A68B9F1000F2B
:10859000DAD1EBE74FF001085FE700BF88CA0200BD
:1085A000002900F085822DE9F04FDFF858960D780C
:1085B00085B0064690460C464FF00D0A13E0B368AE
:1085C00030680A2D03F1010200EB030100F0C680C0
:1085D000B2600D70D6E901329A4280F0B180257800
:1085E000002D00F0B4800134002D00F0B080252D66
:1085F000E5D12146002711F8012B2D2A00F08580B6
:10860000302A00F086802B2A76D02A2A00F0B28009
:10861000A2F13003092B00F2C681002500E01946C3
:1086200005EB850502EB45056278A2F130000928CB
:10863000A5F1300501F101030C46F0D92E2A00F016
:10864000A580002302F0FB00682801F1010405D198
:1086500014F8012B02F0FB016829F9D0252A00F05B
:108660009781583AD1B22029B9D8202AB7D801A188
:1086700051F822F043890200DF850200DF85020005
:10868000DF850200DF850200DF850200DF85020052
:10869000DF850200DF850200DF850200DF85020042
:1086A0001B870200BB880200DF850200DF85020015
:1086B000DF850200DF850200BB880200DF85020043
:1086C000DF850200DF850200DF850200DF85020012
:1086D000DF85020033880200DF850200DF850200AB
:1086E000D3870200DF850200B9870200DF85020020
:1086F000DF8502004389020047F004070C4621464B
:1087000011F8012B2D2A7FF47BAF47F001070C46AF
:10871000F5E747F002070C46F1E7D8F800301A1DDC
:10872000C8F800201D78B3680A2D00F04582326831
:10873000591CB160D554D6E901329A42FFF44FAFCB
:108740003046FFF759FE2578002D7FF44CAF337B80
:10875000002B40F0178105B0BDE8F08FB26000F843
:1087600003A0D6E901329A4280F0048131681144B5
:1087700001322DE7D8F800301A1DC8F800206278C1
:108780001D682E2A04F102037FF45BAF4A78A2F140
:108790003001092919464FF000033FF653AF03EBB0
:1087A000830302EB430311F8012FA2F130000928E3
:1087B000A3F13003F3D945E7D8F80020111DC8F81C
:1087C000001011683046CDE900570A22FFF730FE4D
:1087D00005E7D8F800301A1DC8F8002017F0010787
:1087E000D3F800B040F0EB80BBF1000F03D0584647
:1087F00003F01AFF0746BD4240F25B81002D00F0F6
:108800005881202105E0BD4200F05381002D00F089
:108810005081B2683368501CB0609954D6E9012386
:10882000934205F1FF35EED33046FFF7E5FD2021F9
:10883000E9E7D8F80020131DC8F80030B3683168A4
:108840001768581C3022B060CA54D6E901239342FD
:1088500080F0EA803268581C7821B060D154D6E9A3
:108860000123934280F0E5800F2F03D93A46120985
:108870000F2AFCD84FF0805506E00F2D4FEA151354
:108880007FF6ADAE1D46B368B7FBF5F219F802B03E
:108890003068BBF10A0F05FB127700EB030103F10F
:1088A00001025BD0B26081F800B0D6E901329A4291
:1088B000E3D33046FFF7A0FDDFE7D8F80020111D15
:1088C000C8F80010D2F800B08BEAEB72A2EBEB72A2
:1088D000092A40F39381DFF830C301201146632950
:1088E000ACFB02E200F101004FEAD202F6DC984252
:1088F000024638BF1A46029207F00202002D56D0F7
:10890000BBF1000FC0F29A80780700F19780002A2F
:1089100000F09680002B40F09380BBF1000FC0F276
:108920002C817A0700F13C8107F00302022A00F053
:10893000F780CDE9005759460A223046FFF778FD07
:108940004DE6D8F80020111DC8F800101168304617
:10895000CDE900571022FFF76BFD40E6B26000F84A
:1089600003A0D6E901329A4280F09A8033689918C0
:10897000013297E73046FFF73FFDB36831685A1C74
:10898000194425E6304605B0BDE8F04FFFF734BD89
:10899000B3683168581CB060CA54D6E901329A42B3
:1089A000FFF41DAECCE60B460025214646E622B17B
:1089B000002B00F02181FA07AFD40025ADE79BF82A
:1089C0000020002A00F01C81B3685F46CBF1010152
:1089D000D6F800E00A2A01EB070B0EEB030C03F1BB
:1089E000010051D0B0608CF80020D6E901239342F9
:1089F0003FD217F8012F002AEAD15D457FF6EFAD8F
:108A0000202702E05D453FF4EAADB2683368511CAF
:108A1000B1609F54D6E901329A4205F1FF35F1D396
:108A20003046FFF7E9FCEDE73046FFF7E5FCB368B9
:108A300010E73046FFF7E0FCB36815E7013D66E755
:108A4000F9073FF56AAF002DB7D020220299A9425D
:108A5000BFF463AFB168481CB06030684254D6E9D7
:108A60000101814205F1FF3580F0B580002DEDD187
:108A7000A3E730460291FFF7BFFC17F8012F002A49
:108A8000BBD0B3680299A3E7B0600EF803A0D6E9A3
:108A90000130984264D2336803EB000C0130A1E747
:108AA0003046FFF7A9FCB16833684A1C1944F9E65F
:108AB00070479BF80050002D3FF491ADB3683068CB
:108AC0000A2D03F1010200EB030111D0B2600D7019
:108AD000D6E9012393421BD21BF8015F002D3FF41E
:108AE0007EAD30680A2D03F1010200EB0301EDD1E8
:108AF000B26000F803A0D6E901329A4228D2316868
:108B000011440132B2600D70D6E901239342E3D3E0
:108B10003046FFF771FC1BF8015F002DCED15EE5FA
:108B2000002B7FF406AF8DB130220299A942BFF429
:108B300000AFB168481CB06030684254D6E901010A
:108B4000814205F1FF3550D2002DEED10025F0E62F
:108B50003046FFF751FCB36831685A1C1944B5E739
:108B60003046CDE90221FFF747FCB3683268581C54
:108B700002EB030CDDE9022134E7B1684A1CB26064
:108B800032682D205054D6E901219142CBF1000BDF
:108B9000FFF4CAAE30460393FFF72EFC039BC3E6F7
:108BA000B1684A1CB26032682B205054D6E90121CA
:108BB0009142FFF4B9AEEDE73268591CB16002F89A
:108BC00003A0D6E901239342FFF4B1AD3046FFF78D
:108BD00013FCB368ABE530460393FFF70DFC039B32
:108BE0002022002D7FF432AFE7E630460393FFF7F3
:108BF00003FC039B3022A7E71D468EE6012076E6A4
:108C00009346FAE688CA0200CDCCCCCCFFF794BBE1
:108C10002DE9F041058A0331043D4E198046B6FB2B
:108C2000F5F6FFF7A5FB002836D0F6B24FF48073B7
:108C3000013E0446C580C0F8008083802DD00346E5
:108C4000002508E06279AE4202F1010262713860EB
:108C5000C0F8008021D040461F46FFF789FB013550
:108C600003460028EED194F805802768B8F1010288
:108C700016D03D4601339A422D68FBD1B8F1000F62
:108C80000AD0002601E03C463F68214601362846CE
:108C9000FFF796FBB045F6D800242046BDE8F081EA
:108CA00021463846FFF78CFBF6E700BF0430012170
:108CB000FFF706BB2DE9F041012104460430FFF720
:108CC0000DFB10F0FF0301D0BDE8F08194F80580A2
:108CD0002568B8F1010214D02E4601339A42366855
:108CE000FBD1B8F1000FEFD0002701E02C462D6832
:108CF000214601373046FFF763FBB845F6D8BDE89B
:108D0000F08121462846BDE8F041FFF759BB00BF7E
:108D10002DE9F8430546C6884079144606FB00F263
:108D2000043A04EB030C1F1D624538BFD41ABE423F
:108D30008846B7FBF6F106FB117002D801392D68A1
:108D4000FCD1371AA74228BF27469CB14FF0000933
:108D50000430E41B28443A4608EB090103F044FCC4
:108D6000A642B9442D6837464FF0000028BF274679
:108D7000002CEDD1BDE8F8832DE9F8430546C688FF
:108D80004079144606FB00F2043A04EB030C1F1D65
:108D9000624538BFD41ABE428846B7FBF6F106FBDF
:108DA000117002D801392D68FCD1371AA74228BFAB
:108DB00027469CB14FF0000904302918E41B3A46BD
:108DC00008EB090003F010FCA642B9442D683746B1
:108DD0004FF0000028BF2746002CEDD1BDE8F883F6
:108DE00041DF7047064A074B10B5002414701C6021
:108DF000BFF35F8F0449054800F042F8204610BDDC
:108E0000F0620020F4620020A4CA0200E8620020A0
:108E100000B583B000230DF107008DF80730FFF790
:108E2000C9F9F1EE103A23F09F03E1EE103ABFF3D7
:108E30005F8F0B4B4022C3F884219DF80700FFF79A
:108E4000DFF903F0EBF928B920BF40BF20BF03B022
:108E50005DF804FBFFF7C4FF03B05DF804FB00BF3F
:108E600000E100E0826800239360826813618268F9
:108E700053618268D3608268536082681360704770
:108E800001600B6843604A68934204BF002343605B
:108E9000704700BF436843B1026891680B44436068
:108EA0005268934204BF002343607047114910B4D5
:108EB000A1F5947205E052F83330984238BF21464C
:108EC0000CD28C1AE30F03EBE4035B10914202EB2C
:108ED000C304F0D808485DF8044B704702D904F188
:108EE0000802EEE76068044B5DF8044B002808BFF9
:108EF00018467047D8CF02009CCE0200044B195C84
:108F00004FF0A04201238B40C2F80C35704700BFE0
:108F1000D8CF0200044B195C4FF0A04201238B40D4
:108F2000C2F80835704700BFD8CF0200C20730B47E
:108F30001AD54FF0A0430322C3F844274FF400355D
:108F4000C3F848274FF48024C3F84C274FF400217E
:108F5000C3F850274FF48012C3F80855C3F80845EA
:108F6000C3F80815C3F8082583070AD54FF0A043B6
:108F70000C22C3F83427C3F83827C3F83C27C3F8BA
:108F8000402730BC704700BF10B568B90E4CA368CD
:108F9000012262703BB1D3E900230020A260984710
:108FA000A368002BF7D110BD0128FCD1064C236922
:108FB000A070002BF7D0D3E900230120226198474D
:108FC0002369002BF7D110BDF862002070B910B5ED
:108FD000074CA368012262703BB1D3E90023002053
:108FE000A2609847A368002BF7D110BD704700BF5F
:108FF000F862002030B5012883B004D003281DD0CA
:10900000B0B103B030BD224C00230DF107008DF844
:109010000730FFF7CFF823784BB3E3689DF80700DC
:1090200001330122E360A270FFF7EAF803B030BD1C
:10903000184B0122C3F8802003B030BD144C00F05F
:10904000ADF800230DF107008DF80730FFF7B2F8F7
:10905000E368013BE360E5682DB19DF80700FFF789
:10906000CFF803B030BD00F0ABF8A570F5E70A48C3
:109070006360A3602361E36000F084F803F0CEF83E
:1090800010B101232370C8E700F088F8F9E700BFAA
:10909000F862002000E100E0898F020030B585B061
:1090A000047845688DF80040D0E90240064A074B35
:1090B000039053F82130019552F821108DF80840A3
:1090C0006846984705B030BD0C630020106300204F
:1090D00030B585B0047845688DF80040D0E902408D
:1090E000064A074B039053F82130019552F821109E
:1090F0008DF808406846984705B030BD0C630020E5
:1091000010630020F0B51A4B90F800C0194C1A4DAE
:1091100091F81DE044F82C200746086945F82C001A
:1091200003F80CE00C4616460FCC89B06D460FC50F
:1091300094E80F0085E80F00CDF810C0BEF1000FD5
:109140000AD0002E0D4A694607F1040008BF3246D6
:1091500001F006F809B0F0BD002E094A694607F192
:109160000C0008BF324600F0CDFD09B0F0BD00BFD5
:10917000D8680020106300200C6300209D9002003E
:10918000D1900200044A137923B901211060918023
:10919000184670478520704714630020074B1A68F3
:1091A000D20704D4C021012283F800131A604FF0C3
:1091B00080430122C3F81825704700BF00E100E09A
:1091C000044B01221A604FF08042D2F81834DB03BE
:1091D000FBD470470C00004010B5174B1A6882B0E2
:1091E00062B10021154A19601B68507900934FF055
:1091F00080410123009CC1F8083398B1104B1A68D4
:10920000BAB100221A601B6801934FF0804202211C
:109210000A4B0198C2F808131B68012002B0BDE890
:1092200010401847116853718847054B1A68002A87
:10923000E7D102B010BD00BF000100401463002060
:109240000401004030B5204C94F8585083B0002DF4
:1092500036D14FF0FF304FF0FF314FF0FF33C4E90C
:109260000001C4E90C01C4E90E01C4E91001C4E91C
:1092700012010422294604F15400C4E90233C4E96E
:109280000433C4E90633C4E90833C4E90A33236567
:1092900003F0B8F90D4A0E4B0E491D60C02082F84C
:1092A0000603402010601B68019301984FF00043B3
:1092B0000122284684F85820C1F8043303B030BD99
:1092C000082003B030BD00BF2063002000E100E0B3
:1092D0007C61004000600040034B93F85800003868
:1092E00018BF0120704700BF20630020F0B46E4B10
:1092F0001D1895F93040002C61DA8C78A707C4F36B
:10930000400C53D41C6A013400F0C7805C6A0134FD
:1093100000F0BC800C250A2453F82460013652D09A
:10932000661CAE423FD253F82670013700F0A6808B
:10933000A61CAE4237D253F82670013700F09E804B
:10934000E71CAF422FD253F8276001363AD0271DD1
:10935000AF4228D253F82760013633D0671DAF42A1
:1093600021D253F8276001362CD0A71DAF421AD264
:1093700053F82760013625D0E71DAF4213D253F8CA
:10938000276001361ED004F10807AF420BD253F814
:109390002760013616D00934AC4204D2DC6A0134AD
:1093A00008BF0B240FD00420F0BC70471C680134A8
:1093B00066D05C6801345FD008250224ACE7082041
:1093C000F0BC70473C461E1865B243F8242086F86E
:1093D0003050BCF1000F02D11C4484F848008A7858
:1093E000540714D4D6073DD44C784FF0A04600F56E
:1093F000E072A40046F822402C4EC40800F0070C8E
:10940000375D012202FA0CF23A4332558A78097824
:1094100012F002021BD0AB0003F1804303F5C043FE
:109420000202D3F8100520F4473020F44070C3F84E
:1094300010050904D3F8100502F4F85201F4403184
:109440000A430243C3F810250020F0BC7047083DD2
:109450002B44104693F8502042EA811183F85010B3
:10946000F0BC7047820002F1A042D2F8004724F01D
:109470000204C2F80047BFE70124A4E73446A2E78C
:10948000002485F830401A602546A8E7092685F8AB
:1094900030605A62344635469EE7082685F83060CB
:1094A0001A623446354697E7206300207463002033
:1094B00070B42C4C251883B095F93020072A1CDD98
:1094C000224492F848309B09032B40D0012B0CBF5B
:1094D0004FF400334FF44033800000F1A040D0F847
:1094E000002722F44032C0F80027D0F800271343A9
:1094F000C0F8003703B070BC7047D3B2072BF9D85F
:10950000900000F1804000F5C04002F140039B0054
:10951000D0F810659BB203F1804303F5C04346F0D9
:109520000106C0F81065002018601B680193019BBC
:109530000029DFD095F9303054F82330002BD9D0F2
:109540000949012303FA02F2C1F80423D2E74FF0DC
:10955000A043D3F81035C34003F0010302331B04CA
:10956000BAE700BF2063002000600040164B0344B0
:1095700093F93030072B0DDD800000F1A040D0F8CA
:10958000003723F44033C0F80037D0F80037C0F874
:1095900000377047DAB2072A14D810B49A0002F1E3
:1095A000804202F5C042094CD2F81005012120F09A
:1095B000010001FA03F3C2F81005C4F808335DF89E
:1095C000044B7047704700BF2063002000600040DC
:1095D0004FF0A043D3F8103523FA00F000F001005B
:1095E000704700BF2DE9F04186B0C04A00230193C7
:1095F0001168012900F0C8811E46BD4B1A68012A76
:1096000000F0B481BB4B1A68012A00F0A181BA4B6B
:109610001A68012A00F08E81B84B1A68012A00F0FE
:109620007B81B74B1A68012A00F05281B54B1A684A
:10963000012A00F03F81B44B1A68012A08D0B34BCD
:109640001A68012A00F0AC81F6B906B0BDE8F081D5
:10965000AF4AD2F804231206F1D500221A60196825
:109660000491196E0498012903F1600346F0800605
:109670000AD11A601B6805934FF0A043059AD3F8EE
:109680001035019346F00046A24F00240125A300A7
:1096900003F180432E4203F5C0434FEA45050BD04A
:1096A000D3F8100557F82420D3F81015C0F3042080
:1096B000C1F3014102B190470134082CE7D1002EDB
:1096C000C3DA00224FF0FF33CDE90223914C01258C
:1096D00002AE94F95000471C37D0C0F3C20C06AB61
:1096E00003EB0C0700F0070317F80C2C05FA03F343
:1096F0001A42C1B200F03F0027D02218890992F91E
:10970000302054F82280B8F1000F00F09D81032929
:1097100000F09D81820002F1A04217F8147CD2F87B
:1097200000C71F40CCF3014C0BD0BCF1020F0CD191
:10973000032900F0BF810027B8F1000F06D0C04711
:1097400004E0BCF1030F00F0A381002794F951005D
:10975000411C32D0C0F3C20E06AB03EB0E0C00F07E
:1097600007031CF80C2C05FA03F31A42C1B200F0EF
:109770003F0022D02218890992F9302054F8228023
:10978000B8F1000F00F07B81032900F07B8182009B
:1097900002F1A04E1CF814CCDEF800271CEA030FDF
:1097A000C2F3014200F03A81022A06D1032900F0F7
:1097B0008481B8F1000F00D0C04794F95200421CD8
:1097C00032D0C0F3C20E06AB03EB0E0C00F0070361
:1097D0001CF80C2C05FA03F31A42C1B200F03F004A
:1097E00022D02218890992F9302054F82280B8F149
:1097F000000F00F03B81032900F03B81820002F161
:10980000A04E1CF814CCDEF800271CEA030FC2F3AC
:10981000014200F0ED80022A06D1032900F05081B8
:10982000B8F1000F00D0C04794F95300431C32D068
:10983000C0F3C20E06AB03EB0E0C00F007021CF8DF
:109840000C3C05FA02F21342C1B200F03F0022D0F4
:109850002318890993F9303054F82380B8F1000FA8
:1098600000F0FB80032900F0FB80830003F1A04E91
:109870001CF814CCDEF800371CEA020FC3F30143D6
:1098800000F09C80022B06D1032900F01C81B8F166
:10989000000F00D0C047002F3FF4D7AE4FF0A043D9
:1098A000019AD3F810359A423FF4CFAE029A019351
:1098B00003920EE7164AD2F8042351067FF5BBAE99
:1098C00000221A601B680493049B46F04006B2E62F
:1098D0000F4AD2F8042390067FF5A8AE00221A6042
:1098E0001B680493049B46F020069FE6006100403D
:1098F00004610040086100400C61004010610040BC
:1099000014610040186100401C6100407C6100400F
:1099100000600040206300206C4AD2F80423D40683
:109920007FF57FAE00221A601B680493049B46F00B
:10993000100676E6654AD2F8042315077FF56CAE6B
:1099400000221A601B680493049B46F0080663E635
:109950005E4AD2F8042357077FF559AE00221A60F9
:109960001B680493049B46F0040650E6574AD2F85D
:10997000042392077FF546AE00221A601B68049309
:10998000049B46F002063DE65049D1F8046316F008
:1099900001063FF432AE136013680493049B2CE677
:1099A00000221A601B6805934FF0A043059AD3F874
:1099B00010350193002E3FF484AE63E6032B7FF451
:1099C0006AAF03297FF463AF4FF40032DEF800374B
:1099D00023F44033CEF80037DEF800371343CEF8D7
:1099E0000037B8F1000F3FF459AF0137FFB251E72C
:1099F000032A7FF419AF03297FF412AF4FF400322A
:109A0000DEF8003723F44033CEF80037DEF80037B5
:109A100001371343FFB2CEF8003701E7032A7FF482
:109A2000CCAE03297FF4C5AE4FF40032DEF8003728
:109A300023F44033CEF80037DEF800370137134304
:109A4000FFB2CEF80037B4E603297FF47EAE16F8F5
:109A50000C201A4306F80C205CE603297FF41BAFA8
:109A600016F80E30134306F80E30FEE603297FF495
:109A7000DBAE16F80E201A4306F80E20BEE60329C8
:109A80007FF49BAE16F80E201A4306F80E207EE6F1
:109A900003297FF451AE4FF40037D2F8003723F496
:109AA0004033C2F80037D2F800373B43C2F80037E2
:109AB000012741E64FF44037EFE74FF44032B5E776
:109AC0004FF440329CE74FF440327FE700600040A3
:109AD000014B1B68184700BF7C630020114B984264
:109AE0001DD130B583B000230DF107008DF807308C
:109AF0000D46FEF75FFB0C4B1C794CB99DF8070037
:109B00001D6001221A71FEF77BFB204603B030BDB9
:109B10009DF80700FEF774FB112003B030BD002054
:109B2000704700BF002000407C630020034B984238
:109B300003D1034B00221A601A71704700200040C5
:109B40007C63002030B56D4AD2F8043399058BB0A0
:109B500068D5D2F82431002B64D00023C2F8243118
:109B6000D2F8243103934FF40171654B0398C2F886
:109B7000081393F8291009B9012151605F490222A5
:109B80008DF81820D1F88024C1F880249869D9680C
:109B9000099200240025CDE90710C3E90645D3E961
:109BA000001206A89047554AD2F81C31C3B1544B55
:109BB000186A596988426AD293F8280000F0FF04B5
:109BC000002864D1C2F81C41D2F81C1102910299FC
:109BD0009C68186A196A205C01311962C2F81C0578
:109BE000464AD2F84431DBB10021454BC2F844115A
:109BF000D2F8440193F829100090009809B101218E
:109C000011609A6962B1586AD96800229A6101228A
:109C1000CDE907108DF8182006A8D3E90012904767
:109C20000BB030BD354AD2F804335B07BBD5D2F850
:109C30000831002BB7D0324B996900293CD0002164
:109C4000C2F80811D2F8081104910499D868596A29
:109C5000D2F8182542545A6A996901325A625A6AEE
:109C60008A42A0D1DA691968002A2ED0D8685D6AC4
:109C70001C699A61079000220120DC60DA615A6257
:109C80008DF818005B68089506A898478BE71B4A73
:109C90000020C2F81C01D2F81C210192019A00296F
:109CA0009ED09A688DF8180008915861079206A80E
:109CB000D3E90012904793E7C2F80811D2F80801DF
:109CC00005900598D2F81825C9E793F8292012B90C
:109CD0000A4A01205060094A4FF40170C2F8080393
:109CE000586ADA6808900024012007928DF818005D
:109CF0005A689C6106A8904755E700BF00200040C5
:109D0000886300202DE9F0415F4F06792C2303FB87
:109D1000067382B093F82A30002B40F08980054604
:109D20000C46006859499046FFF7D8FE00287BD1C1
:109D30002368591C0CD001224FF0A04102FA03F312
:109D4000C1F80835236803F5E073032241F82320A6
:109D500063685A1C06D003F5E0734FF0A04200215F
:109D600042F823102B68A269C3F82425217D637D66
:109D70002A680B43C2F86C35D4E900122B68C3F88B
:109D80001425C3F80C15237D012B5BD02C2303FB7A
:109D900006F3FA18C2F804802269FA50B8F1000FED
:109DA0002FD02A68237F3A4C0021C2F81C11D2F828
:109DB0001C2100922A68DDF800C0C2F84411D2F8D4
:109DC00044112A6801910199C2F804432A6842F3B8
:109DD00007315B010029DBB24FEA12322CDB01F1C3
:109DE000604101F5614181F800332B68294C43F350
:109DF00007325209C3F30433012101FA03F344F893
:109E000022302C23296803FB067604240023012238
:109E1000C6E90633C1F8004586F82A2086F82930BD
:109E2000736102B0BDE8F081112002B0BDE8F0819D
:109E3000082002B0BDE8F081174902F00F0211447A
:109E40000B76D2E7A368591C06D003F5E0734FF0F8
:109E5000A042002142F82310E3685A1C0DD00122D1
:109E60004FF0A04102FA03F3C1F80835E36803F5A7
:109E7000E073032241F82320E3682A68A168C2F84E
:109E80000835C2F8101581E788630020459B020061
:109E90008000020000E100E0FCEC00E0F8B52F4D8E
:109EA000047902682C2303FB045300215B68C2F889
:109EB000001583B103682A4AC3F808230268294EB3
:109EC00042F307335B092033C2F30432012101FA64
:109ED00002F246F8232003684FF0FF32D3F80CC596
:109EE000D3F81475D3F80815D3F81065C3F8142502
:109EF000C3F80C2503689445C3F80825C3F810255A
:109F000006D00CF5E07C4FF0A043022243F82C2051
:109F10007B1C06D007F5E0774FF0A043022243F800
:109F20002720721C06D006F5E0764FF0A0430222EF
:109F300043F826204B1C06D001F5E0714FF0A043FA
:109F4000022243F821200068FFF7F0FD2C2303FBD9
:109F50000454002384F82A306360F8BD886300202D
:109F60008402020000E100E02DE9F041314E057964
:109F70002C2303FB05630446586984B000284CD1A8
:109F80001862996083F828005A612268C2F81C019F
:109F9000D2F81C11226802910121029F916022686F
:109FA000D3F808C0C2F81C01D2F81C110191019924
:109FB0001F6A196A1CF8077001311962C2F81C7512
:109FC0005A6812B104B0BDE8F0811A6A5F6921686D
:109FD000BA421BD2864602E093F828200ABBD1F889
:109FE0001C21002AF8D0C1F81CE1D1F81C210392F1
:109FF000039AD3F820801A6A1CF8088001321A628A
:10A00000C1F81C851A6ABA42E9D32168D1F81C311B
:10A01000002BFBD00123CB6004E0112004B0BDE88D
:10A02000F0810F202C2303FB056500236B6104B036
:10A03000BDE8F08188630020F0B5474BD3F82421B8
:10A0400089B0002A57D00022C3F82421D3F8242154
:10A05000029202228DF81020029AD3F880143F4A0F
:10A06000C3F880140791D3F83C15D36806910024F7
:10A0700000250593C2E906451168536804A898476E
:10A08000354BD3F844214AB10021344AC3F8441176
:10A09000D3F84401916901900198D9B92E4BD3F8B6
:10A0A0002021AAB10021C3F82011D3F820012B4AA6
:10A0B00000900098506958B1D3F84C059368069009
:10A0C0008DF810105161059304A8D2E90013984748
:10A0D00009B0F0BDD3F83C35D168069300240025C3
:10A0E000012305918DF81030C2E90645D2E900132D
:10A0F00004A89847D2E7D3F810110029C0D0C3F8BC
:10A100001021D3F810111548039103998169D3F8F0
:10A110003C458C42B4D1C569C768D0E900168DB101
:10A12000D3F800C285612CF02005C261C3F800524B
:10A130000369C3600122CDE905748DF8102004A8DD
:10A14000B0479DE701238561CDE905748DF8103096
:10A1500004A8B04794E700BF00200040B863002087
:10A160002DE9F0430779694E07EBC70306EB83033C
:10A1700085B093F82030002B40F09B8004460D46BC
:10A18000006863499146FFF7A9FC002840F08D80E4
:10A190002B68591C4FEAC7080CD001224FF0A04190
:10A1A00002FA03F3C1F808352B6803F5E0730322C4
:10A1B00041F823206B685A1C06D003F5E0734FF07A
:10A1C000A042002142F823102368A969C3F824158E
:10A1D000297D6A7D23680A43C3F86C25D5E90031DF
:10A1E0002268C2F80C35C2F814152B7D012B6AD0F9
:10A1F00008EB070206EB8203C3F804902B6946F8CC
:10A200002230B9F1000F3FD021682B7F414D002251
:10A21000C1F81021D1F8101100912168DDF800C0BB
:10A22000C1F82021D1F8201101912168DDF804C086
:10A23000C1F82421D1F8241102912168DDF808C069
:10A24000C1F84421D1F84411226803910399C2F85E
:10A250000453226842F307315B010029DBB24FEA65
:10A2600012322ADB01F1604101F5614181F80033CE
:10A270002368294D43F307325209C3F30433012104
:10A2800001FA03F345F822304744226806EB8706BB
:10A29000002301240821C2F80015C6E9063386F818
:10A2A0002040736105B0BDE8F083112005B0BDE822
:10A2B000F083082005B0BDE8F083184902F00F02D2
:10A2C00011440B76D4E7AB68591C06D003F5E07354
:10A2D0004FF0A042002142F82310EB685A1C0DD029
:10A2E00001224FF0A04102FA03F3C1F80835EB68F0
:10A2F00003F5E073032241F82320EB682268A96884
:10A30000C2F80835C2F8101572E700BFB863002024
:10A3100039A002001003020000E100E0FCEC00E0C4
:10A32000F8B50579304C026805EBC50304EB8303EF
:10A3300000215B68C2F80015EE0083B103682B4A68
:10A34000C3F8082302682A4F42F307335B0920331E
:10A35000C2F30432012101FA02F247F82320036814
:10A360004FF0FF32D3F80CE5D3F814C5D3F8081535
:10A37000D3F81075C3F80C25C3F814250368964567
:10A38000C3F80825C3F8102506D00EF5E07E4FF07F
:10A39000A043022243F82E20BCF1FF3F06D00CF56B
:10A3A000E07C4FF0A043022243F82C207A1C06D018
:10A3B00007F5E0774FF0A043022243F827204B1C1B
:10A3C00006D001F5E0714FF0A043022243F82120AE
:10A3D000354404EB85040068FFF7A8FB002384F8EC
:10A3E00020306360F8BD00BFB86300201003020096
:10A3F00000E100E0F0B401F06044B4F1005F82B02D
:10A400002CD10579244E05EBC50406EB84040346E4
:10A410006069EF00002839D16261A1601A68C2F852
:10A420002001D2F820C11A68CDF804C0DDF804C0BC
:10A43000C2F85801D2F8582100921A68DDF800C01D
:10A44000D4F814C0C2F84415C2F848C51A680121EE
:10A450009160626832B102B0F0BC7047102002B067
:10A46000F0BC70471B6800E0A0B9D3F82021D3F8F6
:10A470005801002AF8D0002818BF0F207B1906EBDE
:10A48000830300225A6102B0F0BC7047112002B071
:10A49000F0BC70470F20F1E7B8630020032806D80E
:10A4A000012A06D001291BD0022908D071B107204A
:10A4B0007047012911D002294FF00002F6D10B4B51
:10A4C00000EB4000034400205A707047074B00EB3C
:10A4D0004000034408469A70704700F10E02D2B261
:10A4E00000EB400301490020CA547047DC630020A0
:10A4F00010B50388102B07D0112B04D1254B1868F9
:10A500000138186030B110BD224C216811B30131FF
:10A51000216010BD01220221FFF7C0FF40B10728D2
:10A5200006D01D4B1B68002BEDD0BDE8104018472E
:10A53000072202210120FFF7B1FF08B10728F0D15F
:10A54000002108460A22FFF7A9FF0028DBD00728D0
:10A55000E7D1D8E701220846FFF7A0FF38B1072866
:10A5600005D00D4B1B6803B198472168CFE7072240
:10A5700002210120FFF792FF08B10728F1D1042240
:10A5800002210020FFF78AFF0028EED00728E8D13B
:10A59000EBE700BFEC630020E86300202AB320B3A0
:10A5A00070B54378092B15462AD0E1B10024234623
:10A5B00001E0994217D9045D013423449BB2C218CB
:10A5C0001C465278092AF4D199420CD9991C89B2B7
:10A5D000C65C41B1013EB6B2441826B1284602F02D
:10A5E00023F8B04203D0002070BD002070473246EF
:10A5F0002146284601F0EAFFB0FA80F0400970BD1C
:10A600000029F0D0044614F8026B013EB6B2E4E72C
:10A610002DE9F04703888788112B98B007D01A2BB3
:10A62000044650D0102B09D018B0BDE8F0873A4846
:10A630003946FDF707FE18B0BDE8F087374A936842
:10A64000DB43009351686846FDF72CFE009B0193A5
:10A65000019B83B300252E46314601A8FDF7FCFD82
:10A6600028B118AB03EB4503013523F8286C0136FC
:10A67000142EF1D10D950DF1340CBCE80F0002AE93
:10A680000FC6BCE80F000FC69CE8070086E807006D
:10A690008DB10DF10A08DFF898A008EB450538F8F0
:10A6A000029F1F4E304649460436FDF7CBFDB245AA
:10A6B000F8D1A845F3D1132F15D90420FDF704FADA
:10A6C00018B0BDE8F087037A16481F2B4FEA131421
:10A6D000394618D9FDF7ACFD022C1348394616D07F
:10A6E000FDF7A6FDA0E70C483946FDF7A1FD0C4893
:10A6F0003946FDF79DFDE37B012B95D00B4839468C
:10A70000FDF796FD90E7FDF79DFD07483946FDF7FB
:10A7100099FD18B0BDE8F087F8630020F0630020D1
:10A72000F46300200064002004640020FC63002027
:10A730006864002002487822002101F063BF00BF56
:10A74000F063002030B50C4B83B0DA680092996852
:10A750006846FDF7A7FD0025009B01932C46214686
:10A7600001A80134FDF778FD00B10135142CF6D1B4
:10A77000284603B030BD00BFF06300209BDF704768
:10A780009DDF70479EDF7047F0B5324C90F8C632BF
:10A790002568C3EB0314C3EB84031746A1B05A002A
:10A7A00000EB4303F5B12C4C9B780E46A1789942FF
:10A7B0003ED0012D16D9A17999423FD0022D11D05A
:10A7C000A17A994240D0032D0CD0A17B99420BD0A5
:10A7D000042D07D0A17C99421ED0052D02D0A17D69
:10A7E00099421FD021B0F0BDB4F80CC0815A8C45FD
:10A7F000EED11A4B1C68002CF4D07C22002101A859
:10A8000001F000FF012301A8ADF8067002968DF853
:10A810000430A04721B0F0BDB4F810C0815A8C4577
:10A82000DBD1E6E7A18A835A9942E2D021B0F0BD9C
:10A8300030F802C021888C45BBD1DAE7B4F804C0F7
:10A84000815A8C45BAD1D4E7B4F808C0815A8C45F6
:10A85000B9D1CEE7706400207867002068640020DA
:10A860002DE9F04FDFF81C8190F8C6E2D8F80040DF
:10A87000CEEB0E13CEEB8303944683B000EB430282
:10A88000FCB10F4659003C4B92789D78954263D0BD
:10A89000012C16D99D79954263D0022C11D09D7A56
:10A8A000954263D0032C0CD09D7B95420CD0042C98
:10A8B00007D09D7C954243D0052C02D09D7D9542CA
:10A8C00043D003B0BDE8F08F9E89455AAE42EED129
:10A8D0002A4BD3F800A0BAF1000FF2D0DFF8A8900D
:10A8E000D9F80060052EECD8254D05EBC61B762265
:10A8F00002FB0E01F3010BF10400ABF802C001935F
:10A9000001F072FE0136002F019BCBF87CA014BF32
:10A9100000220222A642EA54C9F80060D1D10024E4
:10A92000EB6F28469847D8F8003001349C4205F177
:10A930008005F5D30023C9F8003003B0BDE8F08FDF
:10A940001E8A455AAE42B7D1C2E79A8A435A9A4202
:10A95000BED003B0BDE8F08F465A1D88AE4297D1F5
:10A96000B6E7465A9D88AE4297D1B1E71E89455A4F
:10A97000AE4297D1ACE700BF786700206864002042
:10A980007464002070640020746700202DE9F04397
:10A9900090F8C68290F8C532C8EB0814C8EB84085A
:10A9A00000EB480E03EBC3049EF80470640004EB54
:10A9B000480403F1010C04F10A06BC4583B00644C7
:10A9C0003FD0BB4235D24FEA480500F11C08044491
:10A9D000A84407F1FF3C35899C4505F1010610D0DC
:10A9E000658CAE4217D0013DADF80650ADF804605D
:10A9F00000230B70104601A9FFF7C4FE03B0BDE8A9
:10AA0000F083BEF80860B54219D00135ADF80450A6
:10AA1000ADF80660ECE703EBC30608EB46065D1CE9
:10AA20005FFA85F94F452B4680F8C55204F11204B0
:10AA3000D1D8012300200B7003B0BDE8F0830026BD
:10AA4000EDE73389BEF808008342F2D00133ADF858
:10AA50000430ADF80600CBE770B130B40246074DC4
:10AA600007480849084C0A6000232B600360012551
:10AA70001846257030BC70470E2070477064002067
:10AA800074670020686400206C640020002857D0A0
:10AA90002D4B1B782BB370B42C4C2D4B2268002A05
:10AAA00050D081789D788D421DD0012A34D99D796E
:10AAB0008D4222D0022A31D09D7A8D4222D0032AA3
:10AAC0002CD09D7B8D4222D0042A27D09D7C8D42A4
:10AAD0002CD0052A22D09D7D8D422CD0042070BC24
:10AAE00070470820704706881D88AE42DDD119499D
:10AAF000096889B1002070BC70479E880588AE4205
:10AB0000D8D1F4E71E890588AE42D8D1EFE79E89F7
:10AB10000588AE42D8D1EAE7052ADFD8511C006883
:10AB200043F822002160002070BC70471E8A05880F
:10AB3000AE42CED1DBE79D8A01888D42CED1D6E7E9
:10AB40000E2070470121EAE76C6400207064002049
:10AB50007867002068640020B0B31C4B1B7843B3B7
:10AB60001B4B1B682BB370B590F8C752044615BB3E
:10AB70000E464FF43372294601F044FD154A164B38
:10AB800010682060A4F8CA6284F8C95284F8C652DA
:10AB900084F8C5522246304601211D60FFF7EEFDC4
:10ABA00011280AD020B9012384F8C80284F8C732DA
:10ABB00070BD08207047112070BD012384F8C73292
:10ABC00084F8C832284670BD0E2070476C6400209F
:10ABD000706400207867002074670020002800F06F
:10ABE000CC802DE9F04F0D46A3B0002900F08B80FA
:10ABF0006A4B1B78002B00F086800388322B0446BA
:10AC000000F0B18000F28280112B00F0B780302B71
:10AC10006CD18688B1F8CA329E4240F0A980C388C0
:10AC2000002B40F03F8291F8C6120269C1EB01137C
:10AC3000C1EB830305EB4303C3F8062095F8C52257
:10AC40008088002A00F05B82013AD2B2762602EBBD
:10AC5000C20206FB01F101EB42022A44528A013290
:10AC600092B21B89ADF80E3003A9ADF80C20FFF7A6
:10AC700087FD0646002839D095F8C632484AC3EB0E
:10AC800003110020126885F8C702C3EB8103590045
:10AC9000B4F8048005EB43031AB3424F9B78B878AD
:10ACA000984200F0E683012A1BD9B879984200F057
:10ACB000FB83022A15D0B87A984200F00A84032A4E
:10ACC0000FD0B87B984200F00B84042A09D0B87CDE
:10ACD000984200F01384052A03D0BA7D9A4200F00E
:10ACE0001484314B0322A3F802801A7095F8C832FD
:10ACF0004BB12388303B1F2B05D8A688B5F8CA3244
:10AD00009E4200F0AA8123B0BDE8F08F332BEDD135
:10AD10008288B1F8CA329A42E8D1C18895F8C672E1
:10AD200095F8C562002940F065814389002B00F049
:10AD30006181762000FB07F006EBC60300EB4300C1
:10AD400028442246D389A3F52453082B00F24381DB
:10AD5000DFE813F03F017F017C0141014101410126
:10AD60004101410176018688B1F8CA329E421DD068
:10AD700095F8C822002AC3D1C5E770478288B1F888
:10AD8000CA329A42BFD100234FF6FF7281F8C73210
:10AD900081F8C832A1F8CA22B5E700BF6C64002070
:10ADA000706400207867002074640020C388002B42
:10ADB00040F0E58091F8C672827AC7EB0713C7EBC3
:10ADC000830301EB43085E0098F804904A44062A86
:10ADD00000F3C281D2B288F80420384691454B4630
:10ADE00080F00683A446762202FB07F709EBC9012F
:10ADF00007EB41015CF80C9F98F80420DCF8048014
:10AE000005EB010E1031CEF80A90CEF80E80BCF89A
:10AE100008C0AEF812C0294403F1010E4FF0000C37
:10AE20009645C1F804C0C1F808C04FEAC30180F0DC
:10AE30009980A0460EEBCE0158F816AF07EB410102
:10AE400005EB0109D8F804B0C9F80EB0C9F80AA09A
:10AE5000B8F80880A9F812801031294403F10208DB
:10AE60004245C1F804C0C1F808C04FEACE0140F223
:10AE70005F82A64608EBC8015EF820AF07EB4101F0
:10AE800005EB0109DEF804B0C9F80EB0C9F80AA054
:10AE9000BEF808E0A9F812E01031294403F1030ECE
:10AEA0007245C1F804C0C1F808C04FEAC80140F2B9
:10AEB0004182A0460EEBCE0158F82AAF07EB4101C4
:10AEC00005EB0109D8F804B0C9F80EB0C9F80AA01A
:10AED000B8F80880A9F812801031294403F1040859
:10AEE0004245C1F804C0C1F808C04FEACE0140F2A3
:10AEF0001F82A14608EBC80159F834EF07EB410166
:10AF000005EB010AD9F804B0CAF80EB01031CAF83E
:10AF10000AE0053305EB010E9A42B9F80810AAF8C9
:10AF200012104FEAC801CEF804C0CEF808C040F2B3
:10AF30000182214603EBC30E51F83E8F07EB4E070B
:10AF400005EB070ED1F80490CEF80E901037CEF82E
:10AF50000A802F440989AEF81210D900C7F804C03E
:10AF6000C7F808C00B44762105EB430301FB00F151
:10AF700033446F185B8A3E89B342C0F0C280002719
:10AF800085F8C572A2880DF10B012846FFF7FEFC7B
:10AF90000646002840F0F8809DF80B30002B3FF467
:10AFA000A5AEA28801212846FFF75AFC95F8C932C0
:10AFB000A04AA78812680133DBB2934285F8C932F0
:10AFC000C0F020829C4B85F8C76203225F801A7014
:10AFD0008CE69389C382838A2BB1C38A1BB1038B0E
:10AFE0000BB1438B33B963890131994202F10602F7
:10AFF000FFF4A8AE762202FB0752731C12790026DA
:10B0000093428DF80B6068D101238DF80B30A28834
:10B0100001212846FFF724FC95F8C932854AA68805
:10B0200012680133DBB2934285F8C932C0F0BC81AB
:10B03000814B032100225E80197085F8C72255E6F6
:10B04000B2F80CC0838AA0F81AC0C5E7938983823E
:10B05000C2E793890383838ABEE74FF433720021EA
:10B06000284601F0CFFA754B754C1868286000230C
:10B07000A5F8CA6285F8C932304685F8C63285F827
:10B08000C5322A4601212360FFF778FB112800F022
:10B09000B38100287FF437AE012385F8C80285F814
:10B0A000C73230E6324600212846FFF7D9FB95F833
:10B0B000C932604AB4F8048016680133DBB2B34287
:10B0C00085F8C932C0F0C8805B4B03210022A3F889
:10B0D0000280197085F8C72208E685F8C532A28873
:10B0E0000DF10B012846FFF751FC8046002840F087
:10B0F00023819DF80B30002B3FF4F8AD87E7DA8809
:10B10000AFE5062A3FF43BAF85F8C522A088002AA8
:10B1100000F0A681531EDBB203EBC30301EB430334
:10B120002B445B8A01339BB203A9ADF80C30ADF818
:10B130000E60FFF725FB00283FF4D8AD002385F80B
:10B14000C732A28801462846FFF71EFB3A4BA28869
:10B150005A8003221A70C9E53A4B3B483B49C01A52
:10B16000C008062388F804300004AA5B40F00200FF
:10B170000190FCF71DF801983549FBF74BFF95F856
:10B18000C60298F8042029E695F8C632294A85F8BF
:10B19000C772C3EB03111268B4F80480C3EB8103D8
:10B1A000580005EB4303002A3FF49BAD234F9B78E7
:10B1B000B978994200F04D81012A7FF692ADB979B4
:10B1C000994200F04F81022A3FF48BADB97A99423F
:10B1D00000F07181032A3FF484ADB97B994200F0FD
:10B1E0007181042A3FF47DADB97C994200F07F81E2
:10B1F000052A3FF476ADBA7D9A427FF472ADBA8AE1
:10B200002B5A9A427FF46DAD124B1F68002F3FF40A
:10B2100068AD7C22002103A801F0F4F90123ADF808
:10B220000E8003A804968DF80C30B847B4F804805B
:10B2300057E500BF70640020746400207867002028
:10B2400074670020B0D60200E0D6020008D00200E9
:10B2500050D002006864002095F8C632C94F01330F
:10B26000DBB2C3EB0311C3EB810105EB410257F8DD
:10B27000230085F8C6324FF0000A85F8C5A245F8CC
:10B28000110082F804A001214046FFF777FA8146B9
:10B2900000283FF42BAD95F8C63285F8C7A2C3EB62
:10B2A0000312C3EB820305EB4302B9789278914213
:10B2B0004FEA430300F07B81012E3FF412ADB979D0
:10B2C000914200F06E81022E3FF40BADB97A9142AB
:10B2D00000F07F81032E3FF404ADB97B914200F072
:10B2E0007281042E3FF4FDACB97C914200F065817F
:10B2F000052E3FF4F6ACB97D91427FF4F2ACBA8AE8
:10B30000EB5A9A427FF4EDAC9F4B1E68002E3FF43F
:10B31000E8AC03A87C22002101F074F9012303A802
:10B32000ADF80E80CDF810908DF80C30B047D8E411
:10B33000734617E6434615E695F8C632934A85F8F4
:10B34000C762C3EB03111268A688C3EB81035800E0
:10B3500005EB43031AB38B4F9B78B978994200F001
:10B36000DA80012A1BD9B979994200F0EF80022ACC
:10B3700015D0B97A994200F0F080032A0FD0B97B3A
:10B38000994200F0F180042A09D0B97C994200F07A
:10B390000181052A03D0BA7D9A4200F0EC807C4BF3
:10B3A00003225E801A70A1E495F8C6327548013315
:10B3B000DBB2C3EB0311C3EB810105EB410250F893
:10B3C000230085F8C632002785F8C57245F81100BC
:10B3D000177101213046FFF7D1F900283FF486AC00
:10B3E000014685F8C77232462846FFF7CDF9D6E701
:10B3F00009F1FF33D900B5E5012385F8C73285F897
:10B40000C83280E495F8C6325E4885F8C5620133DB
:10B41000DBB2C3EB0311C3EB810105EB410250F832
:10B42000230085F8C63245F811001671012138460F
:10B43000FFF7A4F900283FF459AC01463A4685F8D5
:10B44000C7622846FFF7A0F9514B03225F801A70AC
:10B450004CE4B7F800C0295A8C457FF4ADAED3E672
:10B46000FB8861E635F800C0B9888C457FF4ABAE47
:10B47000CAE635F801C0388884457FF414AC424BE5
:10B480001F68002F3FF42DAC7C22002103A801F09F
:10B49000B9F80123ADF80E80049603A88DF80C309E
:10B4A000B847B4F804801CE435F801C0B888844576
:10B4B0007FF4FFABE3E735F800C039898C457FF4B2
:10B4C00089AEA1E6B7F80CC0295A8C457FF489AE45
:10B4D0009AE635F801C0388984457FF4F0ABCEE7B1
:10B4E00035F801C0B88984457FF4EFABC7E7B7F8FA
:10B4F00010C0295A8C457FF47BAE85E635F801C033
:10B50000388A84457FF4E7ABB9E7BA8A6B5A9A4226
:10B510007FF4E7ABB3E7B7F800C0295A8C457FF456
:10B5200020AF194B1F68002F3FF439AF7C22002158
:10B5300003A801F067F80123ADF80E6003A8CDF869
:10B5400010808DF80C30B847A68828E7B7F804C0FB
:10B55000295A8C457FF40BAFE3E7B7F808C0295AA6
:10B560008C457FF40AAFDCE7B7F80CC0295A8C454C
:10B570007FF409AFD5E7BA8A2B5A9A427FF40FAF0E
:10B58000CFE700BF78670020686400207064002067
:10B5900074640020B7F810C0295A8C457FF4F9AEC6
:10B5A000BFE7E85AB98888427FF48DAEACE6E85A26
:10B5B000398888427FF480AEA6E6E85A398A884204
:10B5C0007FF496AEA0E6E85AB98988427FF489AE46
:10B5D0009AE6E85A398988427FF47CAE94E600BF47
:10B5E00090DF7047A5DF7047B5DF704770B5002466
:10B5F00084B061F30F04002361F31F446A4602A97B
:10B600000294ADF80430039300930646FFF7E8FF79
:10B61000044610B9204604B070BD124B124DED1A0D
:10B62000ED08FDF743FC2D0445F0010503460F49E5
:10B6300032462846FBF792FEBDF80020BDF80230E6
:10B6400052EA030103D00A492846FBF787FEBDF8FA
:10B650000420002ADED028460649FBF7A9FD204633
:10B6600004B070BDB0D6020000D70200B8D002000E
:10B6700004D1020044D1020008B370B40346114C57
:10B68000996417224FF017151B26002041F61B3135
:10B690001D60C3F806501E715881DC605C61DC617E
:10B6A0005C62DC625C63DC631A619A611A629A62B2
:10B6B0001A639A631A64A3F8441070BC70470E2092
:10B6C000704700BF1B1B1700F0B58588072D83B09E
:10B6D0004AD80388242B0C4611D80F2B5DD9103B78
:10B6E000142B5AD8DFE803F0785E59595959595943
:10B6F00059595959595959595959596B42003A2B65
:10B7000000F08380552B48D1C38801EBC507172B68
:10B71000F98838BF17238B4228BF0B4600223B8194
:10B72000BA722846FFF760FFEE00002840F09D80C7
:10B73000FB7A83BBA36C73B33A89ADF8025040F631
:10B740007721ADF80010ADF80420694620469847EF
:10B75000BB7A4BB134442846E188FFF743FF002809
:10B7600071D10122A072E27203B0F0BD01EBC507F6
:10B77000027A7A738B6CEE006BB100204DF67A2161
:10B780008DF80500ADF80010ADF802508DF80420DA
:10B79000694620469847BB7ADBE704EBC503EE0019
:10B7A0009B7AD6E701EBC50400221B234FF017114B
:10B7B000C4F80610A272E27223736373D4E701EB3C
:10B7C000C506017A337B994228BF19462846FFF700
:10B7D0000DFFB37AEE00BCE701EBC5070B793B73B5
:10B7E000C37B012B4FEAC5064DD0022B3BD14988C4
:10B7F000F9803B898B4249D3397B7B7B8B42CAD210
:10B800002846FFF7F3FEBB7AA3E701EBC5064389A1
:10B81000F288934228BF1346172B38BF1723338172
:10B820008A6C62B1F17A51B140F67721ADF800101F
:10B83000ADF80250ADF80430204669469047002329
:10B84000F372B37290E711288ED0FDF72FFB1C4BDB
:10B850001C4902461C481B1ADB081B0443F001006C
:10B86000FBF7A6FC80E7F988C3E7FDF71FFB144B45
:10B870001649024614481B1ADB081B0443F001005A
:10B88000FBF796FC54E70988F980B2E72846FFF7F2
:10B89000A9FE10B90123FB72AEE7112802D10123E2
:10B8A000BB72A9E7FDF702FB054B064902460648B5
:10B8B0001B1ADB081B0443F00100FBF779FC9BE734
:10B8C00000D702009CD10200B0D60200D0D1020005
:10B8D0008ADF70478BDF70478CDF704738B370B5F5
:10B8E000154632B309B1072070BD0446104600F07A
:10B8F0009BFE0138C0B21F281DD894F82060E6B91D
:10B900002946204600F086FE0028EDD094F820005D
:10B91000431C84F8203004EB4014284600F084FED9
:10B9200029460246204600F05FFE304670BD0E20DC
:10B9300070470E2070BD0C2070BD042070BD00BF8C
:10B9400068B1CB060DD011F0010116BF012380F8BC
:10B95000211080F8213080F82220002070470E202E
:10B9600070470720704700BF00284DD038B50D46FE
:10B97000C26300212322044600F044FE0DB32B795C
:10B9800084F823302B7B84F82C302B6853B3196850
:10B990005A689868C4F83600C4F82E10C4F83220EB
:10B9A0009B896387AB684BB31868596804F124031B
:10B9B00003C304F140021F232266A4F86430002070
:10B9C00038BDE38D11491248A58603F0E30343F423
:10B9D00082734FF0C872C4E9091284F82350E385DA
:10B9E0002063E6E7E28DA38602F0E30343F482736B
:10B9F0000749E3852163AB68002BD5D1034A4FF09B
:10BA0000C873C4E90923D4E70E2070470600180064
:10BA1000A000500010B310B5044686B014220021D7
:10BA200001A800F0EFFDFFF755FF94F82E301B073B
:10BA30000BD404F1600104F12E00FFF749FF044626
:10BA400030F008000CD106B010BDE36B002BF0D035
:10BA5000012201A88DF804209847EAE70E207047DC
:10BA6000064B07480749C01AC008000440F001000F
:10BA70002246FBF79DFB204606B010BDB0D6020063
:10BA8000F0D6020010D202002DE9F04F07468DB02B
:10BA900037F8083B103B06460C46102B6FD8DFE802
:10BAA00003F09E6E6E6E6E6E6E6E6E6E6E896E09B9
:10BAB0006E6E710002A81422002100F0A3FD94F81C
:10BAC0002E3004F12E091B07CDF8189004F1600AFE
:10BAD00000F19B8094F8213094F822200192002BF1
