:020000022000DC
:1060000000000120AD670200D5670200D7670200DB
:10601000D9670200DB670200DD67020000000000B4
:10602000000000000000000000000000DF67020028
:10603000E167020000000000E3670200E56702007C
:1060400035940200E7670200319D0200E767020015
:10605000E7670200E767020045980200E767020071
:10606000E7670200E7670200E7670200E7670200F0
:10607000E7670200E7670200E7670200E7670200E0
:10608000E7670200717E0200E7670200E76702002F
:10609000117F0200E767020005C30200E767020004
:1060A000E7670200E7670200E7670200E7670200B0
:1060B000E7670200E7670200000000000000000040
:1060C000E7670200E7670200E7670200E767020090
:1060D000E7670200E7670200E767020000000000D0
:1060E00000000000000000000000000000000000B0
:1060F00000000000000000000000000000000000A0
:10610000000000000000000000000000000000008F
:10611000000000000000000000000000000000007F
:10612000000000000000000000000000000000006F
:10613000000000000000000000000000000000005F
:10614000000000000000000000000000000000004F
:10615000000000000000000000000000000000003F
:10616000000000000000000000000000000000002F
:10617000000000000000000000000000000000001F
:10618000000000000000000000000000000000000F
:1061900000000000000000000000000000000000FF
:1061A00000000000000000000000000000000000EF
:1061B00000000000000000000000000000000000DF
:1061C00000000000000000000000000000000000CF
:1061D00000000000000000000000000000000000BF
:1061E00000000000000000000000000000000000AF
:1061F000000000000000000000000000000000009F
:1062000010B5054C237833B9044B13B10448AFF3F0
:1062100000800123237010BD585A002000000000A8
:10622000E4D9020008B5034B1BB103490348AFF39F
:10623000008008BD000000005C5A0020E4D9020084
:10624000154B002B08BF134B9D46A3F5803A002148
:106250008B460F461348144A121A06F05BFC0F4B8C
:10626000002B00D098470E4B002B00D09847002001
:10627000002104000D000D48002802D00C48AFF3A7
:10628000008006F007FC2000290000F0AFF906F0BE
:10629000EDFB00BF0000080000000120000000002E
:1062A00000000000585A0020FC6D00200000000093
:1062B0000000000075DF704776DF70478FDF7047A2
:1062C000034B0146408803EB001006F0A1B900BF64
:1062D000C45B002070B50478012C03D0022C01D0DF
:1062E0002CB170BDBDE87040406801F007BC144D92
:1062F000144E2888304401F08DFD2B8801339BB269
:10630000012B2B80EDD9F21812F8021CFF2903D0C3
:10631000C82BE6D92C8070BD0B4B0C4812F8012C11
:106320000B49C01AC008000440F0030000F056FFFB
:106330002A88084B2C80164416F8012C1A7070BD60
:10634000765B0020745A002098DA0200C0DA02005E
:1063500074CB0200745B00200D280A4601D001F0C6
:10636000CDBB0548054B0649C01AC008000440F0E3
:10637000030000F033BF00BFC0DA020098DA020069
:1063800088CB02000378062B00D0704740680028B5
:10639000FBD001F0B3BB00BF70B50E78012E0C46E8
:1063A00014D0022E25D11948194D0B794A88194964
:1063B000401BC008000440F0030000F0E7FF237911
:1063C0003046BBB1BDE8704002F0C6BE104B4A88F3
:1063D000114905460D48C01AC008000440F00300EA
:1063E00000F0FCFE01F05AFB60B9284606F094FA72
:1063F00020B970BDBDE8704002F0BABEBDE8704083
:1064000001F07CBB01F07AFBEFE700BFC0DA0200CD
:1064100098DA0200D4CB0200A0CB020030B503888A
:10642000212B83B004464CD80F2B48D9103B112B9D
:1064300045D8DFE803F009664444444444444444F6
:1064400044444444445E44544B4B4C4D82884C4934
:10645000ED1AED082D0445F00305284600F0BEFEB8
:10646000A188072970D84748002200EB011006F0E8
:10647000F1FA002865D1A188434B4FF4337000FB3B
:10648000013004F00DFE112801D000286BD101204D
:1064900002F062FE04F0FAFB08284FF000004DD035
:1064A00002F05AFE2846394A394900F097FE394829
:1064B00005F054FD002859D1002002F04DFE03B034
:1064C00030BD3B2B01D0562BF9D1A0881321FFF70B
:1064D000F3FE0028F3D001F011FB03B030BD002320
:1064E0008088ADF8043001A9FFF7E8FE0028E6D067
:1064F000F1E700F108018088FFF7DCFE0028DED01C
:10650000E9E71E481C4D237AA2882349441BE4086E
:10651000240444F00304204600F038FF04F0B6FBE6
:10652000D0B12046194A1A4900F058FE194805F022
:1065300015FD70B9002002F00FFEBDE702F018FE55
:10654000BDE701F0DBFA96E7002001F0D7FAA18859
:1065500089E701F0D3FAEDE701F0B6FA48B9012076
:1065600002F006FEDDE701F0C9FA90E701F0C6FA95
:10657000A2E701F0C3FAF2E798DA0200C0DA0200FB
:1065800004CC0200C45B002070430020C4CC020095
:1065900038CC0200445C00205CCC020030B50F4DCA
:1065A0000F4B8BB004AC00930FCD0FC495E80300E4
:1065B00084E803000B4C0C4A4FF4807507236946AE
:1065C00004A8CDE90245019501F0A8FB08B90BB07C
:1065D00030BD01F093FA0BB030BD00BFACCC02006F
:1065E000AC5C0020AC5D0020D562020080B54FF4A9
:1065F000004186B0002000F08DFB002840F0948020
:1066000000F078FB01F074FE002840F0B180FFF745
:10661000C5FF012002F0B8FD574840F26662012133
:1066200001F0E4F9002840F0A08002F009FD002804
:1066300040F0988005F0D4FD002840F090800023C1
:1066400002A90120029305F0A7FE002840F08480F3
:1066500002A805F05FFF00287BD14848002105F023
:10666000AFFA002872D1464804F09AFC00286AD19B
:10667000444D454B029305F180062C4601E0A642AD
:106680000AD0204602A9103406F0BEF80028F6D041
:1066900001F034FAA642F4D104F0F0FA10220021FD
:1066A00002A806F037FA0123384A39488DF80C3031
:1066B00002A98DF8143005F0FBFB002840D1354AC3
:1066C0003348002105F0AEFB002836D130480022C7
:1066D000012105F0D9FB68BB2F4B30483049C01A67
:1066E000C008000440F00300019000F0A7FC0198EE
:1066F000284A2C4900F072FD254805F02FFCB0B95E
:10670000002002F029FD284F2C463978204609093F
:10671000103406F04DF9A642F7D100F055FB0028E1
:10672000F2D102F0A3FCEFE701F0E8F968E701F02D
:10673000E5F9E5E701F0E2F9CEE701F0DFF9C5E7B9
:1067400001F0DCF9BBE701F0D9F991E701F0D6F9E6
:1067500089E701F0D3F980E701F0D0F978E701F09B
:10676000CDF96CE701F0CAF964E701F0C7F95CE71D
:1067700001F0C4F94BE700BF68430020785B0020BC
:10678000C1620200C45B00209963020085630200BD
:10679000445C0020C4CC020098DA0200C0DA020097
:1067A00090CC020038CC0200745B00200649074AF6
:1067B000074B9B1A03DD043BC858D050FBDC00F0AC
:1067C00013F8FFF73DFD000054DB02006843002092
:1067D000585A0020FEE7FEE7FEE7FEE7FEE7FEE789
:1067E000FEE7FEE7FEE7FEE730B4B84B1B78062B6A
:1067F00020D0B74B1B68062B00F08180B54AD2F839
:10680000883043F47003C2F88830BFF34F8FBFF372
:106810006F8F4FF01023D3F80022002AC0F2868138
:10682000D3F80432002BC0F28181AB4BAB4A1A6023
:1068300030BC7047AA4B1B681D07DAD1A94B1B68F7
:1068400003F0F002302A00F09B8003F0E003402BBD
:1068500000F09680A34B1B6803F0F003302B00F090
:10686000A080A04B1B6803F0F002302A77D003F021
:10687000E003402B73D09B4B1B6803F0F003302BDD
:1068800000F01481974B1B6803F0F002302A52D0BD
:1068900003F0E003402B4ED0924B1B6803F0F00353
:1068A000302B00F0F5808F4B1B6803F0F003302B8A
:1068B00000F0D7808B4B1B6803F0F003502B7ED089
:1068C000884B1B6803F0F002302A23D003F0E0036A
:1068D000402B1FD0834B1B6803F0F002302A03D0FB
:1068E00003F0E003402B84D14FF08043D3F8002421
:1068F000D20744BF6FF00102C3F8002479E77A4B56
:106900001B68062B7FF47AAF784A136843F48063E0
:10691000136073E7764B6D4A1B681278754903F074
:106920004F03062A0B607FF464AF6D4B1B68190799
:106930007FF45FAFCEE7654A11784FF080430022C5
:106940000629C3F80C21C3F81021C3F838257FF4B9
:1069500050AF634B1B681B077FF44BAF9CE7664B44
:106960005A4A1B6812786549C3F34233062A0B6002
:106970007FF43FAF5A4B1B6819077FF43AAF7AE7B1
:106980005F4B524A1B6812785E49C3F30423062A00
:106990000B607FF42EAF524B1B681C077FF429AFAE
:1069A00058E74A4B584A1B7858491160062B7FF428
:1069B00020AF4B4B1B6818077FF41BAF51E74FF01C
:1069C0008052534BD2F80414C3F82015D2F808149F
:1069D000C3F82415D2F80C14C3F82815D2F81014F3
:1069E000C3F82C15D2F81414C3F83015D2F81814C3
:1069F000C3F83415D2F81C14C3F84015D2F820148B
:106A0000C3F84415D2F82414C3F84815D2F8281452
:106A1000C3F84C15D2F82C14C3F85015D2F8301422
:106A2000C3F85415D2F83414C3F86015D2F83814EA
:106A3000C3F86415D2F83C14C3F86815D2F84014B2
:106A40002248C3F86C15D2F844140278C3F87015C4
:106A5000062A7FF4CEAE224B1B6818077FF4C9AE1E
:106A60002EE71A4B2B4C1B782B492C482C4A05251A
:106A7000256001250D6000243F21062B0460116074
:106A80007FF4B7AE164B1B681C077FF4B2AE11E75C
:106A90000E4B244A1B780321062B11607FF4A9AE0C
:106AA0000F4B1B681D077FF4A4AEFCE61E4A074986
:106AB000D368097823F080730629D3607FF499AEF8
:106AC000074B1B681A077FF494AEDBE6E00F00F07B
:106AD0003001001000ED00E0D05900200090D003FC
:106AE000E40F00F0E80F00F0340100103C17004004
:106AF00058020010E40E0040440200103C05004023
:106B0000240300104035014074C007400DF0ADBAB9
:106B100000C0004010560040885600401856004003
:106B200014560040A0050040F0ED00E0184A012393
:106B3000C2F80435D2F80034002BFBD04FF01023FC
:106B40001521134AC3F80012D2F80034002BFBD0F1
:106B50004FF0102315210E4AC3F80412D2F8003466
:106B6000002BFBD000230A49C2F80435D1F80034C9
:106B7000002BFBD0BFF34F8F0649074BCA6802F4C6
:106B8000E0621343CB60BFF34F8F00BFFDE700BF50
:106B900000E0014000ED00E00400FA05704700BF8E
:106BA00000B583B0044B0093044A402300F036F84C
:106BB00003B05DF804FB00BFC16B0200B05E0020B3
:106BC00002B32DE9F843114B114E8846144643F0A9
:106BD000010903270025224608EB0501002003F0E8
:106BE00073FE03461D444FF47A40E41A23B9337808
:106BF00033B1C847013F06D001233370002CEAD1DE
:106C0000BDE8F88370473770BDE8F883E0CC020038
:106C1000AC5E0020704700BF03F034BFF0B595B004
:106C200000241D460E460846174602F06FF930460E
:106C300023460822099505A91A9D08970D950A94DF
:106C40008DF82C400C9402F0C5F99DF814308DF8A5
:106C50001140DDE9061003F00302012ACDE902012B
:106C600028D0022A04D0304602F054F915B0F0BD05
:106C7000BDF81650C3F3C2038DF81030C5F3891563
:106C80000827082D2C4628BF08243B4622460EA97B
:106C9000304602F09FF92D1B214608AB02AA0EA830
:106CA000274400F04FFD002DEBD1304602F032F9C1
:106CB00015B0F0BDBDF81470059DC7F38312C3F382
:106CC000C2040EA93046920008238DF81040C7F385
:106CD000831702F07FF9C5F3952508AB3A4628469D
:106CE0000EA9009302AB00F0B5FC304602F012F999
:106CF00015B0F0BD08B5FFF78FFF0448042100F080
:106D000025FC034B01225A7108BD00BF3CDB020089
:106D1000D459002038B50C4B0C4800240025002223
:106D2000C3E90045FF21C3F81824996083F82024A3
:106D3000C3F8142402F09EF8044610B9044802F087
:106D4000BFF9204638BD00BFC05F002010DB020045
:106D50001CCD020099B10E4B0E495B1ADB0815D011
:106D600030B400220C4D02E0013293420BD035F8D2
:106D700022408442F8D151F8320030BC70470549B6
:106D800051F830007047002030BC704718467047FB
:106D900010DB020098DA0200585A0020094B013932
:106DA00003EBC00003290BD8DFE801F0040208065A
:106DB000042070470220704740797047007970477F
:106DC0000020704798DA02002DE9F047954CD4E98D
:106DD00000239A4284B063D00023C4F81834BFF370
:106DE0004F8FD4E9013503EA0501CA1C04EB820682
:106DF00014F82220500719D52768327802F00302D0
:106E0000012A43D0022A03D17288023303EB921382
:106E100005EA0301D4F81804CA1C04EB820628B959
:106E20009F4239D914F822205207E6D404EB81019D
:106E30005A1CC96801912A4004EB820201F0030147
:106E4000D2680292022903F102062DD0012900F036
:106E50009580D4F810543DB12B6828469B6898471C
:106E6000EB681D68002DF7D16F48704B7049C01A50
:106E7000C008000440F0020000F0E0F8D4E900305F
:106E8000C01A18BF012004B0BDE8F0873288023371
:106E9000C2F383121344BBE7676004B0BDE8F08718
:106EA000002004B0BDE8F087BDF806306148C3F3A8
:106EB0008919B9F1500FC84628BF4FF0500868F340
:106EC0008F1308F10801ADF8063001F0D5FF074631
:106ED0000028BED002F01AF80023082201A9384683
:106EE00002F044F825EA06030133B8EB830F4FEABA
:106EF000830A7DD9BAF1000F00F08D8005EA060102
:106F00000331A8EB0A0804EB8101082352463846F6
:106F10005FFA88F802F02AF8474942460AF1080366
:106F2000384602F023F809F1030906EB9906D4F874
:106F30001834002B6BD1D4F8105465B1EB685A7932
:106F400028463946002A5ED02B681B689847EB68B4
:106F50001D68002DF2D1384601F0DCFF00230DF151
:106F600003008DF8033001F0BBFAD4F8183403B9EC
:106F700066609DF8030001F0D9FA7FE7BDF80430A0
:106F80002C48C3F38312062A28BF0622911C62F301
:106F900089138900ADF8043001F06EFF0746002820
:106FA0003FF457AF01F0B2FF0023082201A9384691
:106FB00001F0DCFFBDF8043013F4707FB7D04FF060
:106FC0000008314629404FEA88030331083304EBB7
:106FD00081010422384601F0C9FFBDF8043008F1F0
:106FE0000108C3F38313434506F10106E9D89EE780
:106FF00005EA0601033104EB8101424608233846C5
:1070000001F0B4FF8FE71D68002D97D1A3E7384644
:1070100001F080FF32E7084942460823384601F074
:10702000A5FF80E7C05F0020C0DA020098DA020006
:1070300004CD020010DB0200CC5F00202DE9F04FF0
:10704000644C87B0002306460DF10B008DF80B3021
:10705000A568019101F044FAD4E9012327681A4494
:107060000132D21B012A00F2858004F21C4804F58B
:10707000836A04F214491BE0BDF80E30C3F3891390
:107080000333090C0BEB930B4846009101F0DAFA3D
:10709000009900283ED04046C4F804B001F0A6FA9A
:1070A000D4E90113226819440131891A012962D8EF
:1070B0000121404601F09AFA504601F0B3FA4846E1
:1070C00001F0B0FAD4E9013C03EA0C02D11C04EB54
:1070D000810014F821E01EF0040F0EF0040129D104
:1070E00004EB8202591CD268039201EA0C0104EB02
:1070F000810102F00302012AC96803F1020B32D0B8
:10710000022AB9D000214846009101F09BFA00996B
:107110000028C0D14046C1E743880BEB93130CEA2B
:107120000302D11C04EB810014F8211001F00401CA
:107130000029D5D090F800E00EF0030EBEF1010F4B
:107140000BD0BEF1020F03F1020B02F1030EE3D0EC
:1071500004EB8E000029EDD1C2E702880233C2F3AE
:1071600083121344DBE7BDF80C30C3F38313090C1F
:107170009B4489E73A4613400333023205219DF8C8
:107180000B0044F82310226001F0D0F900211248CE
:1071900001F002FA80F31000F1007B1C2B40019AF1
:1071A00001F038013D4004EB830341F0010100048C
:1071B000033540EA164641EA8221DE6044F8251094
:1071C00094F820341BB1FFF7FFFD0028FBD107B076
:1071D000BDE8F08FC05F0020DC6300202DE9F04F98
:1071E000684C89B0002307460DF11300CDE9021267
:1071F0008DF81330A56801F073F9D4E901232668EE
:107200001A440132921B022A00F2858004F21C48C3
:1072100004F5836A04F214491BE0BDF81630C3F389
:1072200089130333090C0BEB930B4846019101F0D2
:1072300009FA019900283ED04046C4F804B001F094
:10724000D5F9D4E90113226819440131891A0229B8
:1072500062D80121404601F0C9F9504601F0E2F937
:10726000484601F0DFF9D4E9013C03EA0C02D11CE5
:1072700004EB810014F821E01EF0040F0EF004016D
:1072800029D104EB8202591CD268059201EA0C0153
:1072900004EB810102F00302012AC96803F1020B29
:1072A00032D0022AB9D000214846019101F0CAF932
:1072B00001990028C0D14046C1E743880BEB9313E6
:1072C0000CEA0302D11C04EB810014F8211001F038
:1072D00004010029D5D090F800E00EF0030EBEF1B5
:1072E000010F0BD0BEF1020F03F1020B02F1030EEE
:1072F000E3D004EB8E000029EDD1C2E7028802330F
:10730000C2F383121344DBE7BDF81430C3F38313D5
:10731000090C9B4489E7324613400333033245216D
:107320009DF8130044F82310226001F0FFF8B31C0D
:107330002B4004EB8303039A1348DA60002101F029
:107340002BF980F31000F900731C2B40029A01F016
:107350003801354004EB830341F04101000403355B
:1073600040EA174741EA8221DF6044F8251094F88B
:1073700020341BB1FFF728FD0028FBD109B0BDE880
:10738000F08F00BFC05F0020DC6300202DE9F04FCC
:107390006C4C89B0002607460DF11300CDE90112AF
:1073A00003938DF81360A56801F09AF8D4E90123DE
:1073B00026681A440132921B032A00F2858004F2E7
:1073C0001C4804F5836A04F214491BE0BDF816302A
:1073D000C3F389130333090C0BEB930B484600915D
:1073E00001F030F9009900283ED04046C4F804B0BE
:1073F00001F0FCF8D4E90113226819440131891A1B
:10740000032962D80121404601F0F0F8504601F00E
:1074100009F9484601F006F9D4E9013C03EA0C02F7
:10742000D11C04EB810014F821E01EF0040F0EF0D3
:10743000040129D104EB8202591CD268059201EAA9
:107440000C0104EB810102F00302012AC96803F177
:10745000020B32D0022AB9D000214846009101F037
:10746000F1F800990028C0D14046C1E743880BEBF2
:1074700093130CEA0302D11C04EB810014F82110D1
:1074800001F004010029D5D090F800E00EF0030EC1
:10749000BEF1010F0BD0BEF1020F03F1020B02F19E
:1074A000030EE3D004EB8E000029EDD1C2E7028881
:1074B0000233C2F383121344DBE7BDF81430C3F385
:1074C0008313090C9B4489E732461340033304328B
:1074D00085219DF8130044F82310226001F026F85E
:1074E000B21C2A40F31C2B4004EB820204EB830CF9
:1074F000029BD3600021039B1348CCF80C3001F0B1
:107500004BF880F31000F900731C2B40019A01F036
:107510003801354004EB830341F081010004033559
:1075200040EA174741EA8221DF6044F8251094F8C9
:1075300020341BB1FFF748FC0028FBD109B0BDE89F
:10754000F08F00BFC05F0020DC63002030B4154D19
:10755000D5F810140446002071B10B4601E01B68F9
:1075600053B1DB681A798242F9D101300A28F3D18C
:107570004FF0FF3030BC7047E3681871D5F8103415
:107580004BB1DA68E36812681A60D5F81034DB682A
:107590001C6030BC7047C5F81044E268136030BC12
:1075A000704700BFC05F002038B5094BD3F81044C6
:1075B000012583F820544CB1E3685D7123682046AF
:1075C0005B689847E3681C68002CF5D138BD00BFA4
:1075D000C05F002030B5C38885B004460D461BBB94
:1075E000217A05291ED0627A82B9134AA08852F8FE
:1075F000212003920021FFF7ADFB039A0F490346B8
:10760000284605B0BDE8304001F098B8A088FFF7E3
:10761000C5FB0B4B0B4953F82020284601F08EF890
:10762000217AE2E705B030BD074A00920749084ACF
:10763000284601F083F8D3E7F4CD020054CD0200D0
:10764000D0CD020050CD020048CD020030CD020066
:1076500028CD02002DE9F04385B04FF0000C0C9CC2
:10766000814694F80C8084F80CC00E4617461846E4
:1076700021461D46FFF7AEFF062F09D8DFE807F0C9
:10768000042E343B444F1F004946204601F056F873
:107690002B7A052B05D06B7A5BB92749204601F080
:1076A0004DF8204601F03EF884F80C8005B0BDE8A6
:1076B000F083224A2249204601F040F8EDE7D6E95E
:1076C0000413F2680393B3680291CDE9003249468E
:1076D000D6E90023204601F031F8D9E7326849465F
:1076E000204601F02BF8D3E7D6E90023494620468F
:1076F00001F024F8CCE7B3680093D6E900234946AB
:10770000204601F01BF8C3E7D6E90232019200934C
:10771000D6E900234946204601F010F8B8E7D6E93B
:107720000321B3680291CDE900324946D6E900232E
:10773000204601F003F8ABE760CD020048CD02001F
:1077400050CD0200082900D970472DE9F04F9B4623
:1077500083B000241B7B8BF80C400D46064659462F
:10776000104690460193DFF8D0902C4FFFF732FF80
:1077700005E0325D013400F0E1FF082C09D0A5429C
:1077800039465846F5D84946013400F0D7FF082C51
:10779000F5D12349DFF8A490224C234F584600F03E
:1077A000CDFF4FF0000A0DE0D15D11F0970F08BF3B
:1077B0002E22214658460AF1010A00F0BFFFBAF115
:1077C000080F10D0554505D916F80A207E2AEBD9A6
:1077D0002E22EEE7494658460AF1010A00F0AEFFB4
:1077E000BAF1080FEED198F80830052B02D098F8BE
:1077F000093063B90D49584600F0A0FF584600F023
:1078000091FF019B8BF80C3003B0BDE8F08F084A64
:107810000849584600F092FFECE700BF64CD020033
:1078200070CD020074CD0200DDD8020060CD0200F0
:1078300048CD020050CD02006CCD02005CCD0200AC
:107840002DE9F04F3D4B93F800E087B0BEF1000FFB
:107850005FD00027DFF8F08002973C46012506E064
:10786000029B013302939DF80840A64551D9344B41
:10787000D8F800101E68D8F8042016F83400A0F1DB
:10788000200BC0F1200305FA0BFB25FA03F34BEAAA
:10789000030305FA00FC01EA0C0902EA030A06EBFD
:1078A000C40759EA0A0B0397DAD021EA0C0122EA4D
:1078B0000303C8E9001301F0BBFF16F83430214A76
:1078C000C3F1200CD2E90067A3F1200E614600FA53
:1078D0000EF405FA0EF225FA01F105FA03FE20FA7C
:1078E0000CFC0A430EEA060144EA0C0404913A40F7
:1078F00000FA03F1009101940592DDE90412DDE93B
:1079000000BC624508BF594506D00C4B93F800E017
:10791000A6E707B0BDE8F08F03994A68002AF4D0C3
:107920004978A1F10101B1FA81F14909091AB1FAC5
:1079300081F1490918469047E7E700BF7C640020C1
:10794000B8640020A8640020B06400202DE9F8434A
:107950008046224800F088FDE0B9214D4FF0010C2F
:10796000D5E90023A8F12004C8F120012CFA01F187
:107970000CFA04F40C430CFA08F902EA090603EACB
:10798000040756EA070107D022EA090223EA0404A1
:10799000C5E90024BDE8F883404601F049FF114BDA
:1079A0001E68A8B9586826EA090620EA0400D5E945
:1079B00000211E600C4E586042EA09020C432A6006
:1079C00031686C600548BDE8F843002200F0F6BC61
:1079D000586849EA06062043E9E700BF84640020AE
:1079E000B0640020A864002080640020042A3BD9F1
:1079F0002DE9F04182B0144605460E4601F09AFD8D
:107A000068B31E491E4A1F4B0D601F481F491C606A
:107A1000167000230022741EC0E90023C1E9002370
:107A2000E4B21EB3DFF8708005EBC4040027032620
:107A300002E0AC421AD01C46A37820788DF80530BD
:107A4000424601A98DF806708DF8046001F07CFDB6
:107A5000A4F108030028ECD002B0BDE8F08101F0E9
:107A60001FFD0028CDD0F7E707207047084A0948D6
:107A7000002100F091FC02B0BDE8F081B864002064
:107A80007C64002080640020A8640020B064002092
:107A90004178020008CE02004D79020070B5084D11
:107AA0002B785BB1074E00243368012113F83400B2
:107AB00001F02EFE2B780134A342F5D8002070BDD2
:107AC0007C640020B864002070B5094D2B7853B158
:107AD000084E0024336813F8340001F077FE2B7849
:107AE0000134A342F6D8BDE87040034800F0BCBCA6
:107AF0007C640020B86400208464002000B585B058
:107B00000346002101AA44F20100CDE901110393CB
:107B100000F004F805B05DF804FB00BF10B572B6C4
:107B2000FFF742FDFFF750F90028FBD1104B114C35
:107B30001149E41AE408240444F00100FFF77EFA36
:107B40000E4B1B68DB0700D500BE0D4944F0020058
:107B5000FFF774FABFF34F8F0A490B4BCA6802F460
:107B6000E0621343CB60BFF34F8F00BFFDE700BF60
:107B700098DA0200C0DA02000CCE0200F0ED00E05C
:107B800018CE020000ED00E00400FA0559B142B140
:107B9000531E1A4005D1826001608380C260104686
:107BA0007047092070470E20704700BF10B48468EA
:107BB000C26803468088121B904203D204205DF8FD
:107BC000044B7047DA681C6802400020A154DA6850
:107BD0000132DA605DF8044B704700BF03468068ED
:107BE000DA6890420DD010B498689A881C680240F8
:107BF0000020A25C0A709A6801329A605DF8044B1A
:107C000070470520704700BF30B50478012C83B061
:107C100004D0022C2DD0F4B103B030BD4368374DF1
:107C200019782846FFF7C2FF002837D1AA68EB6809
:107C30009A4205D0324B8DF800001B686846984781
:107C4000A968EB68AA885B1A9A4240D22D4B0122A0
:107C50001A7003B030BD2C492C48FFF7BFFF58B352
:107C6000274B03221B688DF800206846984703B015
:107C700030BD274B274D1A78C168AA5C01918DF859
:107C800000409AB9244903F10C00012202F094FA51
:107C90001B4B68461B68984703B030BD184B0190DA
:107CA0001B688DF8004068469847C9E71A49181DB7
:107CB000012202F0F1FCEBE71548164A0378D35C89
:107CC000B3B111490122043002F092FCA4E710483C
:107CD000104A0378D35C2BB10F490122043002F023
:107CE000DBFC99E70C4901220C3002F065FA93E7BE
:107CF000054901220C3002F0F7F98DE7C06400203D
:107D0000BC640020D0640020E8640020D46400201B
:107D1000DC590020806D0020E46400202DE9F04152
:107D2000334D8AB02A60002956D08A8880460D4695
:107D3000304809681C46FFF729FF10B10AB0BDE8BA
:107D4000F081AA89A9682C48FFF720FF0028F5D107
:107D50002A4E98F810C02A4F0FCE02AD0FC596E8F4
:107D60000F0098F81160BCF1000C85E80F0018BFF7
:107D70004FF0010CD8F804300193002ED8F81430DD
:107D8000D8F808508DF8244014BF0E220022D8F8ED
:107D90000C40D8F800608DF81D200893194A019B0B
:107DA0008DF81CC002A93846CDE90445039602931C
:107DB00001F0D6FA0028C1D1D8F80030124A0133B8
:107DC0001070BBD0114A3B78D35C4BB11049381DC1
:107DD000012202F061FCB1E707200AB0BDE8F081A2
:107DE0000B4907F10C00012202F0E6F9A6E700BFFB
:107DF000BC640020C0640020D464002028CE0200AF
:107E0000DC590020097C0200D0640020806D002035
:107E1000E464002070B5114D014611482E78FFF73B
:107E2000DDFE04460EB9204670BD0E480E4A0378AA
:107E3000D35C00222A7053B10C490430012202F0B5
:107E40002BFC0028EFD0FFF759FE204670BD0749F4
:107E500001220C3002F0B0F9F3E700BFD06400203B
:107E6000C0640020DC590020806D0020E464002004
:107E7000F8B52049204B0024C1F84041C1F84441E5
:107E8000C1F84841C1F84C41C1F80041C1F8044172
:107E90001B6833B31948D1F8045501681A686D1A84
:107EA00025F07F45AA4227460DD8197CDE69AD1A18
:107EB000144419B1D3E905201F7490471EB133460D
:107EC0001A68AA42F1D90E490E4A0B7812789A42E2
:107ED00008D00D490D4A41F823404FF48013C2F8F1
:107EE0000031F8BD531CDBB2022B08BF00230B701E
:107EF000EFE700BF001001400C660020086600207C
:107F00000566002004660020FC65002000E100E01A
:107F10002DE9F04FB34AB44913780978994285B0F6
:107F200000F088810133DBB2022B08BF0023AF4889
:107F30001370AF4A0568DFF8D08252F82310D8F8E2
:107F400000606B1823F07F430360002E00F0C181B6
:107F500000200746044684463346AE4613E0D86800
:107F6000DD69C3F800C0891A144438B10EEB04026D
:107F700022F07F42C3E90120DF611F460120002D6E
:107F800000F05F812B461A688A42E8D9002800F089
:107F90008B81C8F800309946521A1A600123009369
:107FA000944B954EDFF864A243F0010301934D46D4
:107FB0004FF0000B002F31D0D7E901303C46FF696C
:107FC0008A4ADFF84CC21268991A21F07F41614554
:107FD00000F2DD800B18236000220121C4E9012298
:107FE000E2612174002D00F0F3802A689A4280F04B
:107FF000E880294605E0D1F800E09E4580F0CF807A
:1080000072460846C9699C469B1A0029F3D1236031
:10801000E161C4612C462546002FCDD170783378BC
:10802000984247D09C460CEB4C0CB27806EBCC0C3B
:10803000591CCBB29A429CF80420337004BF002331
:108040003370022ADCF8084024D0032A18D0012A11
:10805000E6D1227C002AE3D1DCF80C306360DCF846
:108060001000A060DCF81410E1609AF800E0DCF881
:108070001810A161BEF1000FA2D0626013469FE705
:10808000002DCDD000232B74ED69002DFBD1C8F855
:108090000050C3E755B1AC4200F0BC802A4601E075
:1080A000944239D01146D269002AF9D100222274B3
:1080B0009842B7D1BBF1000F01D1A94541D0002DA5
:1080C00044D04A4A4D4B1468D3F804654C4FD5F858
:1080D00000803A78351B25F07F450335002A00F0F3
:1080E000B580464AA8452CBF4444641924F07F4417
:1080F000C2F84045D2F804359B1BA41B23F07F43F4
:1081000024F07F440333A34200F2B98000238AF8AD
:10811000003005B0BDE8F08F8C427DD0E069226868
:10812000C861002858D0AC46036813440360AC45CE
:1081300052D0002233787078227465464FF0010BDC
:10814000B6E7009B002BE1D0002DBAD12B4E2D4A73
:10815000284C4FF400314FF480330127C2F88010CF
:108160003C43C6F848334FF43C60C6F808337760A8
:10817000A0471E4BB7604FF43C601D60A047204BEA
:108180001D7000238AF8003005B0BDE8F08FD31AC7
:1081900023F07F4383420BD2C31A23601CE772444F
:1081A000A2EB0C020A602360E161C4612C4632E755
:1081B00000230122C4E90033A360E36122743DB1CE
:1081C0002A68C8F80040D31A2B60E561254623E7EA
:1081D000C8F8004025461FE70022337870782274E3
:1081E00066E700BF046600200566002008660020E0
:1081F000FC65002050CE0200EC640020001001401D
:10820000F965002000E100E00C660020F865002020
:10821000FEFF7F0029462A46D5F81CC0C8F800C0DA
:10822000BCF1000F42D0D0691268C86100287FF409
:108230007BAF7CE7DFF8B4800027D8F80090009788
:10824000AEE6A946C8F800500090A9E62349244AA2
:108250004FF48030C3F844034FF00109C3F804031E
:108260004FF40030C1F8800142F001020860C3F809
:1082700000904FF43C60904787F8009031E7184B2E
:10828000D2F80415C2F8401543F001034FF43C60E6
:108290009847124B4FF40032C3F8002100238AF8AC
:1082A000003005B0BDE8F08FB14675E6CDE902219A
:1082B0000C4A0D4801239360C0F800C08AF80030D2
:1082C0004FF43C60019B9847DDE90221D8F800C0DB
:1082D000A9E70123B1463746009361E600E100E0DB
:1082E00050CE020000100140086600200C660020FD
:1082F0002DE9F8431F4D204E204FDFF898804FF4B2
:1083000080334FF400324FF001090024C6F880207A
:1083100047EA0907C5F848334FF43C60C5F808330D
:10832000C5F80490B847C5F808904FF43C60C8F809
:108330000040B847124A134B13491C601470134B8A
:10834000134A0C700B2114701C8099704FF480122A
:10835000C023C6F8802186F814333260C5F808457A
:1083600086F81133D5F80435C8F800302046BDE84A
:10837000F88300BF0010014000E100E050CE020091
:10838000F96500200C66002004660020EC640020E3
:108390000566002008660020074B9B783BB142B180
:1083A00038B10368187C10B959745A6170470820B5
:1083B00070470720704700BFEC6400202DE9F043B0
:1083C000264EB37883B0002B3AD00446002837D02D
:1083D00004290D4638D9436993B3437C0027012B08
:1083E0000DF107000CBF8846B84691468DF807701E
:1083F00000F076F87378B0783278591CC9B28842A8
:1084000008BF39468A4223D003EB430306EBC3037C
:108410000120134A18719C60D2F804259DF80700CA
:108420007170C3E90325C3E9058900F07FF80D4B9E
:108430004FF480123846C3F8002103B0BDE8F08342
:10844000082003B0BDE8F083072003B0BDE8F08347
:108450009DF8070000F06AF80420EEE7EC640020C5
:108460000010014000E100E070B51B4EB37882B00F
:108470004BB3044638B343692BB3002505740DF1A3
:1084800007008DF8075000F02BF87378B07831783A
:108490005A1CD2B2904208BF2A46914216D003EB32
:1084A000430306EBC30302219DF807009C6019718A
:1084B000727000F03BF8094B4FF480122846C3F865
:1084C000002102B070BD082002B070BD9DF8070009
:1084D00000F02CF80420F4E7EC64002000E100E058
:1084E00070B4EFF3108472B60D4B9A68AAB90D49B7
:1084F0000D4E01259D60D1F8805035401D60C1F8BA
:108500008060D1F884505D604FF0FF33C1F8843053
:10851000027004B962B670BC704701230370F8E7BB
:10852000746D002000E100E0FC06FFBD094B9A6875
:108530007AB170B910B4EFF3108172B6064A1C68B4
:1085400014605C685460986001B962B65DF8044BD1
:1085500070477047746D002000E100E04A09012374
:1085600001F01F0100EB820003FA01F100F022B8D4
:1085700001F01F0201234909934000EB8100D94318
:1085800000F026B84B0901F01F0150F82300C84045
:1085900000F00100704700BF10B4034653E8000F1D
:1085A0000A4643E8002494F0000FF7D15DF8044B2D
:1085B000704700BF10B4034653E8002F42EA0100A1
:1085C00043E8000494F0000FF6D15DF8044B7047C7
:1085D00010B4034653E8002F02EA010043E8000408
:1085E00094F0000FF6D15DF8044B704710B40346C9
:1085F00053E8002F02EB010043E8000494F0000F61
:10860000F6D15DF8044B704710B4034653E8002FD1
:10861000A2EB010043E8000494F0000FF6D15DF8EE
:10862000044B704710B40346012253E8001F41EA8F
:10863000020043E8000494F0000FF6D15DF8044B0B
:10864000704700BF10B40346002253E8000F00EA51
:10865000020143E8001494F0000FF6D15DF8044BDA
:10866000704700BFB8B130B4D0E90112521A0468A3
:10867000D2B2531E2160DBB242B101680A685C1EAF
:10868000551C0D601370E3B2FF2BF6D10368002078
:10869000187130BC70470E20704700BFF0B583B032
:1086A000044600250DF107008DF80750FFF718FF6D
:1086B000D4E900311A688A4210D9511E1960216824
:1086C000A3680F6812F8015C0A79268AE068DB1B50
:1086D000DBB29A4206FB050538BF0B719DF8070017
:1086E000FFF724FF284603B0F0BD00BF30B50546B4
:1086F00083B000230DF107000C468DF80730FFF71B
:10870000EFFE2A681368591C1160E9682A8A641A06
:10871000B4FBF2F41C709DF80700FFF707FF03B0ED
:1087200030BD00BF826842B110B50446436901689C
:10873000006998470023A36010BD70470EB400B5D0
:1087400082B0039921B104AB01AA019300F0ACF807
:1087500002B05DF804EB03B0704700BF2DE9F04FA5
:10876000164683B0B142DDE90C920F4605469A46A3
:10877000C0F095800B464FF00108B3FBF6F39E4224
:1087800008F10108F9D9D04538BFD04612F00103ED
:10879000019302D1B9F1000F5ED1AA68012403E070
:1087A0000AF1FF3A06FB04F4BAF1010FF8D8B7FB5F
:1087B000F4F39E42F6D9DFF8ECA007E0B442B4FB34
:1087C000F6F31AD3AA681C46B7FBF3F31AF803B002
:1087D000BBF10A0F04FB137728D02B68511CA9604A
:1087E00003F802B0D5E901329A42E7D32846FFF7F1
:1087F00099FFB4FBF6F3B442E4D2019B9BB1B9F10B
:10880000000F10D02024C84509F1FF390BD2AB6806
:108810002A68591CA960D454D5E901329A4214D26D
:10882000B9F1000FEFD103B0BDE8F08F511C2B68F8
:10883000A9604FF00D019954D5E901329A42CCD389
:108840002846FFF76FFFAA68C7E72846FFF76AFFC9
:10885000B9F1000FD7D1E6E793071AD42024AA680C
:10886000C84502F1010199D22B68A9609C54D5E951
:1088700001329A4209F1FF3903D2B9F1000FEFD169
:108880008CE72846FFF74EFFAA68B9F1000FE7D141
:1088900084E7BAF1000F0CBF30242024DFE74FF04B
:1088A000010870E758CE0200002900F054822DE93B
:1088B000F04FDFF8B8950C7885B0064690460D4627
:1088C0004FF00D0A10E00A2CB36800F0AD8032685A
:1088D000591CB160D454D6E901329A4280F0A0808C
:1088E0002C78002C00F087800135002C00F083806C
:1088F000252CE8D1294600270D4611F8012B2D2AF9
:1089000000F08880302A00F088802B2A7AD02A2A2A
:1089100000F09980A2F13003092B4FF000040BD82E
:1089200004EB840402EB440415F8012FA2F1300398
:10893000092BA4F13004F3D92E2A00F090800023F3
:1089400001E015F8012F02F0FB016829F9D0252A72
:1089500000F07781583AD1B2202947D8202A45D84B
:10896000DFE812F0350144004400440044004400B4
:108970004400440044004400440043011301440007
:1089800044004400440013014400440044004400F7
:1089900044004400D20044004400A200440094007B
:1089A00044004400350101209842024638BF1A466F
:1089B0000292002C40F05081B80740F16E81002BEC
:1089C00040F04E821C46BBF1000FC0F20A827A07CB
:1089D00000F11A8207F00302022A00F0EA81CDE9D1
:1089E000004759460A223046FFF7B8FE01352C7879
:1089F000002C7FF479AF337B002B40F01C8105B055
:108A0000BDE8F08F0D4611F8012B2D2A47F0040721
:108A10007FF478AF47F001076EE747F002076BE796
:108A20003046FFF77FFE5BE73268591CB16002F801
:108A300003A0D6E901239342FFF449AF3046FFF784
:108A400071FEB36843E7D8F800301A1DC8F800205B
:108A50006A781C682E2A05F101057FF470AF6A78E8
:108A6000A2F13003092B05F101054FF000033FF699
:108A70006AAF03EB830302EB430315F8012FA2F166
:108A800030010929A3F13003F3D95CE7D8F80020BD
:108A9000111DC8F8001011683046CDE900470A22C0
:108AA000FFF75CFE0135A2E7D8F800301A1DC8F8C0
:108AB000002017F00107D3F800B040F0F080BBF1C0
:108AC000000F03D0584604F03FF80746BC4240F27E
:108AD0004381002C00F04081202205E0BC4200F0E0
:108AE0003B81002C00F03881B1683368481CB060CD
:108AF0005A54D6E90130984204F1FF34EED330469F
:108B0000FFF710FE2022E9E7D8F80020131DC8F86F
:108B10000030B36831681768581C3022B060CA54FE
:108B2000D6E90123934280F0EF803268581C782107
:108B3000B060D154D6E901329A4280F0E0800F2F24
:108B400003D93B461B090F2BFCD84FF0805406E09D
:108B50000F2C4FEA14137FF649AFB2681C46B7FBDF
:108B6000F4F319F803B0BBF10A0F04FB137754D0E8
:108B70003368511CB16003F802B0D6E901329A4261
:108B8000E6D33046FFF7CEFDE2E7D8F80020111D0E
:108B9000C8F80010D2F800B08BEAEB72A2EBEB72CF
:108BA000092A7FF700AFDFF8C8C201201146632908
:108BB000ACFB02E200F101004FEAD202F6DC98427F
:108BC000024638BF1A460292002C45D1F4E6D8F886
:108BD0000020111DC8F8001011683046CDE900478B
:108BE0001022FFF7BBFD013501E7D8F800301A1D50
:108BF000C8F800201C78B3680A2C00F01181326894
:108C0000591CB160D454D6E901329A42FFF4EEAE59
:108C10003046FFF787FD0135E9E63368511CB16046
:108C200003F802A0D6E901329A42A1D33046FFF7F9
:108C300079FDB2689CE7304605B0BDE8F04FFFF71C
:108C400071BDB3683168581CB060CA54D6E90132AE
:108C50009A42DDD20135CAE6BBF1000F59DB7A0733
:108C600057D4B80702D5002B3FF4ADAEF9073FF556
:108C7000AAAE94B120220299A142BFF4A4AEB16879
:108C8000481CB06030684254D6E90101814204F1C9
:108C9000FF3480F0D480002CEDD1002493E69BF8C3
:108CA0000030002B00F0E080B0685F46CBF101029D
:108CB0000A2B02EB070B3CD0411CB16031680B540E
:108CC000D6E90130984226D217F8013F002BEFD1A8
:108CD0005C457FF68BAE202702E05C453FF486AE14
:108CE000B2683368511CB1609F54D6E901329A4290
:108CF00004F1FF34F1D33046FFF714FDEDE73046C1
:108D0000FFF710FDB2681AE73046FFF70BFDB368B6
:108D10000BE7013CA5E730460292FFF703FD17F889
:108D2000013F002BD4D0029AB0680A2B02EB070B4C
:108D3000C2D1411CB160316801F800A0D6E9011030
:108D40008842B9D33046CDE90232FFF7EBFCDDE9CA
:108D50000232B068B0E770479BF80040002C3FF447
:108D600045AE0A2CB0680ED03368421CB2601C5469
:108D7000D6E90130984214D21BF8014F002C3FF481
:108D800035AE0A2CF0D13368421CB26003F800A063
:108D9000D6E901309842E7D33046FFF7C3FCB0680C
:108DA000E2E73046FFF7BEFC1BF8014F002CD8D19C
:108DB0001CE6002B7FF413AE8CB130220299A14245
:108DC000BFF40DAEB168481CB06030684254D6E9BB
:108DD0000101814204F1FF343BD2002CEED100248A
:108DE000FDE5B1684A1CB26032682D205054D6E9C6
:108DF00001219142CBF1000BFFF4ECAD304603931F
:108E0000FFF790FC039BE5E5B1684A1CB26032684D
:108E10002B205054D6E901219142FFF4DBADEDE760
:108E20003268591CB16002F803A0D6E901239342CD
:108E3000FFF4E5AE3046FFF775FCB368DFE6304679
:108E40000393FFF76FFC039B2022002C7FF413AFEA
:108E500023E730460393FFF765FC039B3022BCE712
:108E6000F9073FF5B0AD18E79B4631E758CE020051
:108E7000CDCCCCCCFFF7F6BB2DE9F041058A033110
:108E8000043D4E198046B6FBF5F6FFF707FCA0B38C
:108E9000F6B24FF48073013E0446C580C0F80080EE
:108EA00083802BD00346002508E06279AE4202F1B0
:108EB000010262713860C0F800801FD040461F4632
:108EC000FFF7ECFB013503460028EED16779791EE8
:108ED00017D02246013399421268FBD1D2F80080A4
:108EE0005FB12668002501E0344636682146013529
:108EF0004046FFF7FBFBAF42F6D800242046BDE812
:108F0000F08120682146FFF7F1FBF6E704300121EC
:108F1000FFF76CBB2DE9F041012104460430FFF757
:108F200073FB10F0FF0301D0BDE8F0816779791E73
:108F300016D02246013399421268FBD1D2F8008044
:108F4000002FF1D02668002501E03446366821461E
:108F500001354046FFF7CAFBAF42F6D8BDE8F081C5
:108F600020682146BDE8F041FFF7C0BB2DE9F8437A
:108F70000546C6884079144606FB00F2043A04EB25
:108F8000030C1F1D624538BFD41ABE428846B7FB8A
:108F9000F6F106FB117002D801392D68FCD1371AA1
:108FA000A74228BF27469CB14FF000090430E41BBC
:108FB00028443A4608EB090103F09EFDA642B94455
:108FC0002D6837464FF0000028BF2746002CEDD112
:108FD000BDE8F8832DE9F8430546C6884079144674
:108FE00006FB00F2043A04EB030C1F1D624538BF78
:108FF000D41ABE428846B7FBF6F106FB117002D8C0
:1090000001392D68FCD1371AA74228BF27469CB1E9
:109010004FF0000904302918E41B3A4608EB090018
:1090200003F06AFDA642B9442D6837464FF00000B0
:1090300028BF2746002CEDD1BDE8F88341DF7047FB
:10904000064A074B10B5002414701C60BFF35F8FF5
:109050000449054800F042F8204610BD186600207B
:109060001C66002074CE02001066002000B583B09C
:1090700000230DF107008DF80730FFF731FAF1EE0C
:10908000103A23F09F03E1EE103ABFF35F8F0B4BD2
:109090004022C3F884219DF80700FFF747FA03F048
:1090A0002BF928B920BF40BF20BF03B05DF804FBF7
:1090B000FFF7C4FF03B05DF804FB00BF00E100E070
:1090C00082680023936082681361826853618268BA
:1090D000D3608268536082681360704701600B68D8
:1090E00043604A68934204BF00234360704700BF57
:1090F000436843B1026891680B44436052689342ED
:1091000004BF002343607047114910B4A1F5947265
:1091100005E052F83330984238BF21460CD28C1A01
:10912000E30F03EBE4035B10914202EBC304F0D8BE
:1091300008485DF8044B704702D904F10802EEE7D5
:109140006068044B5DF8044B002808BF1846704760
:10915000A8D302006CD20200044B195C4FF0A0426D
:1091600001238B40C2F80C35704700BFA8D3020022
:10917000044B195C4FF0A04201238B40C2F8083524
:10918000704700BFA8D30200C20730B41AD54FF011
:10919000A0430322C3F844274FF40035C3F84827FF
:1091A0004FF48024C3F84C274FF40021C3F8502714
:1091B0004FF48012C3F80855C3F80845C3F80815E2
:1091C000C3F8082583070AD54FF0A0430C22C3F843
:1091D0003427C3F83827C3F83C27C3F8402730BCEE
:1091E000704700BF10B568B90E4CA36801226270C9
:1091F0003BB1D3E900230020A2609847A368002B6D
:10920000F7D110BD0128FCD1064C2369A070002BBA
:10921000F7D0D3E900230120226198472369002B6E
:10922000F7D110BD2066002070B910B5074CA368B7
:10923000012262703BB1D3E900230020A26098476D
:10924000A368002BF7D110BD704700BF2066002037
:1092500030B5012883B004D003281DD0B0B103B0CD
:1092600030BD224C00230DF107008DF80730FFF7C9
:1092700037F923784BB3E3689DF8070001330122E7
:10928000E360A270FFF752F903B030BD184B012222
:10929000C3F8802003B030BD144C00F0ADF80023BB
:1092A0000DF107008DF80730FFF71AF9E368013B6D
:1092B000E360E5682DB19DF80700FFF737F903B0CB
:1092C00030BD00F0ABF8A570F5E70A486360A36015
:1092D0002361E36000F084F803F00EF810B101237D
:1092E0002370C8E700F088F8F9E700BF2066002087
:1092F00000E100E0E591020030B585B004784568F2
:109300008DF80040D0E90240064A074B039053F81D
:109310002130019552F821108DF808406846984791
:1093200005B030BD346600203866002030B585B009
:10933000047845688DF80040D0E90240064A074BA2
:10934000039053F82130019552F821108DF8084010
:109350006846984705B030BD346600203866002066
:10936000F0B51A4B90F800C0194C1A4D91F81DE059
:1093700044F82C200746086945F82C0003F80CE057
:109380000C4616460FCC89B06D460FC594E80F0009
:1093900085E80F00CDF810C0BEF1000F0AD0002EF6
:1093A0000D4A694607F1040008BF324601F03EF855
:1093B00009B0F0BD002E094A694607F10C0008BF4C
:1093C000324600F0C3FD09B0F0BD00BF806D002043
:1093D0003866002034660020F99202002D930200C6
:1093E000044A137923B9012110609180184670470F
:1093F000852070473C660020074B1A68D20704D4CA
:10940000C021012283F800131A604FF0804301222B
:10941000C3F81825704700BF00E100E0044B0122AB
:109420001A604FF08042D2F81834DB03FBD4704747
:109430000C00004010B5174B1A6882B062B10021D1
:10944000154A19601B68507900934FF08041012341
:10945000009CC1F8083398B1104B1A68BAB10022C9
:109460001A601B6801934FF0804202210A4B019859
:10947000C2F808131B68012002B0BDE8104018476D
:10948000116853718847054B1A68002AE7D102B06A
:1094900010BD00BF000100403C66002004010040F8
:1094A00030B5204C94F8585083B0002D36D14FF091
:1094B000FF304FF0FF314FF0FF33C4E90001C4E942
:1094C0000C01C4E90E01C4E91001C4E9120104222F
:1094D000294604F15400C4E90233C4E90433C4E961
:1094E0000633C4E90833C4E90A33236503F012FBE9
:1094F0000D4A0E4B0E491D60C02082F80603402025
:1095000010601B68019301984FF000430122284628
:1095100084F85820C1F8043303B030BD082003B0EC
:1095200030BD00BF4866002000E100E07C610040E3
:1095300000600040034B93F85800003818BF01202A
:10954000704700BF48660020F0B46F4B1D1895F9B6
:109550003040002C61DA8C78A707C4F3400C53D458
:109560001C6A013400F0C8805C6A013400F0BD80E0
:109570000C260A2453F82450013552D0651CB542FC
:109580003FD253F82570013700F0A780A51CB542E3
:1095900037D253F82570013700F09F80E71CB7429F
:1095A0002FD253F8275001353AD0271DB74228D281
:1095B00053F82750013533D0671DB74221D253F8F5
:1095C000275001352CD0A71DB7421AD253F8275087
:1095D000013525D0E71DB74213D253F82750013586
:1095E0001ED004F10807B7420BD253F827500135BB
:1095F00016D00934B44204D2DC6A013408BF0B240B
:109600000FD00420F0BC70471C68013467D05C6840
:10961000013460D008260224ACE70820F0BC704773
:109620003C461E1865B243F8242086F83050BCF141
:10963000000F02D11C4484F848008A78540714D4DF
:10964000D6073ED44C784FF0A04600F5E072A40057
:1096500046F822402D4EC40800F0070C375D012269
:1096600002FA0CF23A4332558A7812F002021CD008
:10967000AB0003F1804303F5C0430978D3F81045EC
:1096800024F4473424F44074C3F81045020209045A
:10969000D3F8100501F4403102F4F8520A430243B2
:1096A000C3F810250020F0BC7047083D2B44087813
:1096B00093F8501041EA801183F850101046F0BC26
:1096C0007047820002F1A042D2F8004724F0020461
:1096D000C2F80047BEE70124A3E72C46A1E7002417
:1096E00085F830401A602546A7E7092685F83060DE
:1096F0005A62344635469DE7082685F830601A627E
:109700003446354696E700BF486600209C66002038
:1097100070B42C4C251883B095F93020072A1CDD35
:10972000224492F848309B09032B40D0012B0CBFF8
:109730004FF400334FF44033800000F1A040D0F8E4
:10974000002722F44032C0F80027D0F80027134346
:10975000C0F8003703B070BC7047D3B2072BF9D8FC
:10976000900000F1804000F5C04002F140039B00F2
:10977000D0F810659BB203F1804303F5C04346F077
:109780000106C0F81065002018601B680193019B5A
:109790000029DFD095F9303054F82330002BD9D090
:1097A0000949012303FA02F2C1F80423D2E74FF07A
:1097B000A043D3F81035C34003F0010302331B0468
:1097C000BAE700BF4866002000600040164B034423
:1097D00093F93030072B0DDD800000F1A040D0F868
:1097E000003723F44033C0F80037D0F80037C0F812
:1097F00000377047DAB2072A14D810B49A0002F181
:10980000804202F5C042094CD2F81005012120F037
:10981000010001FA03F3C2F81005C4F808335DF83B
:10982000044B7047704700BF48660020006000404E
:109830004FF0A043D3F8103523FA00F000F00100F8
:10984000704700BF2DE9F04186B0C04A0023019364
:109850001168012900F0C8811E46BD4B1A68012A13
:1098600000F0B481BB4B1A68012A00F0A181BA4B09
:109870001A68012A00F08E81B84B1A68012A00F09C
:109880007B81B74B1A68012A00F05281B54B1A68E8
:10989000012A00F03F81B44B1A68012A08D0B34B6B
:1098A0001A68012A00F0AC81F6B906B0BDE8F08173
:1098B000AF4AD2F804231206F1D500221A601968C3
:1098C0000491196E0498012903F1600346F08006A3
:1098D0000AD11A601B6805934FF0A043059AD3F88C
:1098E0001035019346F00046A24F00240125A30045
:1098F00003F180432E4203F5C0434FEA45050BD0E8
:10990000D3F8100557F82420D3F81015C0F304201D
:10991000C1F3014102B190470134082CE7D1002E78
:10992000C3DA00224FF0FF33CDE90223914C012529
:1099300002AE94F95000471C37D0C0F3C20C06ABFE
:1099400003EB0C0700F0070317F80C2C05FA03F3E0
:109950001A42C1B200F03F0027D02218890992F9BB
:10996000302054F82280B8F1000F00F09D810329C7
:1099700000F09D81820002F1A04217F8147CD2F819
:1099800000C71F40CCF3014C0BD0BCF1020F0CD12F
:10999000032900F0BF810027B8F1000F06D0C047AF
:1099A00004E0BCF1030F00F0A381002794F95100FB
:1099B000411C32D0C0F3C20E06AB03EB0E0C00F01C
:1099C00007031CF80C2C05FA03F31A42C1B200F08D
:1099D0003F0022D02218890992F9302054F82280C1
:1099E000B8F1000F00F07B81032900F07B81820039
:1099F00002F1A04E1CF814CCDEF800271CEA030F7D
:109A0000C2F3014200F03A81022A06D1032900F094
:109A10008481B8F1000F00D0C04794F95200421C75
:109A200032D0C0F3C20E06AB03EB0E0C00F00703FE
:109A30001CF80C2C05FA03F31A42C1B200F03F00E7
:109A400022D02218890992F9302054F82280B8F1E6
:109A5000000F00F03B81032900F03B81820002F1FE
:109A6000A04E1CF814CCDEF800271CEA030FC2F34A
:109A7000014200F0ED80022A06D1032900F0508156
:109A8000B8F1000F00D0C04794F95300431C32D006
:109A9000C0F3C20E06AB03EB0E0C00F007021CF87D
:109AA0000C3C05FA02F21342C1B200F03F0022D092
:109AB0002318890993F9303054F82380B8F1000F46
:109AC00000F0FB80032900F0FB80830003F1A04E2F
:109AD0001CF814CCDEF800371CEA020FC3F3014374
:109AE00000F09C80022B06D1032900F01C81B8F104
:109AF000000F00D0C047002F3FF4D7AE4FF0A04377
:109B0000019AD3F810359A423FF4CFAE029A0193EE
:109B100003920EE7164AD2F8042351067FF5BBAE36
:109B200000221A601B680493049B46F04006B2E6CC
:109B30000F4AD2F8042390067FF5A8AE00221A60DF
:109B40001B680493049B46F020069FE600610040DA
:109B500004610040086100400C6100401061004059
:109B600014610040186100401C6100407C610040AD
:109B700000600040486600206C4AD2F80423D406F6
:109B80007FF57FAE00221A601B680493049B46F0A9
:109B9000100676E6654AD2F8042315077FF56CAE09
:109BA00000221A601B680493049B46F0080663E6D3
:109BB0005E4AD2F8042357077FF559AE00221A6097
:109BC0001B680493049B46F0040650E6574AD2F8FB
:109BD000042392077FF546AE00221A601B680493A7
:109BE000049B46F002063DE65049D1F8046316F0A6
:109BF00001063FF432AE136013680493049B2CE615
:109C000000221A601B6805934FF0A043059AD3F811
:109C100010350193002E3FF484AE63E6032B7FF4EE
:109C20006AAF03297FF463AF4FF40032DEF80037E8
:109C300023F44033CEF80037DEF800371343CEF874
:109C40000037B8F1000F3FF459AF0137FFB251E7C9
:109C5000032A7FF419AF03297FF412AF4FF40032C7
:109C6000DEF8003723F44033CEF80037DEF8003753
:109C700001371343FFB2CEF8003701E7032A7FF420
:109C8000CCAE03297FF4C5AE4FF40032DEF80037C6
:109C900023F44033CEF80037DEF8003701371343A2
:109CA000FFB2CEF80037B4E603297FF47EAE16F893
:109CB0000C201A4306F80C205CE603297FF41BAF46
:109CC00016F80E30134306F80E30FEE603297FF433
:109CD000DBAE16F80E201A4306F80E20BEE6032966
:109CE0007FF49BAE16F80E201A4306F80E207EE68F
:109CF00003297FF451AE4FF40037D2F8003723F434
:109D00004033C2F80037D2F800373B43C2F800377F
:109D1000012741E64FF44037EFE74FF44032B5E713
:109D20004FF440329CE74FF440327FE70060004040
:109D3000014B1B68184700BFA4660020114B9842D6
:109D40001DD130B583B000230DF107008DF8073029
:109D50000D46FEF7C5FB0C4B1C794CB99DF807006E
:109D60001D6001221A71FEF7E1FB204603B030BDF1
:109D70009DF80700FEF7DAFB112003B030BD00208C
:109D8000704700BF00200040A466002030B56D4A37
:109D9000D2F8043399058BB068D5D2F82431002B62
:109DA00064D00023C2F82431D2F8243103934FF455
:109DB0000171654B0398C2F8081393F8291009B98B
:109DC000012151605F4902228DF81820D1F88024CA
:109DD000C1F880249869D968099200240025CDE94A
:109DE0000710C3E90645D3E9001206A89047554A73
:109DF000D2F81C31C3B1544B186A596988426AD2EF
:109E000093F8280000F0FF04002864D1C2F81C4138
:109E1000D2F81C11029102999C68186A196A205C98
:109E200001311962C2F81C05464AD2F84431DBB14F
:109E30000021454BC2F84411D2F8440193F829108F
:109E40000090009809B1012111609A6962B1586AC5
:109E5000D96800229A610122CDE907108DF81820F7
:109E600006A8D3E9001290470BB030BD354AD2F8AE
:109E700004335B07BBD5D2F80831002BB7D0324B87
:109E8000996900293CD00021C2F80811D2F80811C4
:109E900004910499D868596AD2F8182542545A6A2C
:109EA000996901325A625A6A8A42A0D1DA69002A53
:109EB0002FD0DD685C6A18699A6101210022D860A0
:109EC000DA615A628DF81810CDE90754D3E900120F
:109ED00006A890478BE71B4A0020C2F81C01D2F865
:109EE0001C210192019A00299ED09A688DF81800D1
:109EF00008915861079206A8D3E90012904793E7AA
:109F0000C2F80811D2F8080105900598D2F8182572
:109F1000C9E793F8292012B90A4A01215160094A78
:109F20004FF40171C2F80813596ADA6808910024E5
:109F3000012007928DF81800D3E900129C6106A851
:109F4000904754E700200040B06600202DE9F04122
:109F5000604F06792C2303FB067382B093F82A30F6
:109F6000002B40F0898005460C4600685A4990460F
:109F7000FFF7E4FE00287BD12368591C0CD0012296
:109F80004FF0A04102FA03F3C1F80835236803F546
:109F9000E073032241F8232063685A1C06D003F5BE
:109FA000E0734FF0A042002142F823102B68A26911
:109FB000C3F82425217D637D2A680B43C2F86C35E4
:109FC000D4E900122B68C3F81425C3F80C15237DBF
:109FD000012B5DD02C2303FB06F3FA18C2F8048092
:109FE0002269FA50B8F1000F2FD02A68237F3B4C2A
:109FF0000021C2F81C11D2F81C2100922A68DDF859
:10A0000000C0C2F84411D2F844112A6801910199A4
:10A01000C2F804432A6842F3073100294FEA12329A
:10A020002EDB01F1604101F561415B01DBB281F89A
:10A0300000332B682A4C43F307325209C3F304332D
:10A04000012101FA03F344F822302C23296803FB91
:10A050000676042400230122C6E90633C1F8004530
:10A0600086F82A2086F82930736102B0BDE8F081B5
:10A07000112002B0BDE8F081082002B0BDE8F081F7
:10A08000184902F00F025B011144DBB20B76D0E7F6
:10A09000A368591C06D003F5E0734FF0A0420021DD
:10A0A00042F82310E3685A1C0DD001224FF0A04162
:10A0B00002FA03F3C1F80835E36803F5E0730322FD
:10A0C00041F82320E3682A68A168C2F80835C2F87D
:10A0D00010157FE7B06600208D9D02008000020011
:10A0E00000E100E0FCEC00E02DE9F041314E0579A3
:10A0F0002C2303FB05630446586984B000284CD127
:10A100001862996083F828005A612268C2F81C011D
:10A11000D2F81C11226802910121029F91602268ED
:10A12000D3F808C0C2F81C01D2F81C1101910199A2
:10A130001F6A196A1CF8077001311962C2F81C7590
:10A140005A6812B104B0BDE8F0811A6A5F692168EB
:10A15000BA421BD2864602E093F828200ABBD1F807
:10A160001C21002AF8D0C1F81CE1D1F81C2103926F
:10A17000039AD3F820801A6A1CF8088001321A6208
:10A18000C1F81C851A6ABA42E9D32168D1F81C319A
:10A19000002BFBD00123CB6004E0112004B0BDE80C
:10A1A000F0810F202C2303FB056500236B6104B0B5
:10A1B000BDE8F081B0660020F0B4504F06792C2342
:10A1C00003FB067386B05D68044625B103684FF44F
:10A1D0000170C3F808032C2303FB0673986990B140
:10A1E000D86900287CD11961DA612C2303FB06733E
:10A1F0005A683AB323684FF40172C3F8042300206D
:10A2000006B0F0BC704793F829509A61D960586243
:10A21000D861002DE9D12368C3F82451D3F8242153
:10A2200023680192019AC3F80851D3F808212368E2
:10A230000292012202991A602C2303FB06735A68CA
:10A24000002AD7D12168C1F84421D1F844210392D2
:10A25000039A2268D2F82411D2F80851D2F84401A6
:10A2600055B9002833D10029F4D02C2303FB0676FE
:10A270000023B3610320C3E70029F6D148BB9969E5
:10A28000C2F8080181B1D2F8081104910499DD687F
:10A29000596AD2F818256A545A6A996901325A6281
:10A2A0005A6A9142D5D806E0D2F80811059105996D
:10A2B000D2F818255B6A2C2303FB0676002296F859
:10A2C0002930B261A3B1236801221A6098E70029FE
:10A2D000CBD12C2303FB06760023B3610F208FE73D
:10A2E00055B123684FF40172C3F80423112087E7A6
:10A2F000236801225A6083E7112081E7B0660020BD
:10A3000030B5484BD3F8242189B0002A57D0002219
:10A31000C3F82421D3F82421029202228DF81020C0
:10A32000029AD3F88014404AC3F880140791D3F8F6
:10A330003C15D3680691002400250593C2E9064523
:10A340001168536804A89847364BD3F844214AB1A2
:10A350000021354AC3F84411D3F8440191690190B2
:10A360000198D9B92F4BD3F82021AAB10021C3F805
:10A370002011D3F820012C4A00900098506958B160
:10A38000D3F84C05936806908DF810105161059331
:10A3900004A8D2E90013984709B030BDD3F83C3582
:10A3A000D168069300240025012305918DF8103013
:10A3B000C2E90645D2E9001304A89847D2E7D3F8CA
:10A3C00010110029C0D0C3F81021D3F8101116487D
:10A3D000039103998469D3F83C15A142B4D1C469AF
:10A3E000A4B1D3F80052846125F02005C3F80052CF
:10A3F000D0E90343C26101220691C360016843684A
:10A4000005948DF8102004A898479DE7C2688461E0
:10A410000123CDE905218DF81030D0E9001304A8FF
:10A42000984791E700200040E06600202DE9F043C6
:10A4300007796A4E07EBC70306EB830385B093F8F1
:10A440002030002B40F09B8004460D460068644994
:10A450009146FFF773FC002840F08D802B68591C53
:10A460004FEAC7080CD001224FF0A04102FA03F3D3
:10A47000C1F808352B6803F5E073032241F8232067
:10A480006B685A1C06D003F5E0734FF0A042002120
:10A4900042F823102368A969C3F82415297D6A7D31
:10A4A00023680A43C3F86C25D5E900312268C2F855
:10A4B0000C35C2F814152B7D012B6CD008EB07026C
:10A4C00006EB8203C3F804902B6946F82230B9F1F9
:10A4D000000F3FD021682B7F424D0022C1F8102190
:10A4E000D1F8101100912168DDF800C0C1F82021D9
:10A4F000D1F8201101912168DDF804C0C1F82421B0
:10A50000D1F8241102912168DDF808C0C1F8442176
:10A51000D1F84411226803910399C2F804532268C8
:10A5200042F3073100294FEA12322CDB01F160417E
:10A5300001F561415B01DBB281F8003323682A4DEC
:10A5400043F307325209C3F30433012101FA03F341
:10A5500045F822304744226806EB87060023012491
:10A560000821C2F80015C6E9063386F82040736159
:10A5700005B0BDE8F083112005B0BDE8F0830820E8
:10A5800005B0BDE8F083194902F00F025B011144E8
:10A59000DBB20B76D2E7AB68591C06D003F5E0734B
:10A5A0004FF0A042002142F82310EB685A1C0DD056
:10A5B00001224FF0A04102FA03F3C1F80835EB681D
:10A5C00003F5E073032241F82320EB682268A968B1
:10A5D000C2F80835C2F8101570E700BFE066002029
:10A5E00001A302001003020000E100E0FCEC00E027
:10A5F000F0B401F06044B4F1005F82B02CD1057971
:10A60000244E05EBC50406EB840403466069EF00A5
:10A61000002839D16261A1601A68C2F82001D2F81D
:10A6200020C11A68CDF804C0DDF804C0C2F8580192
:10A63000D2F8582100921A68DDF800C0D4F814C08E
:10A64000C2F84415C2F848C51A68012191606268D1
:10A6500032B102B0F0BC7047102002B0F0BC7047BD
:10A660001B6800E0A0B9D3F82021D3F85801002AD4
:10A67000F8D0002818BF0F207B1906EB83030022B7
:10A680005A6102B0F0BC7047112002B0F0BC7047B4
:10A690000F20F1E7E066002001F06043B3F1005FB6
:10A6A0005ED1F0B40479474D04EBC40605EB860691
:10A6B00082B07668E30026B107684FF4047CC7F8DF
:10A6C00008C3234405EB83039C694CBB9A61DC619E
:10A6D000D9600368C3F81041D3F81061036801968C
:10A6E000019EC3F84441D3F8444103680094009CA0
:10A6F000C3F83415C3F83825036801221A600479B9
:10A7000004EBC40305EB8303E6005B6853B3036803
:10A710004FF40472C3F80423002002B0F0BC704769
:10A72000DC69002C37D11961DA610368C3F8104184
:10A73000D3F8106103680196019EC3F84441D3F831
:10A74000444103680094009CC3F83415C3F83825CD
:10A750000268D2F8003243F02003C2F80032CEE79C
:10A7600010207047036801E0E9B910BBD3F810214D
:10A77000D3F84411D3F82401002AF5D0344400283A
:10A780004FF0000305EB840518BF0320994218BF62
:10A790000F20AB61C1E796B103684FF40472C3F8B0
:10A7A00004231120B9E7344405EB84050F20AA6186
:10A7B000B3E7344405EB84050320A961ADE711201C
:10A7C000ABE700BFE0660020032806D8012A06D0C8
:10A7D00001291BD0022908D071B107207047012937
:10A7E00011D002294FF00002F6D10B4B00EB4000D4
:10A7F000034400205A707047074B00EB40000344AD
:10A8000008469A70704700F10E02D2B200EB400386
:10A8100001490020CA5470470467002010B503881E
:10A82000102B07D0112B04D1254B18680138186064
:10A8300030B110BD224C216811B30131216010BD2F
:10A8400001220221FFF7C0FF40B1072806D01D4BAF
:10A850001B68002BEDD0BDE81040184707220221ED
:10A860000120FFF7B1FF08B10728F0D10021084609
:10A870000A22FFF7A9FF0028DBD00728E7D1D8E795
:10A8800001220846FFF7A0FF38B1072805D00D4B7D
:10A890001B6803B198472168CFE7072202210120F6
:10A8A000FFF792FF08B10728F1D10422022100200E
:10A8B000FFF78AFF0028EED00728E8D1EBE700BFBA
:10A8C00014670020106700202DE9F04FDFF8B091E9
:10A8D00000EB400509EBC50583B0EE6A012E074683
:10A8E0008A4690464FEA400407D0022E4FD056B316
:10A8F0000026304603B0BDE8F08FAE6AD5F824B02C
:10A900005E457DD9013EA6EB0B062D6A464528BF64
:10A910004646A5EB0B0296427ED27B1C03EB43031B
:10A9200009EBC303324658685146584402F0E4F834
:10A93000274409EBC70906EB0B023046C9F824206F
:10A9400003B0BDE8F08FAB6AD5F824B05B459CBF7F
:10A950002A6A9B18013BA3EB0B039845C9D8044412
:10A9600009EBC4040137256AA5EB0B0607EB470783
:10A97000B04509EBC7096FD2D9F8040042465844E4
:10A9800002F0BAF808EB0B0363624646B1E7013701
:10A9900007EB47076C6AFF000026AB6AA34203F18E
:10A9A000FF3222D9131B2A6A434509EB0701A2EBA8
:10A9B000040B28BF43469B45486828BF9B4620445C
:10A9C00051465A4602F098F82B6A5C449C425E4419
:10A9D000A8EB0B08DA440DD06C62B8F1000F88D0F8
:10A9E000AB6AA34203F1FF32DCD82A6A1344013B6D
:10A9F0001B1BD9E700246C62B8F1000FCDD178E7BA
:10AA00002D6A2E44013EA6EB0B06464528BF46465E
:10AA1000A5EB0B02964280D307F1010808EB48082A
:10AA200009EBC8085146D8F804000192584402F0D6
:10AA300063F8751B019AD8F804005D440AEB020123
:10AA40002A4602F059F8274409EBC7093046C9F8ED
:10AA5000245003B0BDE8F08FD9F804005844C34433
:10AA60003246ABEB050502F047F80AEB0601D9F8D0
:10AA700004002A4602F040F84646656239E700BF06
:10AA8000846D002038B5114C114B1248E36110253C
:10AA90004FF40073104A11492362E06400232565D6
:10AAA000E01D0225A3626362E362A3656365E3655B
:10AAB000A261A264C4E9045502F03EF808492046A8
:10AAC00002F03AF82023A37138BD00BF846D002046
:10AAD0002867002018670020D8D30200E4D30200C2
:10AAE000E8D302002AB320B370B54378092B15468A
:10AAF0002AD0E1B10024234601E0994217D9045D30
:10AB0000013423449BB2C2181C465278092AF4D15E
:10AB100099420CD9991C89B2C65C41B1013EB6B2CA
:10AB2000441826B1284602F00FF8B04203D00020A6
:10AB300070BD0020704732462146284601F0CEFF06
:10AB4000B0FA80F0400970BD0029F0D0044614F836
:10AB5000026B013EB6B2E4E72DE9F047038887882F
:10AB6000112B98B007D01A2B044650D0102B09D0C7
:10AB700018B0BDE8F0873A483946FDF7F9FC18B03F
:10AB8000BDE8F087374A9368DB4300935168684615
:10AB9000FDF71EFD009B0193019B83B300252E460C
:10ABA000314601A8FDF7EEFC28B118AB03EB4503D5
:10ABB000013523F8286C0136142EF1D10D950DF1D5
:10ABC000340CBCE80F0002AE0FC6BCE80F000FC685
:10ABD0009CE8070086E807008DB10DF10A08DFF850
:10ABE00098A008EB450538F8029F1F4E30464946AD
:10ABF0000436FDF7BDFCB245F8D1A845F3D1132FBB
:10AC000015D90420FCF77AFF18B0BDE8F087037A65
:10AC100016481F2B4FEA1314394618D9FDF79EFC2E
:10AC2000022C1348394616D0FDF798FCA0E70C48D3
:10AC30003946FDF793FC0C483946FDF78FFCE37B62
:10AC4000012B95D00B483946FDF788FC90E7FDF7BE
:10AC50008FFC07483946FDF78BFC18B0BDE8F0873C
:10AC600030690020286900202C6900203869002004
:10AC70003C69002034690020A06900200248782245
:10AC8000002101F047BF00BF2869002030B50C4B00
:10AC900083B0DA68009299686846FDF799FC002550
:10ACA000009B01932C46214601A80134FDF76AFC64
:10ACB00000B10135142CF6D1284603B030BD00BFD9
:10ACC000286900209BDF70479DDF70479EDF70473B
:10ACD000F0B5324C90F8C6322568C3EB0314C3EBD1
:10ACE00084031746A1B05A0000EB4303F5B12C4C86
:10ACF0009B780E46A17899423ED0012D16D9A179B4
:10AD000099423FD0022D11D0A17A994240D0032D13
:10AD10000CD0A17B99420BD0042D07D0A17C994285
:10AD20001ED0052D02D0A17D99421FD021B0F0BDCB
:10AD3000B4F80CC0815A8C45EED11A4B1C68002C1B
:10AD4000F4D07C22002101A801F0E4FE012301A837
:10AD5000ADF8067002968DF80430A04721B0F0BD22
:10AD6000B4F810C0815A8C45DBD1E6E7A18A835A3A
:10AD70009942E2D021B0F0BD30F802C021888C4564
:10AD8000BBD1DAE7B4F804C0815A8C45BAD1D4E714
:10AD9000B4F808C0815A8C45B9D1CEE7A869002023
:10ADA000B06C0020A06900202DE9F04FDFF81C8175
:10ADB00090F8C6E2D8F80040CEEB0E13CEEB83033A
:10ADC000944683B000EB4302FCB10F4659003C4B64
:10ADD00092789D78954263D0012C16D99D79954241
:10ADE00063D0022C11D09D7A954263D0032C0CD0F5
:10ADF0009D7B95420CD0042C07D09D7C954243D07E
:10AE0000052C02D09D7D954243D003B0BDE8F08F64
:10AE10009E89455AAE42EED12A4BD3F800A0BAF132
:10AE2000000FF2D0DFF8A890D9F80060052EECD81A
:10AE3000254D05EBC61B762202FB0E01F3010BF13B
:10AE40000400ABF802C0019301F056FE0136002F5A
:10AE5000019BCBF87CA014BF00220222A642EA5438
:10AE6000C9F80060D1D10024EB6F28469847D8F884
:10AE7000003001349C4205F18005F5D30023C9F868
:10AE8000003003B0BDE8F08F1E8A455AAE42B7D1FC
:10AE9000C2E79A8A435A9A42BED003B0BDE8F08F07
:10AEA000465A1D88AE4297D1B6E7465A9D88AE42B3
:10AEB00097D1B1E71E89455AAE4297D1ACE700BFA2
:10AEC000B06C0020A0690020AC690020A8690020B7
:10AED000AC6C00202DE9F04390F8C68290F8C532A2
:10AEE000C8EB0814C8EB840800EB480E03EBC3045E
:10AEF0009EF80470640004EB48045D1C0A34BD42F3
:10AF000083B0044441D0BB4237D24FEA48061225F1
:10AF100015FB036500F11C080544B04407F1FF3C34
:10AF20009C45248911D06E8C0134B44217D0013E67
:10AF3000ADF80660ADF8044000230B70104601A97F
:10AF4000FFF7C4FE03B0BDE8F083BEF80860B4426A
:10AF500019D00134ADF80440ADF80660ECE703EB1E
:10AF6000C30408EB44045E1C5FFA86F94F45334680
:10AF700080F8C56205F11205D2D8012300200B70BC
:10AF800003B0BDE8F0830024EDE72389BEF8080094
:10AF90008342F2D00133ADF80430ADF80600CBE7C0
:10AFA00070B130B40246074D07480849084C0A60A2
:10AFB00000232B60036001251846257030BC7047C4
:10AFC0000E207047A8690020AC6C0020A06900200A
:10AFD000A4690020002857D02D4B1B782BB370B4E8
:10AFE0002C4C2D4B2268002A50D081789D788D42C0
:10AFF0001DD0012A34D99D798D4222D0022A31D028
:10B000009D7A8D4222D0032A2CD09D7B8D4222D066
:10B01000042A27D09D7C8D422CD0052A22D09D7DEC
:10B020008D422CD0042070BC7047082070470688E1
:10B030001D88AE42DDD11949096889B1002070BC74
:10B0400070479E880588AE42D8D1F4E71E890588EE
:10B05000AE42D8D1EFE79E890588AE42D8D1EAE763
:10B06000052ADFD8511C006843F822002160002027
:10B0700070BC70471E8A0588AE42CED1DBE79D8A40
:10B0800001888D42CED1D6E70E2070470121EAE734
:10B09000A4690020A8690020B06C0020A0690020ED
:10B0A000B0B31C4B1B7843B31B4B1B682BB370B561
:10B0B00090F8C752044615BB0E464FF4337229462A
:10B0C00001F028FD154A164B10682060A4F8CA62EA
:10B0D00084F8C95284F8C65284F8C55222463046D4
:10B0E00001211D60FFF7EEFD11280AD020B90123D0
:10B0F00084F8C80284F8C73270BD08207047112058
:10B1000070BD012384F8C73284F8C832284670BD68
:10B110000E207047A4690020A8690020B06C0020B0
:10B12000AC6C0020002800F0CD802DE9F04F0D46DA
:10B13000A3B0002900F08C806A4B1B78002B00F034
:10B1400087800388322B044600F0B28000F28380AF
:10B15000112B00F0B880302B6CD18688B1F8CA3240
:10B160009E4240F0AA80C388002B40F03F8291F8B5
:10B17000C6120269C1EB0113C1EB830305EB430364
:10B18000C3F8062095F8C5228088002A00F05B826B
:10B19000013AD2B2762602EBC20206FB01F101EBC4
:10B1A00042022A44528A013292B21B89ADF80E3013
:10B1B00003A9ADF80C20FFF787FD0646002839D01B
:10B1C00095F8C632484AC3EB03110020126885F88F
:10B1D000C702C3EB81035900B4F8048005EB4303B5
:10B1E0001AB3424F9B78B878984200F0E683012A60
:10B1F0001BD9B879984200F0FB83022A15D0B87A9F
:10B20000984200F00A84032A0FD0B87B984200F0DD
:10B210000B84042A09D0B87C984200F01384052AD4
:10B2200003D0BA7D9A4200F01484314B0322A3F874
:10B2300002801A7095F8C83253B12388303B9BB214
:10B240001F2B05D8A688B5F8CA329E4200F0A98106
:10B2500023B0BDE8F08F332BECD18288B1F8CA322D
:10B260009A42E7D1C18895F8C67295F8C56200295F
:10B2700040F064814389002B00F06081762000FB60
:10B2800007F006EBC60300EB430028442246D389AF
:10B29000A3F52453082B00F24281DFE813F03E01AE
:10B2A0007E017B01400140014001400140017501E8
:10B2B0008688B1F8CA329E421CD095F8C822002A6E
:10B2C000C3D1C5E770478288B1F8CA329A42BFD16C
:10B2D00000234FF6FF7281F8C73281F8C832A1F817
:10B2E000CA22B5E7A4690020A8690020B06C00203C
:10B2F000AC690020C388002B40F0E58091F8C6724D
:10B30000827AC7EB0713C7EB830301EB43085E00A8
:10B3100098F804904A44062A00F3C281D2B288F811
:10B320000420384691454B4680F00683A446762299
:10B3300002FB07F709EBC90107EB41015CF80C9F21
:10B3400098F80420DCF8048005EB010E1031CEF8EB
:10B350000A90CEF80E80BCF808C0AEF812C029449E
:10B3600003F1010E4FF0000C9645C1F804C0C1F87E
:10B3700008C04FEAC30180F09980A0460EEBCE01D1
:10B3800058F816AF07EB410105EB0109D8F804B0F6
:10B39000C9F80EB0C9F80AA0B8F80880A9F8128058
:10B3A0001031294403F102084245C1F804C0C1F834
:10B3B00008C04FEACE0140F25F82A64608EBC80102
:10B3C0005EF820AF07EB410105EB0109DEF804B0A0
:10B3D000C9F80EB0C9F80AA0BEF808E0A9F812E052
:10B3E0001031294403F1030E7245C1F804C0C1F8BD
:10B3F00008C04FEAC80140F24182A0460EEBCE01E0
:10B4000058F82AAF07EB410105EB0109D8F804B061
:10B41000C9F80EB0C9F80AA0B8F80880A9F81280D7
:10B420001031294403F104084245C1F804C0C1F8B1
:10B4300008C04FEACE0140F21F82A14608EBC801C6
:10B4400059F834EF07EB410105EB010AD9F804B0D4
:10B45000CAF80EB01031CAF80AE0053305EB010E48
:10B460009A42B9F80810AAF812104FEAC801CEF8AB
:10B4700004C0CEF808C040F20182214603EBC30E9F
:10B4800051F83E8F07EB4E0705EB070ED1F80490FD
:10B49000CEF80E901037CEF80A802F440989AEF806
:10B4A0001210D900C7F804C0C7F808C00B447621B1
:10B4B00005EB430301FB00F133446F185B8A3E89BF
:10B4C000B342C0F0C280002785F8C572A2880DF192
:10B4D0000B012846FFF7FEFC0646002840F0F880E6
:10B4E0009DF80B30002B3FF4A5AEA2880121284621
:10B4F000FFF75AFC95F8C932A04AA78812680133B1
:10B50000DBB2934285F8C932C0F020829C4B85F8AB
:10B51000C76203225F801A708CE69389C382838A94
:10B520002BB1C38A1BB1038B0BB1438B33B9638936
:10B530000131994202F10602FFF4A9AE762202FB24
:10B540000752731C1279002693428DF80B6068D164
:10B5500001238DF80B30A28801212846FFF724FC37
:10B5600095F8C932854AA68812680133DBB2934246
:10B5700085F8C932C0F0BC81814B032100225E8076
:10B58000197085F8C72255E6B2F80CC0838AA0F876
:10B590001AC0C5E793898382C2E793890383838AAC
:10B5A000BEE74FF433720021284601F0B3FA754B21
:10B5B000754C186828600023A5F8CA6285F8C9325E
:10B5C000304685F8C63285F8C5322A460121236007
:10B5D000FFF778FB112800F0B38100287FF438AE24
:10B5E000012385F8C80285F8C73231E632460021CA
:10B5F0002846FFF7D9FB95F8C932604AB4F80480B1
:10B6000016680133DBB2B34285F8C932C0F0C88096
:10B610005B4B03210022A3F80280197085F8C72232
:10B6200008E685F8C532A2880DF10B012846FFF720
:10B6300051FC8046002840F023819DF80B30002B00
:10B640003FF4F8AD87E7DA88AFE5062A3FF43BAF71
:10B6500085F8C522A088002A00F0A681531EDBB21F
:10B6600003EBC30301EB43032B445B8A01339BB21F
:10B6700003A9ADF80C30ADF80E60FFF725FB0028EC
:10B680003FF4D8AD002385F8C732A288014628468A
:10B69000FFF71EFB3A4BA2885A8003221A70C9E5B5
:10B6A0003A4B3B483B49C01AC008062388F804308F
:10B6B0000004AA5B40F002000190FBF78FFD0198A7
:10B6C0003549FBF7BBFC95F8C60298F8042029E63B
:10B6D00095F8C632294A85F8C772C3EB0311126880
:10B6E000B4F80480C3EB8103580005EB4303002A40
:10B6F0003FF49BAD234F9B78B978994200F04D8180
:10B70000012A7FF692ADB979994200F04F81022A61
:10B710003FF48BADB97A994200F07181032A3FF46E
:10B7200084ADB97B994200F07181042A3FF47DAD6C
:10B73000B97C994200F07F81052A3FF476ADBA7D4D
:10B740009A427FF472ADBA8A2B5A9A427FF46DAD59
:10B75000124B1F68002F3FF468AD7C22002103A824
:10B7600001F0D8F90123ADF80E8003A804968DF8F6
:10B770000C30B847B4F8048057E500BFA869002032
:10B78000AC690020B06C0020AC6C002098DA02009C
:10B79000C8DA0200F0D3020038D40200A069002009
:10B7A00095F8C632C94F0133DBB2C3EB0311C3EBCB
:10B7B000810105EB410257F8230085F8C6324FF0AE
:10B7C000000A85F8C5A245F8110082F804A00121FD
:10B7D0004046FFF777FA814600283FF42BAD95F8F5
:10B7E000C63285F8C7A2C3EB0312C3EB820305EB95
:10B7F0004302B978927891424FEA430300F07B818B
:10B80000012E3FF412ADB979914200F06E81022E03
:10B810003FF40BADB97A914200F07F81032E3FF4E3
:10B8200004ADB97B914200F07281042E3FF4FDAC6F
:10B83000B97C914200F06581052E3FF4F6ACB97DEC
:10B8400091427FF4F2ACBA8AEB5A9A427FF4EDACA3
:10B850009F4B1E68002E3FF4E8AC03A87C22002119
:10B8600001F058F9012303A8ADF80E80CDF810902F
:10B870008DF80C30B047D8E4734617E6434615E61A
:10B8800095F8C632934A85F8C762C3EB0311126874
:10B89000A688C3EB8103580005EB43031AB38B4F13
:10B8A0009B78B978994200F0DA80012A1BD9B979DE
:10B8B000994200F0EF80022A15D0B97A994200F03F
:10B8C000F080032A0FD0B97B994200F0F180042A5E
:10B8D00009D0B97C994200F00181052A03D0BA7DD4
:10B8E0009A4200F0EC807C4B03225E801A70A1E447
:10B8F00095F8C63275480133DBB2C3EB0311C3EBD5
:10B90000810105EB410250F8230085F8C63200277B
:10B9100085F8C57245F81100177101213046FFF70F
:10B92000D1F900283FF486AC014685F8C77232464B
:10B930002846FFF7CDF9D6E709F1FF33D900B5E581
:10B94000012385F8C73285F8C83281E495F8C632FC
:10B950005E4885F8C5620133DBB2C3EB0311C3EB6C
:10B96000810105EB410250F8230085F8C63245F805
:10B970001100167101213846FFF7A4F900283FF4A1
:10B9800059AC01463A4685F8C7622846FFF7A0F948
:10B99000514B03225F801A704CE4B7F800C0295A5B
:10B9A0008C457FF4ADAED3E6FB8861E635F800C088
:10B9B000B9888C457FF4ABAECAE635F801C038884B
:10B9C00084457FF414AC424B1F68002F3FF42DAC2C
:10B9D0007C22002103A801F09DF80123ADF80E8020
:10B9E000049603A88DF80C30B847B4F804801CE422
:10B9F00035F801C0B88884457FF4FFABE3E735F83C
:10BA000000C039898C457FF489AEA1E6B7F80CC037
:10BA1000295A8C457FF489AE9AE635F801C03889F9
:10BA200084457FF4F0ABCEE735F801C0B889844592
:10BA30007FF4EFABC7E7B7F810C0295A8C457FF405
:10BA40007BAE85E635F801C0388A84457FF4E7ABE4
:10BA5000B9E7BA8A6B5A9A427FF4E7ABB3E7B7F813
:10BA600000C0295A8C457FF420AF194B1F68002F66
:10BA70003FF439AF7C22002103A801F04BF80123E9
:10BA8000ADF80E6003A8CDF810808DF80C30B847E3
:10BA9000A68828E7B7F804C0295A8C457FF40BAF75
:10BAA000E3E7B7F808C0295A8C457FF40AAFDCE712
:10BAB000B7F80CC0295A8C457FF409AFD5E7BA8A8C
:10BAC0002B5A9A427FF40FAFCFE700BFB06C002033
:10BAD000A0690020A8690020AC690020B7F810C058
